:020000040000FA
:06000000AEEF07F0120054
:020006001200E6
:06000800F4EF04F0120009
:02000E000100EF
:0C001000AA0F0000000E000027000000F6
:04001C00BAA2FED7AF
:10002000BA86BAA6FED7010E00D01200D9CFE6FFDD
:10003000E1CFD9FFBAA2FED7FE0EDB50796EBAA28D
:10004000FED7010E00D0E552E7CFD9FF1200D9CF7D
:10005000E6FFE1CFD9FF030EE126FE0EDB50DF6E97
:10006000DF380F0B010B026EDF50E840E8403F0B1A
:10007000010B016EDF407F0B010B006E010EDF14E0
:10008000001801180218400D010EF3CFDBFFDF50FE
:10009000E00BE838E840010B026EDF380F0B010B74
:1000A000016EDF50E840E840E8401F0B010B006E96
:1000B000DF407F0B010B00180118021802E0000E50
:1000C00001D0010E800D020EF3CFDBFFDBCFE6FF88
:1000D000010EDB50E552E710DF12DF50006E030E19
:1000E000E15C03E200D0E16AE552E16E0050E552C6
:1000F000E7CFD9FF1200D9CFE6FFE1CFD9FF030E3A
:10010000E126010EDB6A020EDB6AFE0EDB503C08C4
:1001100011E0FE0EDB507D080DE0FE0EDB50E66EBA
:10012000D950010FE96EDACFEAFFE552E750EE6EE3
:10013000ED6A04D0010EDB6A020EDB6ADF6AFB0E99
:10014000DB50DF5C2BE2FC0EDBCFE9FFDB2AFD0E90
:10015000DBCFEAFF01E3DB2AEF50006E016AD950E2
:10016000010FE96EDACFEAFF0050EE260150ED22D2
:10017000D950010FE96EDACFEAFFFF0ED880EE54B6
:10018000000EED5409E2D950010FE96EDACFEAFF13
:10019000FF0EEE5E000EED5ADF2AD1D7010EDB1CFA
:1001A000006E030EE15C03E200D0E16AE552E16E0D
:1001B0000050E552E7CFD9FF1200D9CFE6FFE1CFDB
:1001C000D9FF050EE126010EDB6A020EDB6A030E83
:1001D000DB6A040EDB6AFE0EDB503C0811E0FE0E0B
:1001E000DB507D080DE0FE0EDB50E66ED950030FAC
:1001F000E96EDACFEAFFE552E750EE6EED6A04D021
:10020000030EDB6A040EDB6ADF6AFB0EDB50DF5C89
:100210002BE2FC0EDBCFE9FFDB2AFD0EDBCFEAFF92
:1002200001E3DB2AEF50006E016AD950030FE96E3B
:10023000DACFEAFF0050EE260150ED22D950030F2D
:10024000E96EDACFEAFFFF0ED880EE54000EED54CF
:1002500009E2D950030FE96EDACFEAFFFF0EEE5E36
:10026000000EED5ADF2AD1D7F90EDBCF02F0FA0EDD
:10027000DBCF03F0030EDB500224006E040EDB50D4
:100280000320016E010E00C0DBFF020E01C0DBFF88
:10029000D950010FE96EDACFEAFFFF0EEE1801E147
:1002A000ED5003E1010E03D002D0000E00D0006E2D
:1002B000050EE15C02E2E16AE552E16E0050E552B2
:1002C000E7CFD9FF1200D9CFE6FFE1CFD9FF030E68
:1002D000E126FD0EDBCFE9FFFE0EDBCFEAFFEF509C
:1002E000FF0808E0FD0EDBCFE9FFFE0EDBCFEAFFE3
:1002F000EF5002E1000E85D091DE000902E1000E10
:1003000080D0550EE66E92DEE552000902E1000E45
:1003100078D0FD0EDBCFE9FFFE0EDBCFEAFFEF501A
:10032000E66E95DEE552DF6EDFCFE6FF7FDEE5525B
:10033000000902E1000E65D0FC0EDB5060E0010E0A
:10034000DB6AFD0EDBCFE9FFFE0EDBCFEAFF090E15
:10035000E926000EEA22EF50F36E010EDBCFF4FF28
:10036000F350F45C1EE2FD0EDBCFE9FFFE0EDBCFA7
:10037000EAFFEE52E9CF00F0EACF01F0010EDB50C8
:100380000F010024E96E000E0120EA6EEF50E66EC8
:100390004DDEE552000902E1000E33D0010EDB2AEA
:1003A000D0D7FD0EDBCFE9FFFE0EDBCFEAFF090E53
:1003B000E926000EEA22EF50E66EFD0EDBCFE9FFE4
:1003C000FE0EDBCFEAFFEE52E9CF00F0EACF01F0FC
:1003D00000C0E6FF01C0E6FFDFCFE6FF8CDEE5529E
:1003E000E552E552E552E76E020EE7CFDBFFDBCFC9
:1003F000E6FF1CDEE552000902E1000E02D0010E0C
:1004000000D0006E030EE15C02E2E16AE552E16EAB
:100410000050E552E7CFD9FF1200D9CFE6FFE1CF78
:10042000D9FF030EE126FD0EDBCFE9FFFE0EDBCF89
:10043000EAFFEF50E66E0BDEE552E76E020EE7CF05
:10044000DBFFDF6AFD0EDBCFE9FFFE0EDBCFEAFF4D
:10045000090EE926000EEA22EF50DF5C1CE2FD0ED9
:10046000DBCFE9FFFE0EDBCFEAFFEE52E9CF00F073
:10047000EACF01F0DF500F010024E96E000E0120E9
:10048000EA6EEF50E66ED2DDE552000902E1000EA1
:1004900033D0DF2AD7D7FD0EDBCFE9FFFE0EDBCF4F
:1004A000EAFF090EE926000EEA22EF50E66EFD0E85
:1004B000DBCFE9FFFE0EDBCFEAFFEE52E9CF00F023
:1004C000EACF01F000C0E6FF01C0E6FF020EDBCF7D
:1004D000E6FF11DEE552E552E552E552E76E010E08
:1004E000E7CFDBFFDBCFE6FFA1DDE552000902E14C
:1004F000000E02D0010E00D0006E030EE15C02E29D
:10050000E16AE552E16E0050E552E7CFD9FF1200F3
:10051000D9CFE6FFE1CFD9FFFD0EDBCFE9FFFE0E1D
:10052000DBCFEAFF0A0EE926000EEA22EF500C0AA2
:1005300001E184D0070A6DE0080A3FE0070A3DE0C8
:10054000010A3BE0030A39E0010A37E00F0A35E00F
:10055000010A33E0030A31E0080A1EE0030A0EE054
:10056000010A01E06DD00E01265102E0000E75D0A7
:100570000E01255102E0000E70D062D00E0126510E
:1005800002E1000E6AD0550E0E01255D02E0000E5C
:1005900064D00E01266B54D00E01265102E1000EEC
:1005A0005CD025CE3DFEFD0EDBCFE9FFFE0EDBCF9E
:1005B000EAFF3DCEEFFF266B43D00E01265102E14C
:1005C000000E4BD025CE3DFEFD0EDBCFE9FFFE0E2B
:1005D000DBCFEAFFEE52E9CF00F0EACF01F0FD0EEB
:1005E000DBCFE9FFFE0EDBCFEAFF0A0EE926000EA5
:1005F000EA22EF50FD0F026E036A02BE036800504C
:100600000224E96E01500320EA6E3DCEEFFF266B17
:1006100017D00E01265102E1000E1FD025CE3DFE5F
:10062000FD0EDBCFE9FFFE0EDBCFEAFF090EE92668
:10063000000EEA223DCEEFFF266B02D0000E0DD059
:10064000FD0EDBCFE9FFFE0EDBCFEAFF0A0EE92647
:10065000000EEA22EF2A010E00D0E552E7CFD9FFC3
:100660001200030E0E013B5D16E1200EE66EEFDC7C
:10067000E5520E01315D0FE133D8270EE66E0E0E06
:10068000E66ECBDEE552E552000903E0010E27D00D
:1006900002D0000E24D00C0E0E013B5D1EE1100EA8
:1006A000E66ED5DCE5520E01315D13E13A51E66E9E
:1006B000E66A080EE66E320EE66E0E0EE66E31CE7D
:1006C000E6FF7BDD006E060EE15E0050000901E0F2
:1006D0000FD80E013B6B010E02D0000E00D01200AD
:1006E0000E01276B010E286F020E296F306F12006A
:1006F0000E01010E326F325100E0020E336F3351A2
:0407000000E0120003
:0C070400F26A9D6AA06AA36AB66A766A6F
:10071000FC0E9314936EE30E9414946E12009B8C53
:100720008F0ED3147009D36E1200D9CFE6FFE1CF3C
:10073000D9FF020EE126DE6ADD6AFC0EDB500008FE
:1007400010E2FD0EDBCFE9FFDB2AFE0EDBCFEAFF76
:1007500001E3DB2AEF50DE26000EDD22FC0EDB0675
:10076000ECD7DECF00F0DDCF01F000C0F3FF01C019
:10077000F4FF020EE15C03E200D0E16AE552E16EB3
:10078000E552E7CFD9FF1200D9CFE6FFE1CFD9FF7D
:10079000040EE126E66E01EC07F0E552F3CFDEFF32
:1007A000F4CFDDFFE66A01EC07F0E552020EF3CF6D
:1007B000DBFF030EF4CFDBFFD9CFE9FFDACFEAFF8F
:1007C0004C0ED880EE54040EED5422E2D950020FA4
:1007D000E96EDACFEAFF4C0ED880EE54040EED54E9
:1007E00017E2DECF00F0DDCF01F0AC0E005C0D0EA5
:1007F00001580DE2020EDBCF02F0030EDBCF03F057
:10080000AC0E025C0D0E035802E2010E03D002D0C2
:10081000000E00D0006E040EE15C02E2E16AE552D7
:10082000E16E0050E552E7CFD9FF1200D9CFE6FFC5
:10083000E1CFD9FF070EE126DE6ADD6A020EDB6A30
:10084000030EDB6A040EDB6A050EDB6A060EDB6A4A
:100850009BDFE76E060EE7CFDBFF140E0E01235D74
:1008600001E085D0060EDB5001E181D0236B22052B
:1008700001E07DD0226B1D0EE66E000EE66E0E0EC0
:10088000E66E53DFE552E552E552F3CFDEFFF4CFDB
:10089000DDFF420E0E01005D69E14D0E015D66E176
:1008A0001E51006E016ADECF02F0DDCF03F0080EAC
:1008B0000F0B05E0D89003320232E806FBE102504C
:1008C000001802E10350011851E10E011F51046E9E
:1008D000056ADECF06F0DDCF07F00001076A06509B
:1008E000041802E10750051841E10E01212B2151A6
:1008F0001D0801E2216B0651026E036A02C003F07B
:10090000026A075100010224006E000E0320016EEE
:10091000020E00C0DBFF030E01C0DBFF0E01085119
:10092000026E036A02C003F0026A09510001022448
:10093000006E000E0320016E040E00C0DBFF050EEA
:1009400001C0DBFF21CEE6FF020EDBCFE6FF030E88
:10095000DBCFE6FF040EDBCFE6FF050EDBCFE6FFC5
:10096000F0EC05F0006E050EE15E0050AB88070E5E
:10097000E15C02E2E16AE552E16EE552E7CFD9FFC0
:100980001200D9CFE6FFE1CFD9FF020EE126BADE91
:1009900078EC05F038EC07F04FEC07F0BCEC07F012
:1009A000F5EC06F0D08EC00EF210F26E82868192C7
:1009B00082888284140E0E01235D0BE1236BE66AAC
:1009C000270EE66E0E0EE66E63EC01F0E552E55280
:1009D000E552F0D7020EE15C02E2E16AE552E16E17
:1009E000E552E7CFD9FF1200DACFE4FFE2CFDAFF1A
:1009F000E9CFE4FFEACFE4FFF6CFE4FFF7CFE4FF6F
:100A0000F5CFE4FFF3CFE4FFF4CFE4FFFACFE4FF48
:100A100000EE08F0020EE80403E3EECFE4FFFBD79C
:100A200000EE00F0080EE80403E3EECFE4FFFBD78E
:100A3000E65277A006D0010E0E013E6F3F6B779015
:100A4000609EF2A40BD0F2940E01232B130EE66EDF
:100A50003D0EE66E66EC07F0E552E5529EAA1CD00C
:100A60009E9A0E012051202BEA6A000FE96E0E0EAD
:100A7000EA22AECFEFFF420E005D03E1010E246FCC
:100A800001D02007245108E020511F0805E2206B07
:100A9000010E226F246BAB98A4AA06D07ACF25FE54
:100AA0000E01010E266FA49AE55200EE07F0080E23
:100AB000E80403E3E5CFEDFFFBD700EE09F0020EFB
:100AC000E80403E3E5CFEDFFFBD7E5CFFAFFE5CF81
:100AD000F4FFE5CFF3FFE5CFF5FFE5CFF7FFE5CF77
:100AE000F6FFE5CFEAFFE5CFE9FFE5CFDAFF11003A
:100AF0000001BF0E6A6F600E6B6F800E9310BF0B0C
:100B0000936E800E6F6E6E50E00BE842E842E84252
:100B1000E842E842040801E0F6D7726A210E706EDE
:100B20000E01436B980E446F410E456F7D6B200E96
:100B3000606E0F01306B6AC062FFE00E00016B1542
:100B4000616E080E656E666A676A686A696A6A6AD3
:100B50006B6A6C6A6D6A0E01F869E00EF96F010E3E
:100B6000466FBF0EE06F600EE16F6F6A6E50E00B74
:100B7000E842E842E842E842E842000901E1F6D7EB
:100B8000776A7650766E7850786E77907690788027
:100B9000609E76801200D9CFE6FFE1CFD9FFF70E35
:100BA0000F012015206FBC0E216F400E226F080E22
:100BB000256FFE0EDBCF26FFFD0EDBCF27FFFC0EE1
:100BC000DBCF28FFFB0EDBCF29FF2A6B2B6B2C6BB7
:100BD0002D6B208720B7FED7E552E7CFD9FF120053
:100BE000D9CFE6FFE1CFD9FFF70E0F012015206F17
:100BF000BC0E216F400E226F080E256F2669FA0E7B
:100C0000DB50E8243E0B276FFB0EDBCF02F0FC0E1F
:100C1000DBCF03F0060ED89002360336E804FBE182
:100C2000C00E0216000E03160F012751000102101C
:100C3000006E03C001F000C027FFFB0EDBCF00F009
:100C4000FC0EDBCF01F0D89001320032D890013297
:100C5000003200500F01266FFD0EDBCF00F0FE0EBC
:100C6000DBCF01F0070ED89000360136E804FBE137
:100C7000800E00140F01296FFD0EDBCF00F0FE0E79
:100C8000DBCF01F0D890013200320050286FFD0E0A
:100C9000DBCF00F0FE0EDBCF01F001C000F0016AF7
:100CA000D8900032010E001427132A6B2B6B2C6B8B
:100CB0002D6B208720B7FED7E552E7CFD9FF120072
:100CC000D9CFE6FFE1CFD9FFF70E0F012015206F36
:100CD000BC0E216F400E226F080E256FFE0EDB50FA
:100CE000400DF350C00B266FFD0EDB40E8403F0B7C
:100CF0003F0B2613FD0EDB50400DF350C00B276F4A
:100D0000FA0EDB50E8243E0B2713FC0EDB407F0B72
:100D1000010B2713FC0EDB50800DF350800B286F66
:100D2000FB0EDB407F0B7F0B2813FB0EDB50800D8F
:100D3000F350800B296F2A6B2B6B2C6B2D6B20874C
:0C0D400020B7FED7E552E7CFD9FF120024
:040D4C000E0EF66E23
:100D5000000EF76E000EF86E00010900F550656F89
:100D60000900F550666F03E1656701D03DD00900C9
:100D7000F550606F0900F550616F0900F550626F22
:100D800009000900F550E96E0900F550EA6E090006
:100D900009000900F550636F0900F550646F090000
:100DA0000900F6CF67F0F7CF68F0F8CF69F060C0C0
:100DB000F6FF61C0F7FF62C0F8FF0001635302E174
:100DC000645307E00900F550EE6E6307F8E264072C
:100DD000F9D767C0F6FF68C0F7FF69C0F8FF0001E8
:0A0DE0006507000E665BBFD7120026
:060DEA000F01589BC26AD4
:100DF000300EC16EA00EC06E9E9C9D9C9268806A53
:100E00001200D9CFE6FFE1CFD9FF020EE126FE0E98
:100E1000DB50C26EC280050EE66ECAEC07F0E552EA
:100E2000C282C2B2FED7C450026E036A02C003F08F
:100E3000026AC35000010224006E000E0320016EFE
:100E400000C0DEFF01C0DDFFC290DECF00F0DDCFCD
:100E500001F000C0F3FF01C0F4FF020EE15C03E209
:100E600000D0E16AE552E16EE552E7CFD9FF12000A
:100E7000040EAC6E900EAB6E800E9410946EBF0E8E
:100E80009414946E080EA76E7D6ACF0EAF6E9E6AA4
:100E9000200E9D109D6E9F8AAB88AC8A1200040EB6
:100EA000BA6E900EA66E800E9310936EBF0E9314C2
:100EB000936E080EB96E7C6ACF0E7B6EA46A200E0C
:0C0EC000A310A36EA58AA688BA8A1200AF
:040ECC00D9CFE6FF95
:100ED000DACFE6FFE1CFD9FFE2CFDAFFE652E65202
:100EE000FC0EDBCFDEFFDBCFDDFF010EDB50D76E6C
:100EF000DF50D66EE552E552E552E5CFDAFFE7CF97
:040F0000D9FF120003
:0C0F0400D9CFE6FFDACFE6FFE1CFD9FF3E
:100F1000E2CFDAFFFD0EDB507F0BD56ED76AD66AC3
:100F2000F294FD0EDBAE02D0F28A01D0F29AD58E99
:0C0F3000E552E5CFDAFFE7CFD9FF120051
:040F3C00410EF36E01
:100F400000EE00F00E0E01D81200EA6002D0EE6A48
:0C0F5000FCD7F350E9601200EE6AFCD7F9
:040F5C001DEE00F096
:100F60002DEE00F0F86A099CA6EC06F003EC00F008
:080F7000C1EC04F0FBD71200F4
:080F7800900EE66E82EC07F01A
:100F8000E552130EE66E3D0EE66E66EC07F0E55296
:040F9000E552120014
:0C0F9400FF0EE350E84E1200000000D0F9
:0A0FA00000D000D0E82EFAD71200AE
:060FAA0000000000000041
:100FB0000000000000000000000000000000000031
:100FC0000000000000000000000000000000000021
:010FD0000020
:020000040030CA
:0100000011EE
:01000100C33B
:0100020027D6
:010003002CD0
:010005008971
:010006009069
:010008000FE8
:01000900C036
:01000A000FE6
:01000B00E014
:01000C000FE4
:01000D0040B2
:00000001FF
