:020000040800F2
:10000000A807002099580008550500085705000862
:100010005B0500085F05000863050008000000009C
:10002000000000000000000000000000670500085C
:1000300069050008000000006B0500086D05000858
:10004000B3580008B3580008B3580008B358000864
:10005000B3580008B3580008B35800082B0800082C
:1000600091080008B3580008B3580008B3580008B6
:10007000B3580008B3580008B3580008B358000834
:10008000B3580008B3580008B3580008B358000824
:10009000B3580008B3580008B3580008B358000814
:1000A000B3580008B3580008B3580008B358000804
:1000B000B3580008B358000861550008B358000849
:1000C000B3580008B3580008B3580008B3580008E4
:1000D000B35800080F580008B3580008B358000878
:1000E000B3580008B3580008B3580008B3580008C4
:1000F000B3580008B3580008B3580008B3580008B4
:10010000B3580008B3580008B3580008B3580008A3
:10011000B3580008B3580008B3580008B358000893
:10012000B3580008B3580008B3580008B358000883
:1001300000F002F800F03FF80AA090E8000C8244BA
:100140008344AAF10107DA4501D100F034F8AFF297
:10015000090EBAE80F0013F0010F18BFFB1A43F0A5
:1001600001031847BCA20000DCA20000103A24BF23
:1001700078C878C1FAD8520724BF30C830C144BF0C
:1001800004680C607047000000230024002500264E
:10019000103A28BF78C1FBD8520728BF30C148BFEA
:1001A0000B607047782907F0B784002070471FB5AF
:1001B0001FBD10B510BD07F079FD1146FFF7F7FF21
:1001C00000F0A4F807F097FD03B4FFF7F2FF03BCBB
:1001D00005F0C2FA2DE9FC47102001231A465A21E6
:1001E0000090862005F007F8C448007850B9C4A0F4
:1001F00010210B46C822CDE900106E21962005F093
:10020000B2F809E0BFA010210B46C822CDE90010CA
:100210006E21962005F0A7F8BB480078BB4908700E
:10022000002010210223CDE90010B8480278822175
:100230007E2005F02AF8B6480088B6490988401A99
:1002400042F210714843B449098890FBF1F0B34978
:100250000880002010210323CDE90010AF48028858
:100260004FF487711E2005F010F8AC48008808F0A4
:1002700056F90646AA4AAB4B07F0CCFF044607F0F6
:10028000BBFD804608F01EF9A74908800020102118
:100290000223CDE90010A448028896218E2004F0A4
:1002A000F4FF802010210623CDE900109A4802882F
:1002B0004FF491711E2004F0E8FFBDE8FC8708B5FB
:1002C0001020012303225A210090862004F093FF7E
:1002D00008BD1CB51020012302225A21009086205F
:1002E00004F089FF91490978914A12788818C1175A
:1002F00000EB91718C108020102102232246CDE961
:100300000010BE216E2004F0C0FF1CBD4FF4A060A1
:1003100005F0E2FA4FF4E13005F02DFA00F030FA82
:1003200007F06EFB05F0C2F847214CF24F3005F0A4
:1003300064F840F267114CF24F3005F07CF840F25F
:1003400067114CF24F3005F08BF81F207949088077
:100350003EE079480078012804D0022805D003281F
:1003600009D105E0FFF736FF08E0FFF7B2FF05E02F
:10037000FFF7A5FF02E0FFF72DFF00BF00BF6F48AA
:10038000007818B16E4800886E4908806E48007881
:10039000F0B16A480078D8B1694800886B49088094
:1003A000084600886749098888420ADA6548008853
:1003B0004CF25031081A65490988084456490880AA
:1003C00006E0624800885F490988401A524908805F
:1003D000BFE708B54FF6FF707E23F4226E21009030
:1003E000962004F024FD4FF6FF709223DC22822138
:1003F00000907E2004F01BFD4FF6FF70A623EC2238
:10040000962100908E2004F012FD4FF6FF70CE234F
:10041000CC22BE2100906E2004F009FD08BD10B56D
:1004200005F05EF90446002C62D0522C59D00EDC47
:10043000382C3ED006DC102C35D0182C27D0302C90
:1004400055D11EE0422C40D04A2C50D143E07A2CAA
:1004500023D004DC5A2C32D0682C48D10DE0902CEB
:1004600005D0C22C43D10A20394908703FE00B2047
:1004700037490870FFF7ADFF39E0002034490870B4
:1004800035E00120324908702B4908702FE0022026
:100490002F4908702849087029E003202C4908706A
:1004A0002549087023E00420294908702249087072
:1004B0001DE00520264908701F49087017E0062036
:1004C000234908701C49087011E007202049087072
:1004D000194908700BE008201D490870164908707A
:1004E00005E009201A4908701349087000BF03E0AD
:1004F00042F2107007F0B1FA10BD00000B000020AE
:1005000031300000303100002A00002009000020B6
:10051000340000203200002030000020380000208D
:10052000A03715A930B6503F360000202800002023
:10053000290000203A0000200A0000200D000020C1
:1005400004000020100000200E00002012000020F7
:1005500008000020704700BFFEE700BFFEE700BFB5
:10056000FEE700BFFEE770477047704710B50A48C6
:100570000088401C0849088008460088B0F57A7F4A
:1005800006D10020088005480068401C0349086027
:1005900007F06DFA10BD00000000002004000020EC
:1005A0000CB50020019000906C48006840F4803049
:1005B0006A49086000BF6948006800F40030009094
:1005C0000198401C0190009818B90198B0F5A06FEF
:1005D000F1D16248006800F4003010B101200090B1
:1005E00001E0002000900098012843D15C48006899
:1005F00040F010005A4908600846006820F00300E7
:1006000008600846006840F00200086053484068EF
:10061000524948600846406848600846406840F4CF
:10062000806048600846406820F47C1048600846B6
:10063000406840F4E81048600846006840F0807068
:10064000086000BF4548006800F000700028F9D03D
:100650004248406820F0030040494860084640682E
:1006600040F00200486000BF3C48406800F00C00C9
:100670000828F9D10CBD10B5FFF792FF10BD10B5D9
:100680003648006840F00100344908600846406878
:1006900034490840314948600846006832490840FA
:1006A0002E4908600846006820F48020086008464B
:1006B000406820F4FE0048604FF41F008860FFF798
:1006C000DAFF4FF000602949086010BD10B5002125
:1006D00000200022214B5B6803F00C0121B10429AA
:1006E00006D0082928D107E0214B224C236027E0BF
:1006F0001F4B204C236023E0184B5B6803F4701001
:10070000164B5B6803F48032022303EB904022B95E
:10071000194B4343174C23600DE0104B5B6803F407
:10072000003323B1144B4343124C236003E0104BBE
:100730004343104C236003E00D4B0E4C236000BF7D
:1007400000BF064B5B68C3F303130C4CE15C094B21
:100750001B68CB40074C236010BD00000010024016
:10076000002002400000FFF8FFFFF6FE08ED00E069
:1007700000127A001400002000093D00180000203B
:100780001FB50121080205F031FC0121084605F0E2
:100790002DFC0E20ADF8000048208DF803006946BE
:1007A000534805F067F90121062005F079FA022087
:1007B000029000208DF80C000C208DF80D00012017
:1007C0008DF80E0002A805F087FE0221062005F034
:1007D00067FA0420029000208DF80C000C208DF8A0
:1007E0000D0001208DF80E0002A805F075FE07200F
:1007F0008DF8040002208DF8050001208DF8060018
:100800008DF8070001A805F06CF808208DF80400A9
:1008100001208DF8050002208DF8060001208DF8DA
:10082000070001A805F05DF81FBD1CB5022005F00A
:10083000B9FE01282BD1022005F0C5FE01202D496B
:1008400008702D480078012801D12C4908702A48E9
:10085000007802281BD10221254805F09EF9B0B985
:1008600000BF0221224805F098F90028F9D0244859
:100870000078401C22490870802010210223CDE915
:1008800000101F480278E6211E2004F0FEFC1CBD6B
:100890001CB5042005F086FE012828D1042005F0AF
:1008A00092FE002013490870012016490870124872
:1008B000007802281BD104210D4805F06EF9B0B96B
:1008C00000BF04210A4805F068F90028F9D00E4855
:1008D0000078401C0C490870802010210223CDE9CB
:1008E000001009480278E621642004F0CEFC1CBD0B
:1008F000002001400B0000200A0000200D00002015
:10090000280000200E00002029000020F749088060
:100910007047F649891C0880704708B5F348801C69
:1009200000880090BDF8000008BDF04A1080921CBD
:100930001180704710B504462046FFF7E7FF0520F9
:1009400007F08BF8FFF7E9FF10BDE9480089E74998
:1009500008807047E549891C0880704730B501461A
:1009600001F01F04C1F34513CA0AE50205EB431564
:100970001544A8B230BD00BF0100A0F10102D0B201
:10098000FAD1704710B503460C46D948808849F221
:100990004131884205D0D648808845F210318842DE
:1009A00014D1D3494889FFF7B1FF1812FFF7B1FFFF
:1009B000D8B2FFF7AEFFCE498889FFF7A7FF201214
:1009C000FFF7A7FFE0B2FFF7A4FFABE0C8488088BD
:1009D00046F6040188421DD1C5488079012804D11A
:1009E000C3480088401EC01A83B2C1494889FFF736
:1009F0008DFF1812FFF78DFFD8B2FFF78AFFBC49B1
:100A00008889FFF783FF2012FFF783FFE0B2FFF72B
:100A100080FF87E0B648808841F66311884247D15D
:100A2000B3488079A8B9B2480088401EC01A83B282
:100A3000AF494889FFF76AFF0020FFF76AFF0020EF
:100A4000FFF767FF1812FFF764FFD8B2FFF761FFE7
:100A500016E0A7494889FFF759FF1812FFF759FF19
:100A6000D8B2FFF756FFA2490988491EC1F30F20EB
:100A7000FFF74FFF9E490978491EC8B2FFF749FFAB
:100A80009B498889FFF742FF2012FFF742FFE0B23F
:100A9000FFF73FFF96494988491EC1F30F20FFF732
:100AA00038FF93498978491EC8B2FFF732FF39E011
:100AB0008F48808845F21051884220D18C4948895E
:100AC000FFF724FF1812FFF724FF89494989491CC1
:100AD00088B2FFF71BFFD8B2FFF71BFF8449888954
:100AE000FFF714FF2012FFF714FF81498989491C81
:100AF00088B2FFF70BFFE0B2FFF70BFF12E07C4874
:100B00008079012804D17A480088401EC01A83B237
:100B1000774948891946FFF708FF754988892146B2
:100B2000FFF703FF10BD2DE9F04105460E460024F6
:100B30000027A0466E480088A84203DD6C48408824
:100B4000B04202DC0020BDE8F08131462846FFF7C4
:100B500019FF6748808849F24131884211D06448C2
:100B6000808846F6040188420BD06148808845F2AF
:100B70001031884205D05E48808841F66311884272
:100B800003D12E20FFF7C2FE0DE05948808845F2C0
:100B90001051884204D14FF43850FFF7B7FE02E0FD
:100BA0002220FFF7B3FE5248808849F22031884264
:100BB00002D10220FFF7DFFEFFF7AFFE04464C48EC
:100BC000808841F66311884201D12046BBE70220AC
:100BD000FFF7D1FEFFF7A1FE04464548808849F2A1
:100BE000413188420BD04248808845F2103188421A
:100BF00005D03F48808845F2105188420AD1022032
:100C0000FFF7B9FEFFF789FE8046E7B24FF6FF70A7
:100C100000EA07273648808849F22531884216D0F5
:100C20003348808844F23551884210D0304880885B
:100C3000091F88420BD02E4880884BF2055188420C
:100C400005D02B4880884CF20551884201D12046BE
:100C500079E72748808849F2413188420BD02448FF
:100C6000808845F21031884205D02148808845F2BD
:100C70001051884207D1E012C002B91240EA411077
:100C800040EAE8205FE72046FFF768FE5BE700B533
:100C90001748808849F24131884211D01448808831
:100CA00046F6040188420BD01148808845F2103185
:100CB000884205D00E48808841F66311884203D1EE
:100CC0002920FFF723FE0FE00948808845F21051E4
:100CD000884204D14FF42450FFF718FE04E040F29C
:100CE00073110720FFF721FE00BD0000FE07006C16
:100CF0006C00002000B5FD48808849F241318842EF
:100D000011D0FA48808846F6040188420BD0F74893
:100D1000808845F21031884205D0F448808841F639
:100D20006311884203D12820FFF7F0FD0EE0EF4861
:100D3000808845F21051884204D14FF42050FFF7CB
:100D4000E5FD03E000210720FFF7EFFD00BD70B5D2
:100D5000044600230026E548807901280BD1E348AA
:100D6000808846F60401884205D0E048808841F634
:100D70006311884208D1DD488079F0B9DB4880886A
:100D800041F66311884218D1082C15D2DFE804F02F
:100D90000406080A0C0E101206240DE007240BE0CE
:100DA000042409E0052407E0012405E0002403E011
:100DB000032401E0022400BF00BFCC48808849F230
:100DC0004131884217D0C948808846F604018842DC
:100DD00011D0C648808845F2103188420BD0C348F4
:100DE000808845F21051884205D0C048808841F67D
:100DF000631188427ED1082C1CD2DFE804F004067F
:100E0000090C0F12151800BF14E043F0800311E025
:100E100043F040030EE043F0C0030BE043F0200337
:100E200008E043F0600305E043F0A00302E043F074
:100E3000E00300BF00BFAD48808845F210518842F2
:100E400002D14FF4585600E03626A848808845F273
:100E5000103188420DD0A548808845F21051884253
:100E600007D0A248808841F66311884201D043F040
:100E700008039E48808846F60401884201D143F069
:100E8000020319463046FFF750FD9848808841F626
:100E9000631188421DD003F0200068B19348008898
:100EA00092494988884214DA9048058840888F49D9
:100EB0000880084645800CE08C4800888B494988AA
:100EC000884206DD894805884088884908800846A8
:100ED00045808648808845F21051884254D1834924
:100EE0004889FFF713FD0020FFF713FD7F4949896B
:100EF000491C00E077E088B2FFF708FD0020FFF70B
:100F000008FD7A494989891C88B2FFF7FFFC7749B7
:100F10000988491EC1F30F20FFF7FBFC734949897B
:100F2000C91C88B2FFF7F2FC70490978491EC8B2A3
:100F3000FFF7EFFC6D498889FFF7E8FC0020FFF719
:100F4000E8FC6A498989491C88B2FFF7DFFC002068
:100F5000FFF7DFFC65498989891C88B2FFF7D6FC59
:100F600062494988491EC1F30F20FFF7D2FC5F494F
:100F70008989C91C88B2FFF7C9FC5C498978491E78
:100F8000C8B2FFF7C6FC55E058494889FFF7BEFCD8
:100F90000020FFF7BEFC0020FFF7BBFC5349098887
:100FA000491EC1F30F20FFF7B4FC50490978491ED0
:100FB000C8B2FFF7AEFC4D498889FFF7A7FC0020B7
:100FC000FFF7A7FC0020FFF7A4FC48494988491E09
:100FD000C1F30F20FFF79DFC44498978491EC8B230
:100FE000FFF797FC26E0082C1CD2DFE804F004078A
:100FF0000A0D0F12151843F0300313E043F01003ED
:1010000010E043F020030DE000BF0BE043F0380395
:1010100008E043F0280305E043F0180302E043F042
:10102000080300BF00BF032643F48053194630462F
:10103000FFF77BFC70BD30B504460D4629462046BF
:10104000FFF7A0FCFFF781FC2948008829490880A8
:1010500030BD30B503460C4615462448808849F219
:101060004131884205D02148808845F210318842BC
:1010700014D11E494889FFF749FC1812FFF749FCB3
:10108000D8B2FFF746FC19498889FFF73FFC2012C8
:10109000FFF73FFCE0B2FFF73CFC93E01348808889
:1010A00045F21051884227D110494889FFF72EFC9C
:1010B0001812FFF72EFC0D494989491C88B2FFF729
:1010C00025FCD8B2FFF725FC08498889FFF71EFCEC
:1010D0002012FFF71EFC05498989491C88B2FFF7D9
:1010E00015FCE0B2FFF715FC6CE000006C0000207E
:1010F0003A0000200008006CFC48808841F663112B
:10110000884228D1F948807920B9F8480088401EE3
:10111000C01A83B2F5494889FFF7F8FB1812FFF7A8
:10112000F8FBD8B2FFF7F5FB1812FFF7F2FBD8B2C5
:10113000FFF7EFFBED498889FFF7E8FB2012FFF787
:10114000E8FBE0B2FFF7E5FB2012FFF7E2FBE0B2BD
:10115000FFF7DFFB36E0E548808846F60401884269
:101160001DD1E2488079012804D1E0480088401E62
:10117000C01A83B2DD494889FFF7C8FB1812FFF790
:10118000C8FBD8B2FFF7C5FBD8498889FFF7BEFB7B
:101190002012FFF7BEFBE0B2FFF7BBFB12E0D34823
:1011A0008079012804D1D1480088401EC01A83B23A
:1011B000CE4948891946FFF7B8FBCC4988892146B2
:1011C000FFF7B3FBC9480089C9490880881C05801E
:1011D00030BD2DE9F0470446BE20FFF797FB052000
:1011E000FFF797FB204607F09AF907464FF0663263
:1011F000C04B07F0A7F9054607F064F91FFA80F91C
:101200004846FFF786FB0120FFF783FBFF20FFF72F
:1012100080FB0020FFF77DFB0020FFF77AFBBDE895
:10122000F08710B50446002C66D1B0498871F020D3
:1012300008804FF4A07048800846808849F2413108
:1012400088420BD0A948808846F60401884205D020
:10125000A648808845F2103188421AD12C20A34933
:1012600008812A2048812B2088810846808846F6FC
:101270000401884205D09D48808845F2103188429B
:1012800006D14FF4A070994908804FF4F07048805F
:10129000A1E09648808845F21051884210D14FF461
:1012A0003050924908814FF4285048814FF42C5017
:1012B00088814FF4F07008804FF4487048808AE0CD
:1012C0008A48808841F6631188420DD12C208749D5
:1012D00008812B2048812A2088814FF4F0700880F3
:1012E0004FF44870488076E0222080490881202011
:1012F0004881212088816EE001207C4988714FF46B
:10130000A0700880F02048800846808849F241316A
:10131000884205D07548808845F21031884207D14F
:101320002C20724908812A2048812B2088813FE0A7
:101330006E48808846F60401884207D12C206B490C
:1013400008812B2048812A20888131E067488088E5
:1013500045F21051884210D14FF430506349088152
:101360004FF4285048814FF42C5088814FF4487036
:1013700008804FF4F07048801AE05C48808841F69D
:10138000631188420DD12C20584908812A204881B8
:101390002B2088814FF4487008804FF4F07048800B
:1013A00006E022205149088121204881202088819F
:1013B0004E48808846F60401884205D04B48808814
:1013C00045F21031884206D14FF4F0704749088049
:1013D0004FF4A07048800020FFF7B9FC10BD2DE944
:1013E000F04F86B004460D469046994604EB08003F
:1013F000401E86B205EB0900401E87B23B4880883C
:1014000049F24131884215D03848808845F2103180
:1014100088420FD03548808846F60401884209D0BA
:1014200032488079012826D13048808841F66311FE
:10143000884220D12D494889FFF768FA2012FFF72A
:1014400068FAE0B2FFF765FA3012FFF762FAF0B21D
:10145000FFF75FFA25498889FFF758FA2812FFF746
:1014600058FAE8B2FFF755FA3812FFF752FAF8B215
:10147000FFF74FFABEE01D48808841F663118842AD
:101480003AD11A480088A0EB0800001B84B205EB93
:101490000900401E1FFA80F914494889FFF736FAFF
:1014A0002012FFF736FAE0B2FFF733FA04EB080137
:1014B000491EC1F30F20FFF72CFA04EB0801491E67
:1014C000C8B2FFF726FA09498889FFF71FFA2812E0
:1014D000FFF71FFAE8B2FFF71CFA4FEA2920FFF7DF
:1014E00018FA09F0FF00FFF714FA83E06C000020FF
:1014F000FE07006C66660440FE48808845F2105185
:10150000884244D1FB494889FFF700FA2012FFF7CF
:1015100000FAF8494989491C88B2FFF7F7F9E0B2A7
:10152000FFF7F7F9F3494989891C88B2FFF7EEF90B
:101530003012FFF7EEF9EF494989C91C88B2FFF76D
:10154000E5F9F0B2FFF7E5F9EA498889FFF7DEF936
:101550002812FFF7DEF9E7498989491C88B2FFF7AD
:10156000D5F9E8B2FFF7D5F9E2498989891C88B233
:10157000FFF7CCF93812FFF7CCF9DE498989C91C8D
:1015800088B2FFF7C3F9F8B2FFF7C3F932E0D948E0
:10159000807901280ED1AA46BB46D6480088801B18
:1015A000401E80B20190D3480088001B401E80B2CC
:1015B000009003E0A246B3460195009750200590A5
:1015C00051200490522003905320029051460598D8
:1015D000FFF7ABF959460498FFF7A7F9019903986B
:1015E000FFF7A3F900990298FFF79FF929462046D3
:1015F000FFF7C8F906B0BDE8F08F70B504460026C5
:10160000BC48058840884543BA48808846F60401AE
:10161000884216D1B7488079012812D10020B549F7
:1016200088712A2048812B20888100210846FFF7F5
:10163000A9F90120AF4988712B2048812A2088818F
:1016400003E000210846FFF79DF9FFF77EF9002629
:1016500002E0A9480480761CAE42FAD370BD00B502
:101660009FB00121080204F0B4FC01214FF4B470D2
:1016700004F0BCFC0120ADF8780010208DF87B0050
:1016800003208DF87A001EA99C4804F0F3F94CF26F
:101690003370ADF8780018208DF87B0003208DF8AA
:1016A0007A001EA9964804F0E5F94FF68070ADF86F
:1016B000780018208DF87B0003208DF87A001EA991
:1016C000904804F0D7F941F20100ADF878001820F5
:1016D0008DF87B0003208DF87A001EA98A4804F05B
:1016E000C9F901200890002009900F200A900020DD
:1016F0000B900C900D900E9001900290032003909F
:101700000020049005900690079006200F9000207E
:1017100010901190102012900020139015901490AA
:10172000169017904FF480501890002019904FF4A5
:1017300080401A9000201B9008A81C9001A81D90C2
:101740000FA804F095FF0121062005F0F9F84CF2EE
:10175000503006F082F90020FFF7ECF865498880E8
:1017600008468088FF280ADB084680884FF6FF710C
:10177000884204D05F488088B0F5134F7ED1D320D3
:10178000FFF7C4F8FFF7C9F85A498880FFF7C5F892
:1017900058498880FFF7C1F85649888008468088F4
:1017A0004FF6FF7101EA002052498880FFF7B5F833
:1017B0005049898808434F4988800846808849F203
:1017C000413188425AD0BF20FFF7A0F8FFF7A5F8B3
:1017D00048498880FFF7A1F846498880FFF79DF8BF
:1017E00044498880FFF799F84249888008468088F4
:1017F0004FF6FF7101EA00203E498880FFF78DF81F
:101800003C49898808433B4988800846808846F6D9
:101810000401884232D0D420FFF778F8FFF77DF832
:1018200034498880FFF779F832498880FFF775F8E6
:1018300030498880084680884FF6FF7101EA002011
:101840002C498880FFF769F82A4989880843294983
:1018500088800846808845F21031884263D04FF472
:101860005A40FFF753F8FFF758F8224988804FF4A1
:101870005B40FFF74BF8FFF750F800E053E01D49DD
:101880008880084680884FF6FF7101EA00201949D8
:1018900088804FF45C40FFF739F8FFF73EF81549B0
:1018A000898808431349888008468088B0F5004F2E
:1018B00002D145F2105088800E48808845F21051C0
:1018C000884230D0A120FFF721F8FFF726F8094918
:1018D0008880FFF722F807498880084680884FF6FD
:1018E000FF7101EA002003498880FFF716F80149DB
:1018F00089880BE06C0000200008006C000C01409F
:101900000014014000180140002001400843FE4936
:1019100088800846808845F26171884203D141F68B
:101920006310F9498880F8488188F8A006F0B4F877
:10193000F548808849F2413188427CD1CF20FEF7BA
:10194000E5FF0020FEF7E5FFC120FEF7E2FF3020B3
:10195000FEF7DFFFED20FEF7D9FF6420FEF7D9FF89
:101960000320FEF7D6FF1220FEF7D3FF8120FEF7FB
:10197000D0FFE820FEF7CAFF8520FEF7CAFF10203F
:10198000FEF7C7FF7A20FEF7C4FFCB20FEF7BEFFAD
:101990003920FEF7BEFF2C20FEF7BBFF0020FEF72C
:1019A000B8FF3420FEF7B5FF0220FEF7B2FFF720A4
:1019B000FEF7ACFF2020FEF7ACFFEA20FEF7A6FF03
:1019C0000020FEF7A6FF0020FEF7A3FFC020FEF7D1
:1019D0009DFF1B20FEF79DFFC120FEF797FF012012
:1019E000FEF797FFC520FEF791FF3020FEF791FF2D
:1019F0003020FEF78EFFC720FEF788FFB720FEF7E6
:101A000088FF3620FEF782FF4820FEF782FF3A204B
:101A1000FEF77CFF5520FEF77CFFB120FEF776FF36
:101A20000020FEF776FF1A20FEF773FFB620FEF7C0
:101A30006DFF0A2000E099E0FEF76BFFA220FEF7A1
:101A400068FFF220FEF762FF0020FEF762FF26200B
:101A5000FEF75CFF0120FEF75CFFE020FEF756FF7B
:101A60000F20FEF756FF2A20FEF753FF2820FEF72F
:101A700050FF0820FEF74DFF0E20FEF74AFF08201A
:101A8000FEF747FF5420FEF744FFA920FEF741FF71
:101A90004320FEF73EFF0A20FEF73BFF0F20FEF734
:101AA00038FF0020FEF735FF0020FEF732FF002050
:101AB000FEF72FFF0020FEF72CFFE120FEF726FFA8
:101AC0000020FEF726FF1520FEF723FF1720FEF764
:101AD00020FF0720FEF71DFF1120FEF71AFF06204A
:101AE000FEF717FF2B20FEF714FF5620FEF711FF1D
:101AF0003C20FEF70EFF0520FEF70BFF1020FEF73F
:101B000008FF0F20FEF705FF3F20FEF702FF3F20F2
:101B1000FEF7FFFE0F20FEF7FCFE2B20FEF7F6FE81
:101B20000020FEF7F6FE0020FEF7F3FE0120FEF790
:101B3000F0FE3F20FEF7EDFE2A20FEF7E7FE002034
:101B4000FEF7E7FE0020FEF7E4FE0020FEF7E1FED0
:101B5000EF20FEF7DEFE1120FEF7D8FE6F4805F0FD
:101B60007CFF2920FEF7D2FE03F055B96648808835
:101B700046F6040188427DD11120FEF7C7FE44F6E7
:101B8000206005F06AFFD020FEF7C0FE0720FEF7B8
:101B9000C0FE4220FEF7BDFE1D20FEF7BAFED1209A
:101BA000FEF7B4FE0020FEF7B4FE1A20FEF7B1FEE9
:101BB0000920FEF7AEFED220FEF7A8FE0120FEF7B8
:101BC000A8FE2220FEF7A5FEC020FEF79FFE1020F3
:101BD000FEF79FFE3B20FEF79CFE0020FEF799FEDD
:101BE0000220FEF796FE1120FEF793FEC520FEF7B9
:101BF0008DFE0320FEF78DFEC820FEF787FE002035
:101C0000FEF787FE2520FEF784FE2120FEF781FEE9
:101C10000520FEF77EFE0020FEF77BFE0A20FEF781
:101C200078FE6520FEF775FE2520FEF772FE772010
:101C3000FEF76FFE5020FEF76CFE0F20FEF769FEE8
:101C40000020FEF766FEF820FEF760FE0120FEF79A
:101C500060FEFE20FEF75AFE0020FEF75AFE02202C
:101C6000FEF757FE2020FEF751FE3620FEF74EFE0F
:101C7000082000E02CE0FEF74CFE3A20FEF746FE7E
:101C80005520FEF746FE2B20FEF740FE0020FEF713
:101C900040FE0020FEF73DFE0120FEF73AFE3F2009
:101CA000FEF737FE2A20FEF731FE0020FEF731FE58
:101CB0000020FEF72EFE0120FEF72BFEDF20FEF7B0
:101CC00028FE164805F0C9FE2920FEF71FFE4BE747
:101CD0000D48808845F21031884240F08787ED201A
:101CE000FEF714FE0120FEF714FEFE20FEF711FEA3
:101CF000EE20FEF70BFEDE20FEF70BFE2120FEF7A6
:101D000008FEF1200CE000006C000020204C434451
:101D10002049443A25780D0A00000000C0D4010093
:101D2000FEF7F4FD0120FEF7F4FDDF20FEF7EEFDE7
:101D30001020FEF7EEFDC420FEF7E8FD8F20FEF731
:101D4000E8FDC620FEF7E2FD0020FEF7E2FDE220FE
:101D5000FEF7DFFDE220FEF7DCFDE220FEF7D9FD15
:101D6000BF20FEF7D3FDAA20FEF7D3FDB020FEF77B
:101D7000CDFD0D20FEF7CDFD0020FEF7CAFD0D20A4
:101D8000FEF7C7FD0020FEF7C4FD1120FEF7C1FDE0
:101D90000020FEF7BEFD1920FEF7BBFD0020FEF778
:101DA000B8FD2120FEF7B5FD0020FEF7B2FD2D2085
:101DB000FEF7AFFD0020FEF7ACFD3D20FEF7A9FDCC
:101DC0000020FEF7A6FD5D20FEF7A3FD0020FEF734
:101DD000A0FD5D20FEF79DFD0020FEF79AFDB120DD
:101DE000FEF794FD8020FEF794FD0020FEF791FDA4
:101DF0008B20FEF78EFD0020FEF78BFD9620FEF770
:101E000088FD0020FEF785FDB220FEF77FFD002053
:101E1000FEF77FFD0020FEF77CFD0220FEF779FD36
:101E20000020FEF776FD0320FEF773FD0020FEF78D
:101E300070FDB320FEF76AFD0020FEF76AFD00206A
:101E4000FEF767FD0020FEF764FD0020FEF761FD50
:101E50000020FEF75EFD0020FEF75BFD0020FEF790
:101E600058FD0020FEF755FD0020FEF752FD002032
:101E7000FEF74FFD0020FEF74CFD0020FEF749FD68
:101E80000020FEF746FD0020FEF743FD0020FEF790
:101E900040FD0020FEF73DFD0020FEF73AFD00204A
:101EA000FEF737FD0020FEF734FD0020FEF731FD80
:101EB0000020FEF72EFD0020FEF72BFD0020FEF790
:101EC00028FD0020FEF725FDB420FEF71FFD8B2026
:101ED000FEF71FFD0020FEF71CFD9620FEF719FD02
:101EE0000020FEF716FDA120FEF713FD0020FEF7EF
:101EF00010FDB520FEF70AFD0220FEF70AFD0020C6
:101F0000FEF707FD0320FEF704FD0020FEF701FDAC
:101F10000420FEF7FEFC0020FEF7FBFCB620FEF7D7
:101F2000F5FC0020FEF7F5FC0020FEF7F2FCB720E0
:101F3000FEF7ECFC0020FEF7ECFC0020FEF7E9FCCD
:101F40003F20FEF7E6FC0020FEF7E3FC5E20FEF7F4
:101F5000E0FC0020FEF7DDFC6420FEF7DAFC002048
:101F6000FEF7D7FC8C20FEF7D4FC0020FEF7D1FC56
:101F7000AC20FEF7CEFC0020FEF7CBFCDC20FEF709
:101F8000C8FC0020FEF7C5FC7020FEF7C2FC002054
:101F9000FEF7BFFC9020FEF7BCFC0020FEF7B9FC6A
:101FA000EB20FEF7B6FC0020FEF7B3FCDC20FEF7CA
:101FB000B0FC0020FEF7ADFCB820FEF7A7FC002027
:101FC000FEF7A7FC0020FEF7A4FC0020FEF7A1FC12
:101FD0000020FEF79EFC0020FEF79BFC0020FEF791
:101FE00098FC0020FEF795FC0020FEF792FCBA203A
:101FF000FEF78CFC2420FEF78CFC0020FEF789FC09
:102000000020FEF786FC0020FEF783FCC120FEF7CF
:102010007DFC2020FEF77DFC0020FEF77AFC54209A
:10202000FEF777FC0020FEF774FCFF20FEF771FC42
:102030000020FEF76EFCC220FEF768FC0A20FEF7C7
:1020400068FC0020FEF765FC0420FEF762FC00201F
:10205000FEF75FFCC320FEF759FC3C20FEF759FC5D
:102060000020FEF756FC3A20FEF753FC0020FEF756
:1020700050FC3920FEF74DFC0020FEF74AFC3720CB
:10208000FEF747FC0020FEF744FC3C20FEF741FC35
:102090000020FEF73EFC3620FEF73BFC0020FEF75A
:1020A00038FC3220FEF735FC0020FEF732FC2F20F2
:1020B000FEF72FFC0020FEF72CFC2C20FEF729FC5D
:1020C0000020FEF726FC2920FEF723FC0020FEF767
:1020D00020FC2620FEF71DFC0020FEF71AFC242021
:1020E000FEF717FC0020FEF714FC2420FEF711FC7D
:1020F0000020FEF70EFC2320FEF70BFC0020FEF76D
:1021000008FC3C20FEF705FC0020FEF702FC362010
:10211000FEF7FFFB0020FEF7FCFB3220FEF7F9FB89
:102120000020FEF7F6FB2F20FEF7F3FB0020FEF762
:10213000F0FB2C20FEF7EDFB0020FEF7EAFB292048
:10214000FEF7E7FB0020FEF7E4FB2620FEF7E1FBAD
:102150000020FEF7DEFB2420FEF7DBFB0020FEF76D
:10216000D8FB2420FEF7D5FB0020FEF7D2FB23206E
:10217000FEF7CFFB0020FEF7CCFBC420FEF7C6FB2A
:102180006220FEF7C6FB0020FEF7C3FB0520FEF72A
:10219000C0FB0020FEF7BDFB8420FEF7BAFB002049
:1021A000FEF7B7FBF020FEF7B4FB0020FEF7B1FB13
:1021B0001820FEF7AEFB0020FEF7ABFBA420FEF7D5
:1021C000A8FB0020FEF7A5FB1820FEF7A2FB0020CD
:1021D000FEF79FFB5020FEF79CFB0020FEF799FBCB
:1021E0000C20FEF796FB0020FEF793FB1720FEF76E
:1021F00090FB0020FEF78DFB9520FEF78AFB002068
:10220000FEF787FBF320FEF784FB0020FEF781FB3F
:10221000E620FEF77EFB0020FEF77BFBC520FEF7E5
:1022200075FB3220FEF775FB0020FEF772FB4420A1
:10223000FEF76FFB0020FEF76CFB6520FEF769FBE5
:102240000020FEF766FB7620FEF763FB0020FEF71A
:1022500060FB8820FEF75DFB0020FEF75AFBC620DE
:10226000FEF754FB2020FEF754FB0020FEF751FB45
:102270001720FEF74EFB0020FEF74BFB0120FEF778
:1022800048FB0020FEF745FBC720FEF73FFB002080
:10229000FEF73FFB0020FEF73CFB0020FEF739FB7A
:1022A0000020FEF736FBC820FEF730FB0020FEF7CB
:1022B00030FB0020FEF72DFB0020FEF72AFB00205C
:1022C000FEF727FBC920FEF721FB0020FEF721FBCC
:1022D0000020FEF71EFB0020FEF71BFB0020FEF790
:1022E00018FB0020FEF715FB0020FEF712FB002074
:1022F000FEF70FFB0020FEF70CFB0020FEF709FBAA
:102300000020FEF706FB0020FEF703FB0020FEF78F
:1023100000FB0020FEF7FDFA0020FEF7FAFA00208D
:10232000FEF7F7FA0020FEF7F4FAE020FEF7EEFAE7
:102330001620FEF7EEFA0020FEF7EBFA1C20FEF75F
:10234000E8FA0020FEF7E5FA2120FEF7E2FA002085
:10235000FEF7DFFA3620FEF7DCFA0020FEF7D9FAA6
:102360004620FEF7D6FA0020FEF7D3FA5220FEF7F9
:10237000D0FA0020FEF7CDFA6420FEF7CAFA00205A
:10238000FEF7C7FA7A20FEF7C4FA0020FEF7C1FA7A
:102390008B20FEF7BEFA0020FEF7BBFA9920FEF76D
:1023A000B8FA0020FEF7B5FAA820FEF7B2FA00202E
:1023B000FEF7AFFAB920FEF7ACFA0020FEF7A9FA53
:1023C000C420FEF7A6FA0020FEF7A3FACA20FEF703
:1023D000A0FA0020FEF79DFAD220FEF79AFA00201C
:1023E000FEF797FAD920FEF794FA0020FEF791FA4B
:1023F000E020FEF78EFA0020FEF78BFAF320FEF7BE
:1024000088FA0020FEF785FAE120FEF77FFA162011
:10241000FEF77FFA0020FEF77CFA1C20FEF779FA1F
:102420000020FEF776FA2220FEF773FA0020FEF76E
:1024300070FA3620FEF76DFA0020FEF76AFA4520A2
:10244000FEF767FA0020FEF764FA5220FEF761FA01
:102450000020FEF75EFA6420FEF75BFA0020FEF72C
:1024600058FA7A20FEF755FA0020FEF752FA8B2030
:10247000FEF74FFA0020FEF74CFA9920FEF749FAD2
:102480000020FEF746FAA820FEF743FA0020FEF7E8
:1024900040FAB920FEF73DFA0020FEF73AFAC420D0
:1024A000FEF737FA0020FEF734FACA20FEF731FAB9
:1024B0000020FEF72EFAD220FEF72BFA0020FEF7BE
:1024C00028FAD820FEF725FA0020FEF722FAE020AD
:1024D000FEF71FFA0020FEF71CFAF320FEF719FAA8
:1024E0000020FEF716FAE220FEF710FA0520FEF7AC
:1024F00010FA0020FEF70DFA0B20FEF70AFA002072
:10250000FEF707FA1B20FEF704FA0020FEF701FA97
:102510003420FEF7FEF90020FEF7FBF94420FEF719
:10252000F8F90020FEF7F5F94F20FEF7F2F9002048
:10253000FEF7EFF96120FEF7ECF90020FEF7E9F96C
:102540007920FEF7E6F90020FEF7E3F98820FEF790
:10255000E0F90020FEF7DDF99720FEF7DAF9002018
:10256000FEF7D7F9A620FEF7D4F90020FEF7D1F93F
:10257000B720FEF7CEF90020FEF7CBF9C220FEF718
:10258000C8F90020FEF7C5F9C720FEF7C2F9002000
:10259000FEF7BFF9D120FEF7BCF90020FEF7B9F92C
:1025A000D620FEF7B6F90020FEF7B3F9DD20FEF7DE
:1025B000B0F90020FEF7ADF9F320FEF7AAF90020EC
:1025C000FEF7A7F9E320FEF7A1F90520FEF7A1F930
:1025D0000020FEF79EF90A20FEF79BF90020FEF787
:1025E00098F91C20FEF795F90020FEF792F93320A8
:1025F000FEF78FF90020FEF78CF94420FEF789F9E9
:102600000020FEF786F95020FEF783F90020FEF740
:1026100080F96220FEF77DF90020FEF77AF9782034
:10262000FEF777F90020FEF774F98820FEF771F9BC
:102630000020FEF76EF99720FEF76BF90020FEF7F9
:1026400068F9A620FEF765F90020FEF762F9B720C9
:10265000FEF75FF90020FEF75CF9C220FEF759F99A
:102660000020FEF756F9C720FEF753F90020FEF7C9
:1026700050F9D120FEF74DF90020FEF74AF9D52098
:10268000FEF747F90020FEF744F9DD20FEF741F997
:102690000020FEF73EF9F320FEF73BF90020FEF79D
:1026A00038F9E420FEF732F90120FEF732F9002074
:1026B000FEF72FF90120FEF72CF90020FEF729F98B
:1026C0000220FEF726F90020FEF723F92A20FEF764
:1026D00020F90020FEF71DF93C20FEF71AF9002032
:1026E000FEF717F94B20FEF714F90020FEF711F959
:1026F0005D20FEF70EF90020FEF70BF97420FEF7BF
:1027000008F90020FEF705F98420FEF702F9002001
:10271000FEF7FFF89320FEF7FCF80020FEF7F9F82B
:10272000A220FEF7F6F80020FEF7F3F8B320FEF73C
:10273000F0F80020FEF7EDF8BE20FEF7EAF80020E2
:10274000FEF7E7F8C420FEF7E4F80020FEF7E1F812
:10275000CD20FEF7DEF80020FEF7DBF8D320FEF7F1
:10276000D8F80020FEF7D5F8DD20FEF7D2F80020DB
:10277000FEF7CFF8F320FEF7CCF80020FEF7C9F8FB
:10278000E520FEF7C3F80020FEF7C3F80020FEF7AF
:10279000C0F80020FEF7BDF80020FEF7BAF80220CE
:1027A000FEF7B7F80020FEF7B4F82920FEF7B1F8DD
:1027B0000020FEF7AEF83C20FEF7ABF80020FEF755
:1027C000A8F84B20FEF7A5F80020FEF7A2F85D2040
:1027D000FEF79FF80020FEF79CF87420FEF799F8AA
:1027E0000020FEF796F88420FEF793F80020FEF70D
:1027F00090F89320FEF78DF80020FEF78AF8A220CB
:10280000FEF787F80020FEF784F8B320FEF781F882
:102810000020FEF77EF8BE20FEF77BF80020FEF7D2
:1028200078F8C420FEF775F80020FEF772F8CD2086
:10283000FEF76FF80020FEF76CF8D320FEF769F87A
:102840000020FEF766F8DC20FEF763F80020FEF7B4
:1028500060F8F320FEF75DF80020FEF75AF8E62056
:10286000FEF754F81120FEF754F80020FEF751F857
:102870003420FEF74EF80020FEF74BF85620FEF706
:1028800048F80020FEF745F87620FEF742F80020D1
:10289000FEF73FF87720FEF73CF80020FEF739F806
:1028A0006620FEF736F80020FEF733F88820FEF7A2
:1028B00030F80020FEF72DF89920FEF72AF80020C6
:1028C000FEF727F8BB20FEF724F80020FEF721F8DA
:1028D0009920FEF71EF80020FEF71BF86620FEF791
:1028E00018F80020FEF715F85520FEF712F8002022
:1028F000FEF70FF85520FEF70CF80020FEF709F858
:102900004520FEF706F80020FEF703F84320FEF707
:1029100000F80020FDF7FDFF4420FDF7FAFF00203E
:10292000FDF7F7FFE720FDF7F1FF3220FDF7F1FF9C
:102930000020FDF7EEFF5520FDF7EBFF0020FDF72F
:10294000E8FF7620FDF7E5FF0020FDF7E2FF6620B7
:10295000FDF7DFFF0020FDF7DCFF6720FDF7D9FF63
:102960000020FDF7D6FF6720FDF7D3FF0020FDF71D
:10297000D0FF8720FDF7CDFF0020FDF7CAFF99208B
:10298000FDF7C7FF0020FDF7C4FFBB20FDF7C1FF27
:102990000020FDF7BEFF9920FDF7BBFF0020FDF7EB
:1029A000B8FF7720FDF7B5FF0020FDF7B2FF442008
:1029B000FDF7AFFF0020FDF7ACFF5620FDF7A9FFA4
:1029C0000020FDF7A6FF2320FDF7A3FF0020FDF761
:1029D000A0FF3320FDF79DFF0020FDF79AFF452063
:1029E000FDF797FF0020FDF794FFE820FDF78EFF2D
:1029F0000020FDF78EFF0020FDF78BFF9920FDF7EB
:102A000088FF0020FDF785FF8720FDF782FF00206B
:102A1000FDF77FFF8820FDF77CFF0020FDF779FFA1
:102A20007720FDF776FF0020FDF773FF6620FDF7A6
:102A300070FF0020FDF76DFF8820FDF76AFF002082
:102A4000FDF767FFAA20FDF764FF0020FDF761FF97
:102A5000BB20FDF75EFF0020FDF75BFF9920FDF72F
:102A600058FF0020FDF755FF6620FDF752FF0020BC
:102A7000FDF74FFF5520FDF74CFF0020FDF749FF04
:102A80005520FDF746FF0020FDF743FF4420FDF7EA
:102A900040FF0020FDF73DFF4420FDF73AFF0020F6
:102AA000FDF737FF5520FDF734FF0020FDF731FF1C
:102AB000E920FDF72BFFAA20FDF72BFF0020FDF7F3
:102AC00028FF0020FDF725FF0020FDF722FF002052
:102AD000FDF71CFFAA20FDF71CFFCF20FDF716FF16
:102AE0000020FDF716FF0020FDF713FF0020FDF783
:102AF00010FF0020FDF70DFF0020FDF70AFF00206A
:102B0000FDF707FF0020FDF704FF0020FDF701FFA0
:102B10000020FDF7FEFE0020FDF7FBFE0020FDF784
:102B2000F8FE0020FDF7F5FE0020FDF7F2FE002084
:102B3000FDF7EFFE0020FDF7ECFE0020FDF7E9FEBB
:102B40000020FDF7E6FEF020FDF7E0FE0020FDF797
:102B5000E0FE5020FDF7DDFE0020FDF7DAFE00204C
:102B6000FDF7D7FE0020FDF7D4FEF320FDF7CEFEE3
:102B70000020FDF7CEFEF920FDF7C8FE0620FDF788
:102B8000C8FE1020FDF7C5FE2920FDF7C2FE00207B
:102B9000FDF7BFFE3A20FDF7B9FE5520FDF7B9FE5F
:102BA0001120FDF7B3FEFE4804F057FF2920FDF782
:102BB000ADFE3520FDF7AAFE0020FDF7AAFE51204C
:102BC000FDF7A4FEFF20FDF7A4FE5320FDF79EFEB7
:102BD0002C20FDF79EFE5520FDF798FE8220FDF784
:102BE00098FE2C20FDF792FE02F015B9ED48808882
:102BF00045F2105188427DD155214FF47040FDF7C8
:102C000094FEAA214FF20100FDF78FFE52214FF2F0
:102C10000200FDF78AFE08214FF20300FDF785FE52
:102C200001214FF20400FDF780FE0D214FF43040EA
:102C3000FDF77BFE0D214BF20100FDF776FE0D2125
:102C40004BF20200FDF771FE34214FF43640FDF7E0
:102C50006CFE34214BF20160FDF767FE34214BF22C
:102C60000260FDF762FE0D214FF43140FDF75DFE7D
:102C70000D214BF20110FDF758FE0D214BF2021011
:102C8000FDF753FE34214FF43740FDF74EFE34215B
:102C90004BF20170FDF749FE34214BF20270FDF753
:102CA00044FE00214FF43240FDF73FFE00214BF27D
:102CB0000120FDF73AFE00214BF20220FDF735FE20
:102CC00024214FF43840FDF730FE24214BF601005B
:102CD000FDF72BFE24214BF60200FDF726FE012115
:102CE0004FF43F40FDF721FE0F214FF43340FDF735
:102CF0001CFE00E0FDE30F214BF20130FDF715FE55
:102D00000F214BF20230FDF710FE34214FF4394011
:102D1000FDF70BFE34214BF60110FDF706FE3421C2
:102D20004BF60210FDF701FE08214FF43540FDF788
:102D3000FCFD08214BF20150FDF7F7FD08214BF295
:102D40000250FDF7F2FD03214FF44240FDF7EDFD87
:102D500024214FF43A40FDF7E8FD24214BF60120F1
:102D6000FDF7E3FD24214BF60220FDF7DEFD0021F7
:102D70004FF43C40FDF7D9FD78214BF60140FDF7BB
:102D8000D4FD00214BF60240FDF7CFFD00214FF4AA
:102D90003D40FDF7CAFD78214BF60150FDF7C5FD1A
:102DA00000214BF60250FDF7C0FD00214FF43E40DC
:102DB000FDF7BBFD64214BF60160FDF7B6FD002178
:102DC0004FF45140FDF7B1FD33214DF20110FDF7F5
:102DD000ACFD00214DF20210FDF7A7FD34214DF2AC
:102DE0000310FDF7A2FD00214DF20410FDF79DFD3B
:102DF0003A214DF20510FDF798FD00214DF2061025
:102E0000FDF793FD4A214DF20710FDF78EFD0021DD
:102E10004DF20810FDF789FD5C214DF20910FDF718
:102E200084FD00214DF20A10FDF77FFD81214DF256
:102E30000B10FDF77AFD00214DF20C10FDF775FD2A
:102E4000A6214DF20D10FDF770FD00214DF20E1080
:102E5000FDF76BFDE5214DF20F10FDF766FD012139
:102E60004DF21010FDF761FD13214DF21110FDF729
:102E70005CFD01214DF21210FDF757FD54214DF27A
:102E80001310FDF752FD01214DF21410FDF74DFD19
:102E900082214DF21510FDF748FD01214DF216106B
:102EA000FDF743FDCA214DF21710FDF73EFD02214B
:102EB0004DF21810FDF739FD00214DF21910FDF704
:102EC00034FD02214DF21A10FDF72FFD01214DF2C4
:102ED0001B10FDF72AFD02214DF21C10FDF725FD08
:102EE00034214DF21D10FDF720FD02214DF21E1080
:102EF000FDF71BFD67214DF21F10FDF716FD0221A6
:102F00004DF22010FDF711FD84214DF22110FDF747
:102F10000CFD02214DF22210FDF707FDA4214DF218
:102F20002310FDF702FD02214DF22410FDF7FDFCF8
:102F3000B7214DF22510FDF7F8FC02214DF22610C5
:102F4000FDF7F3FCCF214DF22710FDF7EEFC022137
:102F50004DF22810FDF7E9FCDE214DF22910FDF7B6
:102F6000E4FC02214DF22A10FDF7DFFCF2214DF2C4
:102F70002B10FDF7DAFC02214DF22C10FDF7D5FCE9
:102F8000FE214DF22D10FDF7D0FC03214DF22E1045
:102F9000FDF7CBFC10214DF22F10FDF7C6FC03E02E
:102FA000A08601006C00002003214DF23010FDF7D7
:102FB000BCFC33214DF23110FDF7B7FC03214DF27B
:102FC0003210FDF7B2FC6D214DF23310FDF7ADFC70
:102FD00000214FF45240FDF7A8FC33214DF20120AF
:102FE000FDF7A3FC00214DF20220FDF79EFC3421E9
:102FF0004DF20320FDF799FC00214DF20420FDF76E
:1030000094FC3A214DF20520FDF78FFC00214DF292
:103010000620FDF78AFC4A214DF20720FDF785FCCA
:1030200000214DF20820FDF780FC5C214DF20920C3
:10303000FDF77BFC00214DF20A20FDF776FC812193
:103040004DF20B20FDF771FC00214DF20C20FDF735
:103050006CFCA6214DF20D20FDF767FC00214DF21E
:103060000E20FDF762FCE5214DF20F20FDF75DFC1F
:1030700001214DF21020FDF758FC13214DF21120D3
:10308000FDF753FC01214DF21220FDF74EFC5421B7
:103090004DF21320FDF749FC01214DF21420FDF7FC
:1030A00044FC82214DF21520FDF73FFC01214DF239
:1030B0001620FDF73AFCCA214DF21720FDF735FC2A
:1030C00002214DF21820FDF730FC00214DF21920AD
:1030D000FDF72BFC02214DF21A20FDF726FC012101
:1030E0004DF21B20FDF721FC02214DF21C20FDF7C3
:1030F0001CFC34214DF21D20FDF717FC02214DF27E
:103100001E20FDF712FC67214DF21F20FDF70DFC7C
:1031100002214DF22020FDF708FC84214DF22120F0
:10312000FDF703FC02214DF22220FDF7FEFBA42156
:103130004DF22320FDF7F9FB02214DF22420FDF78B
:10314000F4FBB7214DF22520FDF7EFFB02214DF2F4
:103150002620FDF7EAFBCF214DF22720FDF7E5FB06
:1031600002214DF22820FDF7E0FBDE214DF229205F
:10317000FDF7DBFB02214DF22A20FDF7D6FBF22101
:103180004DF22B20FDF7D1FB02214DF22C20FDF753
:10319000CCFBFE214DF22D20FDF7C7FB03214DF2A4
:1031A0002E20FDF7C2FB10214DF22F20FDF7BDFBB5
:1031B00003214DF23020FDF7B8FB33214DF23120D1
:1031C000FDF7B3FB03214DF23220FDF7AEFB6D217D
:1031D0004DF23320FDF7A9FB00214FF45340FDF7DA
:1031E000A4FB33214DF20130FDF79FFB00214DF28E
:1031F0000230FDF79AFB34214DF20330FDF795FBC9
:1032000000214DF20430FDF790FB3A214DF20530DC
:10321000FDF78BFB00214DF20630FDF786FB4A21BE
:103220004DF20730FDF781FB00214DF20830FDF72C
:103230007CFB5C214DF20930FDF777FB00214DF25C
:103240000A30FDF772FB81214DF20B30FDF76DFB6B
:1032500000214DF20C30FDF768FBA6214DF20D3038
:10326000FDF763FB00214DF20E30FDF75EFBE5211B
:103270004DF20F30FDF759FB01214DF21030FDF7F3
:1032800054FB13214DF21130FDF74FFB01214DF29C
:103290001230FDF74AFB54214DF21330FDF745FB88
:1032A00001214DF21430FDF740FB82214DF2153023
:1032B000FDF73BFB01214DF21630FDF736FBCA212D
:1032C0004DF21730FDF731FB02214DF21830FDF7BA
:1032D0002CFB00214DF21930FDF727FB02214DF2A6
:1032E0001A30FDF722FB01214DF21B30FDF71DFBCB
:1032F00002214DF21C30FDF718FB34214DF21D3038
:10330000FDF713FB02214DF21E30FDF70EFB672186
:103310004DF21F30FDF709FB02214DF22030FDF781
:1033200004FB84214DF22130FDF7FFFA02214DF21A
:103330002230FDF7FAFAA4214DF22330FDF7F5FA19
:1033400002214DF22430FDF7F0FAB7214DF225307D
:10335000FDF7EBFA02214DF22630FDF7E6FACF2118
:103360004DF22730FDF7E1FA02214DF22830FDF74A
:10337000DCFADE214DF22930FDF7D7FA02214DF2B9
:103380002A30FDF7D2FAF2214DF22B30FDF7CDFABB
:1033900002214DF22C30FDF7C8FAFE214DF22D30FE
:1033A000FDF7C3FA03214DF22E30FDF7BEFA1021CE
:1033B0004DF22F30FDF7B9FA03214DF23030FDF711
:1033C000B4FA33214DF23130FDF7AFFA03214DF25B
:1033D0003230FDF7AAFA6D214DF23330FDF7A5FA30
:1033E00000214FF45440FDF7A0FA33214DF2014083
:1033F000FDF79BFA00214DF20240FDF796FA3421C9
:103400004DF20340FDF791FA00214DF20440FDF723
:103410008CFA3A214DF20540FDF787FA00214DF272
:103420000640FDF782FA4A214DF20740FDF77DFA8A
:1034300000214DF20840FDF778FA5C214DF2094079
:10344000FDF773FA00214DF20A40FDF76EFA812173
:103450004DF20B40FDF769FA00214DF20C40FDF7EB
:1034600064FAA6214DF20D40FDF75FFA00214DF2FE
:103470000E40FDF75AFAE5214DF20F40FDF755FADF
:1034800001214DF21040FDF750FA13214DF2114089
:10349000FDF74BFA01214DF21240FDF746FA542197
:1034A0004DF21340FDF741FA01214DF21440FDF7B2
:1034B0003CFA82214DF21540FDF737FA01214DF219
:1034C0001640FDF732FACA214DF21740FDF72DFAEA
:1034D00002214DF21840FDF728FA00214DF2194063
:1034E000FDF723FA02214DF21A40FDF71EFA0121E1
:1034F00000E008E34DF21B40FDF717FA02214DF200
:103500001C40FDF712FA34214DF21D40FDF70DFA73
:1035100002214DF21E40FDF708FA67214DF21F40CF
:10352000FDF703FA02214DF22040FDF7FEF9842158
:103530004DF22140FDF7F9F902214DF22240FDF74D
:10354000F4F9A4214DF22340FDF7EFF902214DF2E9
:103550002440FDF7EAF9B7214DF22540FDF7E5F9E2
:1035600002214DF22640FDF7E0F9CF214DF2274030
:10357000FDF7DBF902214DF22840FDF7D6F9DE21F7
:103580004DF22940FDF7D1F902214DF22A40FDF715
:10359000CCF9F2214DF22B40FDF7C7F902214DF293
:1035A0002C40FDF7C2F9FE214DF22D40FDF7BDF98B
:1035B00003214DF22E40FDF7B8F910214DF22F40B6
:1035C000FDF7B3F903214DF23040FDF7AEF9332199
:1035D0004DF23140FDF7A9F903214DF23240FDF7DC
:1035E000A4F96D214DF23340FDF79FF900214FF40E
:1035F0005540FDF79AF933214DF20150FDF795F949
:1036000000214DF20250FDF790F934214DF20350A4
:10361000FDF78BF900214DF20450FDF786F93A21B0
:103620004DF20550FDF781F900214DF20650FDF7EE
:103630007CF94A214DF20750FDF777F900214DF250
:103640000850FDF772F95C214DF20950FDF76DF954
:1036500000214DF20A50FDF768F981214DF20B501F
:10366000FDF763F900214DF20C50FDF75EF9A6213C
:103670004DF20D50FDF759F900214DF20E50FDF7B6
:1036800054F9E5214DF20F50FDF74FF901214DF2AC
:103690001050FDF74AF913214DF21150FDF745F98D
:1036A00001214DF21250FDF740F954214DF2135013
:1036B000FDF73BF901214DF21450FDF736F9822157
:1036C0004DF21550FDF731F901214DF21650FDF77D
:1036D0002CF9CA214DF21750FDF727F902214DF2BE
:1036E0001850FDF722F900214DF21950FDF71DF990
:1036F00002214DF21A50FDF718F901214DF21B502D
:10370000FDF713F902214DF21C50FDF70EF934219B
:103710004DF21D50FDF709F902214DF21E50FDF743
:1037200004F967214DF21F50FDF7FFF802214DF219
:103730002050FDF7FAF884214DF22150FDF7F5F8FD
:1037400002214DF22250FDF7F0F8A4214DF2235052
:10375000FDF7EBF802214DF22450FDF7E6F8B72112
:103760004DF22550FDF7E1F802214DF22650FDF70C
:10377000DCF8CF214DF22750FDF7D7F802214DF2AA
:103780002850FDF7D2F8DE214DF22950FDF7CDF893
:1037900002214DF22A50FDF7C8F8F2214DF22B50CC
:1037A000FDF7C3F802214DF22C50FDF7BEF8FE21C3
:1037B0004DF22D50FDF7B9F803214DF22E50FDF7D3
:1037C000B4F810214DF22F50FDF7AFF803214DF260
:1037D0003050FDF7AAF833214DF23150FDF7A5F82E
:1037E00003214DF23250FDF7A0F86D214DF2335018
:1037F000FDF79BF800214FF45640FDF796F8332172
:103800004DF20160FDF791F800214DF20260FDF7E5
:103810008CF834214DF20360FDF787F800214DF25A
:103820000460FDF782F83A214DF20560FDF77DF85E
:1038300000214DF20660FDF778F84A214DF207604D
:10384000FDF773F800214DF20860FDF76EF85C217A
:103850004DF20960FDF769F800214DF20A60FDF7AD
:1038600064F881214DF20B60FDF75FF800214DF205
:103870000C60FDF75AF8A6214DF20D60FDF755F8E2
:1038800000214DF20E60FDF750F8E5214DF20F607A
:10389000FDF74BF801214DF21060FDF746F81321BA
:1038A0004DF21160FDF741F801214DF21260FDF774
:1038B0003CF854214DF21360FDF737F801214DF229
:1038C0001460FDF732F882214DF21560FDF72DF8F6
:1038D00001214DF21660FDF728F8CA214DF217605C
:1038E000FDF723F802214DF21860FDF71EF80021C4
:1038F0004DF21960FDF719F802214DF21A60FDF73B
:1039000014F801214DF21B60FDF70FF802214DF272
:103910001C60FDF70AF834214DF21D60FDF705F833
:1039200002214DF21E60FDF700F867214DF21F6085
:10393000FCF7FBFF02214DF22060FCF7F6FF84212B
:103940004DF22160FCF7F1FF02214DF22260FCF7FD
:10395000ECFFA4214DF22360FCF7E7FF02214DF2BA
:103960002460FCF7E2FFB7214DF22560FCF7DDFF94
:1039700002214DF22660FCF7D8FFCF214DF22760DF
:10398000FCF7D3FF02214DF22860FCF7CEFFDE21C9
:103990004DF22960FCF7C9FF02214DF22A60FCF7C5
:1039A000C4FFF2214DF22B60FCF7BFFF02214DF264
:1039B0002C60FCF7BAFFFE214DF22D60FCF7B5FF3D
:1039C00003214DF22E60FCF7B0FF10214DF22F6065
:1039D000FCF7ABFF03214DF23060FCF7A6FF33216B
:1039E0004DF23160FCF7A1FF03214DF23260FCF78C
:1039F0009CFF6D214DF23360FCF797FF55214FF48A
:103A00007040FCF792FFAA214FF20100FCF78DFFF6
:103A100052214FF20200FCF788FF08214FF2030009
:103A2000FCF783FF00214FF20400FCF77EFFCC215E
:103A30004FF43140FCF779FF00214BF20110FCF705
:103A400074FF05214FF43640FCF76FFF70214FF4EF
:103A50003740FCF76AFF70214BF20170FCF765FFFD
:103A600001214FF43840FCF760FF03214BF60100C1
:103A7000FCF75BFF03214BF60200FCF756FF032126
:103A80004BF60300FCF751FF02214FF43C40FCF7DA
:103A90004CFF00214BF60140FCF747FF00214BF69D
:103AA0000240FCF742FFD0214FF44940FCF73DFFB4
:103AB00002214CF60110FCF738FF50214CF60210A1
:103AC000FCF733FF50214CF60310FCF72EFF50217A
:103AD0004CF60410FCF729FF00214FF45450FCF77A
:103AE00024FF55214FF46850FCF71FFF4FF4885016
:103AF000FCF70CFF782003F0B0FF4FF42450FCF7E4
:103B000005FF01F088B9FE48808849F225318842D6
:103B10007ED147F6F001E520FCF707FF4FF48071F6
:103B20000120FCF702FF4FF4E0610220FCF7FDFEEC
:103B300041F230010320FCF7F8FE00210420FCF7DD
:103B4000F4FE40F202210820FCF7EFFE00210920DC
:103B5000FCF7EBFE00210A20FCF7E7FE00210C2019
:103B6000FCF7E3FE00210D20FCF7DFFE00210F2013
:103B7000FCF7DBFE00211020FCF7D7FE0721112007
:103B8000FCF7D3FE00211220FCF7CFFE002113200A
:103B9000FCF7CBFE00210720FCF7C7FE41F2906145
:103BA0001020FCF7C2FE40F227211120FCF7BDFED9
:103BB0009D211220FCF7B9FE4FF4C8511320FCF7E9
:103BC000B4FE25212920FCF7B0FE0D212B20FCF7A7
:103BD000ACFE07213020FCF7A8FE40F20331312073
:103BE000FCF7A3FE03213220FCF79FFE40F20621E2
:103BF0003520FCF79AFE08213620FCF796FE40F2AD
:103C000006413720FCF791FE4FF44171382000E067
:103C100057E0FCF78AFE07213920FCF786FE40F2C8
:103C200002613C20FCF781FE08213D20FCF77DFE6F
:103C300000215020FCF779FEEF215120FCF775FEA2
:103C400000215220FCF771FE40F23F115320FCF797
:103C50006CFE4FF427416020FCF767FE01216120D4
:103C6000FCF763FE00216A20FCF75FFE0021802044
:103C7000FCF75BFE00218120FCF757FE002182202B
:103C8000FCF753FE00218320FCF74FFE0021842027
:103C9000FCF74BFE00218520FCF747FE1021902009
:103CA000FCF743FE4FF4C0619220FCF73EFE40F269
:103CB00033110720FCF739FE22210020FCF735FEE6
:103CC0001FE78F48808849F2283188427DD141F230
:103CD0008F01EC20FCF729FE41F23421EF20FCF7A4
:103CE00024FE4FF480710120FCF71FFE4FF4E061C9
:103CF0000220FCF71AFE41F230010320FCF715FE0A
:103D000000210420FCF711FE40F202210820FCF7FC
:103D10000CFE00210920FCF708FE00210A20FCF718
:103D200004FE01210C20FCF700FE00210D20FCF711
:103D3000FCFD00210F20FCF7F8FD00211020FCF70E
:103D4000F4FD07211120FCF7F0FD00211220FCF703
:103D5000ECFD00211320FCF7E8FD01210720FCF712
:103D6000E4FD4CF2503003F078FE41F29041102017
:103D7000FCF7DBFD40F227211120FCF7D6FD4CF2C9
:103D8000503003F06AFE8A211220FCF7CEFD4CF27F
:103D9000503003F062FE4FF4D0511320FCF7C5FD04
:103DA00006212920FCF7C1FD0D212B20FCF7BDFDCC
:103DB0004CF2503003F051FE00212020FCF7B5FDFD
:103DC00000212120FCF7B1FD00E07BE04CF25030F7
:103DD00003F043FE00213020FCF7A7FD40F2046110
:103DE0003120FCF7A2FD40F205313220FCF79DFDA9
:103DF00000213520FCF799FD40F609413620FCF7FB
:103E000094FD4FF401713720FCF78FFD40F2013132
:103E10003820FCF78AFD40F207713920FCF785FD58
:103E200000213C20FCF781FD40F60A213D20FCF7F3
:103E30007CFD4CF2503003F010FE00215020FCF7C6
:103E400074FDEF215120FCF770FD00215220FCF79A
:103E50006CFD40F23F115320FCF767FD4FF4274102
:103E60006020FCF762FD01216120FCF75EFD00216E
:103E70006A20FCF75AFD00218020FCF756FD002146
:103E80008120FCF752FD00218220FCF74EFD00212D
:103E90008320FCF74AFD00218420FCF746FD002129
:103EA0008520FCF742FD10219020FCF73EFD4FF4E9
:103EB000C0619220FCF739FD40F233110720FCF776
:103EC00034FD1EE60E48808849F2203188427CD1BC
:103ED00000210846FCF729FD4FF480710120FCF712
:103EE00024FD4FF4E0610220FCF71FFD41F2300198
:103EF0000320FCF71AFD00210420FCF716FD01E069
:103F00006C00002040F202210820FCF70EFD002189
:103F10000920FCF70AFD00210A20FCF706FD01211B
:103F20000C20FCF702FD00210D20FCF7FEFC002117
:103F30000F20FCF7FAFC4CF2503003F08EFD40F2FB
:103F400001110720FCF7F1FC4CF2503003F085FD25
:103F50004FF486511020FCF7E8FC07211120FCF7F4
:103F6000E4FC4FF488711220FCF7DFFC4FF4306161
:103F70001320FCF7DAFC00212920FCF7D6FC44F2E0
:103F800010012B20FCF7D1FC00215020FCF7CDFCC8
:103F9000EF215120FCF7C9FC00215220FCF7C5FCA1
:103FA00040F23F115320FCF7C0FC4FF41C5160203D
:103FB000FCF7BBFC01216120FCF7B7FC00216A2063
:103FC000FCF7B3FC0021802000E034E0FCF7ADFCFE
:103FD00000218120FCF7A9FC00218220FCF7A5FC30
:103FE00000218320FCF7A1FC00218420FCF79DFC2C
:103FF00000218520FCF799FC10219020FCF795FC0E
:1040000000219220FCF791FC01219320FCF78DFC0C
:104010004FF488719520FCF788FC00219720FCF76D
:1040200084FC00219820FCF780FC40F273110720EB
:10403000FCF77BFC65E5FE48808849F23131884217
:104040007DD141F21401E720FCF76FFC4FF4807141
:104050000120FCF76AFC4FF400710220FCF765FCBC
:1040600041F238010320FCF760FC40F202210820F5
:10407000FCF75BFC00210920FCF757FC00210A201B
:10408000FCF753FC00210C20FCF74FFC00210D2015
:10409000FCF74BFC00210F20FCF747FC002110200F
:1040A000FCF743FC07211120FCF73FFC0021122004
:1040B000FCF73BFC00211320FCF737FCDD4803F044
:1040C000CCFC41F290611020FCF72FFC40F227213C
:1040D0001120FCF72AFC4CF2503003F0BEFC0C21FE
:1040E0001220FCF722FC4CF2503003F0B6FC4FF4E7
:1040F00000611320FCF719FC11212920FCF715FCA5
:104100000B212B20FCF711FC4CF2503003F0A5FCE6
:1041100000212020FCF709FC40F23F112120FCF790
:1041200004FC00213020FCF700FC4FF483713120A7
:10413000FCF7FBFB00213220FCF7F7FB00E067E017
:104140004FF401713520FCF7F0FB41F20A61362093
:10415000FCF7EBFB40F207713720FCF7E6FB4FF46E
:1041600083713820FCF7E1FB40F207713920FCF73E
:10417000DCFB40F202413C20FCF7D7FB40F60F414C
:104180003D20FCF7D2FB00215020FCF7CEFBEF21B5
:104190005120FCF7CAFB00215220FCF7C6FB40F27D
:1041A0003F115320FCF7C1FB4FF41C516020FCF77A
:1041B000BCFB01216120FCF7B8FB00216A20FCF761
:1041C000B4FB00218020FCF7B0FB00218120FCF72C
:1041D000ACFB00218220FCF7A8FB00218320FCF728
:1041E000A4FB00218420FCF7A0FB00218520FCF724
:1041F0009CFB10219020FCF798FB4FF4C0619220AB
:10420000FCF793FB40F233110720FCF78EFB78E4B8
:104210008748808845F2084188427DD14FF48071FB
:104220000120FCF782FB4FF4E0610220FCF77DFBEC
:1042300041F230010320FCF778FB00210420FCF759
:1042400074FB40F207210820FCF76FFB00210920D6
:10425000FCF76BFB00210A20FCF767FB00210C2018
:10426000FCF763FB00210D20FCF75FFB00210F2012
:10427000FCF75BFB44F6206003F0EFFB41F2B0611A
:104280001020FCF752FB01211120FCF74EFB01210D
:104290001720FCF74AFB4FF49C711220FCF745FBFA
:1042A0004FF400611320FCF740FB09212920FCF7A3
:1042B0003CFB09212A20FCF738FB0021A420FCF755
:1042C00034FB00215020FCF730FBEF215120FCF79C
:1042D0002CFB00215220FCF728FB40F23F11532019
:1042E000FCF723FB4FF41C516020FCF71EFB01215F
:1042F0006120FCF71AFB00216A20FCF716FB002165
:104300008020FCF712FB00218120FCF70EFB00212E
:104310008220FCF70AFB00E026E000218320FCF766
:1043200004FB00218420FCF700FB00218520FCF722
:10433000FCFA13219020FCF7F8FA00219220FCF7F8
:10434000F4FA03219320FCF7F0FA4FF488719520DA
:10435000FCF7EBFA40F273110720FCF7E6FA4CF297
:10436000503003F07AFBABE43148808841F20551CC
:1043700088425CD100210720FCF7D7FA4CF250307C
:1043800003F06BFB4FF48E711220FCF7CEFA012183
:10439000A420FCF7CAFA0F210820FCF7C6FA08216E
:1043A0000A20FCF7C2FA08210D20FCF7BEFA40F201
:1043B00007713020FCF7B9FA07213120FCF7B5FA74
:1043C00040F203613220FCF7B0FA4FF4E061332091
:1043D000FCF7ABFA40F202213420FCF7A6FA0221E6
:1043E0003520FCF7A2FA41F60F713620FCF79DFA52
:1043F00040F207713720FCF798FA00213820FCF7CB
:1044000094FA00213920FCF790FA40F207713A2023
:10441000FCF78BFA00213B20FCF787FA07213C20B0
:10442000FCF783FA00213D20FCF77FFA04E0C0E0AE
:104430006C000020400D03004CF2503003F00DFBE7
:1044400001210720FCF771FA01211720FCF76DFA12
:104450004CF2503003F001FB4FF4BD511020FCF73B
:1044600064FA40F217211120FCF75FFA4FF48F71C4
:104470001220FCF75AFA4FF470611320FCF755FA3A
:1044800000212A20FCF751FA0A212920FCF74DFAD5
:104490004FF49F711220FCF748FA00215020FCF7DE
:1044A00044FAEF215120FCF740FA00215220FCF79A
:1044B0003CFA40F23F115320FCF737FA4FF41C51FD
:1044C0006020FCF732FA01216120FCF72EFA00216E
:1044D0006A20FCF72AFA00218020FCF726FA002146
:1044E0008120FCF722FA00218220FCF71EFA00212D
:1044F0008320FCF71AFA00218420FCF716FA002129
:104500008520FCF712FA13219020FCF70EFA4FF4E5
:1045100040719220FCF709FA05219320FCF705FA77
:1045200000219520FCF701FA00219720FCF7FDF906
:1045300000219820FCF7F9F94FF480710120FCF775
:10454000F4F94FF4E0610220FCF7EFF941F2380191
:104550000320FCF7EAF900210420FCF7E6F900212A
:104560000C20FCF7E2F900210F20FCF7DEF9002116
:104570002020FCF7DAF900212120FCF7D6F92121CF
:104580000720FCF7D2F944F6206003F066FA6121B7
:104590000720FCF7CAF944F6206003F05EFA40F207
:1045A00073110720FCF7C1F944F6206003F055FAB7
:1045B00087E4FE4880884BF2055188427ED1002175
:1045C0000846FCF7B2F900210846FCF7AEF90021D5
:1045D0000846FCF7AAF900210846FCF7A6F90121D4
:1045E000A420FCF7A2F944F6206003F036FA4FF459
:1045F0001C516020FCF799F940F202210820FCF7D9
:1046000094F94FF405713020FCF78FF943F21571DE
:104610003120FCF78AF940F204613220FCF785F979
:1046200040F616613320FCF780F942F21121342064
:10463000FCF77BF94FF4A8513520FCF776F948F2E6
:1046400007513620FCF771F941F207413720FCF79A
:104650006CF941F203413820FCF767F92021392039
:10466000FCF763F91A219020FCF75FF90021102074
:10467000FCF75BF907211120FCF757F90021122004
:10468000FCF753F900211320FCF74FF944F62060A2
:1046900003F0E3F94FF4E6611020FCF746F940F22D
:1046A00037111120FCF741F944F6206003F0D5F9E9
:1046B0004FF4DC711220FCF738F900E08AE044F690
:1046C000206003F0CAF94FF470611320FCF72DF954
:1046D00080212A20FCF729F948212920FCF725F917
:1046E00044F6206003F0B9F94FF480710120FCF723
:1046F0001CF94FF4E0610220FCF717F941F2380190
:104700000320FCF712F940F202210820FCF70DF912
:1047100000210A20FCF709F900210C20FCF705F91B
:1047200000210D20FCF701F930210E20FCF7FDF8E7
:1047300000215020FCF7F9F8EF215120FCF7F5F8A3
:1047400000215220FCF7F1F840F23F115320FCF712
:10475000ECF84FF41C516020FCF7E7F801216120D0
:10476000FCF7E3F800216A20FCF7DFF81121902024
:10477000FCF7DBF84FF4C0619220FCF7D6F840F26A
:1047800002419320FCF7D1F802219420FCF7CDF8E8
:1047900044F6206003F061F901210720FCF7C5F819
:1047A00044F6206003F059F961210720FCF7BDF8B9
:1047B00040F273110720FCF7B8F800212020FCF725
:1047C000B4F800212120FCF7B0F822210020FCF7EA
:1047D000ACF820E3754880884CF2055188427DD1C1
:1047E00000210846FCF7A1F800210846FCF79DF8D7
:1047F00044F6206003F031F900210846FCF795F8F3
:1048000000210846FCF791F800210846FCF78DF8D6
:1048100000210846FCF789F80121A420FCF785F85F
:1048200044F6206003F019F94FF41C516020FCF7A6
:104830007CF840F606010820FCF777F840F2037197
:104840003020FCF772F801213120FCF76EF80421CA
:104850003220FCF76AF84FF481713320FCF765F8D9
:104860004FF440713420FCF760F840F2031135201A
:10487000FCF75BF81F213620FCF757F840F2037174
:104880003720FCF752F801213820FCF74EF80421BC
:104890003920FCF74AF815219020FCF746F84FF430
:1048A00082611020FCF741F840F247211120FCF70B
:1048B0003CF84FF4DE711220FCF737F84FF46061DA
:1048C0001320FCF732F83A4803F0C7F84FF4807130
:1048D0000120FCF72AF84FF4007100E054E00220B8
:1048E000FCF723F841F230010320FCF71EF8082101
:1048F0000A20FCF71AF800210C20FCF716F82021FA
:104900000E20FCF712F800210F20FCF70EF8002112
:104910002020FCF70AF800212120FCF706F83D21B1
:104920002A20FCF702F844F6206003F096F82D21C7
:104930002920FBF7FAFF00215020FBF7F6FF4DF28C
:10494000EF015120FBF7F1FF00215220FBF7EDFFB3
:1049500040F23F115320FBF7E8FF00216120FBF7F5
:10496000E4FF00216A20FBF7E0FF4FF44071922042
:10497000FBF7DBFF05219320FBF7D7FF4FF4807196
:104980000720FBF7D2FF46E20848808844F2315105
:1049900088427DD101210020FBF7C7FF42F2107051
:1049A00003F05BF841F22861102003E06C00002066
:1049B000C0D40100FBF7B9FF0E211220FBF7B5FFB1
:1049C00040F639211320FBF7B0FF42F2107003F0DC
:1049D00044F840211120FBF7A8FF50211520FBF7D8
:1049E000A4FF42F2107003F038F81E211220FBF7EA
:1049F0009CFF42F2107003F030F84FF4B1511020D8
:104A0000FBF793FF42F639211320FBF78EFF42F2AA
:104A1000107003F022F84FF480710120FBF785FF3E
:104A20004FF440710220FBF780FF41F23801032070
:104A3000FBF77BFF40F202210820FBF776FF0821FD
:104A40000A20FBF772FF00213020FBF76EFF40F2D7
:104A500002413120FBF769FF4FF483713220FBF7ED
:104A600064FF40F203513320FBF75FFF4FF4827184
:104A70003420FBF75AFF40F201313520FBF755FF98
:104A800040F207713620FBF750FF40F2053100E09D
:104A900046E03720FBF749FF4FF402713820FBF75F
:104AA00044FF40F60B713920FBF73FFF0221412004
:104AB000FBF73BFF4FF41C516020FBF736FF012151
:104AC0006120FBF732FF4FF404719020FBF72DFFBC
:104AD0004FF485719220FBF728FF04219320FBF708
:104AE00024FF4FF48071A020FBF71FFF0121072056
:104AF000FBF71BFF21210720FBF717FF23210720CE
:104B0000FBF713FF33210720FBF70FFF40F23311B0
:104B10000720FBF70AFF0021A020FBF706FF7AE140
:104B2000F948808844F2355188427DD130211520E2
:104B3000FBF7FBFE10219A20FBF7F7FE2021112046
:104B4000FBF7F3FE43F228411020FBF7EEFE0221B3
:104B50001220FBF7EAFE41F238011320FBF7E5FED5
:104B600049F6404002F079FF12210846FBF7DDFECE
:104B700049F6404002F071FF43F220411020FBF75C
:104B8000D4FE43F238011320FBF7CFFEDF4802F0DA
:104B900064FF00213020FBF7C8FE40F202413120C3
:104BA000FBF7C3FE40F207313220FBF7BEFE4FF4A5
:104BB00041713320FBF7B9FE04213420FBF7B5FE29
:104BC00040F201413520FBF7B0FE40F2077136207C
:104BD000FBF7ABFE40F205313720FBF7A6FE4FF4A2
:104BE000C2613820FBF7A1FE4FF4C2613920FBF708
:104BF0009CFE4FF480710120FBF797FE4FF440714B
:104C00000220FBF792FE41F230010320FBF78DFEFC
:104C100040F608010820FBF788FE08210A20FBF770
:104C200084FE4FF41C5100E034E06020FBF77DFE71
:104C300001216120FBF779FE4FF49F719020FBF773
:104C400074FE4FF480719220FBF76FFE4FF4807179
:104C50009320FBF76AFE4FF44051A020FBF765FE5E
:104C60001021A320FBF761FE01210720FBF75DFE69
:104C700021210720FBF759FE23210720FBF755FED2
:104C800033210720FBF751FE40F233110720FBF7D9
:104C90004CFEC0E09C48808841F663118842F8D100
:104CA000E220FBF733FE1D20FBF733FE0220FBF76B
:104CB00030FE0420FBF72DFE642002F0CEFEE02043
:104CC000FBF724FE0120FBF724FE42F2107002F0F5
:104CD000C4FEE020FBF71AFE0320FBF71AFE42F6A3
:104CE000E06002F0BAFE0120FBF710FE42F2107005
:104CF00002F0B3FEE620FBF709FE2F20FBF709FECA
:104D0000FF20FBF706FEFF20FBF703FEB020FBF7BA
:104D1000FDFD2020FBF7FDFD0020FBF7FAFD032041
:104D2000FBF7F7FD40F21F30FBF7F3FD0120FBF727
:104D3000F0FD40F2DF10FBF7ECFD0020FBF7E9FD92
:104D4000B420FBF7E3FD0420FBF7E3FD40F21F4036
:104D5000FBF7DFFD0020FBF7DCFD2E20FBF7D9FD84
:104D60000020FBF7D6FD0020FBF7D3FD0020FBF76A
:104D7000D0FD0020FBF7CDFDB620FBF7C7FD0220DC
:104D8000FBF7C7FD4FF40370FBF7C3FD0020FBF7F3
:104D9000C0FD1720FBF7BDFD1520FBF7BAFD002075
:104DA000FBF7B7FD0020FBF7B4FDF020FBF7AEFDED
:104DB0000320FBF7AEFD2920FBF7A8FDD020FBF771
:104DC000A5FD0020FBF7A5FDBE20FBF79FFD0520FC
:104DD000FBF79FFDFE20FBF79CFD0120FBF799FDF3
:104DE0000020FBF796FD0020FBF793FD0020FBF76A
:104DF00090FDB820FBF78AFD0320FBF78AFD012018
:104E0000FBF787FDBA20FBF781FD0120FBF781FD51
:104E10006420FCF7DEF90020FCF703FA01203C498E
:104E200008604FF6FF70FCF7E8FB1FB000BD2DE9EE
:104E3000FC4F05460E4617469846DDF82C9000209C
:104E400001903148808846F60401884229D12E48D5
:104E50008079012825D1AB4635462B480088C01BF8
:104E6000401E86B2474628480088A0EB0B00401E33
:104E70001FFA80F80020244988712A2048812B20BD
:104E8000888143463A4631462846CDF80090FFF7E0
:104E9000CEFF01201C4988712B2048812A2088815F
:104EA0001CE0781B401C80B20190344614E021467F
:104EB0002846FBF767FDFBF748FD4FF0000A06E0C8
:104EC0001448A0F800900AF101001FFA80FA019836
:104ED0008245F5DB601C84B24445E8DDBDE8FC8F0B
:104EE0002DE9F84F07460D4690469946DDF828B063
:104EF000A8EB0700401C1FFA80FAA9EB0500401C34
:104F000080B2009000241CE06C00002070110100B1
:104F1000808121420008006C281981B23846FBF7D5
:104F200031FDFBF712FD002607E004FB0A603BF8A9
:104F30001000F8490880701C86B25645F5DB601CED
:104F400084B200988442E7DBBDE8F88F2DE9FF4F7B
:104F500084B081468A460020039002900698A0EB18
:104F600009050798A0EB0A06CDF80490CDF800A03B
:104F7000002D01DD012705E00DB9002702E04FF00B
:104F8000FF376D42002E02DD4FF0010806E016B932
:104F90004FF0000802E04FF0FF387642B54201DDE5
:104FA0002C4600E034464FF0000B21E0009A91B20D
:104FB000019A90B2FCF73FF80398284403900298B6
:104FC000304402900398A04205DD0398001B039033
:104FD0000198384401900298A04205DD0298001B18
:104FE00002900098404400900BF101001FFA80FBF2
:104FF000601C8345DADD08B0BDE8F08FF0B50446EB
:105000000D4616461F462B46324629462046FFF7D8
:105010009DFF3B46224629462046FFF797FF3B4629
:10502000324639462046FFF791FF3B463246294635
:105030003046FFF78BFFF0BD2DE9F04306460F46E3
:105040009046002445460320A0EB48093CE07A1B2B
:1050500091B2321990B2FBF7EEFF3A1B91B272197E
:1050600090B2FBF7E8FF3A1991B2721990B2FBF7D0
:10507000E2FF7A1991B2321990B2FBF7DCFF7A198C
:1050800091B2321B90B2FBF7D6FF3A1991B2721B64
:1050900090B2FBF7D0FF7A1B91B2321B90B2FBF7B4
:1050A000CAFF3A1B91B2721B90B2FBF7C4FF641C9B
:1050B000B9F1000F03DAA000801D814404E0601BF9
:1050C00080000A3081446D1EAC42C0DDBDE8F08333
:1050D0002DE9F84F80460E4617461C46B34620463B
:1050E000E31704EB5373DB1021464FEAE47C04EB37
:1050F0005C7C4FEAEC0CA4EBCC0CBCF1000F02D0B2
:105100004FF0010C01E04FF0000C6344224604EB29
:10511000D27C4FEA6C0C03FB0CF3DBB20093A7F1DB
:105120002000C7B2002556E00C2C07D107EB470042
:10513000794901EB800010F8059013E0102C05D19F
:10514000764800EB071010F805900BE0182C07D1FB
:1051500007EBC700724901EB800010F8059001E0F1
:10516000BDE8F88F4FF0000A2FE009F0800030B161
:105170006C48028831464046FBF76BFF07E00A980F
:1051800028B96948028831464046FBF762FF4FEA7A
:1051900049604FEA1069701C86B264484088B0428A
:1051A00000DCDDE7A6EB0B00A0420AD15E4608F169
:1051B00001001FFA80F85D480088404500DCCFE719
:1051C00006E00AF1010000F0FF0ABAF1080FCCDB9B
:1051D00000BF681CC5B200988542A5DB00BFBFE7D1
:1051E00010B50246012000E050430B00A1F101047C
:1051F000E1B2F9D110BD2DE9FF4F81B007469146CC
:105200001E460E9D4FF0000A002439E0301B401E60
:10521000C1B20A20FFF7E4FFB9FBF0F00A21B0FBAE
:10522000F1F201FB1208BAF1000F16D1701EA04274
:1052300013DDB8F1000F0ED10020AB4605EBDB719A
:10524000491001FB0471009088B22B46202202997C
:10525000FFF73EFF12E04FF0010A0020AB4605EBDE
:10526000DB71491001FB0471009088B208F1300134
:10527000CAB22B460299FFF72BFF00BF601CC4B2D5
:10528000B442C3DB05B0BDE8F08F2DE9FF4F82B01B
:10529000064692461F46DDE90F4800200190002592
:1052A0005CE0781B401EC1B20A20FFF799FFBAFBF1
:1052B000F0F00A21B0FBF1F201FB1209019840BBAA
:1052C000781EA84236DDB9F1000F31D108F0800018
:1052D00078B108F00100A34604EBDB71491001FB33
:1052E0000561009088B2234630220399FFF7F0FE53
:1052F0000EE008F00100A34604EBDB71491001FB4E
:105300000561009088B2234620220399FFF7E0FE52
:1053100022E00FE00008006CE88B00085C900008B9
:105320004C9600083A0000203C0000206C00002051
:105330000120019008F00100A34604EBDB71491045
:1053400001FB0561009088B209F13001CAB2234621
:105350000399FFF7BDFE00BF681CC5B2BD42A0DBCC
:1053600006B0BDE8F08F2DE9F84704460D4690469B
:105370009946DDE9096704F0FF0A08EB04001FFA0B
:1053800080F809EB05001FFA80F916E0444502DBBE
:105390005446A81985B24D4500DB14E0002000906A
:1053A0003A78334629462046FFF792FE304606EB10
:1053B000D07104EB61018CB27F1C38787E2802DC4E
:1053C00038782028E2DA00BFBDE8F8873EB5054608
:1053D0000C460121C80200F009FEADF80450ADF8FA
:1053E00000400020ADF80600ADF802008DF808007E
:1053F00069462B4801F0CAFC3EBD3EB505460C4649
:105400000121084600F0FFFDADF80450ADF8004062
:105410000020ADF80600ADF8020069464FF080406C
:1054200001F0B4FC0121880702F00CF84FF0804035
:1054300002F0BFFA3EBD3EB505460C4601210220F2
:1054400000F0E1FDADF80450ADF800400020ADF8EB
:105450000600ADF802006946124801F097FC3EBD17
:105460003EB505460C46104801F0BCFB0121082062
:1054700000F0C9FDADF80450ADF800400020ADF8D3
:105480000600ADF802006946074801F07FFC0121E3
:10549000054801F0D7FF044802F08BFA3EBD00003A
:1054A000002C014000040040000C004000B589B011
:1054B0000121082000F09AFD0121042000F0A3FD45
:1054C0004FF40070ADF8200028208DF82300032051
:1054D0008DF8220008A9994800F0CCFA4FF4007129
:1054E000964800F074FB42F21070ADF814004720AB
:1054F000ADF810000020ADF81600ADF8120004A9B8
:105500008F4801F043FC0C20ADF804000020ADF8FA
:1055100006000120ADF808000020ADF80A000320C5
:10552000ADF80C0001A9864801F0C3FE01218448B2
:1055300001F088FF1E208DF81C0001208DF81D0051
:1055400003208DF81E0001208DF81F0007A800F031
:10555000C8F9012211217A4801F08FFF09B000BD7E
:1055600010B50121764802F036FAF8B17548007896
:1055700000F08000D0B17348007820F0100071492D
:1055800008700846007800F00F0020B9084600783F
:1055900040F0400008706B48007800F00F000E28C3
:1055A00005DA68480078401C664908700AE06548DA
:1055B000007820F08000634908700846007800F009
:1055C000F000087010215E4802F005FA002810D0A3
:1055D0005D48006870B10221594802F02BF90021A2
:1055E000574802F0C3F95748007840F01000554979
:1055F000087070E0524802F0D8F954490880002140
:105600004F4802F017F94F48007800F010000028CA
:105610005BD04C48007800F08000E8B34B4800882D
:10562000B0F5967F0DDD49480088B0F5487F08DA6F
:10563000474800684000464908600846006808601E
:1056400043E042480088B0F5AF6F0FDD3F48008867
:10565000B0F5E16F0ADA3E48006840003C49086056
:105660000846006840F0010008602EE037480088D6
:1056700040F69801884228DD3448008840F6282109
:10568000884222DA33480078401C324908702D489D
:10569000007800F0F00000E002E02A49087014E011
:1056A0002A48008841F2680188420EDD27480088B8
:1056B00041F25C21884208DA2248007840F08000FC
:1056C000204908700020234908701E48007820F007
:1056D00010001C4908701121194802F08DF910BD05
:1056E00010B50020174B1B7803F040032BB3184B69
:1056F0001B68190E164B1B68C3F30742D343DBB27A
:105700008B420BD151B9124B1B88C3F30721104BAD
:105710001A78D343DBB28B4200D1084620B1094B43
:105720001B7803F0800343B9064B1B7823F040033A
:10573000044C23700023074C237010BD000C014063
:105740000008004040000020248121424200002047
:105750004400002048000020014600BF704700BF01
:10576000494A128802F04002002AF9D0C2B2464BE0
:105770001B1D1A80704710B586B00446012144F203
:10578000040000F033FC4FF40070ADF81400032067
:105790008DF8160018208DF8170005A93B4800F079
:1057A00069F94FF48060ADF8140004208DF81700FB
:1057B00005A9364800F05EF925208DF80000032089
:1057C0008DF801008DF8020001208DF80300684675
:1057D00000F087F801940020ADF80800ADF80A0049
:1057E000ADF80C00ADF810000C20ADF80E0001A9CA
:1057F000254800F0A2FC012240F22551224800F089
:1058000034FD0121204800F024FD06B010BD10B584
:1058100040F225511C4800F00DFE10B31A4800F06C
:1058200089FDC4B21A48008800F40040C8B918487D
:10583000008800F4804060B10A2C03D00020144995
:10584000088020E01248008840F400401049088099
:1058500019E00D2C06D10E48008840F480400C4918
:10586000088010E00A480088C0F30D0009490C5474
:1058700007480088401C0649088008460088C72859
:1058800001DD0020088010BD003801400008014003
:10589000500000207A00002009488047094800474E
:1058A000FEE7FEE7FEE7FEE7FEE7FEE7FEE7FEE7D0
:1058B000FEE7FEE704480549054A064B704700002D
:1058C0007F06000831010008A8010020A807002079
:1058D000A8030020A803002031490143314A116088
:1058E000704770B5002100230F22C47804B32D4CFB
:1058F000246804F4E064C4F5E064210AC1F10403FF
:10590000CA40447804FA03F1847814402143090121
:10591000254C0678A155047804F01F050124AC40FD
:1059200005786D11AD0005F1E025C5F8004109E0ED
:10593000047804F01F050124AC401C4D0678761154
:1059400045F8264070BD1A4A0A400243154B1B1FFA
:105950001A60704739B1134A121D12680243114B85
:105960001B1D1A6006E00F4A121D126882430D4B80
:105970001B1D1A607047042808D14FF0E021096907
:1059800041F004014FF0E022116107E04FF0E02107
:10599000096921F004014FF0E02211617047000015
:1059A0000000FA050CED00E000E400E080E100E01A
:1059B00080FFFF1F10B50446CC48844208D1012166
:1059C000042000F02DFB0021042000F029FB46E01C
:1059D000C748844208D10121082000F021FB0021A2
:1059E000082000F01DFB3AE0C248844208D10121A2
:1059F000102000F015FB0021102000F011FB2EE01C
:105A0000BD48844208D10121202000F009FB00217B
:105A1000202000F005FB22E0B848844208D1012193
:105A2000402000F0FDFA0021402000F0F9FA16E0D5
:105A3000B348844208D10121802000F0F1FA00210E
:105A4000802000F0EDFA0AE0AE48844207D101213F
:105A5000801500F0E5FA0021A01500F0E1FA10BD74
:105A600010B50121084600F0DBFA0021012000F00A
:105A7000D7FA10BD2DE9F04102460025002600208E
:105A800000230024002791F803C00CF00F0591F8C3
:105A900003C00CF0100CBCF1000F03D091F802C051
:105AA0004CEA050591F800C0BCF1000F31D0146834
:105AB00000202BE04FF0010C0CFA00F3B1F800C00D
:105AC0000CEA03069E4220D183004FF00F0C0CFA23
:105AD00003F7BC4305FA03FC4CEA040491F803C045
