:020000040800F2
:10000000B01000209D010008A5010008A70100080C
:10001000A9010008AB010008AD01000800000000C4
:10002000000000000000000000000000AF01000818
:10003000B101000800000000B3010008B50100088C
:10004000B7010008B7010008B7010008B7010008B0
:10005000B7010008B7010008B7010008B7010008A0
:10006000B7010008B7010008A9220008B70100087D
:10007000B7010008B7010008B7010008B701000880
:10008000B7010008B7010008B7010008B701000870
:10009000B7010008B7010008B7010008B701000860
:1000A0001559000835590008B7010008B7010008C4
:1000B000B7010008B7010008B7010008B701000840
:1000C000B7010008B7010008B7010008B701000830
:1000D000B7010008256000084D600008B70100085E
:1000E000B7010008B7010008B7010008B701000810
:1000F000B7010008B7010008B7010008B701000800
:10010000B7010008B7010008B7010008B7010008EF
:1001100015600008B7010008615900088D590008F2
:10012000B7010008B7010008B7010008B7010008CF
:10013000B7010008B7010008B7010008B7010008BF
:10014000B7010008B7010008B7010008B7010008AF
:10015000B7010008B7010008B7010008B70100089F
:10016000B7010008B7010008B7010008B70100088F
:10017000B7010008B7010008B7010008B70100087F
:10018000B7010008B7010008DFF80CD000F0CCFA86
:100190000048004711770008B0100020064880474B
:1001A00006480047FEE7FEE7FEE7FEE7FEE7FEE75C
:1001B000FEE7FEE7FEE7FEE7AD580008890100080C
:1001C00040EA01039B0703D009E008C9121F08C0D9
:1001D000042AFAD203E011F8013B00F8013B521E59
:1001E000F9D27047D2B201E000F8012B491EFBD2D0
:1001F00070470022F6E710B513460A460446194632
:10020000FFF7F0FF204610BD10B5044604E00B7860
:1002100000F8013B03B1491C521EF8D2204610BD24
:10022000421C10F8011B0029FBD1801A70472DE9F0
:10023000FE4F804681EA0300C00F0C46009021F07B
:10024000004123F00045B8EB0200A94105D2404629
:10025000214690461C460B46024623F000401043C0
:1002600047D0270DC7F30A00C3F30A510290401A82
:10027000019040286BDAC3F3130040F4801B009810
:10028000924620B10023D2EB030A63EB0B0B0198DB
:100290005946C0F14002504600F080F906460D462E
:1002A00050465946019A00F098F910EB0800614158
:1002B000002487EA115284EAE7731A4340D0009A77
:1002C00062B3019A012A4FEA075215DC001B61EB69
:1002D00002014FF0004202EA0752CDE90042001C41
:1002E00041F5801132462B4600F0CFF903B0BDE84E
:1002F000F08F40462146F9E7001B61EB0201001C2C
:1003000041F5801300185B412018A2F5001747EB58
:10031000030140EAD570B6196D4111E06D084FEA4E
:10032000360645EAC0754FEA0752001B61EB020131
:10033000001C41F5801149084FEA30000019514175
:1003400032462B4603B0BDE8F04F00F08FB900985D
:10035000012240000023D0EB020263EBE07300981F
:1003600021464FEAE074B8EB000061EB0401E9E7D5
:1003700083F000435BE781F0004158E72DE9FE4F31
:1003800081EA030404F0004421F0004100944FF09E
:10039000000B23F0004350EA01045ED052EA03044C
:1003A0005BD0C3F30A54C1F30A552C44A4F2F334CE
:1003B0000194A0FB0254C1F3130141F48011C3F373
:1003C000130343F4801301FB024400FB034E840A31
:1003D000970A44EA815447EA8357A4FB07680295C9
:1003E0008D0A05FB07854FEA932C04FB0C54270567
:1003F000029D4FEA065847EA1637B5EB08056EEB43
:10040000070C870E920E47EA811742EA8312A7FB78
:100410000201B6EB0B0164EB00042B0D43EA0C3335
:100420005E1844EB1C50DA465146E7FB0201C5F367
:1004300013044FEA0B3343EA14534FEA0432019C8E
:1004400043EA0603A4F10C040294009CCDE900B435
:1004500000F01BF903B0BDE8F08F00200146F9E77A
:100460002DE9F04D81EA030404F0004B21F0004532
:1004700014464FF0000A23F0004150EA050220D054
:1004800054EA01021DD0C5F30A570246C5F313030F
:10049000C1F31300C1F30A5640F4801543F48013EE
:1004A000A7EB0608101BD64608F2FD3873EB0500D3
:1004B00002D308F1010801E092185B41B8F1000F86
:1004C00003DA00200146BDE8F08D00204FF48011D2
:1004D000064684460EE0171B73EB050705D3121B77
:1004E00063EB050306434CEA010C49084FEA300070
:1004F00092185B4150EA0107EDD152EA030012D095
:1005000082EA040083EA0501084305D0101BAB41D1
:1005100006D20122002306E000224FF0004302E051
:100520006FF0010253101AEB06004CEB085110EB70
:100530000A0041EB0B01BDE8F04D00F097B800F068
:10054000004230F000400AD0C10D01F56071C0F3E7
:10055000160042EA0151C2084007114370470020CB
:100560000146704701F0004330B421F0004150EAE9
:10057000010206D00A0DA2F56072C1F31301002A30
:1005800002DC30BC00207047440F44EAC104C100C3
:10059000E01830BC00EBC25000F031B8202A04DB78
:1005A000203A00FA02F1002070479140C2F1200386
:1005B00020FA03F3194390407047202A04DB203AC5
:1005C00021FA02F00021704721FA02F3D040C2F173
:1005D00020029140084319467047202A06DBCB17BA
:1005E000203A41FA02F043EAE07306E041FA02F3EE
:1005F000D040C2F1200291400843194670470029BB
:10060000A8BF7047401C490008BF20F00100704798
:1006100010B4B0FA80FC00FA0CF050EA010404BFF8
:1006200010BC704749B1CCF1200421FA04F411FA4E
:100630000CF118BF012121430843A3EB0C01CB1D92
:100640004FEA00614FEA102042BF002010BC704703
:1006500000EBC35010440029A4BF10BC7047401CDD
:10066000490008BF20F0010010BC704710B5141EEF
:1006700073F1000408DA401C41F1000192185B415B
:100680001A4301D120F0010010BD2DE9F04D924632
:100690009B4611B1B1FA81F202E0B0FA80F2203249
:1006A0009046FFF77BFF04460F4640EA0A0041EA06
:1006B0000B0153465A46084313D0114653EA010032
:1006C00019D0C8F140025046FFF777FF05460E46A5
:1006D000504659464246FFF761FF084305D00120C6
:1006E00004E020463946BDE8F08D0020054346EA87
:1006F000E0762C4337430A986305E40AA0EB080030
:100700000022FD0A44EA47540A3002D5002001467F
:10071000E9E7010510196941DDE90845001969415A
:10072000BDE8F04DA2E70000064C074D06E0E0688A
:1007300040F0010394E8070098471034AC42F6D328
:10074000FFF726FDC87C0008E87C000870B58D180E
:1007500010F8014B14F0030201D110F8012B231102
:1007600006D110F8013B03E010F8016B01F8016BB2
:10077000521EF9D1ABB110F8012B04F00C048A1A07
:100780000C2C03D0A2EB84129B1C08E010F8014B48
:10079000A2EB0422F8E712F8014B01F8014B5B1EB3
:1007A000F9D5A942D4D3002070BDCA430260704776
:1007B00021B1826842F00102826003E0826822F087
:1007C00001028260704700000021084A1168084A4F
:1007D0001140D0E900231A4383681A43C3681A43BF
:1007E0001143044AC2F80413704700000423014077
:1007F000E030FCFF0020014000B58DB0012108462B
:1008000004F0B0F90121080204F0DCF94020019065
:1008100003208DF8080000208DF80B0001A917486F
:1008200003F0ECF90020039004900690059003A8D3
:10083000FFF7CAFF0121080204F0D4F900214FF4A8
:10084000807004F0CFF900208DF8200007908DF81B
:10085000210009900B9001208DF8300007A908486D
:1008600000F01EF8062301221946054800F042F860
:1008700001210348FFF79CFF0DB000BD00000240BE
:10088000002001400146C86C80B27047024600203B
:1008900013680B400BB1012000E0002070470000FE
:1008A00030B50246002000235068104C20400D79DE
:1008B0000C6844EA05242043506090680C4C2040AA
:1008C000D1E903542C438D682C434D7944EA450407
:1008D00020439060D06A20F470000C7D641EE4B266
:1008E000234340EA0350D06230BD0000FFFEFFFC0E
:1008F000FDF7FFC0F0B504460D4600200021092D8C
:1009000011DDE068A5F10A0606EB4607072606FAA0
:1009100007F18843A5F10A0606EB460603FA06F13D
:100920000843E0600CE0206905EB4507072606FA5E
:1009300007F1884305EB450603FA06F108432061F9
:10094000072A0FDA606B561E06EB86071F2606FA8B
:1009500007F18843561E06EB860605FA06F10843A2
:10096000606322E00D2A0FDA206BD61F06EB8607A4
:100970001F2606FA07F18843D61F06EB860605FAFE
:1009800006F10843206310E0E06AA2F10D0606EBD1
:1009900086071F2606FA07F18843A2F10D0606EB2B
:1009A000860605FA06F10843E062F0BD816841F071
:1009B000804181607047000070B50023224A1278A0
:1009C000082A03DA0022214C22703BE0002034E0A8
:1009D0001F4A125C552A2ED11D4CC21DA25CBB2A97
:1009E00029D12546841C2D5D194EC41C345D254437
:1009F000041D345D2544441D345D2A19D41702EBCF
:100A000014642412A2EB0424E3B23446821DA25CD7
:100A10009A420DD1002105E00A180D4CA25C6254E7
:100A20004A1CD1B20829F7DB0122084C227002E0EF
:100A30000022064C2270421CD0B2034A1278D21F08
:100A40008242C5DA70BD00005B060020A5060020CA
:100A5000640A002010B500F009F8012004F0C6FE79
:100A600000200149086010BDBC0243421CB50121B1
:100A7000422004F077F84020009001208DF8040017
:100A800000208DF8060003208DF8050069460A480D
:100A900003F0B4F84FF40040009001208DF80400FA
:100AA00000208DF8060003208DF8050069460248F5
:100AB00003F0A4F81CBD00000004024010B504F0CF
:100AC00015FA012008490860022006F029FC0748B1
:100AD000D0F81C02C4B2002003490860022006F0CE
:100AE0001FFC204610BD000098824042008040421A
:100AF00070B5002404F0FAF90120104908600025BF
:100B000017E06006040E01200C49091F086002204E
:100B100006F006FC0A48D0F81C0208B1601CC4B2FA
:100B200000200649091F0860022006F0F9FB681C36
:100B3000C5B2082DE5DB204670BD00009C82404216
:100B40000080404210B5044604F0E0F91CB10120D9
:100B50000A49086002E000200849086001200749AE
:100B6000091F0860022006F0DBFB00200449C1F8E1
:100B70009802022006F0D4FB10BD00009C82404287
:100B80000080404270B5044604F0C0F900251BE027
:100B900004F080061EB101200E49086002E000202A
:100BA0000C4908606006040E01200A49091F08600C
:100BB000022006F0B5FB00200749C1F89802022088
:100BC00006F0AEFB681CC5B2082DE1DBFFF776FF2F
:100BD00070BD00009C8240420080404210B504F08D
:100BE00095F90120094908600949C1F898020420D3
:100BF00006F096FB002005490860042006F090FBF3
:100C000000200349C1F8980210BD00009C824042B8
:100C10000080404210B504F079F9002007490860CF
:100C200001200749C1F89802042006F079FB012051
:100C300002490860042006F073FB10BD9C8240420C
:100C40000080404210B504460B48844209D101217E
:100C5000480603F0A7FF00214FF0007003F0A2FF49
:100C600008E00121880603F09DFF00214FF080601D
:100C700003F098FF10BD00000064004010B5002193
:100C8000837A012202FA03F13D4A126842F001021E
:100C90003B4B1A603A4A1C3212688A43384B1C3369
:100CA0001A60027BCAB9364A0C3212688A43344B46
:100CB0000C331A604288C38842EA0343304A403208
:100CC000847A42F834300288838842EA03432C4A0B
:100CD0004032847A02EBC4025360027B012A19D1AC
:100CE000274A0C3212680A43254B0C331A6042889B
:100CF000038842EA0343224A4032847A42F834307D
:100D0000C288838842EA03431D4A4032847A02EB58
:100D1000C4025360C27A3AB9194A121D12688A4352
:100D2000174B1B1D1A6006E0154A121D12680A4374
:100D3000134B1B1D1A60028932B9114A1432126812
:100D40008A430F4B14331A600289012A06D10C4AD8
:100D5000143212680A430A4B14331A60427B012A88
:100D600006D1074A1C3212680A43054B1C331A602D
:100D7000034A126822F00102014B1A6010BD000004
:100D8000006600401AB143690B43436102E04369C6
:100D90008B434361704730B502460020002314683E
:100DA00024F002041460146844F00104146000E0AC
:100DB0005B1C546804F001041CB94FF6FF74A34295
:100DC000F6D1546804F001040CB900206CE08C7971
:100DD000012C04D1146844F08004146003E014680A
:100DE00024F080041460CC79012C04D1146844F000
:100DF0004004146003E0146824F0400414600C7A8A
:100E0000012C04D1146844F02004146003E0146839
:100E100024F0200414604C7A012C04D1146844F0AE
:100E20001004146003E0146824F0100414608C7A39
:100E3000012C04D1146844F00804146003E0146821
:100E400024F008041460CC7A012C04D1146844F016
:100E50000404146003E0146824F0040414608C7823
:100E6000A407CD7844EA05640D7944EA05444D7938
:100E700044EA05540D886D1E2C43D461146824F097
:100E800001041460002300E05B1C546804F00104BA
:100E90001CB14FF6FF74A342F6D1546804F001046C
:100EA0000CB1002000E0012030BD0246002019B93D
:100EB000D36803F0030006E0012903D1136903F0AE
:100EC000030000E00020704710B500F5D87303EB75
:100ED00001131B6803F004031372137A53B900F56E
:100EE000D87303EB01131B6840F2FF7404EA5353F9
:100EF000136009E000F5D87303EB01131B686FF072
:100F0000604404EAD303536000F5D87303EB011384
:100F10001B6803F00203537200F5D87303EB01134F
:100F20005B6803F00F03937200F5D87303EB0113B2
:100F30005B681B0AD37400F5D87303EB01139B683D
:100F4000D37200F5D87303EB01139B681C0A14736A
:100F500000F5D87303EB01139B681C0C547300F568
:100F6000D87303EB01139B681B0E937300F5D873C2
:100F700003EB0113DB68D37300F5D87303EB0113A4
:100F8000DB681C0A147400F5D87303EB0113DB68EB
:100F90001C0C547400F5D87303EB0113DB681B0EB3
:100FA000937421B9C36843F02003C36003E003696D
:100FB00043F02003036110BD10B502460020936882
:100FC00003F08063B3F1806F00D110E0936803F009
:100FD0000063B3F1006F01D1012008E0936803F0D2
:100FE0008053B3F1805F01D1022000E00420042887
:100FF00074D002F5C07303EB00131B6803F0010407
:1010000002F5C07303EB00131C600B7A7BB94B7ABB
:101010000C8843EA445302F5C07404EB00142468BE
:10102000234302F5C07404EB0014236010E00B7A34
:101030004C6843EAC4034C7A234302F5C07404EBC2
:1010400000142468234302F5C07404EB00142360E9
:101050008B7A03F00F038B7202F5C07303EB00135E
:101060005B6823F00F0402F5C07303EB00135C60B0
:1010700002F5C07303EB00135B688C7A234302F51F
:10108000C07404EB001463608B7B1C064B7B44EA4A
:1010900003440B7B44EA0323CC7A234302F5C07458
:1010A00004EB0014A3608B7C1C064B7C44EA0344D5
:1010B0000B7C44EA0323CC7B234302F5C07404EB8E
:1010C0000014E36002F5C07303EB00131B6843F0E8
:1010D000010402F5C07303EB00131C6010BD000097
:1010E00010B50246002321B1012907D002290FD1F2
:1010F00009E090681D4C00EA04030BE090681C4C6A
:1011000000EA040306E090681A4C00EA040301E0D8
:10111000002300BF00BF184C181BA34216D007DCE9
:1011200083B16FF08060184470B1022818D111E0CB
:10113000B0F5007F10D0114C204448B1B0F5003F0D
:101140000ED10BE002230DE000230BE0002309E0A9
:10115000002307E0012305E0012303E0012301E070
:10116000002300BF00BFD8B210BD00000300000480
:101170000003000800000310000100080001FFF751
:101180002DE9F0410746884615460421052001F067
:101190004FF80021012005F051FB80210A2004F0C6
:1011A00069FA002405E0395D092005F047FB601C61
:1011B000C4B24445F7DB0321012005F03FFBFF24C7
:1011C00000BF052003F0D0FD0646601EC4B21CB16E
:1011D00006F004000028F4D0222003F0C5FD28709A
:1011E000212003F0C1FD6870BDE8F0812DE9FF47C3
:1011F00005460E464FF0000A06B10DB94FF0010A40
:101200009448007800F00F00032801DD4FF0010A38
:1012100090480078C0F30019BAF1000F19D00020EF
:101220008DF80A008DF80B0001208DF80C000020CD
:10123000ADF80000ADF80200ADF80400ADF806000E
:10124000ADF8080001208DF80D006846FFF716FD87
:10125000FEE00020ADF8080001208DF80D004FF0F1
:1012600000080024F2E07B48007800F00F0030B165
:1012700001283BD002287BD0032874D19CE00020B9
:101280008DF80B008DF80C0035F824004B46002239
:10129000114600F0E1F8ADF8020005EB8401488842
:1012A0004B460022114600F0D7F8ADF80600601C4E
:1012B000C0B20446B04213DA35F824004B4600228F
:1012C000114600F0C9F8ADF8000005EB840148882C
:1012D0004B460022114600F0BFF8ADF8040004E0D0
:1012E0000020ADF80600ADF804009CE001208DF868
:1012F0000B0000208DF80C0035F824004B4600222E
:10130000114600F0A9F8ADF80200601CC0B2044616
:10131000B04207DA35F824004B460022114600F0AF
:101320009BF800E00020ADF80600601CC0B2044647
:10133000B04207DA35F824004B460022114600F08F
:101340008BF800E00020ADF80000601CC0B204463D
:10135000B04209DA35F824004B460022114600F06D
:101360007BF802E004E051E00020ADF804005AE010
:1013700000208DF80B0001208DF80C0035F82400BA
:101380004B460022114600F081F80746B8B2ADF88E
:101390000200380CADF8000005EB840148884B468C
:1013A0000022114600F072F80746B8B2ADF8060008
:1013B000380CADF8040036E001208DF80B008DF8F4
:1013C0000C0035F824004B460022114600F05EF870
:1013D0000746B8B2ADF80200380CADF80000601C4A
:1013E000C0B20446B04208DA05EB840148884B4697
:1013F0000022114600F04AF800E000200746B8B28B
:10140000ADF80600380CADF804000CE00020ADF893
:101410000200ADF80000ADF80600ADF80400344657
:101420004FF0010A00BF00BF8DF80A806846FFF741
:1014300025FCB44202DA601CC4B200E007E008F107
:101440000100C0B280460D2800DB00E00BE700BFC2
:10145000BDE8FF87EC03002010B50446C4F309047F
:101460000AB1102000E0002002460BB1082000E085
:101470000020034613B1C1F3C13000E00020014653
:1014800042EA44101843084380B210BD10B5044628
:10149000C4F309040AB1022000E0002002460BB1A7
:1014A000042000E00020034613B18803C00A00E0D6
:1014B0000020014642EA44301843084310BD0000B2
:1014C00010B500210148FFF7F0FC10BD006400409A
:1014D00070B50446002554B100210648FFF7E5FC2D
:1014E000054625B1224600210248FFF7EDFC2846BB
:1014F00070BD0000006400402DE9F04706460C4630
:1015000017469846DDF820904FF0000A154807600E
:10151000C0F804800020134908724872084684729B
:10152000224631460B30FEF74BFE0E490E48FFF7C0
:1015300043FD0546042D09D04FF0010A29460A480B
:10154000FFF7CEFD012801D14FF0020ABAF1010FD9
:1015500004DBB9F1000F01D089F800505046BDE816
:10156000F0870000940800200064004004480068F0
:1015700000F0E05008B1012070470020FCE70000B7
:101580000864004000B500BFFFF7F0FF0028FBD063
:1015900000BD10B501E000F005F8FFF791FF00284D
:1015A000F9D110BD10B52448FFF792FF2248C07C46
:1015B00020B101280AD0022818D10FE01E48827AF3
:1015C00000F10B011D4800F03AFF24E01A48827A2E
:1015D00000F10B011A4800F032FF1CE01648827A35
:1015E00000F10B01174800F02AFF14E01248C07CFC
:1015F00003280FDB1048C07C06280BDC0E48C07C9B
:10160000C01E114901EBC0000B490B310A68026092
:101610004968416000BF00BF0748C07C062809DC5C
:101620000548C07C094951F8200009490968084368
:101630000749086010BD0000080A0020BC0800200F
:10164000CC080020EC0800201C0A0020B87B000811
:10165000F003002000B5034A5178107802F0E8FC4E
:1016600000BD00001C0A00207CB5012539E00025E2
:1016700008221D491D4800F0CDFEC4B25CB1FFF741
:1016800081FF01A800234FF4707221460090164894
:10169000FFF732FF012508221349154800F0BAFE72
:1016A000C4B25CB1FFF76EFF01A800234FF42072B3
:1016B000214600900C48FFF71FFF012508220A4928
:1016C0000C4800F0A7FEC4B25CB1FFF75BFF01A8B5
:1016D00000234FF42872214600900348FFF70CFFC7
:1016E0000125002DC3D17CBDF4030020BC080020DF
:1016F000DC080020FC08002010B50D4A32210D48FE
:1017000000F02AF80C4A32210C4800F025F80C4A67
:1017100032210C4800F020F80B4A32210B4800F02F
:101720001BF80B4A32210B4800F016F810BD0000E0
:101730000C090020BC0800203E090020CC08002035
:1017400070090020DC080020A2090020EC0800201D
:10175000D4090020FC08002070B504460E4615464A
:101760002660E5600021204600F0A3FE70BD000069
:1017700038B5FFF70EFF68E0FFF70BFF002462E0CB
:10178000344850F82400344909680840002858D0EB
:10179000072C4DD2DFE804F0040C1824273946004A
:1017A00000BF69462D4800F096FE0028F9D13FE0C1
:1017B00003E09DF8000000F0A3FB6946284800F014
:1017C0008AFE0028F5D133E003E09DF8000000F028
:1017D00093FC6946234800F07EFE0028F5D127E0FF
:1017E000FFF738FF24E0204804F00CFC1F49088074
:1017F00005E01E480088A0F561601C4908801B4870
:101800000088B0F5616FF4DA12E017480838007C00
:10181000022806D11448093004F0ECFB00B2144948
:10182000088005E010480838007E012800D100BF7C
:1018300000BF104850F824000749096808400649CD
:101840000860601CC4B2062C9ADD034800680028BA
:1018500092D138BDB87B0008F0030020BC080020FE
:10186000CC080020EC080020240A002000040020FE
:10187000FE030020387C000810B5002005490860F0
:101880000549087007210548FFF7B0FCFFF734FF52
:1018900010BD0000F0030020EC0300200204002033
:1018A00010B5FC48007800286ED0FB48006805F0B1
:1018B000D5FE002868D1F9480078FD2807D1F848FE
:1018C0000078401CC1B2F54803F0AEFE59E0F34881
:1018D000007866284CD1F1484078AA2851D1EF48C9
:1018E0008078962827D006DC882809D0932810D045
:1018F00094283BD116E0982826D0A02836D12CE099
:101900001422E649E748FEF77FFC0120E64908700B
:101910002DE01422E149E548FEF776FC0120E44978
:10192000087024E01422DD49E248FEF76DFC012036
:10193000E14908701BE01422D849E048FEF764FC36
:101940000120DF49087012E01422D449DD48FEF777
:101950005BFC0120DC49087009E01422CF49DB4818
:10196000FEF752FC0120DA49087000E000BF08E0F1
:10197000CA480078552802D102F05EFD01E0FFF769
:101980001BF80020C3490870D2480078012879D19B
:10199000D149C24805F06EFE0A20CF49887107215F
:1019A000CD4803F0D9FDBD484078AA286BD1BB488B
:1019B0008078202868D00EDC16287DD2DFE800F081
:1019C0007C2C3365A2BEDBF8F9F57C7C7C7C7C7CCE
:1019D000F4F3F27CF1F061286FD00EDC4E286DD06C
:1019E00006DC30286BD040286AD04D2864D10DE247
:1019F000502866D05128F9D1ACE180287ED006DC91
:101A000062287CD063287BD07628EFD1EBE1922846
:101A100077D0FF28EAD11FE20021084603F0CEFD6F
:101A200003F0E8F923E203F02BFA0020AB49087039
:101A30000120AB4908700020AA490870AA49087023
:101A4000AA490870AA490870AA49087093484079C1
:101A5000A9490880084600884FF6FF7101EA002076
:101A6000A54908808D48007909880843A249088063
:101A70008A48C078A149086008460168006800F0FB
:101A8000E5FBF4E1FBE1F3E14EE103F0F9F90020BD
:101A900092490870924908709249087092490870FA
:101AA00092490870012092490870002091490870FD
:101AB0007A484079904905E0D8E150E1B9E13EE14A
:101AC00042E142E10880084600884FF6FF7101EAD2
:101AD00000208949088071480079098808438649AF
:101AE00008806E48C0788549086008460068414211
:101AF00082480068404200F0A9FBB8E14AE137E1C2
:101B00003FE160E1002075490870754908700120C7
:101B10007449087000207449087074490870744949
:101B20000870744908705D48C078744908600846B8
:101B300001680068404200F089FB98E10020674995
:101B40000870674908706749087001206649087085
:101B500000206649087066490870664908704F4859
:101B6000C0786649086008460068414263480068DA
:101B700000F06CFB7BE10020584908705849087060
:101B800058490870584908705849087058490870F1
:101B90000120584908704148C0785849086066E1FA
:101BA00007E1FCE0BBE0AFE068E034E001E0FFE724
:101BB0005DE103F091F903F063F9002047490870F3
:101BC000474908704749087047490870012047494C
:101BD0000870002046490870464908702F4840792F
:101BE00047490880084600884FF6FF7101EA002047
:101BF00043490880294800790988084340490880FA
:101C00002648C0783D49086008460168006840429F
:101C100003F0D4FC2BE103F05FF903F031F900206D
:101C20002E4908702E4908702E4908702E490870F8
:101C300001202E49087000202D4908702D49087098
:101C4000164840792E490880084600884FF6FF71F3
:101C500001EA00202A4908801048007909880843D1
:101C6000274908800D48C078244908600846006864
:101C700041422248006803F0A1FCF8E00748C07820
:101C800020490870054800794870044840798870F8
:101C9000EDE000005C06002064060020640A0020DD
:101CA0005B0600205F0C00209C060020370C002003
:101CB0009D060020730C00209F060020870C00204A
:101CC000A00600209B0C0020A10600204B0C002049
:101CD0009E060020A5060020F40B0020C203002071
:101CE000BB030020B8030020B9030020BA03002082
:101CF000BC030020BD030020D0030020CC03002043
:101D0000D2030020A60600205D48C0785D49C87057
:101D10005B48007908715A4840794871A7E006216C
:101D2000584802F0ABF9A2E05548C178012003F011
:101D300037FD53480179022003F032FD97E0504906
:101D4000C87803F01BFD92E091E004214E4802F0B8
:101D500095F98CE004214D4802F090F987E00421C8
:101D60004B4802F08BF903214AA003F01BFC7EE0F4
:101D70000421494802F082F9032148A003F012FC33
:101D800075E00421464802F079F9032145A003F0EB
:101D900009FC6CE03A48C0784349087067E00120CC
:101DA0004249087005F054FC00F2DC5040490860DC
:101DB0005DE001203F49087005F04AFC00F2DC506C
:101DC0003B49086053E001203B49087004F0FCFAED
:101DD00032213A4804F0E6FA04F002FB3221374897
:101DE00003F006FC43E00821354803F01DFC1E20EB
:101DF00005F066FA0821334803F016FC1E2005F0B2
:101E00005FFA0821304803F00FFC30E008212F482A
:101E100003F00AFC1E2005F053FA08212C4803F0B9
:101E200003FC1E2005F04CFA08212A4803F0FCFBB5
:101E30001DE00821284803F0F7FB1E2005F040FABA
:101E40000821264803F0F0FB1E2005F039FA08218E
:101E5000234803F0E9FB0AE001202249087004202E
:101E60002149087021A003F0EDFA00E000BF03E073
:101E70000821034803F0D8FB00202049087010BD5A
:101E8000640A0020A6060020280400202C0400205C
:101E900030040020310A000034040020320A00001F
:101EA00038040020330A00005F0600205F01002094
:101EB000840100206101002062010020050C002047
:101EC000BA040020C2040020CA040020D20400206A
:101ED000DA040020E2040020EA040020F2040020DA
:101EE000FA0400206C0600206D060020C8ABD7D491
:101EF000B6AFC8CECEF1BFAACABC0000A50600206E
:101F000010B504460F48007870B905F0A1FB0A30FF
:101F10000D49086000200D4908700D4809784454A7
:101F20000120084908700BE008480078C82807DA43
:101F300006480078401CC0B20449087004490C549B
:101F400010BD00005C060020640600205B06002037
:101F5000640A002010B561480078002874D06048F9
:101F6000006805F07BFB00286ED15E4840780328AE
:101F700008D15C488078012803D15A4800795A4931
:101F80000870A7E0574840780C280CD15548807855
:101F90000128F6D15348C0780128F2D15148007980
:101FA0005149087096E04F4840780E2808D14D48B6
:101FB0008078012804D14B4800794B49087089E0AA
:101FC000484840780D2858D146488078032854D195
:101FD0004448C07801281BD142480079012806D026
:101FE000022808D003280AD0042810D10BE00920C9
:101FF0003D4908700BE00A203B49087007E00B20C0
:102000003949087003E00C203749087000BF61E0CF
:102010003448C07802285DD132480079012807D1C0
:1020200030484079012803D111202F49087051E030
:102030002C480079022808D12A484079022804D186
:1020400022202949087045E047E026480079012808
:1020500007D124484079022803D112202249087070
:1020600038E020480079022834D11E484079012800
:1020700030D121201C4908702CE01A4800785528DE
:102080001CD118484078022818D116488078922828
:102090000BD1322213491548FEF792F8AA201349B2
:1020A000487000200F49887004E032220D49104822
:1020B000FEF786F801200F4908700BE009484078C8
:1020C000062807D107488078012803D10548C07841
:1020D0000549087000200149087010BD5E06002007
:1020E000680600202C0B0020C2030020050C0020F5
:1020F000220800206006002010B504460F48007832
:1021000070B905F0A5FA0A300D49086000200D49A4
:1021100008700D48097844540120084908700BE004
:1021200008480078C82807DA06480078401CC0B282
:102130000449087004490C5410BD00005E060020DC
:10214000680600205D0600202C0B00207FB50546A8
:102150000C460121202002F015FD0295ADF8044047
:102160000020ADF80600ADF80C008DF80E0001A9B6
:102170000D4803F045FC37208DF8000000208DF855
:10218000010004208DF8020001208DF8030068464C
:1021900002F00CF901221146034803F027FC01214B
:1021A000014803F006FC7FBD0014004010B5FFF7A6
:1021B000DFFAFFF759FA10BD1CB501214FF4C070CA
:1021C00002F0D0FCF020009000208DF804000120E7
:1021D0008DF807006946144801F010FD4FF4704077
:1021E000009001208DF8040000208DF806000120E9
:1021F0008DF8070003208DF8050069460B4801F0B3
:10220000FDFC2020009001208DF8040000208DF8B6
:10221000060001208DF8070003208DF805006946AF
:10222000024801F0EBFC1CBD00200240001C0240F3
:1022300070B505460C460026284602F095FD064678
:1022400026EA0401284604F0F9FA70BD70B5054687
:102250000C46002D06DB642D00DD6425052D0BDA10
:10226000052509E015F1640F01DA6FF0630515F13A
:10227000050F01DD6FF00405002C06DB642C00DD8A
:102280006424052C0BDA052409E014F1640F01DA4B
:102290006FF0630414F1050F01DD6FF004042146B3
:1022A000284603F08BF970BD10B52DED068B10207C
:1022B00000F054F8012835D110211C4801F009FD27
:1022C00068BB00211A4803F074FB1A4890ED000A1D
:1022D000B8EE400A184880ED000A0068FEF72FF9B2
:1022E00041EC1A0B9FED150B53EC102BFEF746F843
:1022F00041EC190B9FED130B53EC102BFEF738F844
:1023000041EC180BFEF72EF90B490860084690EDDA
:10231000000ABCEEC00A10EE100A0C49088010201A
:1023200000F016F8BDEC068B10BD00000004024062
:1023300000100040480300204403002085EB51B802
:102340001E85FB3F00000000000034404C030020CD
:102350000149086070470000143C0140014600201C
:10236000034A12680A400AB1012000E000207047C9
:10237000143C0140002123498279002A3AD00A46C0
:10238000126803689A430B461A600A1D12680368B4
:102390009A430B1D1A60027911440A6803681A43B4
:1023A0000A60184A0832126803689A43154B0833CA
:1023B0001A601A1D126803689A43124B0C331A6094
:1023C0004279102A0ED11A1F126803681A430D4B66
:1023D00008331A601A1D126803681A43094B0C333C
:1023E0001A600DE00749427911440A6803681A43EC
:1023F0000A6005E0027911440A6803689A430A609A
:1024000070470000003C014010B502F03DF8FEF7B7
:10241000F3F910BDF0B507460C461646002564B129
:1024200006E06119384600F056F800B904E06D1C6A
:102430003000A6F10106F4D100BF2846F0BDF0B58A
:1024400007460D461646002406E0295D384600F092
:102450006CF800B904E0641C3000A6F10106F4D168
:1024600000BF2046F0BD30B504460025204600F0F0
:102470004AF870B1D4E90001401E814203D1A0683E
:1024800038B1012505E0D4E90101401C814200D0AA
:102490000125284630BD30B504460025204600F011
:1024A00032F820B1D4E90110884200D00125284635
:1024B00030BD70B504460D4664B12068012809D9C5
:1024C0000020A0602068401E60602A462168E06805
:1024D000FDF788FE70BD70B504460D46002685B137
:1024E0002046FFF7C0FF60B16068401C6060216853
:1024F000884201D3002060606168E068405C287019
:102500000126304670BD0146002069B10A68012AE3
:102510000AD9CA6842B10B688A689A4204D2D1E9E2
:1025200000329A4200D20120704770B504460D4631
:1025300000262046FFF7AFFF58B1A168481CA060F5
:10254000E06845542168A068884201D30020A0605B
:102550000126304670BD000010B5FE480078712895
:1025600072D07FDC3D2871D041DC1F286FD01EDC8B
:102570000C286DD00DDCA0F10400072881F02F831A
:10258000DFE810F0D000DC00EB00F2002D0B2D0B8B
:10259000FB0014286AD005DC0D2868D00E2841F015
:1025A0001E834DE1192863D01E28F8D197E12D280C
:1025B0005FD00FDCA0F120000A28DFD2DFE810F0A6
:1025C000F7010F0B0F0B07020E020F0B0F0B0F0B78
:1025D00017021F0230284DD004DC2E284BD02F28A4
:1025E000DDD138E2372847D03C28D8D1ABE2532898
:1025F00043D019DCA0F13E001428BFD2DFE810F070
:10260000DC02FA02EF0A03030A031103EF0AEF0ADE
:102610001A032203EF0AEF0AEF0A29033003EF0A35
:10262000EF0AEF0A390342036A2827D011DC5F283A
:1026300025D004DC542823D05A28B0D1C8E364281C
:102640001FD06928ABD1FDE3FDE30BE099E26AE11D
:10265000ABE06B2816D06E2815D06F2814D07028E8
:102660009DD1F1E373384B2888D20EE014E1A2E04B
:102670001AE1CDE134E2D2E15EE22EE3F5E3CFE30D
:1026800053E3F3E3F3E3F3E3F3E3DFE810F03105BF
:1026900059058105F60502062A0652067606A80A9D
:1026A000A80A9E06C606EE0616073E0766078E07B0
:1026B000B60723084B0873089B08A80AA80AA80AAB
:1026C000C308EB0813093B0963098B09B409A80A7D
:1026D000A80AA80ADD09E409ED09A80AA80AF4096C
:1026E000FB09040A0B0A470A500A570A600A670ADC
:1026F000700A790A970AA80AA80AA80AA80AA80AC2
:10270000A80AA80AA80AA80AA80AA80AA80AA80A39
:102710009701A80AA80ADE01A80AA80AA80AA80A16
:10272000A80A6B0208218C4802F07EFF142004F0F6
:10273000C7FD05208749087001F052BA0821874873
:1027400002F072FF142004F0BBFD85480088854923
:10275000088006207F490870EEE7322004F0CEFEA4
:1027600007207C490870E7E74FF49671322004F0A7
:10277000FDFD0A2077490870DEE740F21A411E206D
:1027800004F008FF01280CD17548B0F90000754924
:102790000988401AB0F5966F06DA0C206D4908706A
:1027A00002E014206B490870C6E704F023FE0D20F8
:1027B00068490870C0E788206B4988700920C87094
:1027C0006A4800780871694840784871674880789D
:1027D00088716648C078C871644800790872634897
:1027E000407948726148807988726048C079C872BF
:1027F0005E48007A08735D48407A48735B48807A87
:1028000088735A48C07AC8735848007B0874574880
:10281000407B48745548807B88745448C07BC8749A
:102820001421514802F0E4FE03F0CEFD14214E487D
:1028300003F0B8FD03F0D4FD0E20464908707BE795
:102840004B48007858B90121084602F0A9FF012140
:10285000022002F0A5FF0E203E4908701BE0002177
:10286000012002F09DFF0021022002F099FF414863
:1028700000794149087008460078012808D00846C8
:102880000078022804D008460078032800D000BF52
:102890001420304908704FE70C21384802F0A8FE98
:1028A00019202C49087047E73548007858B90121AC
:1028B000084602F075FF0121022002F071FF192085
:1028C000244908700AE00021012002F069FF00217C
:1028D000022002F065FF1E201E4908702CE72948DF
:1028E00000792949C87027484079087125488079BE
:1028F00048718978244AD2781144234A12791144C4
:10290000214A52798818C11700EB11610912A0EB16
:1029100001211D4A91710821104602F085FE1F20F9
:102920000C49087008E71748C0791849C87015485D
:10293000007A08711348407A48718978134AD2782E
:102940001144124A12791144104A52798818C11759
:102950001EE000006D0600208A05002070040020A3
:10296000FE0300207006002025060020C00600207F
:102970009C0600205F0C0020A306002074060020A7
:102980009E060020730C00206A05002072050020BE
:1029900000EB11610912A0EB0121F84A91710821A5
:1029A000104602F041FE2020F5490870C4E63220AE
:1029B00004F0A4FDB420F2490870BDE64FF496710E
:1029C000322004F0D3FC2320ED490870B4E65F20E8
:1029D00004F0D8FF2420EA490870ADE64FF4C8712E
:1029E0001E2004F0D7FD2820E5490870A4E604F075
:1029F0007FFFE44908702920E14908709CE64FF404
:102A000096711E2004F098FB2D20DD49087093E696
:102A10005F2004F0F3FF2E20D94908708CE63C209B
:102A200004F06CFD01280CD1D748B0F90000D7495B
:102A30000988401AB0F5FA6F06DAB720D049087055
:102A400002E03C20CE49087076E604F0D3FC2F204B
:102A5000CB49087070E68820CD4988700920C8707D
:102A6000CC4800780871CB4840784871C9488078D4
:102A70008871C848C078C871C64800790872C548CE
:102A800040794872C34880798872C248C079C87258
:102A9000C048007A0873BF48407A4873BD48807ABE
:102AA0008873BC48C07AC873BA48007B0874B948B8
:102AB000407B4874B748807B8874B648C07BC87434
:102AC0001421B34802F094FD03F07EFC1421B048B9
:102AD00003F068FC03F084FC3020A94908702BE661
:102AE000AD48007858B90121084602F059FE01218D
:102AF000022002F055FE3020A14908701BE00021A1
:102B0000012002F04DFE0021022002F049FEA34800
:102B10000079A349087008460078012808D00846C3
:102B20000078022804D008460078032800D000BFAF
:102B3000372093490870FFE5322004F0DFFC3C2089
:102B40008F490870F8E50C21964802F06DFDC82009
:102B500004F0B6FB0C21934802F066FDBD208849C5
:102B60000870E9E50C21904802F042FDC82004F00D
:102B7000A7FB0C218C4802F03BFD3D2080490870EA
:102B8000DAE58A48007858B90121084602F008FEC3
:102B90000121022002F004FE3D20794908700AE07C
:102BA0000021012002F0FCFD0021022002F0F8FDCE
:102BB0003E2073490870BFE57D4800797D49C870A3
:102BC00089787C4AD27811447A4A12791144794A38
:102BD00052798818C11700EB11610912A0EB01218D
:102BE000744A91710821104602F01EFD3F2064498D
:102BF0000870A1E54FF496713C2004F0B7FB41202A
:102C00005F49087098E55F2004F0F8FE42205C49B7
:102C1000087091E53C2004F071FC4320584908708D
:102C20008AE54FF496713C2004F0A0FB46205449FD
:102C3000087081E50221012002F0A2FA47205049E4
:102C4000087079E55F2004F0D9FE4B204C490870EC
:102C500072E53C2004F052FC4C20494908706BE5B9
:102C60004FF496713C2004F081FB502044490870D9
:102C700062E54FF47A713C2004F08CFC512040490D
:102C8000087059E508214C4802F0CEFCC82004F039
:102C900017FB43480078012803D1532038490870B6
:102CA0001AE03F480078022803D15A2034490870BE
:102CB00012E03B480078032803D1642030490870B3
:102CC0000AE037480078042803D15F202C490870B7
:102CD00002E064202A4908702EE5042137A002F0A2
:102CE00061FC3748007818B90821364802F09CFC8E
:102CF00033480078401C32490870084600780A289A
:102D000001DB00200870142004F0DAFA2E488078E5
:102D1000022803D053201A49087005E054201849AE
:102D2000087000202649087006E5042127A002F05B
:102D300039FC2348007818B90821224802F074FCB5
:102D40001F480078401C1E490870084600780A2871
:102D500001DB00200870142004F0B2FA1A488078D1
:102D6000022803D053200649087005E06420044976
:102D70000870002012490870DEE40000720500208F
:102D80006D060020A4060020FE030020700600202F
:102D900025060020C00600209C0600205F0C0020B5
:102DA000A30600204306002094060020A106002070
:102DB0009B0C00204B060020BF050020383300008C
:102DC00061060020E70500202208002038340000BA
:102DD0000421FEA002F0E6FBFD48007818B90821A6
:102DE000FC4802F021FCFA480078401CF8490870C1
:102DF000084600780A2801DB00200870142004F03F
:102E00005FFAF5488078022803D05A20F349087009
:102E100005E06420F14908700020ED4908708BE45A
:102E20000421EFA002F0BEFBE948007818B90821A0
:102E3000EC4802F0F9FBE6480078401CE4490870D1
:102E4000084602E046E047E127E100780A2801DB76
:102E500000200870142004F033FADF48807802283C
:102E600008D05F20DD4908700AE0A9E009E0D0E061
:102E7000DBE00AE16420D94908700020D4490870D9
:102E80005AE40521D8A002F08DFBD148007818B98A
:102E90000821D74802F0C8FBCD4800780A2802DB99
:102EA0000020CB490870CA480078401CC849087007
:102EB000142004F005FAC8488078012803D0642063
:102EC000C649087005E06920C44908700020C0495F
:102ED000087031E4C7480179407901EB0020C64908
:102EE000088008460088642190FBF1F0C34908710E
:102EF000C1480088642190FBF1F201FB12000A2115
:102F000090FBF1F201FB1200BB490988642291FB9E
:102F1000F2F302FB13110A2291FBF2F140EA0110D5
:102F2000B64948714FF4FA7004F0CAF9B148017912
:102F3000407901EB0020B0490880084600886421F0
:102F400090FBF1F0AD490871AB480088642190FB1B
:102F5000F1F201FB12000A2190FBF1F201FB1200D9
:102F6000A5490988642291FBF2F302FB13110A229E
:102F700091FBF2F140EA0110A04948714FF4FA7058
:102F800004F09EF99D4989789C4AD27811449B4A65
:102F900012791144994A52798818C11700EB1161CE
:102FA0000912A0EB0121954A91710821104602F007
:102FB0003BFB322004F084F96A20884908703EE423
:102FC00005218FA002F0EEFA8148007818B9082197
:102FD0008D4802F029FB7E4800780A2802DB002099
:102FE0007B4908707A480078401C794908701420A1
:102FF00004F066F978488078032803D06A2077497E
:10300000087005E06B207549087000207049087051
:1030100015E405217DA002F0C5FA08217D4802F0E3
:1030200003FB6E206D49087009E405217AA002F0C7
:10303000B9FA7B480078552803D06E20674908709C
:1030400022E07748C078012813D103F0BDF932217E
:10305000734803F0A7F903F0C3F93221704802F076
:10306000C7FA08216F4802F0DFFA6F205B49087049
:103070000AE06B48C078022806D10821694802F0AE
:10308000D3FA73205549087005E4052166A002F0C3
:1030900089FA70205149087005E4052164A002F006
:1030A00081FA6548007858B90121084602F078FB9A
:1030B0000121022002F074FB7020484908700AE0E8
:1030C0000021012002F06CFB0021022002F068FBCD
:1030D00071204249087025E4052158A002F062FAE7
:1030E000584800795849087073203C49087019E421
:1030F000052156A002F056FA3548007818B9082183
:10310000344802F091FA32480078401C3049087087
:10311000084600780A2801DB00200870142004F01B
:10312000CFF82D488078022803D073202B490870EF
:1031300005E074202949087000202549087035E40D
:10314000052144A002F02EFA2148007818B9082180
:10315000274802F069FA1E480078401C1C49087094
:10316000084600780A2801DB00200870142004F0CB
:10317000A7F819488078012803D0742017490870EF
:1031800005E07520154908700020114908700DE40C
:10319000052132A002F006FA0D48007818B908217E
:1031A000194802F041FA0A480078401C08490870A2
:1031B000084600780A2801DB00200870142004F07B
:1031C0007FF805488078032850D04BE03930000064
:1031D00061060020E7050020220800206D0600207F
:1031E00039350000EF050020232331303000000086
:1031F000CF0500202C0B0020720600208205002045
:103200002323313036000000D7050020232331303E
:10321000370000000F06002023233131300000006A
:10322000050C0020BF0500202323313131000000B0
:1032300023233131320000009D0600202323313149
:1032400033000000370C0020A20600202323313178
:1032500035000000232331313600000023233131B3
:10326000370000007520F949087005E07620F7491D
:1032700008700020F649087031E40521F5A002F03D
:1032800091F90821F54802F0CFF97720EF4908704D
:1032900025E40521F2A002F085F9ED48007818B97F
:1032A0000821F14802F0C0F9E9480078401CE849DB
:1032B0000870084600780A2801DB002008701420F6
:1032C00003F0FEFFE9488078012803D07720DF492A
:1032D000087005E07820DD4908700020DC4908709E
:1032E00029E40521E2A002F05DF9D948007818B977
:1032F0000821E14802F098F9D5480078401CD449EB
:103300000870084600780A2801DB002008701420A5
:1033100003F0D6FFD5488078032803D07820CB4926
:10332000087005E07920C94908700020C849087074
:1033300008E4D2480078012803D17A20C3490870F4
:103340001AE0CE480078022803D17D20BF490870DA
:1033500012E0CA480078032803D18220BB490870D4
:103360000AE0C6480078042803D18C20B7490870C9
:1033700002E07A20B54908701DE40521C0A002F0E2
:1033800011F9B348007818B90821BF4802F04CF988
:10339000AF480078401CAE490870084600780A28FB
:1033A00001DB00200870142003F08AFFAF4880780A
:1033B000032803D07A20A549087005E09620A34988
:1033C00008700020A249087013E40521AFA002F0A4
:1033D000E9F89F48007818B90821AE4802F024F9AE
:1033E0009B480078401C9A490870084600780A28D3
:1033F00001DB00200870142003F062FF9B488078F6
:10340000022803D07D209149087005E07E208F4975
:10341000087000208E490870E2E305219EA002F0AA
:10342000C1F88B48007818B908218F4802F0FCF8E1
:1034300087480078401C86490870084600780A28AA
:1034400001DB00200870142003F03AFF87488078E1
:10345000012803D07E207D49087005E07F207B494C
:10346000087000207A490870BAE305218CA002F0A8
:1034700099F87748007818B908217F4802F0D4F805
:1034800073480078401C72490870084600780A2882
:1034900001DB00200870142003F012FF73488078CD
:1034A000032803D07F206949087005E08020674920
:1034B000087000206649087092E305217AA002F0A6
:1034C00071F86348007818B90821794802F0ACF81F
:1034D0005F480078401C5E490870084600780A285A
:1034E00001DB00200870142003F0EAFE5F488078BA
:1034F000022803D080205549087005E081205349F7
:1035000008700020524908706AE3052169A002F0A2
:1035100049F84F48007818B908215B4802F084F850
:103520004B480078401C4A490870084600780A2831
:1035300001DB00200870142003F0C2FE4B488078A5
:10354000032803D081204149087005E096203F49B7
:10355000087000203E49087000BF052157A002F006
:1035600021F83B48007818B908214A4802F05CF875
:1035700037480078401C36490870084600780A2809
:1035800001DB00200870142003F09AFE3748807891
:10359000022803D082202D49087005E083202B49A2
:1035A000087000202A4908701AE3052145A001F09F
:1035B000F9FF2748007818B908212B4802F034F8A1
:1035C00023480078401C22490870084600780A28E1
:1035D00001DB00200870142003F072FE234880787D
:1035E000012803D083201949087005E08420174979
:1035F0000870002016490870F2E2052133A001F09E
:10360000D1FF1348007818B908211B4802F00CF8C4
:103610000F480078401C0E490870084600780A28B8
:1036200001DB00200870142003F04AFE0F48807868
:10363000032803D084200549087005E0852003494C
:103640000870002002490870CAE200006D060020E0
:103650006106002023233131380000007A05002064
:103660002323313139000000CF050020220800203B
:103670002323313230000000D7050020A4060020AB
:103680002323313232000000F7050020232331329A
:1036900035000000E705002023233132360000000A
:1036A0002323313237000000232331323800000059
:1036B000EF0500202323313239000000232331336A
:1036C0003000000023233133310000002323313345
:1036D000320000000521F7A001F064FFF7480078F0
:1036E00018B90821F64801F09FFFF4480078401C03
:1036F000F2490870084600780A2801DB00200870AB
:10370000142003F0DDFDEF488078012803D08520E8
:10371000ED49087005E08620EB4908700020E74974
:1037200008705DE20521E9A001F03CFFE348007864
:1037300018B90821E74801F077FFE0480078401CFD
:10374000DE490870084600780A2801DB002008706E
:10375000142003F0B5FDDB488078032803D08620D1
:10376000D949087005E08720D74908700020D3495F
:10377000087035E20521D8A001F014FFCF48007889
:1037800018B90821D64801F04FFFCC480078401CFA
:10379000CA490870084600780A2801DB0020087032
:1037A000142003F08DFDC7488078022803D08720BD
:1037B000C549087005E08820C34908700020BF494A
:1037C00008700DE20521C7A001F0ECFEBB480078AF
:1037D00018B90821C54801F027FFB8480078401CF7
:1037E000B6490870084600780A2801DB00200870F6
:1037F000142003F065FDB3488078032803D08820A7
:10380000B149087005E09620AF4908700020AB4927
:103810000870E5E10521B6A001F0C4FEA7480078D4
:1038200018B90821B44801F0FFFEA4480078401CF4
:10383000A2490870084600780A2801DB00200870B9
:10384000142003F03DFD9F488078022803D08C208F
:103850009D49087005E08D209B490870002097491C
:103860000870BDE10521A5A001F09CFE93480078F9
:1038700018B90821924801F0D7FE90480078401C02
:103880008E490870084600780A2801DB002008707D
:10389000142003F015FD8B488078012803D08D207B
:1038A0008949087005E08E20874908700020834907
:1038B000087095E1052193A001F074FE7F4800781F
:1038C00018B90821834801F0AFFE7C480078401CFD
:1038D0007A490870084600780A2801DB0020087041
:1038E000142003F0EDFC77488078032803D08E2065
:1038F0007549087005E08F207349087000206F49F2
:1039000008706DE1052181A001F04CFE6B48007844
:1039100018B908216A4801F087FE68480078401C01
:1039200066490870084600780A2801DB0020087004
:10393000142003F0C5FC63488078012803D08F2051
:103940006149087005E090205F49087000205B49DC
:10395000087045E105216FA001F024FE574800786A
:1039600018B908215B4801F05FFE54480078401CFC
:1039700052490870084600780A2801DB00200870C8
:10398000142003F09DFC4F488078032803D090203A
:103990004D49087005E091204B49087000204749C7
:1039A00008701DE10521AFF2547001F0FBFD4348A2
:1039B000007818B90821424801F036FE3F480078E7
:1039C000401C3E490870084600780A2801DB0020A8
:1039D0000870142003F074FC3A488078012803D062
:1039E00091203949087005E092203749087000207D
:1039F00032490870F4E00521AFF28C3001F0D2FDBD
:103A00002E48007818B90821384801F00DFE2B48DF
:103A10000078401C29490870084600780A2801DB14
:103A200000200870142003F04BFC264880780328FF
:103A300003D092202449087005E09620224908709E
:103A400000201E490870CBE03C2003F057FD972072
:103A50001D490870C4E04FF496713C2003F086FCC9
:103A6000982019490870BBE05F2003F08BFF9B2072
:103A700015490870B4E03C2003F040FD9C20124939
:103A80000870ADE04FF496713C2003F06FFC9D2070
:103A90000D490870A4E05F2003F074FF9E200A49DE
:103AA00008709DE03C2003F029FD9F200649087026
:103AB00096E000002323313333000000610600202C
:103AC000CF050020220800206D060020232331337B
:103AD00034000000D70500202323313335000000D7
:103AE000EF0500202323313336000000F7050020C6
:103AF0002323313430000000E70500202323313434
:103B000031000000232331343200000023233134FC
:103B10003300000023233134340000004FF4966159
:103B20003C2003F023FCA0202E49087058E03C20E4
:103B300003F0E4FCA1202B49087051E04FF496718A
:103B40003C2003F013FCA2202649087048E05F20C7
:103B500003F018FFA3202349087041E04FF47A7165
:103B60001E2003F017FDA4201E49087038E040F61F
:103B700034011E2003F0E0FAA5201A4908702FE056
:103B8000194800781949C8708978184AD2781144C0
:103B9000164A12791144154A52798818C11700EB58
:103BA00011610912A0EB0121104A91710821104600
:103BB00001F03AFDA6200B49087011E008210C48DD
:103BC00001F032FDC82003F07BFB0821094801F019
:103BD0002BFD0020084908700249087000E000BF72
:103BE00000BF10BD6D060020A2060020A205002027
:103BF000FF0500209A0500206C060020F0B50A465B
:103C000000210023002400BF3DE0012505FA01F357
:103C1000156805EA03049C4234D105684F00032669
:103C2000BE40B543056015794E00B5400668354382
:103C300005601579012D02D01579022D16D1856800
:103C40004F000326BE40B543856055794E00B54010
:103C5000866835438560456801268E40B5434560DA
:103C6000456896798E40B6B235434560C5684F00C9
:103C70000326BE40B543C560D5794E00B540C66841
:103C80003543C560491C1029BFD3F0BDF0B50023F2
:103C900000244D07ED0E02FA05F3CE1000F12005C9
:103CA00055F826504E07F70E0F26BE40B543CF10ED
:103CB00000F1200646F82750CE1000F1200555F8F7
:103CC000265045EA0304CE1000F1200545F82640B1
:103CD000F0BD0246002013690B400BB1012000E04B
:103CE00000207047418370470183704710B502215F
:103CF0000848FCF75AFD0748FCF758FE00BF0221B0
:103D00000448FCF7C3FD0028F9D00248FCF7BAFDCF
:103D100010BD00000020014070B52DED068B012084
:103D200001F064FD102001F061FDC82003F0C8FA25
:103D300000F01EFB11480478407800EB042400EEEC
:103D4000104AB8EEC00A10EE100AFCF7F8FB41EC7E
:103D50001A0B9FED0B0B53EC102BFCF781FB41EC86
:103D6000190BFCF7FFFB08EE100ABDEEC80A10EEB7
:103D7000105AA8B2BDEC068B70BD00004E030020A7
:103D8000333333333333F33F70B504460025002615
:103D900007E0FFF7ABFF0544052003F091FA701C24
:103DA000C6B2A642F5DBB5FBF4F080B270BD0000F0
:103DB0000146002021B107290AD008290ED10AE0C6
:103DC000074A5278064B1B7802EB032290B205E0BB
:103DD000034A507802E0024A107800BF00BF7047E3
:103DE000FC03002010B54FF480710248FFF771FF0B
:103DF00010BD00000018024010B5154800780128D9
:103E000010D101F019F81349098888421EDB0020FF
:103E10000F4908700320104908700021084601F07E
:103E2000CDFB13E00D48007801280FD101F004F814
:103E300008490988884209DB0020084908700320E6
:103E4000054908700021084601F0B8FB10BD0000CC
:103E5000BB030020D0030020C2030020BC030020CD
:103E600000B589B00121212000F07CFE09220B2140
:103E70004248FFF70BFF09220C214048FFF706FFDD
:103E80004FF4C050079002208DF820008DF82100DB
:103E900000208DF8220001208DF8230007A9374863
:103EA000FFF7ACFE4FF48060079001208DF82000F2
:103EB00002208DF8210000208DF8220001208DF8CD
:103EC000230007A92E48FFF799FE002000F05EF8B6
:103ED0000121480600F056FE2A48FCF7B3FE0020F8
:103EE0008DF8160001208DF8170000208DF81800BD
:103EF00001208DF8190000208DF81A0001208DF89E
:103F00001B0000208DF812008DF8130001208DF8A1
:103F1000140002208DF815000720ADF8100004A948
:103F20001848FCF738FF00208DF80A008DF80B00C8
:103F300001208DF80C000020ADF80000ADF8020063
:103F4000ADF80400ADF80600ADF8080001208DF8CA
:103F50000D006846FCF792FE12200B49086048608D
:103F60000020487208720120887200220221054850
:103F7000FCF708FFFDF780FC09B000BD000002401F
:103F800000140240006400403C0A002010B50446C2
:103F90002CB94FF480610548FFF7A4FE04E04FF40C
:103FA00080610248FFF7A0FE10BD0000001402402F
:103FB00010B5FEF7FBF810BD10B504462CB14FF458
:103FC00080710548FFF790FE04E04FF480710248CD
:103FD000FFF788FE10BD00000020024010B54FF42E
:103FE000E06000F01FFAA82003F04CF901F064FD36
:103FF00000F024F8FEF7E0F802F08DFBFFF730FF49
:10400000FCF728FD00F0B8FFFEF7FEF902F09CF97E
:1040100040F2E7315320FEF799F86321532003F073
:1040200081FC40F2E731532001F07EFD10BD00001D
:10403000014A107051707047FC0300201CB501212B
:10404000202000F08FFD4FF40060009001208DF8DB
:10405000040000208DF8060001208DF807000320E1
:104060008DF8050069460348FFF7C8FD01200249A5
:1040700008601CBD00140240AC8242422DE9F041B0
:1040800007468846002028490860092003F018F9EF
:1040900001202649C1F8AC02042003F011F94FF4C5
:1040A0000C7003F03DF900242EE0002528E0385D77
:1040B000284100F0010676B900201B4908604FF442
:1040C000FA7003F02DF901201849C1F8AC024FF441
:1040D000FA7003F025F9012E10D100201249086072
:1040E0004FF4FA7003F01CF901201049C1F8AC023A
:1040F00003F0E6F84FF4487003F012F9681CC5B2FB
:10410000082DD4DB601CC4B24445CEDB0020064938
:1041100008604FF40C7003F003F901200349C1F863
:10412000AC02BDE8F0810000AC8242420080424215
:1041300010B500F056FB00F0E5F9022003F0C0F8DE
:1041400000F0E6F9412000F0DDF810BD10B561483F
:104150000068E8B90A2003F0B3F85E480068B8B90F
:104160005D48006808B9012000E000205A49086055
:1041700000BF584800680028FBD006215748FFF7C9
:104180007DFF322003F09CF806215548FFF776FFAB
:104190005048001D0068F8B90A2003F091F84D4816
:1041A000001D0068C0B94C48001D006808B9012016
:1041B00000E000204849091D086000BF4548001D77
:1041C00000680028FAD001204649087004204649BA
:1041D000087046A001F036F93E4808300068002813
:1041E00063D10A2003F06CF83A48083000680028D0
:1041F0005BD139480830006808B9012000E0002090
:1042000035490831086000BF32480830006800288E
:10421000FAD011E000F040FC18B1012037490870D5
:104220000BE00121084601F0BBFA0121022001F058
:10423000B7FA142003F044F8ECE700BF0021012096
:1042400001F0AEFA0021022001F0AAFA2B48007812
:1042500058B3002029490870642003F031F8282061
:104260002749087027204870412088702720C8708F
:104270005C200871332048712F2088712E20C8716E
:104280002220087245204872352088722D20C8727D
:104290003E20087342204873292088732220C87367
:1042A0000A460A21002000F021FD0A480C3000686F
:1042B00070B90A2003F004F806480C30006838B9D9
:1042C00000BF04480C3000680028FAD000F0A6FEB9
:1042D00010BD000010024442B08243426000002042
:1042E000660000206C0600206D060020C8ABD7D405
:1042F000B6AFC8CECEF1BFAACABC00007201002082
:10430000D106002010B50446412C25D108210846CD
:10431000FDF78EFF3D21112002F090FA8621172033
:1043200002F08CFA7F21262002F088FA1E212D202F
:1043300002F084FA00212C2002F080FA8D212A203C
:1043400002F07CFA3E212B2002F078FA0A2002F0DB
:10435000B7FF00F0DDF801E0FF2010BD0020FCE712
:1043600002468A4201D9501A7047881AFCE70000B9
:1043700010B5FCF733FC4720FCF704FC00240EE0EA
:10438000FCF7B6FB08490855032C03D10120FCF7C4
:10439000D9FB02E00020FCF7D5FB601CC4B2032C63
:1043A000EEDBFCF737FC10BD4E03002070B500219A
:1043B00000230F22C4781CB3174C246804F4E06473
:1043C000C4F5E064C4F30721C1F10404E3B20A4177
:1043D00044789C40E1B28478144021430C07210EBC
:1043E0000E4C05786155047804F01F050124AC409B
:1043F00005786D11AD0005F1E025C5F8004109E033
:10440000047804F01F050124AC40054D06787611B0
:1044100045F8264070BD00000CED00E000E400E02F
:1044200080E100E002490143024A11607047000048
:104430000000FA050CED00E000211148C079BB280E
:104440001CD10F4A92780E4BDB781A440C4B1B7927
:104450001A440B4B5B79D018C21700EB1262121290
:10446000A0EB0222D1B206488079884203D1012014
:10447000044A107002E00020024A107070470000E9
:10448000640A0020A506002010B52DED048BB0EEC7
:10449000080A164880ED000A90ED000ADFED140AC4
:1044A00020EE200A80ED000A9FED120A124880EDEE
:1044B000000A90ED000ADFED0E0A20EE200A10EE51
:1044C000101A0846FCF73BF841EC190B9FED0B0B5B
:1044D00053EC102BFBF7C4FF41EC180BFCF742F830
:1044E00005490860BDEC048B10BD00005C03002092
:1044F0000000C84200CC0D4158030020000000001D
:104500000070A74010B503211420FDF791FE10BDE7
:1045100010B5142000F028FC044604F0030018B97C
:104520000321142001F0A6F810BDF0B587B00546B0
:10453000002708210846FDF77BFE00210D2002F030
:104540007DF980210E20FDF773FE93208DF8040085
:1045500020208DF8050006A801AB022201A90090D9
:104560000C2000F051F8064686B9002407E001A8A7
:10457000005D285501A8005D4740601CC4B2042CB2
:10458000F5DB01A8005DB84200D0FE2680210E2098
:1045900001F070F8304607B0F0BD2DE9F04387B068
:1045A00006460F46904699468DF804608DF80570D2
:1045B000002406E018F8041001AAA01C1154601C85
:1045C000C4B2062CF6DB002407E019F8041001AA97
:1045D00004F108001154601CC4B2062CF5DB06A8D7
:1045E00001AB0C2201A900900E2000F00DF8054649
:1045F0002DB9082000F0B8FB00F0080000B9FE2536
:10460000284607B0BDE8F0832DE9FE4F06468846F0
:1046100091469A46DDF830B0FE20029000200190CD
:1046200000900C2E06D00E2E09D1122001901020E1
:10463000009005E0772001903020009000E000BF5E
:1046400000BF019840F08001022002F0F7F88021BD
:104650000420FDF7EDFD0021012002F0EFF880219C
:104660000A2001F007F8002505E018F805100920D8
:1046700002F0E4F86D1C4D45F7D33146012002F0FD
:10468000DDF80C2E03D180210D2000F0F3FF4FF454
:10469000FA6500BF042000F067FB04466D1E35B1CB
:1046A00004F0010018B9009820400028F2D08021C1
:1046B0000D20FDF7BDFD95B3062000F055FB00F081
:1046C0001B0068BB002002900198204000F0010010
:1046D00008B1FF2002900C2E24D10A2000F044FBE8
:1046E00004460C2000F040FB00F007072FB1601ECD
:1046F00007EBC000CBF8000002E0E000CBF80000C0
:1047000004B90124122C00DD1224002505E0092043
:1047100000F02AFB0AF805006D1CA542F7D301E062
:10472000FE20029080210C2000F0A4FF0021012037
:1047300002F084F80298BDE8FE8FF0B587B0054618
:104740000E4630208DF804008DF805500DF106025C
:10475000022101A8FCF714FD06A801AB042201A95F
:1047600000900C20FFF750FF074667B90698902885
:1047700009D1002404E001A8005D3055601CC4B2DA
:10478000102CF8DB00E0FE27384607B0F0BD70B50E
:1047900088B005460C4608210846FDF749FD07216B
:1047A0000D2002F04BF80321142000F063FF8DF878
:1047B000085007A802AB012202A900900C20FFF7C5
:1047C00023FF06464EB90798102806D19DF8080029
:1047D00020709DF80900607000E0FE26304608B0A9
:1047E00070BD10B50F21012002F028F80A2002F058
:1047F0008DFD3D21112002F021F81E212D2002F017
:104800001DF800212C2002F019F88D212A2002F039
:1048100015F83E212B2002F011F84021152002F05E
:104820000DF8002010BD70B588B0054693208DF8B6
:10483000080070208DF8090000208DF80E0000247B
:104840000BE0295D02AAA01C11549DF80E00295D01
:1048500048408DF80E00601CC4B2042CF1DB0DF151
:104860000F02072102A8FCF78BFC08210846FDF780
:10487000DFFC07A802AB092202A900900C20FFF779
:10488000C3FE064626B90798182801D1002600E085
:10489000FE26304608B070BDF0B587B006460F461C
:1048A000A0208DF804008DF805600DF106020221AC
:1048B00001A8FCF765FC06A801AB042201A9009041
:1048C0000C20FFF7A1FE054645B90698042805D13E
:1048D0009DF8040000F00F000A2800D0FE250DBB53
:1048E000002404E0385D01A90855601CC4B2102CF6
:1048F000F8DB05AA102101A8FCF742FC06A801ABD1
:10490000122201A900900C20FFF77EFE054645B952
:104910000698042805D19DF8040000F00F000A282D
:1049200000D0FE25284607B0F0BD000010B50320DA
:10493000FFF72AFA514908800846008800F064FF12
:104940004E4908804E4801884C480088FFF708FD12
:104950004C4908704A480088F0BB4B48D0ED000A2B
:104960004648008800EE100AB8EE400A20EE800AA1
:10497000BCEEC00A10EE100A4049088008460088C4
:1049800000EE100AB8EE400A4048D0ED000AB4EE3E
:10499000E00AF1EE10FA03D200203D49087016E05B
:1049A0003648008800EE100AB8EE400A3748D0EDCD
:1049B000000A30EE600ABCEEC00A10EE100A34495C
:1049C000087008460078642801DD642008703048CB
:1049D00000783049087000E004E0084601780120C2
:1049E00000F0C9FD25480088254908802548007841
:1049F0000A2842DD2448D0ED000A2048008800EE55
:104A0000100AB8EE400A20EE800ABCEEC00A10EE92
:104A1000100A1A4908800846008800EE100AB8EE0D
:104A2000400A1A48D0ED000AB4EEE00AF1EE10FA9E
:104A300003D200201649087016E01048008800EEE6
:104A4000100AB8EE400A1148D0ED000A30EE600AB4
:104A5000BCEEC00A10EE100A0D4908700846007836
:104A6000642801DD6420087009480078094908704D
:104A700008460178012000F07EFD10BD6203002091
:104A80006403002066030020580300205C0300201C
:104A9000600300205403002038B5002469465220EA
:104AA000FFF775FE04460CB9012038BD0020FCE775
:104AB00010B588B004460121084600F053F80121E2
:104AC000102000F07FF8072209212448FFF7DEF8C4
:104AD00007220A212148FFF7D9F84FF4C060069059
:104AE00002208DF81C0000208DF81E0001208DF89A
:104AF0001F0003208DF81D0006A91848FFF77EF857
:104B000002940020ADF814000C20ADF81200002033
:104B1000ADF81000ADF80E00ADF80C0002A9104879
:104B200001F09EFB01210E4801F032FB25208DF89B
:104B3000040000208DF8050005208DF806000120F6
:104B40008DF8070001A8FFF731FC012240F2255142
:104B5000034801F060FB08B010BD000000000240F7
:104B60000010014029B1064A12680243044B1A6042
:104B700004E0034A12688243014B1A607047000048
:104B80003038024029B1064A12680243044B1A60C9
:104B900004E0034A12688243014B1A607047000028
:104BA0004038024029B1064A12680243044B1A6099
:104BB00004E0034A12688243014B1A607047000008
:104BC0002038024029B1064A12680243044B1A6099
:104BD00004E0034A12688243014B1A6070470000E8
:104BE0004438024029B1064A12680243044B1A6055
:104BF00004E0034A12688243014B1A6070470000C8
:104C000024380240F0B500210022002402250026AD
:104C10000223324F3F6807F00C0121B1042905D06F
:104C2000082937D105E02E4F076036E02D4F076089
:104C300033E02A4F3F1F3F68C7F38056274F3F1F7F
:104C40003F6807F03F036EB1264FB7FBF3F7DFF87D
:104C50008CC0ACF1040CDCF800C0CCF3881C07FB62
:104C60000CF40CE01E4FB7FBF3F7DFF870C0ACF1AB
:104C7000040CDCF800C0CCF3881C07FB0CF4174FC5
:104C80003F1F3F68C7F301477F1C7D00B4FBF5F76A
:104C9000076002E0124F076000BF00BF0F4F3F6880
:104CA00007F0F0010909104F7A5C0768D7404760A8
:104CB0000A4F3F6807F4E051890A0B4F7A5C476856
:104CC000D7408760054F3F6807F46041490B064FA6
:104CD0007A5C4768D740C760F0BD000008380240E2
:104CE0000024F40040787D01A80300202DE9FE4354
:104CF00006460C461746002519A103C9CDE9000157
:104D0000A14600BF1DBBFE2502A8FFF70EFC05460D
:104D1000EDB9FE2502A8FFF786FD0546BDB9FE25C3
:104D2000A046E01704EB90708010032202EB800095
:104D3000C1B202AB6A466020FFF72FFC054635B9C9
:104D4000FE252EB939464846FFF7A6FD054604E084
:104D500039464846FFF7F1FC05462846BDE8FE8384
:104D6000D3F7D3F7D3F7000038B5044604F03F007B
:104D700040F08004204600F063FC42F21071684667
:104D800000F014F805460DB1FF2038BD9DF8000075
:104D9000FBE710B54FF41650FFF78AFE4FF4FA7098
:104DA00002F08EFAFFF7C4F910BD000070B504469A
:104DB0000D4600BF064800780028FBD000200449BB
:104DC0000870044801F0B6FA2070002070BD0000A1
:104DD000880300200010014010B5FFF70DF802F025
:104DE00071FE02F049FE02F0EDF900F0C5FF01F09E
:104DF000DFF810BD0020084908700849087008490C
:104E0000087008490870084908700849087008497E
:104E10000870084908807047B8030020B9030020D3
:104E2000BB030020BC030020BD030020BE03002004
:104E3000C2030020D00300200F48B0F900000F4A41
:104E4000B2F90020904207DD0B48B0F900000B4A90
:104E5000B2F90020811A06E00848B0F90000064ABD
:104E6000B2F90020811AB1F5004F02D94FF6FF7058
:104E7000411A88B270470000FE030020DE030020C4
:104E80000248B0F90000024908807047FE03002084
:104E9000DE0300200E4909880E4A1288914206DD81
:104EA0000B4909880B4A1288891A88B205E009491A
:104EB0000988074A1288891A88B203E0A0F50C41D4
:104EC000A03988B248F6A0418842F7DA704700005E
:104ED00000040020E0030020024800880249088006
:104EE0007047000000040020E00300201CB5802073
:104EF000009000208DF8040001208DF8070069461D
:104F00000148FEF77BFE1CBD000402401CB580205A
:104F1000009001208DF8040000208DF80600032089
:104F20008DF8050069460248FEF768FE1CBD0000CA
:104F30000004024070B505460E46002404E000F06F
:104F400007F82855601CC4B2B442F8DB70BD0000FD
:104F500070B5002402F07CFB054600BF2021054807
:104F600001F022F90028F9D0024801F0E3F9C4B2B7
:104F7000204670BD001401401CB54FF4E13001F033
:104F8000A3F801210220FFF7EDFD4FF4007000901F
:104F900001208DF8040000208DF8060001208DF816
:104FA000070003208DF8050069460648FEF726FE37
:104FB0004FF400710348FEF797FE00F019F800F077
:104FC00017F81CBD0004024010B50446204600F04E
:104FD000FFFF10BD70B505460E46002404E0285DB5
:104FE000FFF7F2FF601CC4B2B442F8DB70BD0000F2
:104FF00010B509210848FEF777FE0A2002F060F993
:1050000009210548FEF76EFE642002F059F90921D6
:105010000148FEF769FE10BD0004024010B50120F2
:105020004349087043A000F00DFA01204B49086085
:1050300000F006FC4A48C0784F2877D10120474944
:10504000091D086002F03CF905214648FFF7C2FF40
:1050500004214548FFF76EFF4348C078412865D1D9
:1050600001203E490831086003213F48FFF762FFF5
:105070003D480078FC2859D1012038490C3108609E
:10508000394881783948FFF755FF3848007821289A
:105090004CD121213648FFF79DFF04213248FFF70C
:1050A00049FF04213048FFF745FF0AE02B48001D67
:1050B0000068C0432F49C1F8B4024FF4FA7002F0FF
:1050C000FFF82948C0784F28F0D127E005212A4869
:1050D000FFF780FF04212448FFF72CFF2248C07807
:1050E00041281BD11D480068C0432249C1F8B002C5
:1050F00003211D48FFF71EFF1B480078FC280DD137
:105100001648001D0068C0431A49C1F8B402164889
:1051100081781648FFF70EFF01F0A2FB04480078E3
:105120000028D3D104211548FFF754FF10BD00001B
:1051300023030020D3EFD2F4CAB6B1F0B2E2CAD44E
:105140002CC7EBB7A2D3EFD2F4BBBDD0D1B4CAA366
:10515000ACD3EFD2F4BCDDCABB000000B082434246
:10516000EC020020F0020020E2020020E602002013
:105170000203002000804342F9020020F5020020D3
:1051800070B505460C460026012076490870E3E01C
:10519000FFF7F2FE00F054FB7348C0784F2810D0A0
:1051A00072A000F04FF900BFFFF722FF0028FBD0EC
:1051B000FFF7E2FE4FF47A7002F082F86EA000F082
:1051C00041F94FF4FA7002F07BF805216E48FFF7C1
:1051D00001FF04216D48FFF7ADFE6C48C0784128FF
:1051E00073D16B480068C0436A49C1F8B0024FF4FC
:1051F0007A7002F065F835B16748C47008216748D5
:1052000000F002FA04E06448C470082100F0FCF9E0
:1052100003215E48FFF78EFE5C480078FC28DFD152
:105220005B48001D0068C0435A49C1F8B4025748A2
:1052300081785B48FFF77EFE59480078012873D1DA
:105240005748407922282ED004DC192807D021287D
:1052500060D116E0232839D024285BD148E006200D
:105260005049887050A000F0EDF804215348FFF732
:10527000B1FE08214B4800F0D7F9002039490870E9
:1052800050E00220474988704DA000F0DBF804216F
:105290004A48FFF79FFE0821424800F0C5F9002068
:1052A000304908703EE003203E49887049A000F074
:1052B000C9F804214148FFF78DFE0821394800F064
:1052C000B3F90020274908702CE030E0042035496C
:1052D000887045A000F0B6F804213848FFF77AFE40
:1052E0000821304800F0A0F900201E49087019E09C
:1052F00005202C49887041A000F0A4F804212F4813
:10530000FFF768FE0821274800F08EF900201549B4
:10531000087007E03EA000F095F804212748FFF749
:1053200059FE00BF03E0FFE740A000F08BF84FF408
:10533000FA7001F0C5FF16480830006808B901206E
:1053400000E00020124908310860701CC6B2052E2A
:1053500002DD0020034908700248007800287FF42D
:1053600017AF70BD23030020EC020020C4A3BFE9E7
:10537000C3A6C2B500000000C4A3BFE9B8B4CEBB49
:10538000B3C9B9A6A3A1000024030020E2020020B3
:10539000B0824342008043423103002039030020A1
:1053A000E602002012020020CAB6B1F0B3C9B9A6C5
:1053B000D4ADB5D8B5F4CDB700000000FE02002092
:1053C000CAB6B1F0B3C9B9A6CFF2D3D2D7AACDE449
:1053D00000000000CAB6B1F0B3C9B9A6BDFBD6B98A
:1053E000D3D2D7AA00000000CAB6B1F0B3C9B9A69B
:1053F000D7F3B2E0D0D0CABB00000000CAB6B1F00B
:10540000B3C9B9A6D7F3D0D0B1BBBDFB0000000033
:10541000B6D4B2BBC6F0A3ACCED2C3BBCCFDC7E5FD
:105420002CD4D9B7A2D2BBB4CE000000CAB6B1F01A
:10543000CAA7B0DCA3ACD4D9C0B4D2BBB4CEA3A1AC
:10544000000000007CB505462846FAF7E9FEC4B224
:10545000FD208DF8000000208DF80100A01CC0B2D6
:105460008DF8020001208DF8030000208DF8040063
:1054700005216846FFF7AEFD21462846FFF7AAFD45
:1054800004211CA000F08EF801211C4800F08AF8CD
:1054900004211A48C01EFFF74DFD0CE0042118A09E
:1054A00000F080F80121154800F07CF80421134831
:1054B000C01EFFF73FFD1148C01EC0784128EDD146
:1054C000042111A000F06EF804210C48C01EFFF763
:1054D00031FD08E004210EA000F064F80421074823
:1054E000C01EFFF727FD0548C01EC0784F28F1D128
:1054F0007CBD00002353312300000000E5020020A2
:105500002353322300000000235333230000000004
:10551000235334230000000030B500228B071C0FFA
:105520000F2303FA04F20B4B8C1053F824309343EF
:10553000084C8D1044F8253023468C1053F8243045
:105540008C07240F00FA04F42343024C8D1044F816
:10555000253030BD0838014038B504460D46FCF70B
:1055600011F8002003464FF470722946009020463F
:10557000FBF7C2FF38BD7CB505460C4603208DF80D
:10558000040001208DF805008DF80640FBF7FAFFB6
:10559000002003464FF4F0720321009001A8FBF7AE
:1055A000ABFF7CBD70B504460D462A462146024835
:1055B000FCF745FF70BD0000BC0800207CB5054627
:1055C0000C46E8B28DF80400E8B28DF80500E0B2B0
:1055D0008DF80600E0B28DF80700FBF7D3FF00203E
:1055E000034620220421009001A8FBF785FF7CBD23
:1055F00070B504460D462A4621460248FCF71FFFB7
:1056000070BD0000DC08002038B504460D46FBF7ED
:10561000B9FF002003464FF4287229460090204627
:10562000FBF76AFF38BD000070B504460D462A46F8
:1056300021460248FCF703FF70BD0000FC08002073
:1056400010B504460A48008800BF0948008800F0E9
:1056500080000028F9D02146054800F070FE00BF08
:105660004021034800F0A0FD0128F9D110BD000041
:105670000010014070B505460C4600262846FFF78D
:1056800073FB064646EA0401284601F0D7F870BDD0
:105690000CB50020019000903448006840F4803040
:1056A0003249086000BF3148006800F400300090C3
:1056B0000198401C0190009818B90198B0F5A04FCE
:1056C000F1D12A48006800F4003010B101200090A8
:1056D00001E0002000900098012846D12348403086
:1056E000006840F08050214940310860204800683F
:1056F00040F440401E4908601C48083000681B49BF
:10570000083108600846006840F400400860084618
:10571000006840F4A05008601648091F0860081F80
:10572000006840F08070091F086000BF0F480068E3
:1057300000F000700028F9D040F205700E490860B2
:105740000A480830006820F0030008490831086062
:105750000846006840F00200086000BF03480830B7
:10576000006800F00C000828F8D10CBD0038024099
:105770000070004019544007003C024010B5044638
:10578000012C04D141030548FEF7ACFA05E024B929
:105790004FF400510148FEF7A7FA10BD000802407F
:1057A00070B505460C46012D02D0022D1AD10CE031
:1057B0002CB14FF480610C48FEF794FA04E04FF4EA
:1057C00080610948FEF790FA0CE02CB14FF40061BB
:1057D0000548FEF787FA04E04FF400610248FEF73F
:1057E00083FA00BF00BF70BD001C024010B5044624
:1057F000FBF7F4F94620FBF7C5F92046FBF7C2F9A1
:10580000FBF708FA10BD000010B5024600230B4854
:10581000828200210BE0094C481C34F8100024F867
:105820001100204630F81100184483B2491C0A299F
:10583000F1DB0A2093FBF0F080B210BD5408002089
:1058400008B5FD208DF8000000208DF80100012032
:105850008DF8020021208DF8030004216846FFF72F
:10586000B9FB04210548FFF765FB0448C0784128CF
:1058700003D104210248FFF75DFB08BDE2020020CE
:10588000EC020020042808D14FF0E021096941F022
:1058900004014FF0E022116107E04FF0E0210969B7
:1058A00021F004014FF0E0221161704710B5154856
:1058B000006840F47000134908601348006840F025
:1058C00001001149086000200F49083108600E48A6
:1058D00000680E4908400C4908600D48091D086021
:1058E000081F006820F48020091F08600020064976
:1058F0000C310860FFF7CCFE4FF0006001498039A1
:10590000086010BD88ED00E000380240FFFFF6FEA1
:105910001030002410B50121054800F056F8012888
:1059200001D1FFF759FA0121014800F03FF810BDFD
:105930000040014010B50121074800F046F8012859
:1059400004D106480068401C04490860012102484F
:1059500000F02CF810BD000000440140A00300201E
:1059600010B50121074800F030F8012804D106489D
:105970000068401C044908600121024800F016F844
:1059800010BD0000001000404803002010B50121A8
:10599000054800F01AF8012801D1FEF709FB0121A2
:1059A000014800F003F810BD00140040CA43028211
:1059B000704721B1028842F00102028004E00288AF
:1059C0004FF6FE731A400280704730B50246002041
:1059D00000230024158A05EA0103958905EA0104DC
:1059E00013B10CB1012000E0002030BD1AB1838951
:1059F0000B43838102E083898B43838170470000DE
:105A000000220288184B98420ED0184B98420BD0B7
:105A1000B0F1804F08D0164B984205D0154B9842F4
:105A200002D0154B984204D14FF68F731A404B8821
:105A30001A43124B984207D0114B984204D04FF6AC
:105A4000FF431A400B891A4302804B68C3620B88DC
:105A50000385054B984202D0044B984201D18B7AC2
:105A60000386012383827047000001400004014047
:105A70000004004000080040000C004000100040FE
:105A8000001400401CB501210420FFF76BF84FF40F
:105A90000050009001208DF804008DF80700694641
:105AA0000448FEF7ABF84FF400510248FEF71CF92A
:105AB0001CBD00000008024010B500F005F8FFF71B
:105AC000E1FF00F017F810BD1CB501214020FFF7E1
:105AD00049F84FF48070009000208DF804000120F8
