:020000040800F2
:1000000080070020BD5600085D0400085F0400085A
:1000100063040008670400086B0400080000000087
:100020000000000000000000000000006F04000855
:100030007104000800000000730400087504000843
:10004000D7560008D7560008D7560008D7560008DC
:10005000D7560008D7560008D7560008D7560008CC
:10006000D7560008D7560008D7560008D7560008BC
:10007000D7560008D7560008D7560008D7560008AC
:10008000D7560008D7560008D7560008D75600089C
:10009000D7560008D7560008D7560008D75600088C
:1000A000D7560008D7560008D7560008D75600087C
:1000B000D7560008D7560008B1520008D756000896
:1000C000D7560008D7560008D7560008D75600085C
:1000D000D756000833560008D7560008D7560008F0
:1000E000D7560008D7560008D7560008D75600083C
:1000F000D7560008D7560008D7560008D75600082C
:10010000D7560008D7560008D7560008D75600081B
:10011000D7560008D7560008D7560008D75600080B
:10012000D7560008D7560008D7560008D7560008FB
:1001300000F002F800F03FF80AA090E8000C8244BA
:100140008344AAF10107DA4501D100F034F8AFF297
:10015000090EBAE80F0013F0010F18BFFB1A43F0A5
:10016000010318475C9200007C920000103A24BF03
:1001700078C878C1FAD8520724BF30C830C144BF0C
:1001800004680C607047000000230024002500264E
:10019000103A28BF78C1FBD8520728BF30C148BFEA
:1001A0000B607047782907F0F182002070471FB577
:1001B0001FBD10B510BD07F0A1FB1146FFF7F7FFFB
:1001C00000F008F807F0BFFB03B4FFF7F2FF03BC31
:1001D00005F0D4F91CB5002505F066F94FF4A060D0
:1001E00005F08CFA4FF4E13005F0D7F900F034FA5D
:1001F00001F07FF900F056FA05F000F84FF478406E
:100200006649088066A010210B46C822CDE900107F
:1002100032211E2004F0BFFF65A010210B46C8222A
:10022000CDE9001046211E2004F0B5FF63A0102187
:100230000B46C822CDE900105A211E2004F0ABFF66
:1002400061A010210B46C822CDE9001082211E209A
:1002500004F0A1FF5EA010210B46C822CDE90010DA
:1002600096211E2004F097FF5BA010210B46C822A8
:10027000CDE90010AA211E2004F08DFF8CE005F0CE
:10028000D7F80446002C7DD010200323224682217B
:100290000090562004F0C7FE102003230090504821
:1002A00002789621562004F0BEFE622C35D017DC71
:1002B000302C48D00BDC102C4BD003DC4CB3022C80
:1002C00051D12CE0182C40D0222C4CD12DE0382CD0
:1002D00041D0422C43D0522C43D05A2C43D13CE045
:1002E000A82C26D00CDC902C25D004DC682C24D043
:1002F0007A2C38D12BE0982C21D0A22C33D10AE0D3
:10030000B02C1ED0C22C0ED0E02C10D0E22C2AD162
:1003100007E034A527E035A525E036A523E036A57E
:1003200021E037A51FE039A51DE03AA51BE03BA55C
:1003300019E03CA517E03DA515E03EA513E01BA57F
:1003400011E03DA50FE03DA50DE01EA50BE03CA58D
:1003500009E03CA507E03CA505E03CA503E03CA581
:1003600001E03CA500BF00BF4FF6FF70BA23B422E6
:10037000AA210090562004F073FC10200346C822E6
:10038000AA2100E005E0CDE90005562004F003FFB6
:1003900002E00A2005F0C5F871E700001600002011
:1003A000576172536869702053544D333200000016
:1003B00052454D4F54452054455354003230313747
:1003C0002F372F31350000004B455956414C3A002C
:1003D0004B4559434E543A0053594D424F4C3A0005
:1003E000240000204552524F52000000504F574504
:1003F0005200000055500000504C415900000000D0
:10040000414C49454E54454B000000005249474875
:10041000540000004C45465400000000564F4C2D3F
:1004200000000000444F574E00000000564F4C2B78
:100430000000000031000000330000003400000024
:1004400036000000370000003800000039000000CE
:100450003000000044454C4554450000704700BF43
:10046000FEE700BFFEE700BFFEE700BFFEE7704704
:1004700070477047704700000CB500200190009055
:100480006C48006840F480306A49086000BF6948E1
:10049000006800F4003000900198401C0190009822
:1004A00018B90198B0F5A06FF1D16248006800F466
:1004B000003010B10120009001E000200090009871
:1004C000012843D15C48006840F010005A49086098
:1004D0000846006820F0030008600846006840F005
:1004E0000200086053484068524948600846406826
:1004F00048600846406840F48060486008464068AC
:1005000020F47C1048600846406840F4E8104860D9
:100510000846006840F08070086000BF45480068E9
:1005200000F000700028F9D04248406820F0030035
:10053000404948600846406840F00200486000BFFB
:100540003C48406800F00C000828F9D10CBD10B5FB
:10055000FFF792FF10BD10B53648006840F001006B
:1005600034490860084640683449084031494860C9
:1005700008460068324908402E490860084600686D
:1005800020F4802008600846406820F4FE0048609F
:100590004FF41F008860FFF7DAFF4FF00060294931
:1005A000086010BD10B5002100200022214B5B68BF
:1005B00003F00C0121B1042906D0082928D107E055
:1005C000214B224C236027E01F4B204C236023E06B
:1005D000184B5B6803F47010164B5B6803F48032B1
:1005E000022303EB904022B9194B4343174C23607D
:1005F0000DE0104B5B6803F4003323B1144B43430D
:10060000124C236003E0104B4343104C236003E083
:100610000D4B0E4C236000BF00BF064B5B68C3F35D
:1006200003130C4CE15C094B1B68CB40074C236067
:1006300010BD000000100240002002400000FFF842
:10064000FFFFF6FE08ED00E000127A000000002037
:1006500000093D000400002008B50121482005F0F4
:10066000DDFE2020ADF8000010208DF803000320EF
:100670008DF802006946094805F014FC202107485E
:1006800005F0BDFC2020ADF800006946044805F0E7
:1006900009FC2021024805F0B2FC08BD000C014015
:1006A0000018014008B50121442005F0B7FE1C20C8
:1006B000ADF8000048208DF803006946354805F084
:1006C000F1FB0120ADF8000028208DF803006946F9
:1006D000314805F0E7FB08BD10B5044614B1012010
:1006E0002E4908702D480078002837D0102129485D
:1006F00005F06BFC78B10821264805F066FC50B186
:100700000421244805F061FC28B10121224805F0AC
:100710005CFC012822D10A2004F003FF00201F49BD
:10072000087010211B4805F050FC08B9012010BDCD
:100730000821184805F049FC08B90220F7E7042110
:10074000144805F042FC08B90320F0E701211248E3
:1007500005F03BFC01281BD10420E8E710210D48DF
:1007600005F033FC012813D108210A4805F02DFCBF
:1007700001280DD10421074805F027FC012807D1E5
:100780000121054805F021FC10B90120034908703A
:100790000020CCE7001801400008014014000020B0
:1007A000F74908807047F649891C0880704708B5EA
:1007B000F348801C00880090BDF8000008BDF04A96
:1007C0001080921C1180704710B504462046FFF738
:1007D000E7FF052004F081FEFFF7E9FF10BDE948BF
:1007E0000089E74908807047E549891C08807047FF
:1007F00030B5014601F01F04C1F34513CA0AE502F2
:1008000005EB43151544A8B230BD00BF0100A0F1AF
:100810000102D0B2FAD1704710B503460C46D94850
:10082000808849F24131884205D0D648808845F217
:100830001031884214D1D3494889FFF7B1FF18120B
:10084000FFF7B1FFD8B2FFF7AEFFCE498889FFF7B7
:10085000A7FF2012FFF7A7FFE0B2FFF7A4FFABE06E
:10086000C848808846F6040188421DD1C548807971
:10087000012804D1C3480088401EC01A83B2C14970
:100880004889FFF78DFF1812FFF78DFFD8B2FFF7E9
:100890008AFFBC498889FFF783FF2012FFF783FF97
:1008A000E0B2FFF780FF87E0B648808841F6631129
:1008B000884247D1B3488079A8B9B2480088401E21
:1008C000C01A83B2AF494889FFF76AFF0020FFF7DB
:1008D0006AFF0020FFF767FF1812FFF764FFD8B226
:1008E000FFF761FF16E0A7494889FFF759FF181283
:1008F000FFF759FFD8B2FFF756FFA2490988491EF2
:10090000C1F30F20FFF74FFF9E490978491EC8B277
:10091000FFF749FF9B498889FFF742FF2012FFF745
:1009200042FFE0B2FFF73FFF96494988491EC1F3F5
:100930000F20FFF738FF93498978491EC8B2FFF7A7
:1009400032FF39E08F48808845F21051884220D12B
:100950008C494889FFF724FF1812FFF724FF8949C3
:100960004989491C88B2FFF71BFFD8B2FFF71BFF6C
:1009700084498889FFF714FF2012FFF714FF81498B
:100980008989491C88B2FFF70BFFE0B2FFF70BFF24
:1009900012E07C488079012804D17A480088401E02
:1009A000C01A83B2774948891946FFF708FF75498D
:1009B00088892146FFF703FF10BD2DE9F041054668
:1009C0000E4600240027A0466E480088A84203DD9A
:1009D0006C484088B04202DC0020BDE8F08131461E
:1009E0002846FFF719FF6748808849F2413188425D
:1009F00011D06448808846F6040188420BD06148D3
:100A0000808845F21031884205D05E48808841F6E2
:100A10006311884203D12E20FFF7C2FE0DE0594832
:100A2000808845F21051884204D14FF43850FFF7C6
:100A3000B7FE02E02220FFF7B3FE5248808849F259
:100A40002031884202D10220FFF7DFFEFFF7AFFE20
:100A500004464C48808841F66311884201D1204603
:100A6000BBE70220FFF7D1FEFFF7A1FE0446454891
:100A7000808849F2413188420BD04248808845F253
:100A80001031884205D03F48808845F21051884295
:100A90000AD10220FFF7B9FEFFF789FE8046E7B2D0
:100AA0004FF6FF7000EA07273648808849F2253163
:100AB000884216D03348808844F23551884210D09D
:100AC00030488088091F88420BD02E4880884BF21E
:100AD0000551884205D02B4880884CF20551884248
:100AE00001D1204679E72748808849F24131884280
:100AF0000BD02448808845F21031884205D0214827
:100B0000808845F21051884207D1E012C002B91224
:100B100040EA411040EAE8205FE72046FFF768FE20
:100B20005BE700B51748808849F24131884211D00F
:100B30001448808846F6040188420BD0114880880A
:100B400045F21031884205D00E48808841F6631185
:100B5000884203D12920FFF723FE0FE0094880884F
:100B600045F21051884204D14FF42450FFF718FE8B
:100B700004E040F273110720FFF721FE00BD0000E2
:100B8000FE07006C4800002000B5FD48808849F24F
:100B90004131884211D0FA48808846F604018842E3
:100BA0000BD0F748808845F21031884205D0F448D0
:100BB000808841F66311884203D12820FFF7F0FDB9
:100BC0000EE0EF48808845F21051884204D14FF47E
:100BD0002050FFF7E5FD03E000210720FFF7EFFDC0
:100BE00000BD70B5044600230026E5488079012841
:100BF0000BD1E348808846F60401884205D0E048DE
:100C0000808841F66311884208D1DD488079F0B9C7
:100C1000DB48808841F66311884218D1082C15D230
:100C2000DFE804F00406080A0C0E101206240DE09A
:100C300007240BE0042409E0052407E0012405E073
:100C4000002403E0032401E0022400BF00BFCC48DD
:100C5000808849F24131884217D0C948808846F6D9
:100C60000401884211D0C648808845F2103188427C
:100C70000BD0C348808845F21051884205D0C04847
:100C8000808841F6631188427ED1082C1CD2DFE8AF
:100C900004F00406090C0F12151800BF14E043F00D
:100CA000800311E043F040030EE043F0C0030BE08B
:100CB00043F0200308E043F0600305E043F0A003A5
:100CC00002E043F0E00300BF00BFAD48808845F27A
:100CD0001051884202D14FF4585600E03626A848F9
:100CE000808845F2103188420DD0A548808845F2B1
:100CF0001051884207D0A248808841F6631188428B
:100D000001D043F008039E48808846F604018842DB
:100D100001D143F0020319463046FFF750FD9848D1
:100D2000808841F6631188421DD003F0200068B12D
:100D30009348008892494988884214DA9048058887
:100D400040888F490880084645800CE08C48008820
:100D50008B494988884206DD89480588408888494A
:100D60000880084645808648808845F210518842B0
:100D700054D183494889FFF713FD0020FFF713FD85
:100D80007F494989491C00E077E088B2FFF708FDF8
:100D90000020FFF708FD7A494989891C88B2FFF7CE
:100DA000FFFC77490988491EC1F30F20FFF7FBFCC0
:100DB00073494989C91C88B2FFF7F2FC7049097868
:100DC000491EC8B2FFF7EFFC6D498889FFF7E8FCC0
:100DD0000020FFF7E8FC6A498989491C88B2FFF7BF
:100DE000DFFC0020FFF7DFFC65498989891C88B298
:100DF000FFF7D6FC62494988491EC1F30F20FFF76F
:100E0000D2FC5F498989C91C88B2FFF7C9FC5C49DB
:100E10008978491EC8B2FFF7C6FC55E05849488991
:100E2000FFF7BEFC0020FFF7BEFC0020FFF7BBFC75
:100E300053490988491EC1F30F20FFF7B4FC5049FC
:100E40000978491EC8B2FFF7AEFC4D498889FFF703
:100E5000A7FC0020FFF7A7FC0020FFF7A4FC4849EF
:100E60004988491EC1F30F20FFF79DFC444989784A
:100E7000491EC8B2FFF797FC26E0082C1CD2DFE819
:100E800004F004070A0D0F12151843F0300313E0A5
:100E900043F0100310E043F020030DE000BF0BE02F
:100EA00043F0380308E043F0280305E043F018035B
:100EB00002E043F0080300BF00BF032643F4805361
:100EC00019463046FFF77BFC70BD30B504460D4631
:100ED00029462046FFF7A0FCFFF781FC294800883F
:100EE0002949088030BD30B503460C4615462448D4
:100EF000808849F24131884205D02148808845F2F6
:100F00001031884214D11E494889FFF749FC181254
:100F1000FFF749FCD8B2FFF746FC19498889FFF76B
:100F20003FFC2012FFF73FFCE0B2FFF73CFC93E0F0
:100F30001348808845F21051884227D110494889CA
:100F4000FFF72EFC1812FFF72EFC0D494989491CAA
:100F500088B2FFF725FCD8B2FFF725FC084988893D
:100F6000FFF71EFC2012FFF71EFC05498989491C6A
:100F700088B2FFF715FCE0B2FFF715FC6CE000004B
:100F800048000020160000200008006CFC48808803
:100F900041F66311884228D1F948807920B9F84890
:100FA0000088401EC01A83B2F5494889FFF7F8FB54
:100FB0001812FFF7F8FBD8B2FFF7F5FB1812FFF78E
:100FC000F2FBD8B2FFF7EFFBED498889FFF7E8FBAA
:100FD0002012FFF7E8FBE0B2FFF7E5FB2012FFF776
:100FE000E2FBE0B2FFF7DFFB36E0E548808846F63B
:100FF000040188421DD1E2488079012804D1E048EB
:101000000088401EC01A83B2DD494889FFF7C8FB3B
:101010001812FFF7C8FBD8B2FFF7C5FBD84988897B
:10102000FFF7BEFB2012FFF7BEFBE0B2FFF7BBFBF2
:1010300012E0D3488079012804D1D1480088401EAD
:10104000C01A83B2CE4948891946FFF7B8FBCC498C
:1010500088892146FFF7B3FBC9480089C949088040
:10106000881C058030BD2DE9F0470446BE20FFF7FF
:1010700097FB0520FFF797FB204606F09CFC0746F0
:101080004FF06632C04B06F0A9FC054606F066FC40
:101090001FFA80F94846FFF786FB0120FFF783FB24
:1010A000FF20FFF780FB0020FFF77DFB0020FFF70C
:1010B0007AFBBDE8F08710B50446002C66D1B04934
:1010C0008871F02008804FF4A0704880084680881E
:1010D00049F2413188420BD0A948808846F6040184
:1010E000884205D0A648808845F2103188421AD13E
:1010F0002C20A34908812A2048812B20888108467A
:10110000808846F60401884205D09D48808845F2D3
:101110001031884206D14FF4A070994908804FF4ED
:10112000F0704880A1E09648808845F210518842CE
:1011300010D14FF43050924908814FF42850488123
:101140004FF42C5088814FF4F07008804FF44870B1
:1011500048808AE08A48808841F6631188420DD130
:101160002C20874908812B2048812A2088814FF430
:10117000F07008804FF44870488076E02220804963
:10118000088120204881212088816EE001207C494F
:1011900088714FF4A0700880F0204880084680884D
:1011A00049F24131884205D07548808845F21031B6
:1011B000884207D12C20724908812A2048812B209F
:1011C00088813FE06E48808846F60401884207D156
:1011D0002C206B4908812B2048812A20888131E00E
:1011E0006748808845F21051884210D14FF4305042
:1011F000634908814FF4285048814FF42C5088816E
:101200004FF4487008804FF4F07048801AE05C4852
:10121000808841F6631188420DD12C2058490881FD
:101220002A2048812B2088814FF4487008804FF491
:10123000F070488006E02220514908812120488131
:10124000202088814E48808846F60401884205D0D7
:101250004B48808845F21031884206D14FF4F07037
:10126000474908804FF4A07048800020FFF7B9FC80
:1012700010BD2DE9F04F86B004460D4690469946C4
:1012800004EB0800401E86B205EB0900401E87B241
:101290003B48808849F24131884215D038488088DF
:1012A00045F2103188420FD03548808846F6040157
:1012B000884209D032488079012826D13048808878
:1012C00041F66311884220D12D494889FFF768FA19
:1012D0002012FFF768FAE0B2FFF765FA3012FFF765
:1012E00062FAF0B2FFF75FFA25498889FFF758FAEA
:1012F0002812FFF758FAE8B2FFF755FA3812FFF74D
:1013000052FAF8B2FFF74FFABEE01D48808841F666
:10131000631188423AD11A480088A0EB0800001BEC
:1013200084B205EB0900401E1FFA80F91449488970
:10133000FFF736FA2012FFF736FAE0B2FFF733FA7A
:1013400004EB0801491EC1F30F20FFF72CFA04EB50
:101350000801491EC8B2FFF726FA09498889FFF734
:101360001FFA2812FFF71FFAE8B2FFF71CFA4FEA3C
:101370002920FFF718FA09F0FF00FFF714FA83E0BD
:1013800048000020FE07006C66660440FE48808826
:1013900045F21051884244D1FB494889FFF700FAD1
:1013A0002012FFF700FAF8494989491C88B2FFF773
:1013B000F7F9E0B2FFF7F7F9F3494989891C88B2D8
:1013C000FFF7EEF93012FFF7EEF9EF494989C91C32
:1013D00088B2FFF7E5F9F0B2FFF7E5F9EA49888945
:1013E000FFF7DEF92812FFF7DEF9E7498989491C82
:1013F00088B2FFF7D5F9E8B2FFF7D5F9E249898954
:10140000891C88B2FFF7CCF93812FFF7CCF9DE4916
:101410008989C91C88B2FFF7C3F9F8B2FFF7C3F98D
:1014200032E0D948807901280ED1AA46BB46D64879
:101430000088801B401E80B20190D3480088001BAA
:10144000401E80B2009003E0A246B346019500978B
:101450005020059051200490522003905320029078
:1014600051460598FFF7ABF959460498FFF7A7F9DD
:1014700001990398FFF7A3F900990298FFF79FF9E4
:1014800029462046FFF7C8F906B0BDE8F08F70B5D1
:1014900004460026BC48058840884543BA488088F1
:1014A00046F60401884216D1B7488079012812D146
:1014B0000020B54988712A2048812B20888100218D
:1014C0000846FFF7A9F90120AF4988712B20488110
:1014D0002A20888103E000210846FFF79DF9FFF7E5
:1014E0007EF9002602E0A9480480761CAE42FAD3B9
:1014F00070BD00B59FB00121080204F082FF0121F8
:101500004FF4B47004F08AFF0120ADF87800102089
:101510008DF87B0003208DF87A001EA99C4804F00A
:10152000C1FC4CF23370ADF8780018208DF87B00C8
:1015300003208DF87A001EA9964804F0B3FC4FF6FC
:101540008070ADF8780018208DF87B0003208DF8AE
:101550007A001EA9904804F0A5FC41F20100ADF804
:10156000780018208DF87B0003208DF87A001EA9E2
:101570008A4804F097FC01200890002009900F2071
:101580000A9000200B900C900D900E90019002900C
:1015900003200390002004900590069007900620F9
:1015A0000F900020109011901020129000201390A6
:1015B00015901490169017904FF4805018900020BA
:1015C00019904FF480401A9000201B9008A81C909E
:1015D00001A81D900FA804F04BF90121062004F08A
:1015E000AFFA322003F09DFF0020FFF7EDF86649C7
:1015F000888008468088FF280ADB084680884FF6E6
:10160000FF71884204D060488088B0F5134F7CD1C8
:10161000D320FFF7C5F8FFF7CAF85B498880FFF7CA
:10162000C6F859498880FFF7C2F8574988800846AC
:1016300080884FF6FF7101EA002053498880FFF748
:10164000B6F85149898808434F4988800846808800
:1016500049F24131884258D0BF20FFF7A1F8FFF787
:10166000A6F849498880FFF7A2F847498880FFF724
:101670009EF845498880FFF79AF8434988800846D4
:1016800080884FF6FF7101EA00203F498880FFF70C
:101690008EF83D49898808433B4988800846808800
:1016A00046F60401884230D0D420FFF779F8FFF7DE
:1016B0007EF835498880FFF77AF833498880FFF74C
:1016C00076F831498880084680884FF6FF7101EA34
:1016D00000202D498880FFF76AF82B498988084344
:1016E000294988800846808845F21031884263D0B5
:1016F0004FF45A40FFF754F8FFF759F82249888011
:101700004FF45B40FFF74CF800E055E0FFF74FF86F
:101710001D498880084680884FF6FF7101EA002045
:10172000194988804FF45C40FFF73AF8FFF73FF81B
:101730001549898808431449888008468088B0F58F
:10174000004F02D145F2105088800F48808845F242
:101750001051884230D0A120FFF722F8FFF727F878
:1017600009498880FFF723F8074988800846808860
:101770004FF6FF7101EA002003498880FFF717F850
:101780000149898808430BE0480000200008006CEC
:10179000000C0140001401400018014000200140ED
:1017A000FE4988800846808845F26171884203D1ED
:1017B00041F66310F9498880F8488188F8A005F05F
:1017C000A5FFF648808849F2413188427ED1CF207A
:1017D000FEF7E6FF0020FEF7E6FFC120FEF7E3FF7D
:1017E0003020FEF7E0FFED20FEF7DAFF6420FEF781
:1017F000DAFF0320FEF7D7FF1220FEF7D4FF812087
:10180000FEF7D1FFE820FEF7CBFF8520FEF7CBFFE8
:101810001020FEF7C8FF7A20FEF7C5FFCB20FEF7A9
:10182000BFFF3920FEF7BFFF2C20FEF7BCFF0020D2
:10183000FEF7B9FF3420FEF7B6FF0220FEF7B3FF34
:10184000F720FEF7ADFF2020FEF7ADFFEA20FEF700
:10185000A7FF0020FEF7A7FF0020FEF7A4FFC0208F
:10186000FEF79EFF1B20FEF79EFFC120FEF798FFAC
:101870000120FEF798FFC520FEF792FF3020FEF70B
:1018800092FF3020FEF78FFFC720FEF789FFB720B9
:10189000FEF789FF3620FEF783FF4820FEF783FF1F
:1018A0003A20FEF77DFF5520FEF77DFFB120FEF7C1
:1018B00077FF0020FEF777FF1A20FEF774FFB620AF
:1018C000FEF76EFF0A20FEF76EFF00E097E0A22011
:1018D000FEF769FFF220FEF763FF0020FEF763FFCB
:1018E0002620FEF75DFF0120FEF75DFFE020FEF7FA
:1018F00057FF0F20FEF757FF2A20FEF754FF28203E
:10190000FEF751FF0820FEF74EFF0E20FEF74BFFBB
:101910000820FEF748FF5420FEF745FFA920FEF7F8
:1019200042FF4320FEF73FFF0A20FEF73CFF0F2057
:10193000FEF739FF0020FEF736FF0020FEF733FFE9
:101940000020FEF730FF0020FEF72DFFE120FEF71C
:1019500027FF0020FEF727FF1520FEF724FF1720A2
:10196000FEF721FF0720FEF71EFF1120FEF71BFFE9
:101970000620FEF718FF2B20FEF715FF5620FEF776
:1019800012FF3C20FEF70FFF0520FEF70CFF102092
:10199000FEF709FF0F20FEF706FF3F20FEF703FFCB
:1019A0003F20FEF700FF0F20FEF7FDFE2B20FEF785
:1019B000F7FE0020FEF7F7FE0020FEF7F4FE012000
:1019C000FEF7F1FE3F20FEF7EEFE2A20FEF7E8FECE
:1019D0000020FEF7E8FE0020FEF7E5FE0020FEF7FF
:1019E000E2FEEF20FEF7DFFE1120FEF7D9FE7820A1
:1019F00003F097FD2920FEF7D3FE03F025B96748D1
:101A0000808846F6040188427ED11120FEF7C8FE88
:101A1000142003F086FDD020FEF7C2FE0720FEF75B
:101A2000C2FE4220FEF7BFFE1D20FEF7BCFED12005
:101A3000FEF7B6FE0020FEF7B6FE1A20FEF7B3FE54
:101A40000920FEF7B0FED220FEF7AAFE0120FEF725
:101A5000AAFE2220FEF7A7FEC020FEF7A1FE10205E
:101A6000FEF7A1FE3B20FEF79EFE0020FEF79BFE48
:101A70000220FEF798FE1120FEF795FEC520FEF726
:101A80008FFE0320FEF78FFEC820FEF789FE0020A0
:101A9000FEF789FE2520FEF786FE2120FEF783FE55
:101AA0000520FEF780FE0020FEF77DFE0A20FEF7EF
:101AB0007AFE6520FEF777FE2520FEF774FE77207C
:101AC000FEF771FE5020FEF76EFE0F20FEF76BFE54
:101AD0000020FEF768FEF820FEF762FE0120FEF708
:101AE00062FEFE20FEF75CFE0020FEF75CFE022098
:101AF000FEF759FE2020FEF753FE3620FEF750FE7B
:101B00000820FEF750FE00E02AE03A20FEF748FEEB
:101B10005520FEF748FE2B20FEF742FE0020FEF780
:101B200042FE0020FEF73FFE0120FEF73CFE3F2074
:101B3000FEF739FE2A20FEF733FE0020FEF733FEC3
:101B40000020FEF730FE0120FEF72DFEDF20FEF71D
:101B50002AFE782003F0E5FC2920FEF721FE4CE761
:101B60000E48808845F21031884240F08487ED208D
:101B7000FEF716FE0120FEF716FEFE20FEF713FE0E
:101B8000EE20FEF70DFEDE20FEF70DFE2120FEF713
:101B90000AFEF120FEF704FE012009E048000020C3
:101BA000204C43442049443A25780D0A00000000A7
:101BB000FEF7F9FDDF20FEF7F3FD1020FEF7F3FD41
:101BC000C420FEF7EDFD8F20FEF7EDFDC620FEF7E9
:101BD000E7FD0020FEF7E7FDE220FEF7E4FDE2204E
:101BE000FEF7E1FDE220FEF7DEFDBF20FEF7D8FDA7
:101BF000AA20FEF7D8FDB020FEF7D2FD0D20FEF79B
:101C0000D2FD0020FEF7CFFD0D20FEF7CCFD002019
:101C1000FEF7C9FD1120FEF7C6FD0020FEF7C3FD4B
:101C20001920FEF7C0FD0020FEF7BDFD2120FEF7C4
:101C3000BAFD0020FEF7B7FD2D20FEF7B4FD002011
:101C4000FEF7B1FD3D20FEF7AEFD0020FEF7ABFD37
:101C50005D20FEF7A8FD0020FEF7A5FD5D20FEF744
:101C6000A2FD0020FEF79FFDB120FEF799FD802028
:101C7000FEF799FD0020FEF796FD8B20FEF793FD01
:101C80000020FEF790FD9620FEF78DFD0020FEF768
:101C90008AFDB220FEF784FD0020FEF784FD0020BF
:101CA000FEF781FD0220FEF77EFD0020FEF77BFDA2
:101CB0000320FEF778FD0020FEF775FDB320FEF748
:101CC0006FFD0020FEF76FFD0020FEF76CFD002089
:101CD000FEF769FD0020FEF766FD0020FEF763FDBC
:101CE0000020FEF760FD0020FEF75DFD0020FEF7FE
:101CF0005AFD0020FEF757FD0020FEF754FD00209E
:101D0000FEF751FD0020FEF74EFD0020FEF74BFDD3
:101D10000020FEF748FD0020FEF745FD0020FEF7FD
:101D200042FD0020FEF73FFD0020FEF73CFD0020B5
:101D3000FEF739FD0020FEF736FD0020FEF733FDEB
:101D40000020FEF730FD0020FEF72DFD0020FEF7FD
:101D50002AFDB420FEF724FD8B20FEF724FD002091
:101D6000FEF721FD9620FEF71EFD0020FEF71BFD6D
:101D7000A120FEF718FD0020FEF715FDB520FEF7A7
:101D80000FFD0220FEF70FFD0020FEF70CFD0320E3
:101D9000FEF709FD0020FEF706FD0420FEF703FD17
:101DA0000020FEF700FDB620FEF7FAFC0020FEF74B
:101DB000FAFC0020FEF7F7FCB720FEF7F1FC00204C
:101DC000FEF7F1FC0020FEF7EEFC3F20FEF7EBFCF7
:101DD0000020FEF7E8FC5E20FEF7E5FC0020FEF7A1
:101DE000E2FC6420FEF7DFFC0020FEF7DCFC8C2028
:101DF000FEF7D9FC0020FEF7D6FCAC20FEF7D3FCA2
:101E00000020FEF7D0FCDC20FEF7CDFC0020FEF722
:101E1000CAFC7020FEF7C7FC0020FEF7C4FC90202F
:101E2000FEF7C1FC0020FEF7BEFCEB20FEF7BBFC7A
:101E30000020FEF7B8FCDC20FEF7B5FC0020FEF722
:101E4000B2FCB820FEF7ACFC0020FEF7ACFC002092
:101E5000FEF7A9FC0020FEF7A6FC0020FEF7A3FC7D
:101E60000020FEF7A0FC0020FEF79DFC0020FEF7FE
:101E70009AFC0020FEF797FCBA20FEF791FC242084
:101E8000FEF791FC0020FEF78EFC0020FEF78BFC95
:101E90000020FEF788FCC120FEF782FC2020FEF720
:101EA00082FC0020FEF77FFC5420FEF77CFC002023
:101EB000FEF779FCFF20FEF776FC0020FEF773FCAE
:101EC000C220FEF76DFC0A20FEF76DFC0020FEF735
:101ED0006AFC0420FEF767FC0020FEF764FCC320C8
:101EE000FEF75EFC3C20FEF75EFC0020FEF75BFC8C
:101EF0003A20FEF758FC0020FEF755FC3920FEF78B
:101F000052FC0020FEF74FFC3720FEF74CFC00206F
:101F1000FEF749FC3C20FEF746FC0020FEF743FCA0
:101F20003620FEF740FC0020FEF73DFC3220FEF795
:101F30003AFC0020FEF737FC2F20FEF734FC00208F
:101F4000FEF731FC2C20FEF72EFC0020FEF72BFCC8
:101F50002920FEF728FC0020FEF725FC2620FEF7AE
:101F600022FC0020FEF71FFC2420FEF71CFC0020B2
:101F7000FEF719FC2420FEF716FC0020FEF713FCE8
:101F80002320FEF710FC0020FEF70DFC3C20FEF79E
:101F90000AFC0020FEF707FC3620FEF704FC0020B8
:101FA000FEF701FC3220FEF7FEFB0020FEF7FBFBF4
:101FB0002F20FEF7F8FB0020FEF7F5FB2C20FEF7A4
:101FC000F2FB0020FEF7EFFB2920FEF7ECFB0020E0
:101FD000FEF7E9FB2620FEF7E6FB0020FEF7E3FB19
:101FE0002420FEF7E0FB0020FEF7DDFB2420FEF7B7
:101FF000DAFB0020FEF7D7FB2320FEF7D4FB0020FE
:10200000FEF7D1FBC420FEF7CBFB6220FEF7CBFB33
:102010000020FEF7C8FB0520FEF7C5FB0020FEF7F9
:10202000C2FB8420FEF7BFFB0020FEF7BCFBF020C4
:10203000FEF7B9FB0020FEF7B6FB1820FEF7B3FB56
:102040000020FEF7B0FBA420FEF7ADFB0020FEF75A
:10205000AAFB1820FEF7A7FB0020FEF7A4FB5020E8
:10206000FEF7A1FB0020FEF79EFB0C20FEF79BFB7A
:102070000020FEF798FB1720FEF795FB0020FEF7E7
:1020800092FB9520FEF78FFB0020FEF78CFBF320E0
:10209000FEF789FB0020FEF786FBE620FEF783FBB8
:1020A0000020FEF780FBC520FEF77AFB3220FEF70A
:1020B0007AFB0020FEF777FB4420FEF774FB00203C
:1020C000FEF771FB6520FEF76EFB0020FEF76BFB51
:1020D0007620FEF768FB0020FEF765FB8820FEF700
:1020E00062FB0020FEF75FFBC620FEF759FB2020B5
:1020F000FEF759FB0020FEF756FB1720FEF753FBB7
:102100000020FEF750FB0120FEF74DFB0020FEF7FC
:102110004AFBC720FEF744FB0020FEF744FB0020EB
:10212000FEF741FB0020FEF73EFB0020FEF73BFBE5
:10213000C820FEF735FB0020FEF735FB0020FEF738
:1021400032FB0020FEF72FFB0020FEF72CFBC920FE
:10215000FEF726FB0020FEF726FB0020FEF723FB00
:102160000020FEF720FB0020FEF71DFB0020FEF7FD
:102170001AFB0020FEF717FB0020FEF714FB0020DF
:10218000FEF711FB0020FEF70EFB0020FEF70BFB15
:102190000020FEF708FB0020FEF705FB0020FEF7FD
:1021A00002FB0020FEF7FFFA0020FEF7FCFA0020F9
:1021B000FEF7F9FAE020FEF7F3FA1620FEF7F3FA3D
:1021C0000020FEF7F0FA1C20FEF7EDFA0020FEF7E3
:1021D000EAFA2120FEF7E7FA0020FEF7E4FA3620BB
:1021E000FEF7E1FA0020FEF7DEFA4620FEF7DBFA02
:1021F0000020FEF7D8FA5220FEF7D5FA0020FEF7AD
:10220000D2FA6420FEF7CFFA0020FEF7CCFA7A204B
:10221000FEF7C9FA0020FEF7C6FA8B20FEF7C3FAD4
:102220000020FEF7C0FA9920FEF7BDFA0020FEF765
:10223000BAFAA820FEF7B7FA0020FEF7B4FAB920E0
:10224000FEF7B1FA0020FEF7AEFAC420FEF7ABFAB3
:102250000020FEF7A8FACA20FEF7A5FA0020FEF734
:10226000A2FAD220FEF79FFA0020FEF79CFAD920AE
:10227000FEF799FA0020FEF796FAE020FEF793FAAF
:102280000020FEF790FAF320FEF78DFA0020FEF70B
:102290008AFAE120FEF784FA1620FEF784FA00207D
:1022A000FEF781FA1C20FEF77EFA0020FEF77BFA8B
:1022B0002220FEF778FA0020FEF775FA3620FEF7A6
:1022C00072FA0020FEF76FFA4520FEF76CFA002044
:1022D000FEF769FA5220FEF766FA0020FEF763FA6D
:1022E0006420FEF760FA0020FEF75DFA7A20FEF720
:1022F0005AFA0020FEF757FA8B20FEF754FA002016
:10230000FEF751FA9920FEF74EFA0020FEF74BFA3D
:10231000A820FEF748FA0020FEF745FAB920FEF79C
:1023200042FA0020FEF73FFAC420FEF73CFA0020F4
:10233000FEF739FACA20FEF736FA0020FEF733FA24
:10234000D220FEF730FA0020FEF72DFAD820FEF753
:102350002AFA0020FEF727FAE020FEF724FA0020F0
:10236000FEF721FAF320FEF71EFA0020FEF71BFA13
:10237000E220FEF715FA0520FEF715FA0020FEF719
:1023800012FA0B20FEF70FFA0020FEF70CFA1B20C2
:10239000FEF709FA0020FEF706FA3420FEF703FAEA
:1023A0000020FEF700FA4420FEF7FDF90020FEF7BA
:1023B000FAF94F20FEF7F7F90020FEF7F4F9612053
:1023C000FEF7F1F90020FEF7EEF97920FEF7EBF9C0
:1023D0000020FEF7E8F98820FEF7E5F90020FEF777
:1023E000E2F99720FEF7DFF90020FEF7DCF9A620DE
:1023F000FEF7D9F90020FEF7D6F9B720FEF7D3F99A
:102400000020FEF7D0F9C220FEF7CDF90020FEF73C
:10241000CAF9C720FEF7C7F90020FEF7C4F9D1209A
:10242000FEF7C1F90020FEF7BEF9D620FEF7BBF992
:102430000020FEF7B8F9DD20FEF7B5F90020FEF721
:10244000B2F9F320FEF7AFF90020FEF7ACF9E32074
:10245000FEF7A6F90520FEF7A6F90020FEF7A3F97E
:102460000A20FEF7A0F90020FEF79DF91C20FEF7D8
:102470009AF90020FEF797F93320FEF794F900202F
:10248000FEF791F94420FEF78EF90020FEF78BF954
:102490005020FEF788F90020FEF785F96220FEF74C
:1024A00082F90020FEF77FF97820FEF77CF9002002
:1024B000FEF779F98820FEF776F90020FEF773F928
:1024C0009720FEF770F90020FEF76DF9A620FEF7C1
:1024D0006AF90020FEF767F9B720FEF764F90020DB
:1024E000FEF761F9C220FEF75EF90020FEF75BF906
:1024F000C720FEF758F90020FEF755F9D120FEF766
:1025000052F90020FEF74FF9D520FEF74CF90020D4
:10251000FEF749F9DD20FEF746F90020FEF743F902
:10252000F320FEF740F90020FEF73DF9E420FEF726
:1025300037F90120FEF737F90020FEF734F90120C2
:10254000FEF731F90020FEF72EF90220FEF72BF9F5
:102550000020FEF728F92A20FEF725F90020FEF7D3
:1025600022F93C20FEF71FF90020FEF71CF94B2052
:10257000FEF719F90020FEF716F95D20FEF713F9B2
:102580000020FEF710F97420FEF70DF90020FEF789
:102590000AF98420FEF707F90020FEF704F99320DA
:1025A000FEF701F90020FEF7FEF8A220FEF7FBF887
:1025B0000020FEF7F8F8B320FEF7F5F80020FEF74C
:1025C000F2F8BE20FEF7EFF80020FEF7ECF8C4208A
:1025D000FEF7E9F80020FEF7E6F8CD20FEF7E3F875
:1025E0000020FEF7E0F8D320FEF7DDF80020FEF72C
:1025F000DAF8DD20FEF7D7F80020FEF7D4F8F32054
:10260000FEF7D1F80020FEF7CEF8E520FEF7C8F877
:102610000020FEF7C8F80020FEF7C5F80020FEF7FE
:10262000C2F80020FEF7BFF80220FEF7BCF8002039
:10263000FEF7B9F82920FEF7B6F80020FEF7B3F848
:102640003C20FEF7B0F80020FEF7ADF84B20FEF777
:10265000AAF80020FEF7A7F85D20FEF7A4F80020F6
:10266000FEF7A1F87420FEF79EF80020FEF79BF815
:102670008420FEF798F80020FEF795F89320FEF7E7
:1026800092F80020FEF78FF8A220FEF78CF80020C9
:10269000FEF789F8B320FEF786F80020FEF783F8EE
:1026A000BE20FEF780F80020FEF77DF8C420FEF77C
:1026B0007AF80020FEF777F8CD20FEF774F80020B6
:1026C000FEF771F8D320FEF76EF80020FEF76BF8E6
:1026D000DC20FEF768F80020FEF765F8F320FEF72F
:1026E00062F80020FEF75FF8E620FEF759F81120A7
:1026F000FEF759F80020FEF756F83420FEF753F89D
:102700000020FEF750F85620FEF74DF80020FEF7A7
:102710004AF87620FEF747F80020FEF744F87720C5
:10272000FEF741F80020FEF73EF86620FEF73BF882
:102730000020FEF738F88820FEF735F80020FEF775
:1027400032F89920FEF72FF80020FEF72CF8BB2076
:10275000FEF729F80020FEF726F89920FEF723F867
:102760000020FEF720F86620FEF71DF80020FEF797
:102770001AF85520FEF717F80020FEF714F8552038
:10278000FEF711F80020FEF70EF84520FEF70BF8D3
:102790000020FEF708F84320FEF705F80020FEF7BA
:1027A00002F84420FDF7FFFF0020FDF7FCFFE720C3
:1027B000FDF7F6FF3220FDF7F6FF0020FDF7F3FFEF
:1027C0005520FDF7F0FF0020FDF7EDFF7620FDF727
:1027D000EAFF0020FDF7E7FF6620FDF7E4FF002099
:1027E000FDF7E1FF6720FDF7DEFF0020FDF7DBFFCF
:1027F0006720FDF7D8FF0020FDF7D5FF8720FDF704
:10280000D2FF0020FDF7CFFF9920FDF7CCFF00207D
:10281000FDF7C9FFBB20FDF7C6FF0020FDF7C3FF92
:102820009920FDF7C0FF0020FDF7BDFF7720FDF7E1
:10283000BAFF0020FDF7B7FF4420FDF7B4FF0020EA
:10284000FDF7B1FF5620FDF7AEFF0020FDF7ABFF0F
:102850002320FDF7A8FF0020FDF7A5FF3320FDF79B
:10286000A2FF0020FDF79FFF4520FDF79CFF002001
:10287000FDF799FFE820FDF793FF0020FDF793FF98
:102880000020FDF790FF9920FDF78DFF0020FDF758
:102890008AFF8720FDF787FF0020FDF784FF88204F
:1028A000FDF781FF0020FDF77EFF7720FDF77BFF1E
:1028B0000020FDF778FF6620FDF775FF0020FDF78B
:1028C00072FF8820FDF76FFF0020FDF76CFFAA2044
:1028D000FDF769FF0020FDF766FFBB20FDF763FFF2
:1028E0000020FDF760FF9920FDF75DFF0020FDF758
:1028F0005AFF6620FDF757FF0020FDF754FF5520D3
:10290000FDF751FF0020FDF74EFF5520FDF74BFF6F
:102910000020FDF748FF4420FDF745FF0020FDF7AC
:1029200042FF4420FDF73FFF0020FDF73CFF55200C
:10293000FDF739FF0020FDF736FFE920FDF730FFF6
:10294000AA20FDF730FF0020FDF72DFF0020FDF746
:102950002AFF0020FDF727FF0020FDF721FFAA2016
:10296000FDF721FFCF20FDF71BFF0020FDF71BFF28
:102970000020FDF718FF0020FDF715FF0020FDF7F0
:1029800012FF0020FDF70FFF0020FDF70CFF0020D5
:10299000FDF709FF0020FDF706FF0020FDF703FF0C
:1029A0000020FDF700FF0020FDF7FDFE0020FDF7F1
:1029B000FAFE0020FDF7F7FE0020FDF7F4FE0020F0
:1029C000FDF7F1FE0020FDF7EEFE0020FDF7EBFE27
:1029D000F020FDF7E5FE0020FDF7E5FE5020FDF7B5
:1029E000E2FE0020FDF7DFFE0020FDF7DCFE002008
:1029F000FDF7D9FEF320FDF7D3FE0020FDF7D3FE4F
:102A0000F920FDF7CDFE0620FDF7CDFE1020FDF7E5
:102A1000CAFE2920FDF7C7FE0020FDF7C4FE3A20BC
:102A2000FDF7BEFE5520FDF7BEFE1120FDF7B8FEF6
:102A3000642002F076FD2920FDF7B2FE3520FDF777
:102A4000AFFE0020FDF7AFFE5120FDF7A9FEFF20ED
:102A5000FDF7A9FE5320FDF7A3FE2C20FDF7A3FEF2
:102A60005520FDF79DFE8220FDF79DFE2C20FDF7F1
:102A700097FE02F0E9B8FE48808845F2105188427E
:102A80007ED155214FF47040FDF799FEAA214FF2F7
:102A90000100FDF794FE52214FF20200FDF78FFE78
:102AA00008214FF20300FDF78AFE01214FF20400D6
:102AB000FDF785FE0D214FF43040FDF780FE0D211E
:102AC0004BF20100FDF77BFE0D214BF20200FDF7FA
:102AD00076FE34214FF43640FDF771FE34214BF27F
:102AE0000160FDF76CFE34214BF20260FDF767FEDA
:102AF0000D214FF43140FDF762FE0D214BF2011024
:102B0000FDF75DFE0D214BF20210FDF758FE34215A
:102B10004FF43740FDF753FE34214BF20170FDF7BF
:102B20004EFE34214BF20270FDF749FE00214FF4B6
:102B30003240FDF744FE00214BF20120FDF73FFE3D
:102B400000214BF20220FDF73AFE24214FF43840D9
:102B5000FDF735FE24214BF60100FDF730FE242160
:102B60004BF60200FDF72BFE01214FF43F40FDF72D
:102B700026FE0F214FF43340FDF721FE0F2100E028
:102B8000FEE34BF20130FDF71AFE0F214BF202304B
:102B9000FDF715FE34214FF43940FDF710FE3421C6
:102BA0004BF60110FDF70BFE34214BF60210FDF73A
:102BB00006FE08214FF43540FDF701FE08214BF2D7
:102BC0000150FDF7FCFD08214BF20250FDF7F7FD27
:102BD00003214FF44240FDF7F2FD24214FF43A4027
:102BE000FDF7EDFD24214BF60120FDF7E8FD242142
:102BF0004BF60220FDF7E3FD00214FF43C40FDF7CA
:102C0000DEFD78214BF60140FDF7D9FD00214BF6A2
:102C10000240FDF7D4FD00214FF43D40FDF7CFFD0C
:102C200078214BF60150FDF7CAFD00214BF602500A
:102C3000FDF7C5FD00214FF43E40FDF7C0FD6421C6
:102C40004BF60160FDF7BBFD00214FF45140FDF74D
:102C5000B6FD33214DF20110FDF7B1FD00214DF21B
:102C60000210FDF7ACFD34214DF20310FDF7A7FD76
:102C700000214DF20410FDF7A2FD3A214DF205109E
:102C8000FDF79DFD00214DF20610FDF798FD4A214C
:102C90004DF20710FDF793FD00214DF20810FDF7EE
:102CA0008EFD5C214DF20910FDF789FD00214DF2EA
:102CB0000A10FDF784FD81214DF20B10FDF77FFD19
:102CC00000214DF20C10FDF77AFDA6214DF20D10FA
:102CD000FDF775FD00214DF20E10FDF770FDE521A9
:102CE0004DF20F10FDF76BFD01214DF21010FDF7B5
:102CF00066FD13214DF21110FDF761FD01214DF22A
:102D00001210FDF75CFD54214DF21310FDF757FD35
:102D100001214DF21410FDF752FD82214DF21510E4
:102D2000FDF74DFD01214DF21610FDF748FDCA21BA
:102D30004DF21710FDF743FD02214DF21810FDF77B
:102D40003EFD00214DF21910FDF739FD02214DF233
:102D50001A10FDF734FD01214DF21B10FDF72FFD78
:102D600002214DF21C10FDF72AFD34214DF21D10F9
:102D7000FDF725FD02214DF21E10FDF720FD672114
:102D80004DF21F10FDF71BFD02214DF22010FDF743
:102D900016FD84214DF22110FDF711FD02214DF2A7
:102DA0002210FDF70CFDA4214DF22310FDF707FDC5
:102DB00002214DF22410FDF702FDB7214DF225103E
:102DC000FDF7FDFC02214DF22610FDF7F8FCCF21A6
:102DD0004DF22710FDF7F3FC02214DF22810FDF70C
:102DE000EEFCDE214DF22910FDF7E9FC02214DF247
:102DF0002A10FDF7E4FCF2214DF22B10FDF7DFFC69
:102E000002214DF22C10FDF7DAFCFE214DF22D10BF
:102E1000FDF7D5FC03214DF22E10FDF7D0FC10215B
:102E20004DF22F10FDF7CBFC03214DF23010FDF7D2
:102E3000C6FC33214DF23110FDF7C1FC03214DF2E8
:102E40003210FDF7BCFC6D214DF23310FDF7B7FCDD
:102E500000214FF45240FDF7B2FC33214DF2012026
:102E6000FDF7ADFC00214DF20220FDF7A8FC01E0CA
:102E70004800002034214DF20320FDF7A0FC002182
:102E80004DF20420FDF79BFC3A214DF20520FDF7A1
:102E900096FC00214DF20620FDF791FC4A214DF2EF
:102EA0000720FDF78CFC00214DF20820FDF787FC80
:102EB0005C214DF20920FDF782FC00214DF20A2031
:102EC000FDF77DFC81214DF20B20FDF778FC002100
:102ED0004DF20C20FDF773FCA6214DF20D20FDF7FD
:102EE0006EFC00214DF20E20FDF769FCE5214DF24C
:102EF0000F20FDF764FC01214DF21020FDF75FFC6F
:102F000013214DF21120FDF75AFC01214DF2122040
:102F1000FDF755FC54214DF21320FDF750FC012123
:102F20004DF21420FDF74BFC82214DF21520FDF7E8
:102F300046FC01214DF21620FDF741FCCA214DF25D
:102F40001720FDF73CFC02214DF21820FDF737FC5D
:102F500000214DF21920FDF732FC02214DF21A201A
:102F6000FDF72DFC01214DF21B20FDF728FC02216D
:102F70004DF21C20FDF723FC34214DF21D20FDF7FE
:102F80001EFC02214DF21E20FDF719FC67214DF2B7
:102F90001F20FDF714FC02214DF22020FDF70FFC4D
:102FA00084214DF22120FDF70AFC02214DF222205E
:102FB000FDF705FCA4214DF22320FDF700FC0221C2
:102FC0004DF22420FDF7FBFBB7214DF22520FDF744
:102FD000F6FB02214DF22620FDF7F1FBCF214DF249
:102FE0002720FDF7ECFB02214DF22820FDF7E7FB3F
:102FF000DE214DF22920FDF7E2FB02214DF22A20CD
:10300000FDF7DDFBF2214DF22B20FDF7D8FB02216D
:103010004DF22C20FDF7D3FBFE214DF22D20FDF7C4
:10302000CEFB03214DF22E20FDF7C9FB10214DF2FE
:103030002F20FDF7C4FB03214DF23020FDF7BFFB2D
:1030400033214DF23120FDF7BAFB03214DF232203E
:10305000FDF7B5FB6D214DF23320FDF7B0FB0021EC
:103060004FF45340FDF7ABFB33214DF20130FDF738
:10307000A6FB00214DF20230FDF7A1FB34214DF2F9
:103080000330FDF79CFB00214DF20430FDF797FB68
:103090003A214DF20530FDF792FB00214DF206304A
:1030A000FDF78DFB4A214DF20730FDF788FB00212B
:1030B0004DF20830FDF783FB5C214DF20930FDF73E
:1030C0007EFB00214DF20A30FDF779FB81214DF2A4
:1030D0000B30FDF774FB00214DF20C30FDF76FFB58
:1030E000A6214DF20D30FDF76AFB00214DF20E30A6
:1030F000FDF765FBE5214DF20F30FDF760FB012187
:103100004DF21030FDF75BFB13214DF21130FDF74E
:1031100056FB01214DF21230FDF751FB54214DF2C7
:103120001330FDF74CFB01214DF21430FDF747FB46
:1031300082214DF21530FDF742FB01214DF2163090
:10314000FDF73DFBCA214DF21730FDF738FB022198
:103150004DF21830FDF733FB00214DF21930FDF729
:103160002EFB02214DF21A30FDF729FB01214DF211
:103170001B30FDF724FB02214DF21C30FDF71FFB35
:1031800034214DF21D30FDF71AFB02214DF21E30A5
:10319000FDF715FB67214DF21F30FDF710FB0221F3
:1031A0004DF22030FDF70BFB84214DF22130FDF76D
:1031B00006FB02214DF22230FDF701FBA4214DF266
:1031C0002330FDF7FCFA02214DF22430FDF7F7FA27
:1031D000B7214DF22530FDF7F2FA02214DF22630EB
:1031E000FDF7EDFACF214DF22730FDF7E8FA022185
:1031F0004DF22830FDF7E3FADE214DF22930FDF7DC
:10320000DEFA02214DF22A30FDF7D9FAF2214DF211
:103210002B30FDF7D4FA02214DF22C30FDF7CFFA16
:10322000FE214DF22D30FDF7CAFA03214DF22E306A
:10323000FDF7C5FA10214DF22F30FDF7C0FA03213A
:103240004DF23030FDF7BBFA33214DF23130FDF74E
:10325000B6FA03214DF23230FDF7B1FA6D214DF28D
:103260003330FDF7ACFA00214FF45440FDF7A7FAD4
:1032700033214DF20140FDF7A2FA00214DF2024048
:10328000FDF79DFA34214DF20340FDF798FA002135
:103290004DF20440FDF793FA3A214DF20540FDF757
:1032A0008EFA00214DF20640FDF789FA4A214DF2CF
:1032B0000740FDF784FA00214DF20840FDF77FFA40
:1032C0005C214DF20940FDF77AFA00214DF20A40E7
:1032D000FDF775FA81214DF20B40FDF770FA0021E0
:1032E0004DF20C40FDF76BFAA6214DF20D40FDF7B3
:1032F00066FA00214DF20E40FDF761FAE5214DF22C
:103300000F40FDF75CFA01214DF21040FDF757FA2E
:1033100013214DF21140FDF752FA01214DF21240F6
:10332000FDF74DFA54214DF21340FDF748FA012103
:103330004DF21440FDF743FA82214DF21540FDF79E
:103340003EFA01214DF21640FDF739FACA214DF23D
:103350001740FDF734FA02214DF21840FDF72FFA1D
:1033600000214DF21940FDF72AFA02214DF21A40D0
:10337000FDF725FA01214DF21B40FDF720FA00E090
:1033800004E302214DF21C40FDF719FA34214DF2FD
:103390001D40FDF714FA02214DF21E40FDF70FFA11
:1033A00067214DF21F40FDF70AFA02214DF220403D
:1033B000FDF705FA84214DF22140FDF700FA0221C4
:1033C0004DF22240FDF7FBF9A4214DF22340FDF719
:1033D000F6F902214DF22440FDF7F1F9B7214DF243
:1033E0002540FDF7ECF902214DF22640FDF7E7F903
:1033F000CF214DF22740FDF7E2F902214DF228409E
:10340000FDF7DDF9DE214DF22940FDF7D8F9022163
:103410004DF22A40FDF7D3F9F2214DF22B40FDF792
:10342000CEF902214DF22C40FDF7C9F9FE214DF2F3
:103430002D40FDF7C4F903214DF22E40FDF7BFF9F1
:1034400010214DF22F40FDF7BAF903214DF2304023
:10345000FDF7B5F933214DF23140FDF7B0F9032105
:103460004DF23240FDF7ABF96D214DF23340FDF7DF
:10347000A6F900214FF45540FDF7A1F933214DF293
:103480000150FDF79CF900214DF20250FDF797F92C
:1034900034214DF20350FDF792F900214DF2045012
:1034A000FDF78DF93A214DF20550FDF788F900211D
:1034B0004DF20650FDF783F94A214DF20750FDF712
:1034C0007EF900214DF20850FDF779F95C214DF2AB
:1034D0000950FDF774F900214DF20A50FDF76FF91C
:1034E00081214DF20B50FDF76AF900214DF20C508D
:1034F000FDF765F9A6214DF20D50FDF760F90021A9
:103500004DF20E50FDF75BF9E5214DF20F50FDF73E
:1035100056F901214DF21050FDF751F913214DF2EA
:103520001150FDF74CF901214DF21250FDF747F90A
:1035300054214DF21350FDF742F901214DF2145080
:10354000FDF73DF982214DF21550FDF738F90121C3
:103550004DF21650FDF733F9CA214DF21750FDF721
:103560002EF902214DF21850FDF729F900214DF2F4
:103570001950FDF724F902214DF21A50FDF71FF9F9
:1035800001214DF21B50FDF71AF902214DF21C509A
:10359000FDF715F934214DF21D50FDF710F9022108
:1035A0004DF21E50FDF70BF967214DF21F50FDF74C
:1035B00006F902214DF22050FDF701F984214DF268
:1035C0002150FDF7FCF802214DF22250FDF7F7F8EB
:1035D000A4214DF22350FDF7F2F802214DF22450C0
:1035E000FDF7EDF8B7214DF22550FDF7E8F802217F
:1035F0004DF22650FDF7E3F8CF214DF22750FDF7AD
:10360000DEF802214DF22850FDF7D9F8DE214DF207
:103610002950FDF7D4F802214DF22A50FDF7CFF8DA
:10362000F2214DF22B50FDF7CAF802214DF22C5039
:10363000FDF7C5F8FE214DF22D50FDF7C0F803212E
:103640004DF22E50FDF7BBF810214DF22F50FDF733
:10365000B6F803214DF23050FDF7B1F833214DF2A9
:103660003150FDF7ACF803214DF23250FDF7A7F8C9
:103670006D214DF23350FDF7A2F800214FF4564072
:10368000FDF79DF833214DF20160FDF798F8002118
:103690004DF20260FDF793F834214DF20360FDF71F
:1036A0008EF800214DF20460FDF789F83A214DF2C1
:1036B0000560FDF784F800214DF20660FDF77FF804
:1036C0004A214DF20760FDF77AF800214DF20860BB
:1036D000FDF775F85C214DF20960FDF770F80021E7
:1036E0004DF20A60FDF76BF881214DF20B60FDF79A
:1036F00066F800214DF20C60FDF761F8A6214DF24D
:103700000D60FDF75CF800214DF20E60FDF757F8F3
:10371000E5214DF20F60FDF752F801214DF21060E6
:10372000FDF74DF813214DF21160FDF748F8012126
:103730004DF21260FDF743F854214DF21360FDF78E
:103740003EF801214DF21460FDF739F882214DF267
:103750001560FDF734F801214DF21660FDF72FF8E2
:10376000CA214DF21760FDF72AF802214DF21860C8
:10377000FDF725F800214DF21960FDF720F8022130
:103780004DF21A60FDF71BF801214DF21B60FDF7A9
:1037900016F802214DF21C60FDF711F834214DF2AC
:1037A0001D60FDF70CF802214DF21E60FDF707F8D1
:1037B00067214DF21F60FDF702F802214DF22060F3
:1037C000FCF7FDFF84214DF22160FCF7F8FF022198
:1037D0004DF22260FCF7F3FFA4214DF22360FCF7C9
:1037E000EEFF02214DF22460FCF7E9FFB7214DF214
:1037F0002560FCF7E4FF02214DF22660FCF7DFFFB5
:10380000CF214DF22760FCF7DAFF02214DF228604C
:10381000FCF7D5FFDE214DF22960FCF7D0FF022135
:103820004DF22A60FCF7CBFFF2214DF22B60FCF742
:10383000C6FF02214DF22C60FCF7C1FFFE214DF2C4
:103840002D60FCF7BCFF03214DF22E60FCF7B7FFA3
:1038500010214DF22F60FCF7B2FF03214DF23060D2
:10386000FCF7ADFF33214DF23160FCF7A8FF0321D7
:103870004DF23260FCF7A3FF6D214DF23360FCF78F
:103880009EFF55214FF47040FCF799FFAA214FF29B
:103890000100FCF794FF52214FF20200FCF78FFF6A
:1038A00008214FF20300FCF78AFF00214FF20400C9
:1038B000FCF785FFCC214FF43140FCF780FF00215D
:1038C0004BF20110FCF77BFF05214FF43640FCF76B
:1038D00076FF70214FF43740FCF771FF70214BF2F7
:1038E0000170FCF76CFF01214FF43840FCF767FFD3
:1038F00003214BF60100FCF762FF03214BF60200A7
:10390000FCF75DFF03214BF60300FCF758FF022193
:103910004FF43C40FCF753FF00214BF60140FCF70D
:103920004EFF00214BF60240FCF749FFD0214FF437
:103930004940FCF744FF02214CF60110FCF73FFF21
:1039400050214CF60210FCF73AFF50214CF60310C0
:10395000FCF735FF50214CF60410FCF730FF002136
:103960004FF45450FCF72BFF55214FF46850FCF7EF
:1039700026FF4FF48850FCF713FF782001F0ADFDCF
:103980004FF42450FCF70CFF01F05EB9FE4880882C
:1039900049F2253188427DD147F6F001E520FCF758
:1039A0000EFF4FF480710120FCF709FF4FF4E06136
:1039B0000220FCF704FF41F230010320FCF7FFFE78
:1039C00000210420FCF7FBFE40F202210820FCF756
:1039D000F6FE00210920FCF7F2FE00210A20FCF788
:1039E000EEFE00210C20FCF7EAFE00210D20FCF782
:1039F000E6FE00210F20FCF7E2FE00211020FCF77C
:103A0000DEFE07211120FCF7DAFE00211220FCF770
:103A1000D6FE00211320FCF7D2FE00210720FCF780
:103A2000CEFE41F290611020FCF7C9FE40F2272142
:103A30001120FCF7C4FE9D211220FCF7C0FE4FF4BC
:103A4000C8511320FCF7BBFE25212920FCF7B7FE47
:103A50000D212B20FCF7B3FE07213020FCF7AFFE31
:103A600040F203313120FCF7AAFE03213220FCF79B
:103A7000A6FE40F206213520FCF7A1FE08213620E3
:103A8000FCF79DFE40F206413720FCF798FE4FF40C
:103A9000417100E058E03820FCF791FE0721392001
:103AA000FCF78DFE40F202613C20FCF788FE082105
:103AB0003D20FCF784FE00215020FCF780FEEF2122
:103AC0005120FCF77CFE00215220FCF778FE40F2EA
:103AD0003F115320FCF773FE4FF427416020FCF7A1
:103AE0006EFE01216120FCF76AFE00216A20FCF7CE
:103AF00066FE00218020FCF762FE00218120FCF799
:103B00005EFE00218220FCF75AFE00218320FCF794
:103B100056FE00218420FCF752FE00218520FCF790
:103B20004EFE10219020FCF74AFE4FF4C061922017
:103B3000FCF745FE40F233110720FCF740FE22213E
:103B40000020FCF73CFE1FE78F48808849F22831AF
:103B500088427DD141F28F01EC20FCF730FE41F22A
:103B60003421EF20FCF72BFE4FF480710120FCF78D
:103B700026FE4FF4E0610220FCF721FE41F2300105
:103B80000320FCF71CFE00210420FCF718FE40F285
:103B900002210820FCF713FE00210920FCF70FFE8C
:103BA00000210A20FCF70BFE01210C20FCF707FE88
:103BB00000210D20FCF703FE00210F20FCF7FFFD84
:103BC00000211020FCF7FBFD07211120FCF7F7FD79
:103BD00000211220FCF7F3FD00211320FCF7EFFD7C
:103BE00001210720FCF7EBFD322001F09AFC41F2A5
:103BF00090411020FCF7E3FD40F227211120FCF753
:103C0000DEFD322001F08DFC8A211220FCF7D7FD69
:103C1000322001F086FC4FF4D0511320FCF7CFFD89
:103C200006212920FCF7CBFD0D212B20FCF7C7FD39
:103C3000322001F076FC00212020FCF7C0FD00219D
:103C40002120FCF7BCFD322001F06BFC002100E0DC
:103C500075E03020FCF7B3FD40F204613120FCF741
:103C6000AEFD40F205313220FCF7A9FD00213520E0
:103C7000FCF7A5FD40F609413620FCF7A0FD4FF406
:103C800001713720FCF79BFD40F201313820FCF731
:103C900096FD40F207713920FCF791FD00213C2090
:103CA000FCF78DFD40F60A213D20FCF788FD32200F
:103CB00001F037FC00215020FCF781FDEF2151205D
:103CC000FCF77DFD00215220FCF779FD40F23F1109
:103CD0005320FCF774FD4FF427416020FCF76FFD83
:103CE00001216120FCF76BFD00216A20FCF767FDD4
:103CF00000218020FCF763FD00218120FCF75FFD9F
:103D000000218220FCF75BFD00218320FCF757FD9A
:103D100000218420FCF753FD00218520FCF74FFD96
:103D200010219020FCF74BFD4FF4C0619220FCF76E
:103D300046FD40F233110720FCF741FD24E612480E
:103D4000808849F2203188427ED100210846FCF764
:103D500036FD4FF480710120FCF731FD4FF4E06136
:103D60000220FCF72CFD41F230010320FCF727FD77
:103D700000210420FCF723FD40F202210820FCF77B
:103D80001EFD0021092001E048000020FCF717FD7E
:103D900000210A20FCF713FD01210C20FCF70FFD88
:103DA00000210D20FCF70BFD00210F20FCF707FD83
:103DB000322001F0B6FB40F201110720FCF7FFFCB6
:103DC000322001F0AEFB4FF486511020FCF7F7FCD7
:103DD00007211120FCF7F3FC4FF488711220FCF747
:103DE000EEFC4FF430611320FCF7E9FC00212920A0
:103DF000FCF7E5FC44F210012B20FCF7E0FC00216D
:103E00005020FCF7DCFCEF215120FCF7D8FC00210E
:103E10005220FCF7D4FC40F23F115320FCF7CFFCBA
:103E20004FF41C516020FCF7CAFC01216120FCF713
:103E3000C6FC00216A20FCF7C2FC00218020FCF7B0
:103E4000BEFC0021812000E030E0FCF7B8FC00213E
:103E50008220FCF7B4FC00218320FCF7B0FC002199
:103E60008420FCF7ACFC00218520FCF7A8FC102185
:103E70009020FCF7A4FC00219220FCF7A0FC01217B
:103E80009320FCF79CFC4FF488719520FCF797FC7D
:103E900000219720FCF793FC00219820FCF78FFC71
:103EA00040F273110720FCF78AFC6DE5FE4880881C
:103EB00049F2313188427DD141F21401E720FCF70B
:103EC0007EFC4FF480710120FCF779FC4FF4007107
:103ED0000220FCF774FC41F238010320FCF76FFC70
:103EE00040F202210820FCF76AFC00210920FCF7BF
:103EF00066FC00210A20FCF762FC00210C20FCF784
:103F00005EFC00210D20FCF75AFC00210F20FCF77D
:103F100056FC00211020FCF752FC07211120FCF771
:103F20004EFC00211220FCF74AFC00211320FCF774
:103F300046FCC82001F0F5FA41F290611020FCF730
:103F40003EFC40F227211120FCF739FC322001F021
:103F5000E8FA0C211220FCF732FC322001F0E1FAE1
:103F60004FF400611320FCF72AFC11212920FCF7F3
:103F700026FC0B212B20FCF722FC322001F0D1FA89
:103F800000212020FCF71BFC40F23F112120FCF710
:103F900016FC00213020FCF712FC4FF48371312015
:103FA000FCF70DFC00213220FCF709FC4FF40171F5
:103FB000352000E064E0FCF702FC41F20A613620A3
:103FC000FCF7FDFB40F207713720FCF7F8FB4FF4DC
:103FD00083713820FCF7F3FB40F207713920FCF7BE
:103FE000EEFB40F202413C20FCF7E9FB40F60F41BA
:103FF0003D20FCF7E4FB00215020FCF7E0FBEF2123
:104000005120FCF7DCFB00215220FCF7D8FB40F2EA
:104010003F115320FCF7D3FB4FF41C516020FCF7F9
:10402000CEFB01216120FCF7CAFB00216A20FCF7CE
:10403000C6FB00218020FCF7C2FB00218120FCF799
:10404000BEFB00218220FCF7BAFB00218320FCF795
:10405000B6FB00218420FCF7B2FB00218520FCF791
:10406000AEFB10219020FCF7AAFB4FF4C061922018
:10407000FCF7A5FB40F233110720FCF7A0FB83E41B
:104080008948808845F2084188427DD14FF480718B
:104090000120FCF794FB4FF4E0610220FCF78FFB5A
:1040A00041F230010320FCF78AFB00210420FCF7D9
:1040B00086FB40F207210820FCF781FB0021092044
:1040C000FCF77DFB00210A20FCF779FB00210C2086
:1040D000FCF775FB00210D20FCF771FB00210F2080
:1040E000FCF76DFB142001F01CFA41F2B0611020C6
:1040F000FCF765FB01211120FCF761FB0121172072
:10410000FCF75DFB4FF49C711220FCF758FB4FF459
:1041100000611320FCF753FB09212920FCF74FFB1A
:1041200009212A20FCF74BFB0021A420FCF747FBC8
:1041300000215020FCF743FBEF215120FCF73FFB0F
:1041400000215220FCF73BFB40F23F115320FCF7CB
:1041500036FB4FF41C516020FCF731FB012161203C
:10416000FCF72DFB00216A20FCF729FB00218020B1
:10417000FCF725FB00218120FCF721FB0021822098
:10418000FCF71DFB002100E024E08320FCF717FB77
:1041900000218420FCF713FB00218520FCF70FFB96
:1041A00013219020FCF70BFB00219220FCF707FB6A
:1041B00003219320FCF703FB4FF488719520FCF753
:1041C000FEFA40F273110720FCF7F9FA322001F0F1
:1041D000A8F9B8E43448808841F2055188427DD17D
:1041E00000210720FCF7EBFA322001F09AF94FF496
:1041F0008E711220FCF7E3FA0121A420FCF7DFFA0C
:104200000F210820FCF7DBFA08210A20FCF7D7FA77
:1042100008210D20FCF7D3FA40F207713020FCF79B
:10422000CEFA07213120FCF7CAFA40F203613220AE
:10423000FCF7C5FA4FF4E0613320FCF7C0FA40F216
:1042400002213420FCF7BBFA02213520FCF7B7FA33
:1042500041F60F713620FCF7B2FA40F207713720B1
:10426000FCF7ADFA00213820FCF7A9FA002139202B
:10427000FCF7A5FA40F207713A20FCF7A0FA0021FA
:104280003B20FCF79CFA07213C20FCF798FA002120
:104290003D20FCF794FA322001F043F90121072078
:1042A000FCF78DFA012101E0480000201720FCF7FF
:1042B00086FA322001F035F94FF4BD511020FCF799
:1042C0007EFA40F217211120FCF779FA4FF48F7132
:1042D0001220FCF774FA4FF4706100E098E01320AC
:1042E000FCF76DFA00212A20FCF769FA0A2129203F
:1042F000FCF765FA4FF49F711220FCF760FA002179
:104300005020FCF75CFAEF215120FCF758FA00210D
:104310005220FCF754FA40F23F115320FCF74FFAB9
:104320004FF41C516020FCF74AFA01216120FCF790
:1043300046FA00216A20FCF742FA00218020FCF7AF
:104340003EFA00218120FCF73AFA00218220FCF796
:1043500036FA00218320FCF732FA00218420FCF792
:104360002EFA00218520FCF72AFA13219020FCF771
:1043700026FA4FF440719220FCF721FA0521932090
:10438000FCF71DFA00219520FCF719FA002197206F
:10439000FCF715FA00219820FCF711FA4FF4807110
:1043A0000120FCF70CFA4FF4E0610220FCF707FA59
:1043B00041F238010320FCF702FA00210420FCF747
:1043C000FEF900210C20FCF7FAF900210F20FCF780
:1043D000F6F900212020FCF7F2F900212120FCF75A
:1043E000EEF921210720FCF7EAF9142001F099F8F1
:1043F00061210720FCF7E3F9142001F092F840F264
:1044000073110720FCF7DBF9142001F08AF895E41A
:10441000FE4880884BF2055188427CD10021084635
:10442000FCF7CDF900210846FCF7C9F90021084640
:10443000FCF7C5F900210846FCF7C1F90121A420C9
:10444000FCF7BDF9142001F06CF84FF41C5160200A
:10445000FCF7B5F940F202210820FCF7B0F94FF45F
:1044600005713020FCF7ABF943F215713120FCF7F0
:10447000A6F940F204613220FCF7A1F940F616617A
:104480003320FCF79CF942F211213420FCF797F914
:104490004FF4A8513520FCF792F948F20751362025
:1044A000FCF78DF941F207413720FCF788F941F21A
:1044B00003413820FCF783F920213920FCF77FF9EC
:1044C0001A219020FCF77BF900211020FCF777F9E6
:1044D00007211120FCF773F900211220FCF76FF976
:1044E00000211320FCF76BF9142001F01AF84FF4A7
:1044F000E6611020FCF763F940F237111120FCF758
:104500005EF9142001F00DF84FF4DC711220FCF775
:1045100056F9142000E085E001F003F84FF47061D3
:104520001320FCF74CF980212A20FCF748F9482198
:104530002920FCF744F9142000F0F3FF4FF48071B8
:104540000120FCF73CF94FF4E0610220FCF737F959
:1045500041F238010320FCF732F940F20221082031
:10456000FCF72DF900210A20FCF729F900210C2085
:10457000FCF725F900210D20FCF721F930210E2050
:10458000FCF71DF900215020FCF719F9EF2151200B
:10459000FCF715F900215220FCF711F940F23F1108
:1045A0005320FCF70CF94FF41C516020FCF707F97D
:1045B00001216120FCF703F900216A20FCF7FFF8D4
:1045C00011219020FCF7FBF84FF4C0619220FCF71A
:1045D000F6F840F202419320FCF7F1F80221942012
:1045E000FCF7EDF8142000F09CFF01210720FCF7F8
:1045F000E6F8142000F095FF61210720FCF7DFF8B2
:1046000040F273110720FCF7DAF800212020FCF7B4
:10461000D6F800212120FCF7D2F822210020FCF757
:10462000CEF811E3794880884CF2055188427CD15C
:1046300000210846FCF7C3F800210846FCF7BFF844
:10464000142000F06EFF00210846FCF7B8F80021A6
:104650000846FCF7B4F800210846FCF7B0F8002142
:104660000846FCF7ACF80121A420FCF7A8F81420B8
:1046700000F057FF4FF41C516020FCF7A0F840F603
:1046800006010820FCF79BF840F203713020FCF78C
:1046900096F801213120FCF792F804213220FCF732
:1046A0008EF84FF481713320FCF789F84FF4407194
:1046B0003420FCF784F840F203113520FCF77FF832
:1046C0001F213620FCF77BF840F203713720FCF7FE
:1046D00076F801213820FCF772F804213920FCF724
:1046E0006EF815219020FCF76AF84FF482611020D3
:1046F000FCF765F840F247211120FCF760F84FF411
:10470000DE711220FCF75BF84FF460611320FCF7B8
:1047100056F8782000F005FF4FF480710120FCF777
:104720004EF84FF40071022000E052E0FCF747F829
:1047300041F230010320FCF742F808210A20FCF77F
:104740003EF800210C20FCF73AF820210E20FCF75F
:1047500036F800210F20FCF732F800212020FCF76A
:104760002EF800212120FCF72AF83D212A20FCF711
:1047700026F8142000F0D5FE2D212920FCF71FF883
:1047800000215020FCF71BF84DF2EF015120FCF7FF
:1047900016F800215220FCF712F840F23F11532086
:1047A000FCF70DF800216120FCF709F800216A20D0
:1047B000FCF705F84FF440719220FCF700F8052152
:1047C0009320FBF7FCFF4FF480710720FBF7F7FF06
:1047D0003AE20E48808844F2315188427ED101216C
:1047E0000020FBF7ECFF0A2000F09BFE41F228615D
:1047F0001020FBF7E4FF0E211220FBF7E0FF40F64C
:1048000039211320FBF7DBFF0A2001E048000020DC
:1048100000F087FE40211120FBF7D1FF5021152029
:10482000FBF7CDFF0A2000F07CFE1E211220FBF7D3
:10483000C6FF0A2000F075FE4FF4B1511020FBF7BF
:10484000BEFF42F639211320FBF7B9FF0A2000F022
:1048500068FE4FF480710120FBF7B1FF4FF4407107
:104860000220FBF7ACFF41F238010320FBF7A7FF62
:1048700040F202210820FBF7A2FF08210A20FBF7E3
:104880009EFF00213020FBF79AFF40F202413120C9
:10489000FBF795FF4FF483713220FBF790FF40F256
:1048A00003513320FBF78BFF4FF482713420FBF769
:1048B00086FF40F201313520FBF781FF40F207719E
:1048C0003620FBF77CFF40F205313720FBF777FFFE
:1048D0004FF402713820FBF772FF00E03EE040F633
:1048E0000B713920FBF76BFF02214120FBF767FFBB
:1048F0004FF41C516020FBF762FF01216120FBF7A0
:104900005EFF4FF404719020FBF759FF4FF485715F
:104910009220FBF754FF04219320FBF750FF4FF444
:104920008071A020FBF74BFF01210720FBF747FF19
:1049300021210720FBF743FF23210720FBF73FFF3F
:1049400033210720FBF73BFF40F233110720FBF731
:1049500036FF0021A020FBF732FF75E1F748808881
:1049600044F2355188427CD130211520FBF727FFD6
:1049700010219A20FBF723FF20211120FBF71FFFB6
:1049800043F228411020FBF71AFF02211220FBF707
:1049900016FF41F238011320FBF711FF282000F029
:1049A000C0FD12210846FBF70AFF282000F0B9FDE0
:1049B00043F220411020FBF702FF43F2380113209D
:1049C000FBF7FDFE462000F0ACFD00213020FBF798
:1049D000F6FE40F202413120FBF7F1FE40F20731D2
:1049E0003220FBF7ECFE4FF441713320FBF7E7FE7A
:1049F00004213420FBF7E3FE40F201413520FBF7B0
:104A0000DEFE40F207713620FBF7D9FE40F2053199
:104A10003720FBF7D4FE4FF4C2613820FBF7CFFEFE
:104A20004FF4C2613920FBF7CAFE4FF480710120B8
:104A3000FBF7C5FE4FF440710220FBF7C0FE41F2C8
:104A400030010320FBF7BBFE40F608010820FBF70E
:104A5000B6FE08210A20FBF7B2FE4FF41C5160207D
:104A600000E033E0FBF7ABFE01216120FBF7A7FE7E
:104A70004FF49F719020FBF7A2FE4FF480719220BB
:104A8000FBF79DFE4FF480719320FBF798FE4FF4E7
:104A90004051A020FBF793FE1021A320FBF78FFECF
:104AA00001210720FBF78BFE21210720FBF787FE62
:104AB00023210720FBF783FE33210720FBF77FFE2E
:104AC00040F233110720FBF77AFEBDE09B48808857
:104AD00041F663118842F8D1E220FBF761FE1D2008
:104AE000FBF761FE0220FBF75EFE0420FBF75BFE96
:104AF000642000F0F2FCE020FBF752FE0120FBF7FF
:104B000052FE0A2000F00DFDE020FBF749FE0320D5
:104B1000FBF749FE0C2000F004FD0120FBF740FEEE
:104B20000A2000F0FEFCE620FBF73AFE2F20FBF700
:104B30003AFEFF20FBF737FEFF20FBF734FEB020E4
:104B4000FBF72EFE2020FBF72EFE0020FBF72BFEAE
:104B50000320FBF728FE40F21F30FBF724FE012064
:104B6000FBF721FE40F2DF10FBF71DFE0020FBF7F4
:104B70001AFEB420FBF714FE0420FBF714FE40F2EB
:104B80001F40FBF710FE0020FBF70DFE2E20FBF769
:104B90000AFE0020FBF707FE0020FBF704FE0020C2
:104BA000FBF701FE0020FBF7FEFDB620FBF7F8FD4A
:104BB0000220FBF7F8FD4FF40370FBF7F4FD002033
:104BC000FBF7F1FD1720FBF7EEFD1520FBF7EBFDE2
:104BD0000020FBF7E8FD0020FBF7E5FDF020FBF7E8
:104BE000DFFD0320FBF7DFFD2920FBF7D9FDD020F7
:104BF000FBF7D6FD0020FBF7D6FDBE20FBF7D0FD6E
:104C00000520FBF7D0FDFE20FBF7CDFD0120FBF7D3
:104C1000CAFD0020FBF7C7FD0020FBF7C4FD002004
:104C2000FBF7C1FDB820FBF7BBFD0320FBF7BBFD85
:104C30000120FBF7B8FDBA20FBF7B2FD0120FBF71E
:104C4000B2FD6420FCF70FFA0020FCF734FA0120D3
:104C50003B4908604FF6FF70FCF719FC1FB000BD20
:104C60002DE9FC4F05460E4617469846DDF82C9078
:104C7000002001903148808846F60401884229D1FD
:104C80002E488079012825D1AB4635462B4800882F
:104C9000C01B401E86B2474628480088A0EB0B0088
:104CA000401E1FFA80F80020244988712A2048817C
:104CB0002B20888143463A4631462846CDF800905D
:104CC000FFF7CEFF01201D4988712B2048812A2043
:104CD00088811CE0781B401C80B20190344614E0AF
:104CE00021462846FBF798FDFBF779FD4FF0000AB7
:104CF00006E01448A0F800900AF101001FFA80FABB
:104D000001988245F5DB601C84B24445E8DDBDE8CE
:104D1000FC8F2DE9F84F07460D4690469946DDF881
:104D200028B0A8EB0700401C1FFA80FAA9EB050089
:104D3000401C80B2009000241BE0000048000020CE
:104D4000808121420008006C281981B23846FBF7A7
:104D500063FDFBF744FD002607E004FB0A603BF817
:104D60001000F8490880701C86B25645F5DB601CBF
:104D700084B200988442E7DBBDE8F88F2DE9FF4F4D
:104D800084B081468A460020039002900698A0EBEA
:104D900009050798A0EB0A06CDF80490CDF800A00D
:104DA000002D01DD012705E00DB9002702E04FF0DD
:104DB000FF376D42002E02DD4FF0010806E016B904
:104DC0004FF0000802E04FF0FF387642B54201DDB7
:104DD0002C4600E034464FF0000B21E0009A91B2DF
:104DE000019A90B2FCF771F8039828440390029856
:104DF000304402900398A04205DD0398001B039005
:104E00000198384401900298A04205DD0298001BE9
:104E100002900098404400900BF101001FFA80FBC3
:104E2000601C8345DADD08B0BDE8F08FF0B50446BC
:104E30000D4616461F462B46324629462046FFF7AA
:104E40009DFF3B46224629462046FFF797FF3B46FB
:104E5000324639462046FFF791FF3B463246294607
:104E60003046FFF78BFFF0BD2DE9F04306460F46B5
:104E70009046002445460320A0EB48093CE07A1BFD
:104E800091B2321990B2FCF720F83A1B91B2721924
:104E900090B2FCF71AF83A1991B2721990B2FCF775
:104EA00014F87A1991B2321990B2FCF70EF87A1907
:104EB00091B2321B90B2FCF708F83A1991B2721B0A
:104EC00090B2FCF702F87A1B91B2321B90B2FBF75A
:104ED000FCFF3A1B91B2721B90B2FBF7F6FF641C09
:104EE000B9F1000F03DAA000801D814404E0601BCB
:104EF00080000A3081446D1EAC42C0DDBDE8F08305
:104F00002DE9F84F80460E4617461C46B34620460C
:104F1000E31704EB5373DB1021464FEAE47C04EB08
:104F20005C7C4FEAEC0CA4EBCC0CBCF1000F02D083
:104F30004FF0010C01E04FF0000C6344224604EBFB
:104F4000D27C4FEA6C0C03FB0CF3DBB20093A7F1AD
:104F50002000C7B2002556E00C2C07D107EB470014
:104F6000794901EB800010F8059013E0102C05D171
:104F7000764800EB071010F805900BE0182C07D1CD
:104F800007EBC700724901EB800010F8059001E0C3
:104F9000BDE8F88F4FF0000A2FE009F0800030B133
:104FA0006C48028831464046FBF79DFF07E00A98AF
:104FB00028B96948028831464046FBF794FF4FEA1A
:104FC00049604FEA1069701C86B264484088B0425C
:104FD00000DCDDE7A6EB0B00A0420AD15E4608F13B
:104FE00001001FFA80F85D480088404500DCCFE7EB
:104FF00006E00AF1010000F0FF0ABAF1080FCCDB6D
:1050000000BF681CC5B200988542A5DB00BFBFE7A2
:1050100010B50246012000E050430B00A1F101044D
:10502000E1B2F9D110BD2DE9FF4F81B0074691469D
:105030001E460E9D4FF0000A002439E0301B401E32
:10504000C1B20A20FFF7E4FFB9FBF0F00A21B0FB80
:10505000F1F201FB1208BAF1000F16D1701EA04246
:1050600013DDB8F1000F0ED10020AB4605EBDB716C
:10507000491001FB0471009088B22B46202202994E
:10508000FFF73EFF12E04FF0010A0020AB4605EBB0
:10509000DB71491001FB0471009088B208F1300106
:1050A000CAB22B460299FFF72BFF00BF601CC4B2A7
:1050B000B442C3DB05B0BDE8F08F2DE9FF4F82B0ED
:1050C000064692461F46DDE90F4800200190002564
:1050D0005CE0781B401EC1B20A20FFF799FFBAFBC3
:1050E000F0F00A21B0FBF1F201FB1209019840BB7C
:1050F000781EA84236DDB9F1000F31D108F08000EA
:1051000078B108F00100A34604EBDB71491001FB04
:105110000561009088B2234630220399FFF7F0FE24
:105120000EE008F00100A34604EBDB71491001FB1F
:105130000561009088B2234620220399FFF7E0FE24
:1051400022E00FE00008006CD87B00084C800008CB
:105150003C860008160000201800002048000020AF
:105160000120019008F00100A34604EBDB71491017
:1051700001FB0561009088B209F13001CAB22346F3
:105180000399FFF7BDFE00BF681CC5B2BD42A0DB9E
:1051900006B0BDE8F08F2DE9F84704460D4690466D
:1051A0009946DDE9096704F0FF0A08EB04001FFADD
:1051B00080F809EB05001FFA80F916E0444502DB90
:1051C0005446A81985B24D4500DB14E0002000903C
:1051D0003A78334629462046FFF792FE304606EBE2
:1051E000D07104EB61018CB27F1C38787E2802DC20
:1051F00038782028E2DA00BFBDE8F88700B589B02A
:105200000121082001F00AF90121042001F013F91D
:105210004FF40070ADF8200028208DF82300032003
:105220008DF8220008A9994800F03CFE4FF4007167
:10523000964800F0E4FE42F21070ADF814004720EA
:10524000ADF810000020ADF81600ADF8120004A96A
:105250008F4801F01BFA0C20ADF804000020ADF8D7
:1052600006000120ADF808000020ADF80A00032078
:10527000ADF80C0001A9864801F09BFC012184488F
:1052800001F060FD1E208DF81C0001208DF81D002E
:1052900003208DF81E0001208DF81F0007A800F0E4
:1052A00032FA012211217A4801F067FD09B000BDF0
:1052B00010B50121764802F00EF8F8B17548007873
:1052C00000F08000D0B17348007820F010007149E0
:1052D00008700846007800F00F0020B908460078F2
:1052E00040F0400008706B48007800F00F000E2876
:1052F00005DA68480078401C664908700AE065488D
:10530000007820F08000634908700846007800F0BB
:10531000F000087010215E4801F0DDFF002810D079
:105320005D48006870B10221594801F003FF002177
:10533000574801F09BFF5748007840F0100055494E
:10534000087070E0524801F0B0FF54490880002115
:105350004F4801F0EFFE4F48007800F010000028A1
:105360005BD04C48007800F08000E8B34B480088E0
:10537000B0F5967F0DDD49480088B0F5487F08DA22
:1053800047480068400046490860084600680860D1
:1053900043E042480088B0F5AF6F0FDD3F4800881A
:1053A000B0F5E16F0ADA3E48006840003C49086009
:1053B0000846006840F0010008602EE03748008889
:1053C00040F69801884228DD3448008840F62821BC
:1053D000884222DA33480078401C324908702D4850
:1053E000007800F0F00000E002E02A49087014E0C4
:1053F0002A48008841F2680188420EDD274800886B
:1054000041F25C21884208DA2248007840F08000AE
:10541000204908700020234908701E48007820F0B9
:1054200010001C4908701121194801F065FF10BDDA
:1054300010B50020174B1B7803F040032BB3184B1B
:105440001B68190E164B1B68C3F30742D343DBB22C
:105450008B420BD151B9124B1B88C3F30721104B60
:105460001A78D343DBB28B4200D1084620B1094BF6
:105470001B7803F0800343B9064B1B7823F04003ED
:10548000044C23700023074C237010BD000C014016
:10549000000800401C000020248121421E00002042
:1054A000200000202400002010B56FF0040000F060
:1054B00074F92E4800682E49B0FBF1F02D490870B0
:1054C0000846007800EB4001C1EBC0104FF6FF71B9
:1054D00001EAC0002849088010BD0146254A12781B
:1054E0004A434FF0E0235A6100229A611A4612693A
:1054F00042F001021A6100BF4FF0E022106900F093
:1055000001021AB100F48032002AF5D04FF0E022F7
:10551000126922F001024FF0E0231A6100229A6121
:1055200070470146144A12884A434FF0E0235A61FB
:1055300000229A611A46126942F001021A6100BF04
:105540004FF0E022106900F001021AB100F480323D
:10555000002AF5D04FF0E022126922F001024FF04C
:10556000E0231A6100229A617047000000000020C9
:1055700000127A002600002028000020014600BF0B
:10558000704700BF494A128802F04002002AF9D051
:10559000C2B2464B1B1D1A80704710B586B0044638
:1055A000012144F2040000F039FF4FF40070ADF81F
:1055B000140003208DF8160018208DF8170005A997
:1055C0003B4800F06FFC4FF48060ADF814000420FD
:1055D0008DF8170005A9364800F064FC25208DF8E9
:1055E000000003208DF801008DF8020001208DF8E5
:1055F0000300684600F087F801940020ADF8080029
:10560000ADF80A00ADF80C00ADF810000C20ADF8B4
:105610000E0001A9254801F0B6FE012240F22551F5
:10562000224801F048FF0121204801F038FF06B070
:1056300010BD10B540F225511C4802F021F810B3FE
:105640001A4801F09DFFC4B21A48008800F40040D7
:10565000C8B91848008800F4804060B10A2C03D013
:1056600000201449088020E01248008840F40040DF
:105670001049088019E00D2C06D10E48008840F42E
:1056800080400C49088010E00A480088C0F30D00F3
:1056900009490C5407480088401C06490880084600
:1056A0000088C72801DD0020088010BD00380140B7
:1056B00000080140300000205600002009488047C3
:1056C00009480047FEE7FEE7FEE7FEE7FEE7FEE7E4
:1056D000FEE7FEE7FEE7FEE704480549054A064BFC
:1056E00070470000570500083101000880010020C4
:1056F00080070020800300208003002031490143FF
:10570000314A1160704770B5002100230F22C47820
:1057100004B32D4C246804F4E064C4F5E064210A69
:10572000C1F10403CA40447804FA03F184781440B8
:1057300021430901254C0678A155047804F01F0582
:105740000124AC4005786D11AD0005F1E025C5F8E8
:10575000004109E0047804F01F050124AC401C4D11
:105760000678761145F8264070BD1A4A0A40024371
:10577000154B1B1F1A60704739B1134A121D12686E
:105780000243114B1B1D1A6006E00F4A121D1268DE
:1057900082430D4B1B1D1A607047042808D14FF03F
:1057A000E021096941F004014FF0E022116107E0B6
:1057B0004FF0E021096921F004014FF0E02211616E
:1057C000704700000000FA050CED00E000E400E086
:1057D00080E100E080FFFF1F30B943F2DB0281006F
:1057E000A1F1C0410A6005E043F2D2028100A1F1BB
:1057F000C0410A606FF07042411C8900A1F1C041B4
:105800000A608100A1F1C041C1F80421704710284D
:105810000AD118214FF020421166402151664FF005
:10582000FC319166D16610E01821F74A11604021E1
:105830004FF02042C2F884104FF0FC31F24A083297
:1058400011604FF02042C2F88C1070471820EE49CA
:105850002031086000200906C1F8A4004FF0FC3098
:10586000E94928310860091D0860091D0860704772
:10587000D0E901121143C268114302691143426920
:10588000114382691143C2691143026A1143426A9A
:105890001143826A1143C26A1143026B11430268C9
:1058A0009200A2F1C0421160816808290BD1016801
:1058B0008900A1F1C041096841F0400201688900F6
:1058C000A1F1C0410A60416B0968426B526841EA2C
:1058D0000211426B926841EA0221426B928941EACD
:1058E0000241426B128A41EA0251426B127D41EA47
:1058F0000261426B926911430268521C9200A2F14C
:10590000C0421160C16AB1F5804F1BD1816B09683B
:10591000826B526841EA0211826B926841EA02216D
:10592000826B128A41EA0251826B127D41EA026166
:10593000826B9269114302689200A2F1C042C2F8E0
:10594000041107E06FF0704201688900A1F1C041C5
:10595000C1F80421704730B50021002200234468BB
:1059600044F0080485682C43C5682C4305692C4322
:10597000456944EA4524856944EA4531C469246897
:10598000C5696D6844EA0524C5692D8944EA054462
:10599000C5692D7B44EA0562046A2468056A6D685E
:1059A00044EA0524056A2D8944EA0544056A2D7BED
:1059B00044EA05630468102C05D14FF020442166A9
:1059C000A266E36608E0904C21604FF02044C4F8E2
:1059D00088208D4C0C34236030BD016841F01001EB
:1059E000426841EA4221826841EA4231864A2032D5
:1059F0001160C1680968C268526841EA0221C26840
:105A0000128941EA0241C268127B41EA02617E4A80
:105A100028321160016909680269526841EA02216D
:105A20000269128941EA02410269127B41EA02617C
:105A3000754A2C321160416909684269526841EA2D
:105A400002214269128941EA02414269127B41EA1C
:105A500002614FF02042C2F8B0107047002101608F
:105A60000221416000218160C16001614161816169
:105A7000C16101624FF4805141624900816200219D
:105A8000C16201630F21426B1160426B5160FF21C3
:105A9000426B91600F21426BD160426B1161426B8E
:105AA00051610021426B91610F21826B1160826B09
:105AB0005160FF21826B91600F21826BD160826BFC
:105AC0001161826B51610021826B916170471021DD
:105AD0000160002141608160C160016141618161BB
