:030000000209866C
:0C098600787FE4F6D8FD7581590209CD98
:1007550043BB1053B3EF53B4EFD2971212291211C2
:100765004B7D467F461212917F327E00121004C2E5
:10077500B4C2B612110A1211211212AD1211A97DBD
:1007850004E4FF120C82E4FF120A12E4FF120A12BB
:1007950075BB70751E00751F01E50FD3940B400ADC
:1007A500C290C291C292C29580EF120BE4C004C000
:1007B50005C006C007AC1EAD1FE4120192A804A92E
:1007C50005AA06AB07D007D006D005D00412011440
:1007D50050571208E1AF0F1203B1E50FB406BAD3B3
:1007E500E51D9519E51C951840357D647F64121249
:1007F50091C2977FFA7E00121062D2977FFA7E002F
:10080500121062C290C291C292C2957FFA7E001206
:100815001062D3E51D9519E51C951840C280F37D3E
:10082500467F4612129102079EC290C291C292C2A1
:040835009502079E83
:1011210053877F759850438E04759CDC438E014331
:051131008E10D299228E
:080003008F993099FDC299228A
:10113600ED6011120342FF120003740129F9E43A2B
:05114600FA1D80EC22FF
:040B10008E228F237F
:100B14007527CC752833E522F529EFF52A752B5571
:100B24008D2CE52C24EE601214603E24FE603A14F1
:100B34006037240570398B2D802AEBC3940150044F
:100B44007B018008EBD3940640027B068B2DE526BF
:100B5400C394015005752601800AE526D3943C40D0
:100B64000375263C85262E8006752D01752EFE7B89
:100B7400007A00792B7D04120F958F2F7B007A0069
:070B840079277D09021136FB
:10104400D3EF9400EE940040147D727C00ED1D708B
:0D105400011CED4C70F7EF1F70E61E80E3ED
:01106100226C
:10100400E4FDFCC3ED9FEC9E5015E4FBFA0BBB0022
:0F101400010AEB64954A70F50DBD00010C80E4F4
:0110230022AA
:10106200D3EF9400EE940040147DB07C04ED1D702B
:0D107200011CED4C70F7EF1F70E61E80E3CF
:01107F00224E
:10108000D3EF9400EE940040147D727C00ED1D704F
:0D109000011CED4C70F7EF1F70E61E80E3B1
:01109D002230
:0C1202007F087E917D63DDFEDEFCDFFADC
:01120E0022BD
:0E11B90000007F0B7E827D6FDDFEDEFCDFFA24
:0111C7002205
:0C120F007F167E037DE3DDFEDEFCDFFACF
:01121B0022B0
:10109E00010C00010F00010D01010E00010B0001FA
:0810AE000800010901010A011B
:080E90007DB87C0B7FE87E03B6
:100E98008C228D23D290C291C292D2951210047DD9
:100EA800327F3C121291C290D291C292D295AF2356
:050EB800AE220210044F
:080EBD007DB87C0B7FE87E0389
:100EC5008C228D23D290C291C292D2951210047DAC
:100ED500327F3C121291D290C291D292C295AF2329
:050EE500AE2202100422
:100B8B00D290C291C292D2957FF47E01121004C210
:100B9B0090D291C292D2957FDC7E05121004C29046
:100BAB00C291C292C2957FE87E03121004E50870D1
:100BBB000B7B11FD7F01120FE17508017F107E2762
:100BCB001210047DF27F04120DF9D290C291D292D1
:090BDB00C2957FD07E07021004D0
:1008E100AF80EF12038B09660009481F09482F09E1
:1008F100483F09484F09485F09486F09487F09483F
:100901008F09489F0948AF0948BF0948CF0948DF07
:10091100095CE70948EF0952F10952F20952F3095A
:1009210052F40952F50952F60952F70952F80952DF
:10093100F90952FA0952FB0952FC0952FD0952FE0A
:100941000985FF0000095CD290C291D292C29580C4
:1009510030C290D291C292D2958026D290C291C2D9
:1009610092D295801CE50D601BC290C291C292C2C9
:10097100957F1E7E00121004050F750C01E4F50D24
:0509810022750D0122AA
:0203B1008F219A
:1003B300E50C7003020546750901E50AB4010A7DDF
:1003C3003B7F3B121291E4F50AE52114B40C004083
:1003D3000302053A9003E575F003A4C58325F0C530
:1003E300837302040902045D0204600204680204C8
:1003F3007B0204B20204BE0204D502051D020527D6
:100403000205270205387526067B057D12E4FFFEEB
:10041300120B107FFA7E001210627FFA7E00121018
:10042300627526067B057D12E4FFFE120B107FFA30
:100433007E001210627FFA7E001210627526067B20
:10044300057D12E4FFFE120B107FFA7E001210628C
:100453007FFA7E001210620205220205227F071234
:100463000A12020527E4F51EF51FD290C291C2922B
:10047300D2957FC8FE0205337F04120A12C290C2CE
:1004830091C292C2957F907E01121062C290D29166
:10049300D292C2957F207E03121062120EBDC290CB
:1004A300C291C292C295751E00751F0102054212C8
:1004B3000EBDD2AFD28CD28E020542C2AFC28CD255
:1004C3008ED290C291C292D2957FC87E0012100440
:1004D300806D120E90D290C291C292D2957FC87E47
:1004E30000121062C290C291C292C295C290D29180
:1004F300C292D2957FC87E00121062C290C291C28E
:1005030092C2957B11E4FD7F02120FE1D290C2915A
:10051300D292C2957FC87E0080167F06120A1212FD
:100523000E90801BD290C291C292D2957FC87E005A
:1005330012106280028000C290C291C292C295E4FE
:10054300F50C22E509600D7D467F46121291E4F514
:0405530009750A011B
:010557002281
:020666008F10F3
:10066800751202751364E4F514F515F516E51465AD
:100678001070030207547F011211867F1012118631
:10068800121202120F6CAF4E7515008F16E516FE8A
:100698007C00E4254FF516EC3EF515D3E5169400DD
:1006A800E515648094804017E5169478E515648014
:1006B8009480500B7514017512017513BC806AD3B0
:1006C800E5169478E515648094804017E516942C17
:1006D800E51564809481500B751402751202751328
:1006E800F48046D3E516942CE51564809481401770
:1006F800E516948AE51564809482500B7514037589
:10070800120375132C8022D3E516948AE5156480AC
:1007180094824015E51694C4E515648094895009BF
:10072800751404751204751364E514651060057F6B
:1007380003120A12E4F511E511C3951240030206EB
:0C07480075AF137E00121174051180EBD8
:010754002282
:101174008E548F55C297121062D297AF55AE540257
:021184001062F7
:100839007D467F46121291AF80EF12038B08CA00E2
:1008490008A71F08A72F08A73F08A74F08A75F08F1
:10085900A76F08A77F08A78F08A79F08A7AF08A7B2
:10086900BF08A7CF08A7DF08B7E708A7EF08ADF1CA
:1008790008ADF208ADF308ADF408ADF508ADF6081A
:10088900ADF708ADF808ADF908ADFA08ADFB08AD4C
:10089900FC08ADFD08ADFE08C1FF000008B7D29005
:1008A900C291800EC290D291C292D2958026C290F6
:1008B900D291D292C295801CC290C291C292C29525
:1008C90022E50D6012C290C291C292C295750E01C5
:0808D900E4F50D22750D01226A
:10116000EF4488F5BC00000000E5BC30E4FB53BC54
:04117000EFAFBD22FE
:10119800439D80E4F5BDF5BE75BC807F02FE02105C
:0111A8004402
:1010BA00EF1FAA0670011E4A60107C137D88ED1D81
:0A10CA00AA0470011C4A60E880F4DB
:0110D40022F9
:0310B6000117001F
:10110A00538E3F758950E4F58A758CDCC28DF58D56
:07111A00F58BD2A9D2AF2230
:03000B0002055893
:10055800C0E0C0F0C083C082C0D075D000C000C069
:0D05680001C002C003C004C005C006C007EA
:1005750075367175353D75344A75333F753A007575
:100585003900753800753740753E00753D00753C7E
:10059500E0753B3FC28CC28EE51770320517D2B4A9
:1005A500D2B6AF8DEFFEAD8B7C00E42DFDEC3EFCAD
:1005B500E4120192AB36AA35A934A83312000E1203
:1005C50001CB8E3F8F40853F1C85401D806EE51712
:1005D500640170320517C2B4D2B6AF8DEFFEAD8B94
:1005E5007C00E42DFDEC3EFCE4120192AB3AAA3905
:1005F500A938A83712000E1201CB8E3F8F40853FD8
:10060500188540198036E51764027030F517C2B4B5
:10061500C2B6AF8DEFFEAD8B7C00E42DFDEC3EFC4C
:10062500E4120192AB3EAA3DA93CA83B12000E1272
:1006350001CB8E3F8F40853F1A85401B758B00751A
:060645008D00D28CD28E64
:10064B00D007D006D005D004D003D002D001D00003
:0B065B00D0D0D082D083D0F0D0E032AD
:0612A20020202020202086
:0E11C80000007F017EC27D9FDDFEDEFCDFFAAF
:0111D60022F6
:0611E6001211EC1211ECE5
:0711EC000000007F18DFFE88
:0111F30022D9
:100D5600E4FC75580220A507AF580558EF70F61247
:100D660011E6E4FD30A5010D75580230A507AF5810
:100D76000558EF70F6E5586401600BEE25E0FEEDD0
:080D860042060CBC08CCAF06CC
:010D8E002242
:100A920078417C007D007BFF7A1279A27E007F067E
:100AA20012031CC2A51211C8D2A51211E61211EC32
:100AB200D2A520A55575580220A507AF580558EFB5
:100AC20070F675580230A507AF580558EF70F61248
:100AD2000D56AB07120D568F47120D56AA07120D6F
:100AE20056A907120D56D2A5EA292B25476F701A6F
:100AF2008B418547428A4389448F45AF03EFFEAD60
:0D0B0200027C00E42DFFEC3EFE22E4FEFF2D
:010B0F0022C3
:020F17008F2821
:100F1900E4F529C296121243E52830E007D2961269
:100F2900127E8005D296121243E528C313F52805CF
:080F390029E529C3940840DBFF
:010F4100228D
:100CCB008F268D27C29612124FD296121288AF26FC
:100CDB00120F17AF26120003E526F4FF120F17E5CC
:100CEB0026F4FF120003AF27120F17AF27120003D2
:100CFB00E527F4FF120F17E527F4FF120003C29646
:060D0B00121243D29622F1
:100F42008F568D57C29612124FD296121288AF56F2
:100F5200120F17AF56120F17AF57120F17AF5712C4
:0A0F62000F17C296121243D2962216
:060FE1008F228D238B24FA
:100FE700E4F525E525C395225012AD24AF23120C55
:0C0FF700CB7F0A7E00121004052580E765
:0110030022CA
:040DF9008F488D4949
:100DFD00E4F54BF54CF54DF54AE54AC39548501FC2
:100E0D00120A928E4C8F4DEFF54BE54B7003754BDF
:0F0E1D0062AD4BAF49120CCB12120F054A80DAAF
:010E2C0022A3
:0B1243000000007F077E01DEFEDFFCE4
:01124E00227D
:09127E00007F137E32DEFEDFFC6E
:011287002244
:0B124F000000007F617ECEDEFEDFFCB1
:01125A002271
:081288007F317E65DEFEDFFC14
:01129000223B
:07129A000000007F0ADFFEE7
:0112A100222A
:0A12730000007F367EC6DEFEDFFCC1
:01127D00224E
:0F11D700D2A7D2A612129AC2A712129AC2A622A9
:0C125B00C2A7D2A612129AD2A702129AC1
:0E11F400A20092A7D2A612129AC2A602129AC6
:0D121C00D2A612129AA2A7C2A612129A22FE
:0210D500AE0764
:1010D700E4FDEE25E0FE92A7D2A612129AC2A6124E
:0910E700129A0DBD08EC02121C66
:10102400E4FED2A7FDEE25E0FED2A612129AA2A7F4
:0F103400E4334206C2A612129A0DBD08E8AF06B9
:01104300228A
:10118600AC071211D77F461210D5AF041210D50244
:02119600125BEA
:100F6C001211D77F471210D5E4FC121024744E2CAA
:100F7C00F8A607BC0304D2008002C2001211F40CC4
:090F8C00BC03E712125B021273B0
:0512A8007F0102118628
:0D122900C293C294C290C291C292C295229B
:100A12007522AA7523BBEF14B40800504F900A2D1B
:100A220075F003A4C58325F0C58373020A45020A43
:100A32004A020A4F020A54020A6E020A59020A6163
:100A4200020A66752449801F752450801A75245144
:100A52008015752452801075248475258180127545
:100A6200246680037524537525688005E4F524F512
:100A7200257B007A0079227D04120F958F267B0058
:0F0A82007A007922120D8FBF20057F66120003C4
:010A91002242
:060F95008B308A31893225
:100F9B00E4FFEDD394004016AB300532E532AA31B5
:100FAB007002053114F91203422FFF1D80E4630711
:010FBB00FF36
:010FBC002212
:1011A900120DC4EF6007B2971211B980F3D29722DA
:100C360034431010013443101002344310100334AF
:100C46004310100434431010053443101006344387
:100C560010100134431010023443101003344310B3
:100C6600100434431010053443101006282046059E
:0C0C760023440827410B29A5A5A5A5A52E
:0512AD00C2A0D2C42222
:100FBD00E4FEEF30E704D2A38002C2A3EF25E0FFE9
:100FCD00D2A130A20543070180035307FEC2A10E33
:030FDD00BE08DF6C
:010FE00022EE
:0C123600C2C4120FBD7FFF120FBDD2C456
:011242002289
:0910F0007D017F211210F97F221D
:1010F900C2C4120FBDAC07AF05120FBDD2C4AF04F5
:0111090022C3
:060E5F008B228A23892486
:100E6500C2C4120FBDAD07E4FCECC395255017E4D1
:100E7500FF120FBDAB22AA23A9248C82758300EF34
:0A0E850012035B0C80E3D2C4AF053A
:010E8F002240
:100D110075F005A42454F9740C35F0FA7BFF752B9A
:030D2100057F2A21
:060D24008B288A29892AB0
:100D2A00C2C4120FBDAD07E4FCECC3952B5018AB3F
:100D3A0028052AE52AAA297002052914F91203426C
:0B0D4A00FF120FBD0C80E2D2C4AF0509
:010D5500227B
:0C126700C2A07D0F7F201210F9D2A0223F
:100EEA008F59C2A0ED120D111210F0E559900C7233
:100EFA0093FD7F251210F97D207F311210F97D0FA5
:0D0F0A007F261210F97F201210F9D2A022CC
:100C82008F218D22C2A0E52275F005A42436F974C5
:100C92000C35F0FA7BFF752B057F30120D24E5220F
:100CA200120D111210F07D3F7F241210F9E52190F0
:100CB2000C7293FD7F251210F97D0F7F261210F919
:090CC2001D7F201210F9D2A022BE
:060E2D008B518A5289532B
:100E3300E4FB7F07121236EF30E61EC2A0AB51AAC5
:100E430052A9537525207F61120E5F7B017DFF7FC1
:0B0E5300271210F97FE21210F9AF0324
:010E5E002271
:100D8F00C2A0752B207FA0120D24D2A020B2FD7F10
:100D9F0007121236AB07AD037F271210F9EB30E4C1
:100DAF000A7DFF7FE11210F97F1022EB30E5037F00
:040DBF0020227FFF70
:010DC300220D
:100DC4007BFF7A0C797D752B057F30120D247BFF18
:100DD4007A0C797D7525057F10120E5FE4FFEF9084
:100DE4000C7D93B4A5040FBF05F4EF640560037F85
:040DF40001227F0059
:010DF80022D8
:10114B0075D90CE4F5E9F5F9F5F275DA42F5F375B5
:05115B00DB42D2DE22A0
:091291008FEA8FFA8DEB8DFB2230
:100BE400E4F521F522D2B77F1EFE121080C2B73081
:100BF400C6FD30C6247F017E007D717C00ED1D7032
:100C0400011CED4C70F7EF1F70011EEF4E70EA05EA
:100C140022E52270DD052180D9AC21AD22E4120148
:100C2400927B7B7A14792E783E12000EE4F521F53E
:010C3400229D
:010C3500229C
:10000E00EC4D6011E8497017ED33EC3304600DE4EC
:10001E00FCFFFEFD22E933E8330470F802023712CA
:10002E00020258046009E4CC2481500628500902CB
:10003E00024128400302023EC0E0EB4A7044B98000
:10004E0006D0E0FB02022DEF4E701CBD8008EBFFC8
:10005E00EAFEE9FD80EBE98DF0A4FEE5F00200F783
:10006E00E9CDF9EAFEEBFFEF89F0A4FCE5F0CE89CD
:10007E00F0A42EFFE435F0CD89F0A42DFEE435F08A
:10008E008067EF4E7005BD80D780C3EF8BF0A4ACB8
:10009E00F0EE8BF0A42CFCE435F0F8EF8AF0A42CF3
:1000AE00E5F038FCE433CB8DF0A42CFCE5F03BF806
:1000BE00EE8AF0A42CFCE5F038F8E433CF89F0A4F6
:1000CE002CFCE5F038CF3400CE89F0A42FFFE5F0FC
:1000DE003EFEE433C98DF0A42EFEE5F039CD8AF054
:1000EE00A42FFFE5F03EFEE43DFD33D0E0FB5007CC
:1000FE000BBB000F020241EC2CFCEF33FFEE33FE84
:06010E00ED33FD020219B1
:1001140074F8CC6480CCC86480C8F58204604FC392
:10012400EB9FF5F0EA9E42F0E99D42F0E89C45F031
:10013400603C501DE5825FFFE582D313CB5BCBF4BB
:100144002B5582FB50280ABA002409B900200880E4
:100154001DE5825BFBE582D313CF5FCFF4C3132F7E
:100164005582FF50090EBE00050DBD00010CC3EB06
:100174009FF5F0EA9E42F0E99D42F0E89C45F0606C
:0901840007CC4820E701B3EC228E
:10018D0075F020800E75F010800575F0087D007EED
:10019D00007F003392D530D50312037DEC33401030
:1001AD00EF33FFEE33FEED33FDEC33FCD5F0ED22F6
:0E01BD00E5F0247EA2D513CC92E7CDCEFF2232
:1001CB00EDD2E7CD33EC3392D524814006E4FFFE2C
:1001DB00FDFC22FCE4CFCECDCC24E0501174FF808B
:1001EB00EDC3CC13CCCD13CDCE13CECF13CF047028
:0701FB00F030D5DE02037DA8
:10020200E9D2E7C933E833F892D5EDD2E7CD33EC42
:0702120033FC5002B2D522BB
:10021900EC30E7100FBF000C0EBE00080DBD000446
:100229000BEB6014A2D5EB13FCED92E7FD2274FFF2
:10023900FCFDFEFF22E480F8A2D574FF13FC7D804B
:03024900E480EF5F
:10099200020755E493A3F8E493A34003F68001F21F
:1009A20008DFF48029E493A3F85407240CC8C33366
:1009B200C4540F4420C8834004F456800146F6DF35
:1009C200E4800B010204081020408090109EE47E17
:1009D200019360BCA3FF543F30E509541FFEE4932A
:1009E200A360010ECF54C025E060A840B8E493A3F1
:1009F200FAE493A3F8E493A3C8C582C8CAC583CA1C
:100A0200F0A3C8C582C8CAC583CADFE9DEE780BED3
:0110B9000036
:10024C00E709F608DFFA8046E709F208DFFA803E94
:10025C0088828C83E709F0A3DFFA8032E309F60881
:10026C00DFFA8078E309F208DFFA807088828C83E9
:10027C00E309F0A3DFFA806489828A83E0A3F6089D
:10028C00DFFA805889828A83E0A3F208DFFA804C77
:10029C0080D280FA80C680D4806980F2803380104E
:1002AC0080A680EA809A80A880DA80E280CA8033B7
:1002BC0089828A83ECFAE493A3C8C582C8CCC5832F
:1002CC00CCF0A3C8C582C8CCC583CCDFE9DEE780FF
:1002DC000D89828A83E493A3F608DFF9ECFAA9F07E
:1002EC00EDFB2289828A83ECFAE0A3C8C582C8CCD4
:1002FC00C583CCF0A3C8C582C8CCC583CCDFEADEED
:10030C00E880DB89828A83E493A3F208DFF980CC4E
:10031C0088F0EF60010E4E60C388F0ED2402B40447
:10032C000050B9F582EB2402B4040050AF232345EE
:06033C00822390029C7375
:10034200BB010689828A83E0225002E722BBFE02B9
:09035200E32289828A83E49322EC
:10035B00F8BB010DE58229F582E5833AF583E8F0D8
:10036B00225006E92582C8F622BBFE05E92582C884
:02037B00F2226C
:0E037D00C3E49FFFE49EFEE49DFDE49CFC2291
:10038B00D083D082F8E4937012740193700DA3A301
:10039B0093F8740193F5828883E473740293686015
:0603AB00EFA3A3A380DF15
:00000001FF
