:020000040800F2
:10000000880700205D200008C9020008CB02000814
:10001000CF020008D3020008D70200080000000049
:10002000000000000000000000000000DB020008EB
:10003000DD02000800000000DF020008E102000805
:100040007720000877200008772000087720000834
:100050007720000877200008772000087720000824
:100060007720000877200008772000087720000814
:100070007720000877200008772000087720000804
:1000800077200008772000087720000877200008F4
:100090007720000877200008772000082B1D000833
:1000A00077200008772000087720000877200008D4
:1000B000772000082B1B0008772000087720000815
:1000C00077200008772000087720000877200008B4
:1000D00077200008791F00087720000877200008A3
:1000E0007720000877200008772000087720000894
:1000F0007720000877200008772000087720000884
:100100007720000877200008772000087720000873
:100110007720000877200008772000087720000863
:100120007720000877200008772000087720000853
:1001300000F002F800F03FF80AA090E8000C8244BA
:100140008344AAF10107DA4501D100F034F8AFF297
:10015000090EBAE80F0013F0010F18BFFB1A43F0A5
:1001600001031847A4440000C4440000103A24BF0F
:1001700078C878C1FAD8520724BF30C830C144BF0C
:1001800004680C607047000000230024002500264E
:10019000103A28BF78C1FBD8520728BF30C148BFEA
:1001A0000B607047642903F0CF86002070471FB5AD
:1001B0001FBD10B510BD03F08FFF1146FFF7F7FF0D
:1001C00000F008F803F0ADFF03B4FFF7F2FF03BC43
:1001D00001F074FE01F0C0F901F000FE00F072F9C8
:1001E000002141F61F4000F002FA00F076FA41F2D9
:1001F0008831084600F005FA4FF4FA6001F02BFE52
:100200004FF4165001F069FE00202849086001F003
:1002100065F800F0CBFF01F061F901F09DF901F004
:1002200047FA01F0A5FA01F043FE01F032FC00208C
:100230001F49C1F884011D491839086041F61F4162
:10024000642001F0F9FB01F011FD642019490880D8
:100250002BE00BE00020184908601849C1F8840120
:100260001549083108601549C1F88C011448007817
:100270000C28EFDC01F08FFD124800880D49098839
:1002800088420CDA00200C4908600C49C1F884014E
:100290000949083108600949C1F88C0105E000F0FE
:1002A000B1FA0748007800F0C6FCD2E7A00121426D
:1002B0000000214200000020800122420000224272
:1002C0001A00002038000020704700BFFEE700BF82
:1002D000FEE700BFFEE700BFFEE7704770477047CC
:1002E000704700000CB50020019000906C48006839
:1002F00040F480306A49086000BF6948006800F433
:10030000003000900198401C0190009818B90198A5
:10031000B0F5A06FF1D16248006800F4003010B170
:100320000120009001E0002000900098012843D1B6
:100330005C48006840F010005A49086008460068B0
:1003400020F0030008600846006840F002000860E2
:10035000534840685249486008464068486008462B
:10036000406840F4806048600846406820F47C1093
:1003700048600846406840F4E81048600846006855
:1003800040F08070086000BF4548006800F00070D1
:100390000028F9D04248406820F0030040494860F6
:1003A0000846406840F00200486000BF3C48406892
:1003B00000F00C000828F9D10CBD10B5FFF792FF32
:1003C00010BD10B53648006840F00100344908609F
:1003D000084640683449084031494860084600688A
:1003E000324908402E4908600846006820F4802001
:1003F00008600846406820F4FE0048604FF41F0083
:100400008860FFF7DAFF4FF000602949086010BDEF
:1004100010B5002100200022214B5B6803F00C0185
:1004200021B1042906D0082928D107E0214B224C0C
:10043000236027E01F4B204C236023E0184B5B68B0
:1004400003F47010164B5B6803F48032022303EB55
:10045000904022B9194B4343174C23600DE0104BD9
:100460005B6803F4003323B1144B4343124C236005
:1004700003E0104B4343104C236003E00D4B0E4C44
:10048000236000BF00BF064B5B68C3F303130C4C33
:10049000E15C094B1B68CB40074C236010BD00009A
:1004A00000100240002002400000FFF8FFFFF6FEAF
:1004B00008ED00E000127A000400002000093D0071
:1004C0000800002008B50121242002F003F940F2C1
:1004D0000110ADF8000010208DF8030003208DF806
:1004E00002006946094801F039FE40F2011107484F
:1004F00001F0E1FE0420ADF800006946044801F077
:100500002DFE0421024801F0D6FE08BD000801407E
:100510000014014008B50121480302F0DBF8012175
:10052000102002F0D7F818208DF8030003208DF872
:100530000200C020ADF800006946384801F00EFE08
:100540000121102002F0C6F810208DF803000320CE
:100550008DF802000F20ADF8000069462F4801F029
:10056000FDFD0F212D4801F0A8FE08BD30B587B074
:1005700005460C46ADF81450ADF810400020ADF81B
:100580001600ADF8120004A9254802F04DFC68469B
:1005900002F07FFF6020ADF800000120ADF80200FE
:1005A0000020ADF80600ADF8080069461C4802F0CE
:1005B00078FC0120ADF802006946194802F0B3FC4E
:1005C0000821174803F0BCF80821154803F0C1F8CA
:1005D0000121134803F084F84FF4004010494431DE
:1005E000088001210E4802F07BFF07B030BD70B5D6
:1005F00004460D46FFF78EFF29462046FFF7B6FF5B
:1006000070BD70B504460D462146054803F000FA5A
:100610002946034803F0FEF970BD000000100140B8
:10062000003401402DE9F8430446002664270025E4
:10063000002000903DE001F0B9F8B42001F00BFC7F
:1006400001F0BFF801F0D8F8804603F0B5FE009045
:100650002946FBA0009A03F037FC0098002807DD2C
:100660000098642804DA012501264FF42F771DE055
:100670000098632807DD0098C82804DA02250226BE
:100680004FF4FA7712E00098C72808DD0098B0F51B
:10069000967F04DA032503264FF4967706E0009848
:1006A000B0F5967F02DB042504266427204600F07F
:1006B00090FDA542BFD1BDE8F88310B504460020E7
:1006C000E5490860204601F0C6FB0120E349C1F876
:1006D0008001204601F0BFFB10BD08B501210820B4
:1006E00001F0F8FF4FF47F40ADF8000048208DF88E
:1006F00003006946DA4801F031FD08BD10B5044633
:100700000020D84908600120D749C1F88401D549A3
:10071000083108600020D449C1F88C01CC2001F0D8
:100720009AFB0120CF4908600020091D08600120C4
:10073000091D08600020091D08600120C9490860E2
:100740000020091D08600120091D08600020C6491D
:10075000C1F88C01204601F07EFB0020C1490860F1
:10076000091D0860091D0860091D0860BD49086071
:10077000091D0860091D0860BB49C1F88C0110BD46
:1007800010B504460020B74908600120B649C1F8F9
:100790008401B449083108600020B349C1F88C01D4
:1007A000CC2001F058FB0020AE4908600120091D53
:1007B00008600020091D08600120091D0860002054
:1007C000A84908600120091D08600020091D086073
:1007D0000120A549C1F88C01204601F03CFB002016
:1007E000A0490860091D0860091D0860091D08600E
:1007F0009C490860091D0860091D08609A49C1F8F4
:100800008C0110BD2DE9F05F4FF48071944801F028
:1008100038FD83464FF40071914801F032FD0446E3
:100820004FF480618E4801F02CFD05464FF40061C5
:100830008B4801F026FD06464FF48051884801F0B0
:1008400020FD07464FF40051854801F01AFD80460F
:100850004FF48041824801F014FD81464FF400417D
:100860007F4801F00EFD82460BEB440000EB850053
:1008700000EBC60000EB071000EB481000EB8910FE
:1008800000EBCA107949087008460078EF287BD041
:1008900018DC8F2845D00CDC3F2864D004DC00280D
:1008A00073D01F2872D173E05F2870D07F28F9D1F0
:1008B0007FE09F2846D0BF2822D0DF280FD0E7282E
:1008C000F0D149E1F1380F2860D2DFE800F0FC5F99
:1008D000FD5F5F5FFAD3E55FA6F994F8F7000020AB
:1008E0006049086001206049C1F8840100205D4929
:1008F000083108600120091D08605D49087097E112
:1009000000205849086001205749C1F8840100209F
:100910005449083108600120091D086054490870D5
:1009200086E100204F49086001204F49C1F8840149
:1009300000204C49083108600120091D08604C491D
:10094000087075E100204749086001204649C1F858
:10095000840100204349083108600120091D086016
:100960004349087064E100203E49086001203E4987
:10097000C1F8840100203B49083108600120091DAD
:1009800008603B49087053E108E125E13FE121E0BF
:1009900000203449086001203349C1F88401002057
:1009A0003049083108600120091D0860304908708D
:1009B0003EE100202B49086001202B49C1F8840149
:1009C00000202849083108600120091D08602849D5
:1009D00008702DE100202349086001202249C1F858
:1009E000840100201F49083108600120091D0860AA
:1009F0001F4908701CE101201A49086000201A49AB
:100A0000C1F8840101201749083108600020091D40
:100A100008600120164908700AE1012011490860A8
:100A200000201149C1F8840101200E4908310860F5
:100A30000020091D086001200D490870F8E0000041
:100A4000B9E2D5D5B5C8BCB6A3BA25642CB9E2C7FE
:100A5000BFA3BA25640A00008001214200002142A0
:100A6000000C0140800122420000224218000020B8
:100A70001B0000200120FB4908600020FA49C1F852
:100A800084010120F749083108600020091D086031
:100A90000120F6490870CBE00120F24908600020EF
:100AA000F149C1F884010120EE49083108600020B5
:100AB000091D08600120ED490870B9E07FE027E0DA
:100AC00038E05AE000E011E00120E649086000202B
:100AD000E549C1F884010120E2490831086000209D
:100AE000091D08600120E1490870A1E00120DD49ED
:100AF00008600020DC49C1F884010120D94908318F
:100B000008600020091D08600120D84908708FE0A6
:100B10000120D44908600020D349C1F88401012094
:100B2000D049083108600020091D08600120CF4924
:100B300008707DE00120CB4908600020CA49C1F857
:100B400084010120C749083108600020091D0860A0
:100B50000120C64908706BE00020C24908600120EE
:100B6000C149C1F88401BF49083108600020091D4E
:100B700008600120BD4908705AE00020B9490860AA
:100B80000120B949C1F88401B64908310860002044
:100B9000091D08600120B549087049E00020B149ED
:100BA00008600120B049C1F88401AE4908310860ED
:100BB0000020091D08600120AC49087038E00020C1
:100BC000A8490860A849C1F88401A649083108600D
:100BD000A549C1F88C012BE0A4480078B0B10020F1
:100BE000A0490860A049C1F884019E490831086005
:100BF0009D49C1F88C019E480078401C9C490870B2
:100C000001209C49087000209849087010E00020DD
:100C10009449086001209449C1F884019149083140
:100C200008600020091D086001209049087000BF7D
:100C300000BFBDE8F09F10B504468E48007800283C
:100C40007ED001208C4908708C480078012807D19B
:100C500041F27C510846FFF7D4FC00208749087018
:100C60000D2C6ED2DFE804F06D07121736548BAAF4
:100C7000C6FDFCFBFA00062305221221002000F02D
:100C800094F94FF4FA70FFF739FD60E14FF4FA7010
:100C9000FFF734FD5BE1072000F09BFA002071496B
:100CA000086001207049C1F884016E49083108606C
:100CB00000206D49C1F88C01C82001F0CCF800205B
:100CC00068490860091D0860091D08606649C1F887
:100CD0008C013CE100206A490880624908600120DB
:100CE0006149C1F884015F490831086000205E490C
:100CF000C1F88C01C82001F0AEF800205949086005
:100D0000091D0860091D08605749C1F88C011EE1E2
:100D1000042000F05EFA0020524908605249C1F8F0
:100D200084015049083108604F49C1F88C014FF4E3
:100D3000C87001F090F801204A490860002001E0E5
:100D40000AE1F7E0091D0860091D08600120464915
:100D5000C1F88C014FF4487001F07DF84FF4FA703F
:100D6000FFF70EFD00203F490860091D0860091DBE
:100D70000860091D0860642041490880E7E04FF4DD
:100D8000FA70FFF7FDFC14E03E4800883E490988F0
:100D900088420CDD0020334908603349C1F88401E2
:100DA0003049083108603049C1F88C0101E0FFF793
:100DB00029FD2F4800780628E6D0C8E00020294900
:100DC000086001202849C1F88401264908310860DB
:100DD00000202549C1F88C01C82001F03CF8002012
:100DE00020490860091D0860091D08601E49C1F8F6
:100DF0008C01ACE04FF4FA70FFF780FC0020194939
:100E0000086001201849C1F88401164908310860BA
:100E100000201549C1F88C01C82001F01CF8002001
:100E200010490860091D0860091D08600E49C1F8D5
:100E30008C014FF4FA70FFF761FC112200210220AF
:100E400000F018FC4FF4FA70FFF79AFC00200549F7
:100E50000860091D0860091D086017E05AE03DE0C0
:100E600020E017E080012242000022421B00002007
:100E70001A000020190000201C0000201D00002086
:100E80000000002030000020320000203A49C1F864
:100E90008C015CE0062000F09CF94FF4FA70FFF73B
:100EA0002DFC54E000203549086001203249C1F88A
:100EB000840132490831086000202F49C1F88C01B3
:100EC000C82000F0C8FF00202C490860091D0860F8
:100ED000091D08602849C1F88C0138E00020274925
:100EE000086001202449C1F88401244908310860C0
:100EF00000202149C1F88C01C82000F0ACFF00207F
:100F00001E490860091D0860091D08601A49C1F8DA
:100F10008C011CE0082000F05CF9002017490860F3
:100F20001549C1F884011549083108601249C1F812
:100F30008C010CE00020114908600F49C1F88401C0
:100F40000E49083108600C49C1F88C0100BF00BF90
:100F500000200B4908700DE00A48007850B141F2BA
:100F600088310846FFF74DFB002006490870012034
:100F70000549087010BD0000000022428001224295
:100F8000190000201C0000201D00002010B50246A2
:100F9000002005E012F8014B2318D8B24B1ED9B23D
:100FA0000029F7DCC343D8B210BDFEB506460F4694
:100FB00014461D46CC208DF8000033208DF801002A
:100FC00030128DF80200F0B28DF8030055208DF834
:100FD00004008DF805709DF805001138062831D2FF
:100FE000DFE800F003081B3022298DF806408DF859
:100FF000075027E0012C01DA012402E0062C00DD75
:1010000006248DF80640012D01DA012502E03C2D71
:1010100000DD3C258DF8075014E001208DF8060016
:10102000FE208DF807000DE001208DF80600FE205F
:101030008DF8070006E001208DF80600FE208DF8EF
:10104000070000BF00BF042101A8FFF79FFF8DF834
:1010500008000921684600F0EBFFFEBD00B587B02F
:10106000012141F2140001F035FBE020ADF804004D
:1010700018208DF8070001208DF8060001A94848C6
:1010800001F06CF8E021464801F015F90220ADF8B6
:10109000040048208DF8070003208DF8060001A900
:1010A0003F4801F05BF81020ADF804008DF8070010
:1010B00003208DF8060001A9394801F04FF81020EF
:1010C000ADF804008DF8070003208DF8060001A993
:1010D000344801F043F81021324801F0ECF81221B5
:1010E0002F4801F0E8F80020ADF808004FF48270B6
:1010F000ADF80A000020ADF80C00ADF80E00ADF818
:1011000010004FF40070ADF812000820ADF8140084
:101110000020ADF816000720ADF8180002A92248FB
:1011200002F0E2FC0121204802F083FD07B000BD7F
:101130001D4909884FF6C77211401B4A118011469C
:101140000988014311801146098841F0400111804E
:10115000704770B50546002405E0601CC4B2C82C79
:1011600001DD002070BD02210F4802F0E6FD0028DD
:10117000F3D029460C4802F08DFD002405E0601CE8
:10118000C4B2C82C01DD0020ECE70121064802F0C2
:10119000D4FD0028F3D0044802F07EFDC0B2E1E7A0
:1011A00000080140001001400030014010B50BE084
:1011B0004848006808B9012000E00020454908605F
:1011C0004FF4FA7000F047FE00F0CBF80028EFD1A2
:1011D00010BD1CB50446092C61D2DFE804F060059F
:1011E000121F2C6039465300AA208DF80000BB2046
:1011F0008DF8010049208DF8020068208DF8030069
:1012000053E0AA208DF80000BB208DF8010050208B
:101210008DF8020068208DF8030046E0AA208DF8C2
:101220000000BB208DF8010051208DF802006820DD
:101230008DF8030039E0AA208DF80000BB208DF85E
:10124000010052208DF8020068208DF803002CE088
:10125000AA208DF80000BB208DF8010084208DF8B5
:10126000020081208DF803001FE0AA208DF8000005
:10127000BB208DF8010066208DF8020068208DF8F3
:10128000030012E0AA208DF80000BB208DF80100B9
:1012900053208DF8020068208DF8030005E000203F
:1012A0008DF800008DF8010000BF00BF04216846E2
:1012B000FFF76CFE8DF80400684600F09CF82028CB
:1012C00007D10548006808B9012000E00020024964
:1012D00008601CBD88812242A001214210B5FFF7A1
:1012E000BDFE00209349086001209349C1F8900198
:1012F00010BD2DE9F04107460D46164600208F49E6
:1013000008603846FFF725FF8046002405E0FF20EF
:10131000FFF71FFF2855601CC4B2B442F7DB012061
:10132000864908604046BDE8F0812DE9F041074656
:101330000C4615460020814908603846FFF709FF32
:101340008046002605E014F8010BFFF702FF701C31
:10135000C6B2AE42F7DB0120784908604046BDE8DE
:10136000F0811FB576A103C9CDE902011020FFF776
:10137000DFFE052202A93020FFF7D7FF05226946CC
:101380001020FFF7B6FF002406E01DF80400A52892
:1013900000D003E0601CC4B2052CF6DB00BF052CB6
:1013A00002D0012004B010BD0020FBE770B5054657
:1013B0000C460020614908602846FFF7CAFE064631
:1013C0002046FFF7C6FE01205B49C1F89001304678
:1013D00070BD70B504460020584908602046FFF7EC
:1013E000B8FEFF20FFF7B5FE054601205249C1F8BF
:1013F0009001284670BD70B505461020FFF798FE95
:1014000000204C49086020222946A020FFF78DFFCC
:1014100001204D49C1F8900100BF46488C38006852
:101420000028FAD10720FFF7D4FF044621462720E1
:10143000FFF7BCFF04F0100028B1FF21E120FFF707
:10144000B5FF102070BD04F0200008B12020F9E79E
:10145000FF20F7E770B504461020FFF769FE07206C
:10146000FFF7B7FF054629462720FFF79FFF05F046
:10147000400050B1202221466120FFF73AFFFF21B2
:10148000E220FFF793FF002070BD0120FCE710B5BC
:1014900000202849086005222C492A20FFF745FF33
:1014A00001212120FFF782FF01212220FFF77EFF8B
:1014B000274801782520FFF779FF20213120FFF709
:1014C00075FF0F212620FFF771FF0F212020FFF766
:1014D0006DFF01201C49C1F8900110BD10B500201E
:1014E0001449086005221B493020FFF71EFF052222
:1014F00016492A20FFF719FF01212120FFF756FF87
:1015000001212220FFF752FF31212420FFF74EFF57
:101510000F4801782520FFF749FF0F212620FFF70C
:1015200045FF0E212020FFF741FF01200649C1F8A9
:10153000900110BD90012142000022429001224200
:10154000A5A5A5A5A500000000002142F5450008BD
:10155000FA450008F045000808B50121082001F00F
:10156000B9F80220ADF8000010208DF80300032028
:101570008DF8020069464B4800F0F0FD0221494811
:1015800000F099FE08BD70B5044600251BE0002060
:10159000454908604FF40C7000F039FC04F001007C
:1015A00038B101204049086040F29D6000F02FFCF6
:1015B00006E001203C4908604FF40C7000F027FC65
:1015C0006410681CC5B2082DE1DB70BD70B505461E
:1015D0000C46002034490860092000F03CFC012042
:1015E0003249C1F8840141F2941000F010FC284601
:1015F000FFF7C9FFE943C8B2FFF7C5FF2046FFF771
:10160000C2FFE143C8B2FFF7BEFF002026490860D1
:101610004FF40C7000F0FBFB01202449C1F8840159
:1016200070BD70B505460C4600201F4908600920B2
:1016300000F011FC01201D49C1F8840141F2941011
:1016400000F0E5FB2846FFF79EFF2846FFF79BFFCB
:101650002046FFF798FF2046FFF795FF002012492C
:1016600008604FF40C7000F0D2FB01200F49C1F864
:10167000840170BD2DE9F04104460D461646002751
:101680000CE031462846FFF7A1FF0A2000F0E3FBFB
:10169000FF210846FFF7C5FF781CC7B2A742F0DB61
:1016A000BDE8F081000C014084812142008021428C
:1016B00008B50121142001F00DF80121284800F09F
:1016C0001EFE4FF40040ADF8000048208DF80300E6
:1016D0006946244800F042FD2020ADF80000482073
:1016E0008DF803006946204800F038FD08BD10B5AC
:1016F000044614B101201D4908701C480078F8B157
:101700002021194800F0BDFD28B14FF400411548D3
:1017100000F0B7FDA0B90A2000F09DFB002013499E
:1017200008702021104800F0ACFD08B9012010BD60
:101730004FF400410B4800F0A4FD78B90220F6E711
:101740002021094800F09DFD012807D1C10305486B
:1017500000F097FD012801D1044908700020E6E758
:101760000002300000080140001001401E0000206F
:1017700010B500F053F810BD10B5044600F088F81D
:10178000462000F006F900BF00F0B1F80028FBD1B8
:10179000204600F0FEF800BF00F0A9F80028FBD1B9
:1017A00000F08FF8052000F056FB10BD10B50120A9
:1017B000FFF7E2FF0720FFF7DFFF2020FFF7DCFF46
:1017C00010BD10B500F064F8472000F0E2F800BF4B
:1017D00000F08DF80028FBD1012000F0FEF80E4942
:1017E0000870002000F0F9F80B49487000F069F823
:1017F000052000F030FB10BD70B500250024064820
:101800000478407800EB042084B2204602F010FEF9
:101810000546284670BD00001F00002008B50121C4
:10182000042000F057FF4FF4C050ADF80000102026
:101830008DF8030003208DF8020069467B4800F014
:101840008DFC01207A4908607A49C1F8AC0108BDD5
:1018500008B54FF40060ADF8000003208DF80200D9
:1018600014208DF803006946704800F077FC08BD2D
:1018700008B54FF40060ADF8000003208DF80200B9
:1018800004208DF803006946684800F067FC08BD35
:1018900010B5FFF7DDFF01206549091F08606549A4
:1018A000C1F8B001042000F0B2FA00206049091F1D
:1018B0000860042000F0ABFA00205E49C1F8B001D6
:1018C00010BD10B5FFF7C4FF002059490860594901
:1018D000C1F8AC01042000F09AFA012054490860D4
:1018E0005449C1F8AC01042000F091FA10BD10B5C4
:1018F000002401204E49091F086000F088FA0120E9
:101900004C49C1F8B00100F082FAFFF7B1FF07E0DF
:10191000601CC4B2FA2C03DDFFF7D3FF012010BD19
:101920004348843800680028F2D14149086000BF6C
:10193000F5E710B500203E490860FFF789FF002059
:101940003C49C1F8AC01022000F061FA012038499D
:101950000860022000F05BFA00203649C1F8B001AF
:1019600010BD10B5002032490860FFF771FF01205B
:101970003049C1F8AC01022000F049FA01202C499D
:101980000860022000F043FA00202A49C1F8B001A3
:1019900010BD70B50446FFF75BFF002024490860C6
:1019A000002517E0E0092249091F08606006040EBF
:1019B000022000F02CFA01201E49C1F8B0010220DB
:1019C00000F025FA00201A490860022000F01FFAF2
:1019D000681CC5B2082DE5DB70BD70B50546002456
:1019E000FFF746FF002616E000201149086002209C
:1019F00000F00DFA01200F49C1F8B0016006040E95
:101A00000B488438006808B1601CC4B2012000F0A3
:101A1000FEF9701CC6B2082EE6DB15B9FFF7A1FF70
:101A200001E0FFF786FF204670BD0000000801407E
:101A3000B0012142000021427FB505460C4601213C
:101A4000022000F054FEADF80850ADF8044000202C
:101A5000ADF80A00ADF8060001A9764801F0E4F9F6
:101A600001221146734801F056FD1D208DF800003B
:101A700000208DF8010003208DF8020001208DF870
:101A80000300684601F093F801216A4801F028FD3F
:101A90007FBD1FB50121042000F029FE012109208E
:101AA00000F018FE0121644800F029FC0920ADF87F
:101AB000000010208DF8030003208DF80200694615
:101AC0005E4800F04BFB4020ADF8000004208DF88C
:101AD000030003208DF802006946584800F03EFBE1
:101AE0000921564800F0E9FB554801F0C9F84FF6C6
:101AF000FF70ADF808000020ADF80400ADF8060056
:101B0000ADF80A0001A94E4801F08EF900231A46EB
:101B100050214B4801F033FD0021494801F074FF8A
:101B20000121474801F0DCFC1FBD70B50021414890
:101B300001F0D6FC0021424801F0D2FC01213D48D1
:101B400001F097FF012863D13E480078E0B93D4895
:101B50000078401C3B49087001203B4908603B4924
:101B6000C1F88C01364801F072FF064602F060FCB5
:101B7000054637480168284602F06EFC044602F02C
:101B800037FC3449088043E02E48007801281DD1F5
:101B90002C480078401C2B49087000202A49086016
:101BA00001202A49C1F88C01254801F050FF064662
:101BB00002F03EFC054628480168284602F04CFC2D
:101BC000044602F015FC2549088021E01D480078F4
:101BD00002281DD100201B4908700621204800F072
:101BE0006CFB0020184908601849C1F88C011448A2
:101BF00001F02DFF064602F01BFC0546194801685E
:101C0000284602F029FC044602F0F2FB164908803F
:101C100000210B4801F0F8FE0121064801F03AFFCF
:101C20000121044801F05CFC0121054801F058FC49
:101C300070BD00000004004000023000000C0140B4
:101C400000080040360000208081214200802142AF
:101C50002400002030000020280000203200002056
:101C6000000801402C0000203400002000B587B09F
:101C70000121102000F02EFD4FF40070ADF8180087
:101C800003208DF81A0004208DF81B000921022082
:101C900000F07AFB06A94B4800F060FA4FF4807020
:101CA000ADF8180003208DF81A0010208DF81B00E5
:101CB00006A9444800F052FA0121084600F017FD39
:101CC0000020ADF80200ADF806004CF25030ADF83F
:101CD00004004720ADF8000069464FF0804001F055
:101CE000A3F84FF4A06000F05DFF17208DF80C0002
:101CF00002208DF80D0000208DF80E0001208DF8D7
:101D00000F0003A800F053FF4FF400700490002070
:101D10008DF8140010208DF8150001208DF81600A4
:101D200004A802F04FF807B000BD2DE9F0412648A5
:101D30000078C043244908700846007860B100204C
:101D4000224908700121880701F0CAFB00214FF0E9
:101D5000804001F059FE18E000214FF0804001F072
:101D6000BFFB4FF0804001F072FE804602F013FA94
:101D70000646174A174B02F021FA044602F0DEF934
:101D8000154908800120114908704FF4007002F0D5
:101D90007BF8BDE8F08110B54FF48071094800F080
:101DA0008AFA1E2000F033F84FF48071054800F0E5
:101DB00084FA00BF054800780028FBD000200349C2
:101DC000087010BD001001403B0000203A000020C8
:101DD0006ABC74931804C63F3800002010B56FF039
:101DE000040000F02EFF2E4800682E49B0FBF1F0F1
:101DF0002D4908700846007800EB4001C1EBC01087
:101E00004FF6FF7101EAC0002849088010BD014665
:101E1000254A12784A434FF0E0235A6100229A6122
:101E20001A46126942F001021A6100BF4FF0E02227
:101E3000106900F001021AB100F48032002AF5D0D6
:101E40004FF0E022126922F001024FF0E0231A6104
:101E500000229A6170470146144A12884A434FF0A3
:101E6000E0235A6100229A611A46126942F0010287
:101E70001A6100BF4FF0E022106900F001021AB1B0
:101E800000F48032002AF5D04FF0E022126922F0EF
:101E900001024FF0E0231A6100229A6170470000AE
:101EA0000400002000127A003C0000203E000020C8
:101EB00010B54FF4A06000F075FE10BD014600BFE4
:101EC000704700BF614A128802F04002002AF9D030
:101ED000C2B25E4B1B1D1A80704710B586B0044617
:101EE000012144F2040000F0F5FB584800F056FCD4
:101EF0004FF40070ADF8140003208DF81600182080
:101F00008DF8170005A9524800F028F94FF48060B9
:101F1000ADF8140004208DF8170005A94C4800F016
:101F20001DF925208DF8000003208DF801008DF8A3
:101F3000020001208DF80300684600F038FE01948D
:101F40000020ADF80800ADF80A00ADF80C00ADF8BF
:101F500010000C20ADF80E0001A93C4800F061FC17
:101F6000012240F22551394800F0F3FC01213748A5
:101F700000F0E3FC06B010BD10B540F22551334827
:101F800000F0CCFD10B3314800F048FDC4B2314838
:101F9000008800F40040C8B92E48008800F4804052
:101FA00060B10A2C03D000202A49088020E029488B
:101FB000008840F400402749088019E00D2C06D124
:101FC0002448008840F480402249088010E02148DD
:101FD0000088C0F30D0020490C541E480088401CA6
:101FE0001C49088008460088C72801DD00200880B9
:101FF00010BD10B504464021144800F079FD21467B
:10200000124800F007FD00BF4021104800F070FDAD
:102010000028F9D0204610BD10B5044603E014F89E
:10202000010BFFF7E6FF20780028F8D1012010BD52
:1020300070B504460D4605E014F8010BFFF7D9FF13
:10204000681EC5B2002DF7D170BD000000380140F8
:1020500000080140440000205C000020094880473F
:1020600009480047FEE7FEE7FEE7FEE7FEE7FEE77A
:10207000FEE7FEE7FEE7FEE704480549054A064B92
:1020800070470000C30300083101000888010020E8
:1020900088070020880300208803002010B504462C
:1020A000CC48844208D10121042000F02DFB0021FE
:1020B000042000F029FB46E0C748844208D10121F2
:1020C000082000F021FB0021082000F01DFB3AE071
:1020D000C248844208D10121102000F015FB0021E4
:1020E000102000F011FB2EE0BD48844208D10121F0
:1020F000202000F009FB0021202000F005FB22E059
:10210000B848844208D10121402000F0FDFA0021A6
:10211000402000F0F9FA16E0B348844208D10121CA
:10212000802000F0F1FA0021802000F0EDFA0AE0B2
:10213000AE48844207D10121801500F0E5FA002164
:10214000A01500F0E1FA10BD10B50121084600F01D
:10215000DBFA0021012000F0D7FA10BD2DE9F04193
:10216000024600250026002000230024002791F8C5
:1021700003C00CF00F0591F803C00CF0100CBCF17B
:10218000000F03D091F802C04CEA050591F800C099
:10219000BCF1000F31D0146800202BE04FF0010C8F
:1021A0000CFA00F3B1F800C00CEA03069E4220D1FD
:1021B00083004FF00F0C0CFA03F7BC4305FA03FC45
:1021C0004CEA040491F803C0BCF1280F06D14FF08B
:1021D000010C0CFA00FCC2F814C00AE091F803C02C
:1021E000BCF1480F05D14FF0010C0CFA00FCC2F80D
:1021F00010C0401C0828D1D31460B1F800C0BCF155
:10220000FF0F34DD546800202EE000F1080C4FF081
:10221000010808FA0CF3B1F800C00CEA03069E426C
:1022200021D183004FF00F0C0CFA03F7BC4305FAE1
:1022300003FC4CEA040491F803C0BCF1280F05D15B
:1022400000F1080C08FA0CF8C2F8148091F803C0E9
:10225000BCF1480F07D100F1080C4FF0010808FA53
:102260000CF8C2F81080401C0828CED35460BDE89A
:10227000F0814FF6FF710180022181700421C1704D
:1022800070470246002093680B400BB1012000E02C
:10229000002070470146886880B2704702460020DF
:1022A000D3680B400BB1012000E0002070470146CD
:1022B000C86880B2704701617047416170470AB1D8
:1022C000016100E041617047C16070474FF48032A6
:1022D0000A43826181618261826982697047024634
:1022E0000020434B18684FF68073184040EA0210F4
:1022F00008433F4B186070473E49C8617047F0B5CE
:102300000A46002300240021002500F00046B6F113
:10231000004F02D1364EF16901E0354E7168C0F3CD
:10232000034583B200F44016B6F5401F08D121F0F2
:1023300070612F4E766826F070662D4F7E6012E039
:1023400000F48016B6F5801F06D1032606FA05F4C0
:10235000A14341F0706106E0460D360103FA06F62E
:10236000B14341F0706122B1460D360103FA06F621
:10237000314300F00046B6F1004F02D11C4EF1612E
:1023800001E01B4E7160F0BD30B500228B071C0FC1
:102390000F2303FA04F2164B08338C1053F8243041
:1023A0009343134C08348D1044F8253023468C1089
:1023B00053F824308C07240F00FA04F423430C4C08
:1023C00008348D1044F8253030BD0A49DC310860EE
:1023D0007047000000080140000C0140001001405F
:1023E0000014014000180140001C01400020014081
:1023F0000000014000002042DF48006840F001007A
:10240000DD49086008464068DC490840DA49486010
:1024100008460068DA490840D7490860084600685D
:1024200020F4802008600846406820F4FE004860E0
:102430004FF41F0088607047CF49096821F480314C
:10244000CD4A11601146096821F480211160B0F570
:10245000803F03D0B0F5802F0ED106E0C649096851
:1024600041F48031C44A116007E0C349096841F46E
:10247000A021C14A116000E000BF00BF704710B545
:1024800001460022002300204A11012A02D1BA4C41
:10249000236806E0022A02D1B74C236A01E0B64C59
:1024A000636A01F01F02012494401C400CB101201A
:1024B00000E0002010BD38B5002000900024002569
:1024C00000BF3120FFF7DBFF05460098401C00905D
:1024D0000098B0F5A06F01D0002DF2D03120FFF7A9
:1024E000CEFF08B1012400E00024204638BD01469B
:1024F0000020A14A106820F0F80040EAC1001060F6
:102500007047A04908607047024600209A4B5868FF
:1025100020F47C1042EA01031843974B586070473F
:1025200098490866704701460020934A506820F099
:1025300003000843506070478F48406800F00C006B
:102540007047014600208C4A506820F0F000084394
:102550005060704701460020874A506820F4E060D0
:1025600008435060704701460020834A506820F4B9
:10257000605040EAC1005060704729B17E4A527AEB
:1025800002437D4B5A7204E07B4A527A82437A4B73
:102590005A7270477B49D831086070470146002065
:1025A000754A506820F4404008435060704700214D
:1025B000714A20321170704A82F82010012802D02E
:1025C00004280AD104E001216B4A2032117005E091
:1025D0000521694A2032117000E000BF00BF70473A
:1025E0006949086070476449096A0143624A116297
:1025F0007047654944390860704730B500210022B2
:10260000002400235C4D6D6805F00C0121B1042904
:1026100005D0082923D105E05C4D056022E05B4D23
:1026200005601FE0544D6D6805F47012524D6D68E1
:1026300005F48034022505EB92421CB9544D5543F4
:1026400005600BE04C4D6D6805F400351DB1504D33
:102650005543056002E04D4D5543056002E04B4D8A
:10266000056000BF00BF444D6D6805F0F001090929
:10267000484D6B5C0568DD4045603F4D6D6805F475
:10268000E061090A434D6B5C4568DD4085603A4D69
:102690006D6805F46051C90A3E4D6B5C4568DD40CC
:1026A000C560354D6D6805F44041890B3A4D6B5C52
:1026B000C568B5FBF3F5056130BD29B12E4A5269F5
:1026C00002432D4B5A6104E02B4A526982432A4B44
:1026D0005A61704729B1284A92690243264B9A6190
:1026E00004E0254A92698243234B9A61704729B1DD
:1026F000214AD2690243204BDA6104E01E4AD269C2
:1027000082431D4BDA61704729B11B4AD2680243EC
:10271000194BDA6004E0184AD2688243164BDA603B
:10272000704729B1144A12690243134B1A6104E03D
:10273000114A12698243104B1A617047124940399D
:10274000086070470F49C86470470B49C8717047EB
:102750000948406A40F08070074948627047014666
:102760000020054A92680A400AB1012000E00020DA
:102770007047014988727047001002400000FFF85E
:10278000FFFFF6FE000042428004424200127A003F
:1027900000093D00460000205600002010B5044608
:1027A000FB48844209D101218803FFF7ADFF0021D6
:1027B0004FF48040FFF7A8FF32E0F648844209D189
:1027C00001214804FFF7ADFF00214FF40030FFF76F
:1027D000A8FF25E0F048844209D101218804FFF7D1
:1027E000A0FF00214FF48020FFF79BFF18E0EB488B
:1027F000844209D10121C804FFF793FF00214FF45F
:102800000020FFF78EFF0BE0E548844208D101214C
:102810000805FFF786FF00214FF48010FFF781FFC6
:1028200010BD2DE9F04786B005460E460024A246AD
:1028300000BFA1460027B08900B100BF2F462C8AF7
:102840004CF6FF700440F08804432C82AC894EF6AD
:10285000F3100440B0883189084371890843044368
:10286000AC81AC8A4FF6FF400440B0890443AC828F
:1028700001A8FFF7C2FEC648874202D1DDF810A0CA
:1028800001E0DDF80CA0A88900F4004040B10AEB9B
:10289000CA0000EB0A1031684900B0FBF1F807E00C
:1028A0000AEBCA0000EB0A1031688900B0FBF1F8AE
:1028B0006420B8FBF0F004012009642101FB1089B9
:1028C000A88900F4004040B1322000EBC900B0FB01
:1028D000F1F000F00700044308E0322000EB09109B
:1028E0006421B0FBF1F000F00F0004432C8106B02E
:1028F000BDE8F0874FF41651016000218180C1804E
:1029000001810C21418100218181704710B502466F
:102910000020108A4FF2FF0318400B884C88234395
:102920008C882343CC8823431843108210BD002198
:10293000018041808180C180704721B1828942F449
:102940000052828104E082894DF6FF731A40828131
:102950007047F0B50346002400260025002040F60D
:102960006A17B94200D100BF1846C1F3421401F002
:102970001F06012707FA06F5012C01D10C3004E0EF
:10298000022C01D1103000E014301AB107682F4337
:10299000076002E00768AF430760F0BD1AB1838AA1
:1029A0000B43838202E0838A8B4383827047028ACF
:1029B0004FF6F0731A400282028A0A43028270477D
:1029C00082894FF2FF731A40828182890A43828191
:1029D000704721B1828942F00202828104E082893B
:1029E0004FF6FD731A4082817047028A4FF6DF73FB
:1029F0001A400282028A0A430282704721B1028A87
:102A000042F48042028204E0028A4BF6FF731A40CD
:102A100002827047C1F308028280704701468888AD
:102A2000C0F308007047818941F00101818170473E
:102A3000028BD2B20283028B42EA012202837047E8
:102A4000028B02F47F420283028B0A4302837047A7
:102A500021B1828A42F02002828204E0828A4FF60B
:102A6000DF731A408282704721B1828A42F01002DD
:102A7000828204E0828A4FF6EF731A4082827047A6
:102A800021B1828A42F00802828204E0828A4FF6F3
:102A9000F7731A408282704721B1828942F4004262
:102AA000828103E08289C2F30E028281704721B1E4
:102AB000828A42F40062828204E0828A4FF2FF73CB
:102AC0001A4082827047828A4FF6FB731A408282D4
:102AD000828A0A438282704721B1828A42F00202CE
:102AE000828204E0828A4FF6FD731A408282704728
:102AF00002460020B1F5007F00D100BF13880B40D3
:102B00000BB1012000E00020704701F40072B2F523
:102B1000007F00D100BFCA430280704770B50246F3
:102B2000002400230025002040F66A16B14200D19F
:102B300000BFC1F3421501F01F03012606FA03F39B
:102B4000012D02D19689334006E0022D02D1168A6A
:102B5000334001E0968A33400C12012606FA04F451
:102B60001688344013B10CB1012000E0002070BD84
:102B700010B50022002340F66A14A14200D100BF24
:102B80000A1201249440A3B2DC43048010BD00006B
:102B9000003801400044004000480040004C004024
:102BA0000050004031490143314A1160704770B50F
:102BB000002100230F22C47804B32D4C246804F4B0
:102BC000E064C4F5E064210AC1F10403CA4044781A
:102BD00004FA03F18478144021430901254C067856
:102BE000A155047804F01F050124AC4005786D114F
:102BF000AD0005F1E025C5F8004109E0047804F0D6
:102C00001F050124AC401C4D0678761145F826407E
:102C100070BD1A4A0A400243154B1B1F1A607047C9
:102C200039B1134A121D12680243114B1B1D1A6061
:102C300006E00F4A121D126882430D4B1B1D1A60DD
:102C40007047042808D14FF0E021096941F00401E0
:102C50004FF0E022116107E04FF0E021096921F017
:102C600004014FF0E0221161704700000000FA05F6
:102C70000CED00E000E400E080E100E080FFFF1FD9
:102C800010B50446FE48844208D10121C014FFF764
:102C90003BFD0021E014FFF737FDC4E0B4F1804FA5
:102CA00008D101210846FFF73CFD00210120FFF774
:102CB00038FDB8E0F348844208D101210220FFF733
:102CC00030FD00210220FFF72CFDACE0EE488442ED
:102CD00008D101210420FFF724FD00210420FFF783
:102CE00020FDA0E0E948844208D101210820FFF737
:102CF00018FD00210820FFF714FD94E0E448844209
:102D000008D101211020FFF70CFD00211020FFF752
:102D100008FD88E0DF48844208D101212020FFF728
:102D200000FD00212020FFF7FCFC7CE0DA48844213
:102D300008D101214014FFF7E7FC00216014FFF7E0
:102D4000E3FC70E0D548844209D10121C804FFF7B3
:102D5000DBFC00214FF40020FFF7D6FC63E0D048F5
:102D6000844209D101210805FFF7CEFC00214FF470
:102D70008010FFF7C9FC56E0CA48844209D10121FE
:102D80004805FFF7C1FC00214FF40010FFF7BCFC21
:102D900049E0C548844208D101214020FFF7C1FC29
:102DA00000214020FFF7BDFC3DE0C048844208D12F
:102DB00001218020FFF7B5FC00218020FFF7B1FC46
:102DC00031E0BB48844208D101218015FFF7A9FCFE
:102DD0000021A015FFF7A5FC25E0B648844209D1E3
:102DE00001210804FFF790FC00214FF48030FFF729
:102DF0008BFC18E0B048844209D101214804FFF758
:102E000083FC00214FF40030FFF77EFC0BE0AB4861
:102E1000844208D101218804FFF776FC00214FF499
:102E20008020FFF771FC10BD00220288944B98426D
:102E30000ED0994B98420BD0B0F1804F08D0914BF7
:102E4000984205D0904B984202D0904B984204D1C2
:102E50004FF68F731A404B881A438D4B984207D018
:102E60008C4B984204D04FF6FF431A40CB881A434C
:102E700002808B8883850B880385814B98420BD019
:102E8000854B984208D08B4B984205D08A4B98428C
:102E900002D08A4B984201D10B7A038601238382A8
:102EA000704770B5002400220023058C4FF6FE7693
:102EB00035400584028C8388048B4FF68F752C4037
:102EC000B51E2C400D882C43751E2A400D892A43BF
:102ED0004D882A436A4DA8420BD06F4DA84208D0B6
:102EE000744DA84205D0744DA84202D0734DA8423B
:102EF00013D14FF6F7752A404D892A434FF6FB75DB
:102F00002A408D882A434FF6FF652B404FF6FF5528
:102F10002B408D892B43CD892B4383800483CD881F
:102F20008586028470BD70B5002400220023058CC4
:102F30004FF6EF7635400584028C8388048B48F683
:102F4000FF752C404FF6FF452C400D884FF6FF765D
:102F500006EA05252C434FF6DF752A400D8906EA5F
:102F600005152A434D8806EA05152A43444DA84213
:102F700002D0494DA8421DD14FF67F752A404D8998
:102F80004FF6FF7606EA05152A434FF6BF752A402D
:102F90008D8806EA05152A434FF6FF352B404FF280
:102FA000FF752B408D8906EA85052B43CD8906EAFE
:102FB00085052B4383800483CD880587028470BDFB
:102FC00070B5002400220023058C4FF6FF663540C3
:102FD0000584028C8388848B4FF68F752C404FF6C6
:102FE000FC752C400D882C434FF6FF552A400D8967
:102FF0004FF6FF7606EA05252A434D8806EA0525A1
:103000002A431F4DA84202D0234DA8421DD14FF2A2
:10301000FF752A404D894FF6FF7606EA05252A43BB
:103020004FF6FF352A408D8806EA05252A434EF6DD
:10303000FF752B404DF6FF752B408D8906EA05156F
:103040002B43CD8906EA05152B4383808483CD88E5
:103050008587028470BD70B5002200230024058C92
:103060004EF6FF7635400584038C8488828B48F6C3
:10307000FF752A404FF6FF452A400D8820E00000EA
:10308000002C01400004004000080040000C0040FB
:10309000001000400014004000340140004C01408A
:1030A000005001400054014000180040001C004046
:1030B0000020004000400140004401400048014021
:1030C0004FF6FF7606EA05252A434DF6FF752B409D
:1030D0000D8906EA05352B434D8806EA05352B4355
:1030E000FA4DA84202D0FA4DA84208D14BF6FF751E
:1030F0002C408D894FF6FF7606EA85152C43848097
:103100008283CD88A0F84050038470BD828B4FF23B
:10311000FF331A408283828B4FF6FF7303EA012349
:103120001A4382837047F0B50C46154600220021F1
:103130000026078C4EF6FF7C07EA0C070784828B7B
:10314000018C4FF6FF7707EA043640F6FF473A4016
:103150004FF6FF7707EA05273A434FF6FF7707EA6E
:1031600003373A43D94FB8420ED0D94FB8420BD0AB
:10317000B0F1804F08D0D74FB84205D0D64FB842F3
:1031800002D0D64FB84206D14DF6FF77394046F40B
:103190008057394305E047F6FF57394044F48057DC
:1031A000394382830184F0BD828B4FF6F3731A405A
:1031B0008283828B0A4382837047F0B50C461546A2
:1031C000002200210026078C4FF6FF6C07EA0C074F
:1031D0000784828B018C4FF6FF7707EA04264FF6AF
:1031E0000C773A404FF6FF7707EA03172F433A432D
:1031F000B64FB8420ED0B64FB8420BD0B0F1804FA8
:1032000008D0B44FB84205D0B34FB84202D0B34F44
:10321000B84206D14FF6FF57394046F4807739431C
:1032200005E04FF2FF57394044F4807739438283F9
:103230000184F0BD028B4FF2FF331A400283028BF0
:103240004FF6FF7303EA01231A4302837047F0B578
:103250000C461546002200210026078C4FF6EF7C15
:1032600007EA0C070784028B018C4FF6FF7707EA09
:10327000041640F6FF473A404FF6FF7707EA033758
:103280003A434FF6FF7707EA05273A438F4FB84294
:103290000ED08F4FB8420BD0B0F1804F08D08D4F79
:1032A000B84205D08C4FB84202D08C4FB84206D1FC
:1032B0004FF6DF77394046F01007394305E04FF607
:1032C0005F77394044F01007394302830184F0BD31
:1032D000028B4FF6F3731A400283028B0A43028378
:1032E0007047F0B50C46154600220021068C4FF6BB
:1032F000FE773E400684028B018C4FF60C763240FE
:103300007E1C06EA03162E433243704EB0420ED0A6
:103310006F4EB0420BD0B0F1804F08D06D4EB0422E
:1033200005D06D4EB04202D06C4EB04206D14FF681
:10333000FD76314044F00106314305E04FF6F57665
:10334000314044F00106314302830184F0BD70B581
:1033500005460C465D4885420ED05D4885420BD03F
:10336000B5F1804F08D05B48854205D05A48854268
:1033700002D05A48854200D100E000BF208850B9F1
:103380002389A28861882846FFF7ABFFE188284699
:10339000FFF79EFF25E0208804280AD12389A28810
:1033A00061882846FFF753FFE1882846FFF742FF70
:1033B00017E0208808280AD12389A2886188284636
:1033C000FFF7FBFEE1882846FFF7EEFE09E02389C0
:1033D000A28861882846FFF7A6FEE1882846FFF705
:1033E00095FE70BD2DE9F04105460C4600260127EB
:1033F000608808B9022600E00026A088012801D1D3
:10340000022700E001272088A0B92389A2886188CB
:103410002846FFF766FFE1882846FFF759FF238912
:103420003A4631462846FFF712FFE1882846FFF763
:1034300001FF13E02389A28861882846FFF707FF70
:10344000E1882846FFF7F6FE23893A4631462846AA
:10345000FFF747FFE1882846FFF73AFFBDE8F08114
:103460000A884B881A438B881A43CB881A430B89E6
:103470001A434B891A438B891A43A0F8442070479A
:103480004FF6FF71818000210180C180418001726F
:1034900070470021018041808180C180018141818C
:1034A0008181C1817047002101804180012181809B
:1034B0000021C1800181704700210180418081800D
:1034C000C18001814181818170470000002C014051
:1034D000003401400004004000080040000C00409F
:1034E00021B1028842F00102028004E002884FF616
:1034F000FE731A400280704731B1B0F8442042F4A4
:103500000042A0F8442005E0B0F84420C2F30E02C7
:10351000A0F8442070471AB183890B43838102E0ED
:1035200083898B43838170478182704741EA02031C
:10353000A0F8483070471AB183890B43838102E0B9
:1035400083898B438381704701894FF6F87211405C
:10355000018170470A46002101894FF68F73194097
:1035600011430181704730B504460D462946204677
:10357000FFF7F0FF208940F00700208130BD2DE9E2
:10358000F04104460D4616461F46602D06D13B46C7
:10359000012231462046FFF75AFE05E03B46012254
:1035A00031462046FFF79DFE29462046FFF7D2FF11
:1035B000208940F007002081BDE8F08130B50C463D
:1035C00000210189C9B24FF6FF7505EA03251543AD
:1035D00025432943018130BD2DE9F04105460E46C2
:1035E00017469846002443463A4631462846FFF798
:1035F000E5FF2C894FF6F870044044F007044FF6BD
:103600008F70044044F070042C81BDE8F081F0B567
:1036100004460D4616461F463B463246294620467E
:10362000FFF7CCFF208940F480402081F0BD018568
:10363000828270470A46002101884FF68F73194035
:10364000114301807047F0B50C4615461E46002117
:10365000002200230189028B038C4FF6F877394052
:1036600021434FF6FC473A4040F201173A434FF6E8
:10367000DD773B404FF6FF7707EA06172F433B43C2
:10368000018102830384F0BD0A460021018B4FF6BD
:103690008F7319401143018370470A460021018B43
:1036A00048F6FF7319404FF6FF7303EA02231943EC
:1036B000018370470A460021818B4FF68F731940B2
:1036C0001143818370470A460021818B48F6FF73BE
:1036D00019404FF6FF7303EA0223194381837047B1
:1036E00021B1028842F08002028004E002884FF695
:1036F0007F731A400280704721B1828842F0040231
:10370000828004E082884FF6FB731A408280704703
:1037100021B1828842F00802828004E082884FF65C
:10372000F7731A408280704721B1828842F001020B
:10373000828004E082884FF6FE731A4082807047D0
:103740000A460021018B4FF6F7731940114301839C
:1037500070470A460021018B4FF2FF7319404FF664
:10376000FF7303EA02231943018370470A460021CD
:10377000818B4FF6F77319401143818370470A46D6
:103780000021818B4FF2FF7319404FF6FF7303EA5C
:1037900002231943818370470A460021018B4FF6AB
:1037A000FB7319401143018370470A460021018BC6
:1037B0004FF6FF3319404FF6FF7303EA0223194314
:1037C000018370470A460021818B4FF6FB73194035
:1037D0001143818370470A460021818B4FF6FF33E6
:1037E00019404FF6FF7303EA0223194381837047A0
:1037F0000A460021018B4FF67F7319401143018364
:1038000070470A460021018BC1F30E014FF6FF738A
:1038100003EA02231943018370470A460021818B82
:103820004FF67F7319401143818370470A46002188
:10383000818BC1F30E014FF6FF7303EA0223194394
:10384000818370470A460021018C4FF6FD731940B1
:103850001143018470470A460021018C4FF6F7732B
:1038600019401143018470470A460021018C4FF62C
:10387000DF7319404FF6FF7303EA02131943018403
:1038800070470A460021018C4FF67F7319404FF6AE
:10389000FF7303EA02131943018470470A460021AB
:1038A000018C4FF6FF5319404FF6FF7303EA0223D2
:1038B0001943018470470A460021018C4FF2FF73BF
:1038C00019404FF6FF7303EA02231943018470473E
:1038D0000A460021018C4DF6FF7319404FF6FF7325
:1038E00003EA023319430184704730B500230124F1
:1038F0008C40A3B2048C9C430484048C02FA01F52E
:10390000ADB22C43048430BD30B5002304248C4078
:10391000A3B2048C9C430484048C02FA01F5ADB27A
:103920002C43048430BD70B50346002000241846A3
:10393000183001258D40ACB21D8CA5431D8409B102
:10394000082909D100EB6100056825F070050560C4
:103950000568154305600EE00D1FC5F34E052844AC
:10396000056825F4E045056005684FF6FF7606EA30
:1039700002263543056070BD21B1028842F0020283
:10398000028004E002884FF6FD731A4002807047FF
:1039900021B1028842F00402028004E002884FF65E
:1039A000FB731A400280704721B1828842F0800286
:1039B000828004E082884FF67F731A4082807047CD
:1039C00002884FF6F7731A40028002880A43028089
:1039D000704782884FF68F731A40828082880A432C
:1039E0008280704702894FF6F8731A40028102897B
:1039F0000A430281704702894FF67F731A400281A1
:103A000002890A430281704781847047818570472B
:103A1000818670470187704781877047A0F8401002
:103A2000704702884FF6FF431A40028002880A431B
:103A3000028070470146888E70470146088F7047A4
:103A40000146888F70470146B1F840007047014633
:103A5000888C70470146088D704702460020138A03
:103A60000B400BB1012000E000207047CA430282E6
:103A7000704730B50246002000230024158A05EA6D
:103A80000103958905EA010413B10CB1012000E09E
:103A9000002030BDCA4302827047000010B50446C2
:103AA000BE48844208D101218014FEF72DFE00217A
:103AB000A014FEF729FE16E0B948844208D101217E
:103AC0000014FEF72EFE00212014FEF72AFE0AE065
:103AD000B448844207D10121C013FEF722FE002121
:103AE000E013FEF71EFE10BD10B50022028802F49E
:103AF00041520B884C8823438C882343CC88234332
:103B00000C8923434C8923438C892343CC89234349
:103B10001A430280838B4FF2FF74234083830B8A06
:103B2000038210BD2DE9F04F85B005460C464FF0DD
:103B3000000902274FF000084FF0010B0026B246A3
:103B4000A88B4FF240010840A88302202884B5F8D2
:103B50001C90A068022801D100BF38E0A08810B9ED
:103B60004FF0010B01E04FF0020B8D48854200D170
:103B700000E000BF6846FEF740FDDDF800A0E088E9
:103B8000B0F5007F0AD14FEA1A2000EB8000400018
:103B9000A168B0FBF1F0401D86B20BE04FEA4B107C
:103BA000BAFBF0F000EB80004000A168B0FBF1F040
:103BB000401D86B20A20B6FBF0F606F00108A6EB1F
:103BC0000800C0F34F074FF6FF7000EA0828022FE5
:103BD00001DBFF2F02DD02274FF00008E08840EAFA
:103BE000080038432884A088A189084361880843D5
:103BF0002188084340F4006040EA0909A5F81C90B8
:103C000005B0BDE8F08F0021018041808180C18036
:103C1000018141818181C181072101827047002199
:103C2000018041808180C1800221816000218181E9
:103C3000704721B1028842F04002028004E002880D
:103C40004FF6BF731A400280704721B1828B42F455
:103C50008062828304E0828B4FF6FF331A408283B6
:103C6000704730B5002400230C110125A540ABB2EC
:103C70001AB185881D43858002E085889D43858033
:103C800030BD1AB183880B43838002E083888B4365
:103C900083807047818170470146888970474FF65D
:103CA000FF62914204D0028842F48072028004E0F4
:103CB00002884FF6FF631A400280704721B1828864
:103CC00042F00402828004E082884FF6FB731A40BF
:103CD0008280704702884FF2FF731A400280028888
:103CE0000A4302807047018841F480510180704787
:103CF00021B1028842F40052028004E002884DF6AD
:103D0000FF731A400280704702460020012901D04B
:103D1000108B00E0908A70470146088A7047B1F521
:103D2000804F04D1028842F48042028004E002887D
:103D30004BF6FF731A400280704702460020138939
:103D40000B400BB1012000E000207047CA43028104
:103D50007047F0B50246002000240023002501F042
:103D60000F070126BE40B4B20B1101269E40B3B22C
:103D7000968806EA03051689264016B10DB1012082
:103D800000E00020F0BD10B5002201F00F04012377
:103D9000A3409AB2D343038110BD0000003001401C
:103DA00000380040003C0040002044490860091DE4
:103DB0000860091D0860091D086041483F49143129
:103DC0000860704700213D498279002A3AD00A46AE
:103DD000126803689A430B461A600A1D126803684A
:103DE0009A430B1D1A60027911440A6803681A434A
:103DF0000A60324A0832126803689A432F4B08332C
:103E00001A601A1D126803689A432C4B0C331A600F
:103E10004279102A0ED11A1F126803681A43274BE1
:103E200008331A601A1D126803681A43234B0C33B7
:103E30001A600DE02149427911440A6803681A4367
:103E40000A6005E0027911440A6803689A430A602F
:103E500070470021016001710C21417100218171C5
:103E600070471649103109680143144A1032116035
:103E7000704701460020114A143212680A400AB104
:103E8000012000E0002070470C49143108607047A1
:103E9000014600200022094B1B6803EA0102074B80
:103EA00014331B680B4013B10AB1012000E000205D
:103EB0007047024914310860704700000004014057
:103EC000FFFF0F00704700000FB4044910B503AAAC
:103ED000029800F0D3F810BC5DF814FB40000020FD
:103EE0002DE9F0410E460446002020622046E1689C
:103EF000884730B3252805D0D4E901219047206AAE
:103F0000401CF2E7E168204600278847050018D0EA
:103F1000A5F14100192802D820354FF40067324638
:103F2000294620462760FCF73DF940B1012804D01E
:103F3000F61D26F007060836D8E7361DD6E72846D0
:103F4000DAE7206ABDE8F0812DE9F0410646002459
:103F500010687529314616A510D0AFF300800028EF
:103F600002DA404213A507E031688A0701D512A59D
:103F700002E0490704D511A5012401E0AFF3008058
:103F800000210A2206F1240709E0B0FBF2FCB0FB95
:103F9000F2F302FB1C00303078541846491C00280C
:103FA000F3D123462A463046BDE8F04100F00CB874
:103FB000000000002D0000002B0000002000000089
:103FC00070477047704770472DE9F0470D46994696
:103FD0009246044600F124080168880604D5E06989
:103FE00021F01001216000E00120A84201DD471B03
:103FF00000E00027A1697A1902EB0900081AA06104
:104000002078C00602D42046AFF30080002608E0E6
:10401000D4E901211AF806009047206A401C761C5A
:1040200020624E45F4DB2078C0060AD52046AFF367
:10403000008006E0D4E9012130209047206A401C2E
:104040002062381EA7F10107F4DC07E0D4E9012162
:1040500018F805009047206A401C2062281EA5F130
:104060000105F3DC2046AFF300802078000602D57E
:104070000220BDE8F0870120FBE70000074B70B588
:104080000D467B4400F011F80446284600F020F865
:1040900010B14FF0FF3070BD204670BD3DDEFFFF18
:1040A00001694A1C02610878704700B58FB0CDE9FC
:1040B00001310021059105497944CDE903101146EC
:1040C0006846FFF70DFF0FB000BD0000E5FFFFFFE2
:1040D000007B00F080007047754600F02BF8AE467C
:1040E00005006946534620F00700854618B020B504
:1040F000FDF7C2FFBDE820404FF000064FF000077B
:104100004FF000084FF0000B21F00701AC46ACE87F
:10411000C009ACE8C009ACE8C009ACE8C0098D46EC
:10412000704710B50446AFF300802046BDE810404C
:10413000FCF74AB800487047240100204FEA1153A9
:10414000A3F58063D3F11E03A8BFD3F1200C08DBD5
:104150004FF0004242EAC12252EA505232FA03F0D2
:10416000704709420BD4102BC4BF0020704703F5E1
:10417000787CBCF1FF3F05D04FF0FF3070474FF027
:104180000000704770B500F0C3F800BF499224806A
:1041900000207047F0E7B0FA80F310FA03F10AD07C
:1041A000C3F11D0303F580634FEA41504FEA035208
:1041B00002EBD12170474FF000007047DFF848C193
:1041C00070B51CEA111E1EBF1CEA13159EEA0C0FE7
:1041D00095EA0C0F00F06F8081EA030423EA4C1388
:1041E0004EEAD47E21EA4C1141F4801143F480134D
:1041F000AE44A1FB024CA0FB0365AEF17F7E3619F5
:1042000055EB0C05A1FB034C4CF10003A0FB021C79
:1042100016EB0C06654153F10003094218BF46F046
:10422000010613F4007F0BD14FEA03314FEA05304A
:10423000340341EA155140EA16506FF003020AE0D8
:104240004FEAC3214FEAC520F40241EA555140EA42
:1042500056506FF0020202EB2E4201EB025585EA46
:10426000CE710AD05FEA440C18BF24F0004450F12C
:10427000000041F1000120EAD47040F2FE7C62456A
:1042800000D270BDA84214BF4FF080444FF04044AC
:10429000002E08BF0024BEF1806FA8BFA1F1C0416D
:1042A000BDE8704080F282804FF0000001F1C04113
:1042B00001F0004170479EEA0C0F0CEA131518BF7D
:1042C00095EA0C0F06D04FF0000081EA030E0EF0C5
:1042D000004170BD00F01CF88900013E00F007B8F5
:1042E00000F009B84FEA430C5FEA5C5C08D081EA51
:1042F000030100F05BB84FEA410C5FEA5C5CF6D169
:104300004FF00000014970470000FF070000F87FF0
:104310000EF1020E2EF0030E5EF8046B364205D449
:10432000012A43EB030515F5001F12D8012841EBC4
:10433000010C1CF5001F0CD80ED14FEAD17C15F5ED
:10434000001F0CEB4C0C0CF1020C08BF4CEBD37CA7
:1043500004E04FF0080C01E04FEAD37C0CEB4C0575
:1043600026FA05F606F00706B6F1040C06D20EEBA7
:10437000860CBDE870404CF0010C6047DFE80CF0A3
:10438000090B02024FF000414FF00000A1F500219F
:1043900070BD19461046012851EB010418BFD4F531
:1043A000001484BF002001F0004170BD0808A0F592
:1043B00000114FEA3101704741000B0ED3F19E020C
:1043C00008D950F400034FEA032323FA02F048BF50
:1043D0004042704710B500F0C0F800BF49922480F9
:1043E000002070476FF0004282EA20007047000012
:1043F000C10DD1F19E0206DB4FEA002343F00043DA
:1044000023FA02F07047004207D54FEA4001B1F1AC
:10441000FE4F02D24FF00000704710B500F09DF83B
:1044200049922480002070476FEA20007047000006
:10443000B0FA80F310FA03F2C3F19D030AD0D90554
:1044400001EB1220530638BF704700F1010008BF8E
:1044500020F00100704700004FF47F0C1CEAD012DE
:104460001EBF1CEAD11392EA0C0F93EA0C0F00F066
:10447000478090EA010F48BF42F480724FF0004C31
:104480004CEA00204CEA012102EB0302A0FB0113DD
:10449000A2F50002002918BF43F001035B0028BF0A
:1044A0004FEA330342EB22425FEA132C4CEBC2503B
:1044B0002EBFBCEB436FB2F57C0F70474FEA036C25
:1044C000BCF1004F08BF20F00100B2F57C0F38BFEF
:1044D00070470BD582F0FF0212F5803FC8BF7047CE
:1044E00000F1C040D8BF00F00040704700F5000C5C
:1044F0005FEA4C0C48BF7047B0F1C04000F073B8A1
:1045000090EA010F0CEAD11348BF42F48072624571
:1045100038BF634504D280EA010000F000407047D4
:1045200010B500F01AF800BF8900013E00F007B88E
:1045300000F009B85FEA410C5FEA1C6C08D080EA21
:10454000010000F050B85FEA400C5FEA1C6CF6D145
:104550004FF00040A0F5800070470EF1020E2EF0E3
:10456000030E5EF8044B244204D44FEA4102B2F138
:104570007F4F11D84FEA4003B3F17F4F0CD80ED1D3
:104580004FEAD07CB2F17F4F0CEB4C0C0CF1020CDB
:1045900008BF4CEBD17C04E04FF0080C01E04FEA7F
:1045A000D17C0CEB4C0324FA03F404F00704B4F1BF
:1045B000040C06D20EEB840CBDE810404CF0010C4C
:1045C0006047DFE80CF0070802024FF00040A0F55A
:1045D000800010BD0846420018BFD2F1807288BF2B
:1045E00000F0004010BDFF2141EAD050C0057047E7
:1045F0003443101005344310100528204605234489
:104600000827410B29000000284600080000002070
:104610005C0000006C010008844600085C0000207B
:104620002C070000880100080000000000A24A04D6
:104630000000000000000000010203040607080952
:104640000000000101010100000000000000803FA7
:10465000000000400000E03F0000000000000000FB
:10466000000000000000000000000000000000004A
:104670000000010203040102030406070809020402
:044680000608000028
:0400000508000131BD
:00000001FF
