:0E01DC007FC47E091201EA12022B7FC47E0945
:1001EA00EF1FAA0670011E4A600BE4FDEDC3947965
:0501FA0050EE0D80F73E
:0101FF0022DD
:10020000E4F509750A01F508758901758CFF758A91
:0C0210009CD2AFD2A9D28CD290D2912205
:03000B00020141AE
:10014100C0E0C0D0050E050FE50ED3950C5004D2CA
:10015100908002C290E50EB42805B290750E00E5BC
:100161000FD3950D5004D2918002C291E50FB428AE
:1001710005B291750F00758CFF758A9CD0D0D0E0C7
:01018100324B
:0F021C00750C14750D14C2A0D2A1C2A3D2A222D8
:0F022B00750C1E750D1ED2A0C2A1C2A3D2A222B5
:0F023A00750C1E750D1EC2A0D2A1D2A3C2A222A6
:0F024900D2A0C2A1D2A3C2A2750C14750D1422AB
:0E025800C2A0C2A1C2A3C2A2E4F50CF50D2201
:10000E00E580B4FF05750B018003E4F50BE50B608D
:10001E0003020140AF80EF1201B600B6000091015D
:10002E0000890200990300810400A1060061080006
:10003E00A90C005F10006318006F2000753000716E
:10004E00400077600073800079C000B1FF000000AF
:10005E00BF80028000E4F509F508750A01F50B80F2
:10006E005080088006800480028000E4F50975083F
:10007E0001803A750901E4F5088032750901E4F54D
:10008E0008802A750901E4F5088022750901E4F556
:10009E0008801A750901E4F5088012750901E4F566
:1000AE0008800A750B018009E4F509F508F50AF5D3
:1000BE000BE50B600D1202587F887E131201EA02C7
:1000CE00001BD28CE509B40105751001803AE508D4
:1000DE00B401057510028030E50A70047F018002BC
:1000EE007F00E50970047E0180027E00EE5FFFE571
:1000FE000870047E0180027E00EE5F6008751003BA
:10010E00E4F50B8003E4F510E5101460131460168B
:10011E001460192403600302001B12021C02001B50
:10012E0012023A02001B12022B02001B120249029B
:02013E00001BA4
:01014000229C
:1001820012020012000E1201DC12000E1201E6121F
:10019200023A1201E61201E612000E1201DC12000E
:1001A2000E1201E612023A1201E612000E7FC47E1E
:0401B200090201EA53
:0300000002026693
:0C026600787FE4F6D8FD7581100201825B
:1001B600D083D082F8E4937012740193700DA3A3D8
:1001C60093F8740193F5828883E4737402936860EC
:0601D600EFA3A3A380DFEC
:00000001FF
