:020000040000FA
:0600000025EF04F01200E0
:020006001200E6
:0600080072EF01F012008E
:02000E000100EF
:0C00100098080000000E00002500000011
:04001C00F26A9D6A7D
:10002000A06AA36AB66A766AFC0E9314936EE30E16
:100030009414946E12009B8C8F0ED3147009D36E9F
:100040001200D9CFE6FFE1CFD9FF020EE126DE6A2A
:10005000DD6AFC0EDB50000810E2FD0EDBCFE9FF8D
:10006000DB2AFE0EDBCFEAFF01E3DB2AEF50DE26C0
:10007000000EDD22FC0EDB06ECD7DECF00F0DDCF7C
:1000800001F000C0F3FF01C0F4FF020EE15C03E2E7
:1000900000D0E16AE552E16EE552E7CFD9FF1200E8
:1000A000D9CFE6FFE1CFD9FF040EE126E66E79EC69
:1000B00003F0E552F3CFDEFFF4CFDDFFE66A79EC23
:1000C00003F0E552020EF3CFDBFF030EF4CFDBFFAC
:1000D000D9CFE9FFDACFEAFF4C0ED880EE54040EF8
:1000E000ED5422E2D950020FE96EDACFEAFF4C0E4E
:1000F000D880EE54040EED5417E2DECF00F0DDCFD1
:1001000001F0AC0E005C0D0E01580DE2020EDBCFCB
:1001100002F0030EDBCF03F0AC0E025C0D0E0358B1
:1001200002E2010E03D002D0000E00D0006E040ED9
:10013000E15C02E2E16AE552E16E0050E552E7CF90
:10014000D9FF1200D9CFE6FFE1CFD9FF070EE12694
:10015000DE6ADD6A020EDB6A030EDB6A040EDB6A0E
:10016000050EDB6A060EDB6A9BDFE76E060EE7CF45
:10017000DBFF140E0E01235D01E085D0060EDB507F
:1001800001E181D0236B220501E07DD0226B1D0EA1
:10019000E66E000EE66E0E0EE66E53DFE552E55299
:1001A000E552F3CFDEFFF4CFDDFF420E0E01005D1E
:1001B00069E14D0E015D66E11E51006E016ADECF00
:1001C00002F0DDCF03F0080E0F0B05E0D8900332EC
:1001D0000232E806FBE10250001802E10350011868
:1001E00051E10E011F51046E056ADECF06F0DDCF2E
:1001F00007F00001076A0650041802E107500518CD
:1002000041E10E01212B21511D0801E2216B065114
:10021000026E036A02C003F0026A07510001022461
:10022000006E000E0320016E020E00C0DBFF030E05
:1002300001C0DBFF0E010851026E036A02C003F029
:10024000026A095100010224006E000E0320016EB3
:10025000040E00C0DBFF050E01C0DBFF21CEE6FF70
:10026000020EDBCFE6FF030EDBCFE6FF040EDBCF93
:10027000E6FF050EDBCFE6FF68EC02F0006E050E30
:10028000E15E0050AB88070EE15C02E2E16AE552F4
:10029000E16EE552E7CFD9FF1200D9CFE6FFE1CFFB
:1002A000D9FF020EE126BADEF0EC01F0B0EC03F06B
:1002B000C6EC03F033EC04F06DEC03F0D08EC00E0E
:1002C000F210F26E82868192828882843BDFFED7B2
:1002D000020EE15C02E2E16AE552E16EE552E7CF2F
:1002E000D9FF1200DACFE4FFE2CFDAFFE9CFE4FF73
:1002F000EACFE4FFF6CFE4FFF7CFE4FFF5CFE4FF6A
:10030000F3CFE4FFF4CFE4FFFACFE4FF00EE08F010
:10031000020EE80403E3EECFE4FFFBD700EE00F0AB
:10032000080EE80403E3EECFE4FFFBD7E65277A024
:1003300006D0010E0E01336F346B7790609EF2A4ED
:100340000BD0F2940E01232B130EE66E3D0EE66EDB
:10035000DDEC03F0E552E5529EAA1CD09E9A0E01F8
:100360002051202BEA6A000FE96E0E0EEA22AECF72
:10037000EFFF420E005D03E1010E246F01D0200764
:10038000245108E020511F0805E2206B010E226F66
:10039000246BAB98A4AA00D0E55200EE07F0080E3B
:1003A000E80403E3E5CFEDFFFBD700EE09F0020E12
:1003B000E80403E3E5CFEDFFFBD7E5CFFAFFE5CF98
:1003C000F4FFE5CFF3FFE5CFF5FFE5CFF7FFE5CF8E
:1003D000F6FFE5CFEAFFE5CFE9FFE5CFDAFF110051
:1003E0000E01BF0E2F6F600E306F800E9310BF0B8B
:1003F000936E800E6F6E6E50E00BE842E842E8426A
:10040000E842E842040801E0F6D7726A210E706EF5
:100410000E01436B980E446F410E456F7D6B200EAD
:10042000606E0F01306B2FCE62FFE00E0E013015B3
:10043000616E080E656E666A676A686A696A6A6AEA
:100440006B6A6C6A6D6A0E01F869E00EF96F010E55
:10045000466FBF0EE06F600EE16F6F6A6E50E00B8B
:10046000E842E842E842E842E842000901E1F6D702
:10047000776A7650766E7850786E7790769078803E
:10048000609E76801200D9CFE6FFE1CFD9FFF70E4C
:100490000F012015206FBC0E216F400E226F080E39
:1004A000256FFE0EDBCF26FFFD0EDBCF27FFFC0EF8
:1004B000DBCF28FFFB0EDBCF29FF2A6B2B6B2C6BCE
:1004C0002D6B208720B7FED7E552E7CFD9FF12006A
:1004D000D9CFE6FFE1CFD9FFF70E0F012015206F2E
:1004E000BC0E216F400E226F080E256F2669FA0E92
:1004F000DB50E8243E0B276FFB0EDBCF02F0FC0E37
:10050000DBCF03F0060ED89002360336E804FBE199
:10051000C00E0216000E03160F0127510001021033
:10052000006E03C001F000C027FFFB0EDBCF00F020
:10053000FC0EDBCF01F0D89001320032D8900132AE
:10054000003200500F01266FFD0EDBCF00F0FE0ED3
:10055000DBCF01F0070ED89000360136E804FBE14E
:10056000800E00140F01296FFD0EDBCF00F0FE0E90
:10057000DBCF01F0D890013200320050286FFD0E21
:10058000DBCF00F0FE0EDBCF01F001C000F0016A0E
:10059000D8900032010E001427132A6B2B6B2C6BA2
:1005A0002D6B208720B7FED7E552E7CFD9FF120089
:1005B000D9CFE6FFE1CFD9FFF70E0F012015206F4D
:1005C000BC0E216F400E226F080E256FFE0EDB5011
:1005D000400DF350C00B266FFD0EDB40E8403F0B93
:1005E0003F0B2613FD0EDB50400DF350C00B276F61
:1005F000FA0EDB50E8243E0B2713FC0EDB407F0B8A
:10060000010B2713FC0EDB50800DF350800B286F7D
:10061000FB0EDB407F0B7F0B2813FB0EDB50800DA6
:10062000F350800B296F2A6B2B6B2C6B2D6B208763
:0C06300020B7FED7E552E7CFD9FF12003B
:04063C000E0EF66E3A
:10064000000EF76E000EF86E0E010900F5502A6FCD
:100650000900F5502B6F03E12A6701D03DD0090056
:10066000F550256F0900F550266F0900F550276FEA
:1006700009000900F550E96E0900F550EA6E09001D
:1006800009000900F550286F0900F550296F09008D
:100690000900F6CF2CFEF7CF2DFEF8CF2EFE25CE8B
:1006A000F6FF26CEF7FF27CEF8FF0E01285302E112
:1006B000295307E00900F550EE6E2807F8E22907F4
:1006C000F9D72CCEF6FF2DCEF7FF2ECEF8FF0E0178
:0A06D0002A07000E2B5BBFD71200B3
:0606DA000F01589BC26AEB
:1006E000300EC16EA00EC06E9E9C9D9C9268806A6A
:1006F0001200D9CFE6FFE1CFD9FF020EE126FE0EB0
:10070000DB50C26EC280050EE66E41EC04F0E5528D
:10071000C282C2B2FED7C450026E036A02C003F0A6
:10072000026AC35000010224006E000E0320016E15
:1007300000C0DEFF01C0DDFFC290DECF00F0DDCFE4
:1007400001F000C0F3FF01C0F4FF020EE15C03E220
:1007500000D0E16AE552E16EE552E7CFD9FF120021
:10076000040EAC6E900EAB6E800E9410946EBF0EA5
:100770009414946E080EA76E7D6ACF0EAF6E9E6ABB
:10078000200E9D109D6E9F8AAB881200040EBA6EDB
:10079000900EA66E800E9310936EBF0E9314936E00
:1007A000080EB96E7C6ACF0E7B6EA46A200EA31071
:0A07B000A36EA58AA688BA8A12007B
:0607BA00D9CFE6FFDACF03
:1007C000E6FFE1CFD9FFE2CFDAFFE652E652FC0EB8
:1007D000DBCFDEFFDBCFDDFF010EDB50D76EDF505E
:1007E000D66EE552E552E552E5CFDAFFE7CFD9FF05
:0207F0001200F5
:0E07F200D9CFE6FFDACFE6FFE1CFD9FFE2CFA5
:10080000DAFFFD0EDB507F0BD56ED76AD66AF29405
:10081000FD0EDBAE02D0F28A01D0F29AD58EE552FF
:0A082000E5CFDAFFE7CFD9FF1200A1
:06082A00410EF36E00EE2A
:1008300000F00E0E01D81200EA6002D0EE6AFCD77A
:0A084000F350E9601200EE6AFCD7E5
:06084A001DEE00F02DEE92
:1008500000F0F86A099C1EEC03F003EC00F04DEC8C
:0608600001F0FBD71200BD
:0A086600900EE66EF9EC03F0E55287
:10087000130EE66E3D0EE66EDDEC03F0E552E5523A
:02088000120064
:0E088200FF0EE350E84E1200000000D000D040
:0808900000D0E82EFAD7120097
:08089800000000000000000058
:1008A0000000000000000000000000000000000048
:0D08B000000000000000000000000000003B
:020000040030CA
:0100000011EE
:01000100C33B
:0100020027D6
:010003002CD0
:010005008971
:010006009069
:010008000FE8
:01000900C036
:01000A000FE6
:01000B00E014
:01000C000FE4
:01000D0040B2
:00000001FF
