:020000040000FA
:0600000043EF14F01200B2
:020006001200E6
:060008004FEF08F01200AA
:02000E000100EF
:0C001000BE2800006A0200004901000048
:04001C009B9C120097
:100020000F015893AA6A060ECD6ED08E9D809F80D8
:10003000F28ECD801200F28CF2860F015A8B1200E4
:100040009268FD0E936E270E946E806A816A826AB2
:1000500012009B8C8F0ED3147009D36E1200000116
:10006000BF0E646F0001800E656F9410BF0B946E1D
:10007000800E6F6E6E50E00BE842E842E842E842C4
:10008000E842040801E0F6D7726A210E706E0E0194
:10009000436B980E446F410E456F7D6B200E606E72
:1000A0000F01306B64C062FFE00E00016515616EE8
:1000B000080E656E666A676A686A696A6A6A6B6A68
:1000C0006C6A6D6A0E01F869E00EF96F010E466FF9
:1000D00064C0E0FEE00E000165150E01E16F6F6A7D
:1000E0006E50E00BE842E842E842E842E84200098C
:1000F00001E1F6D7776A7650766E7850786E779011
:1001000076907880609E76808DEF10F0D9CFE6FFF4
:10011000E1CFD9FFF70E0F012015206FBF0E216F21
:10012000600E226F080E256F26690E011151E8241A
:100130003E0B0F01276FFB0EDBCF16F0FC0EDBCF63
:1001400017F0060ED89016361736E804FBE1C00EFD
:100150001616000E17160F01275100011610146E07
:1001600017C015F014C027FFFB0EDBCF14F0FC0EF8
:10017000DBCF15F0D89015321432D89015321432E6
:1001800014500F01266FFD0EDBCF14F0FE0EDBCFF7
:1001900015F0070ED89014361536E804FBE1800EF2
:1001A00014140F01296FFA0EDB50080DF3502913B8
:1001B000FD0EDBCF14F0FE0EDBCF15F0D89015321C
:1001C00014321450286FFD0EDBCF14F0FE0EDBCF7F
:1001D00015F015C014F0156AD8901432010E1414DD
:1001E00027132C6B2D6B080E2011206FE552E7CFE3
:1001F000D9FF1200D9CFE6FFE1CFD9FF020EE126E9
:100200000E0107510201E25D01E158D10E01146BAC
:10021000156B166B176BDF6A3C0EDF5C1AE2EA6A3D
:10022000DF34FE0BEA36E96E6A0EE926020EEA2298
:10023000EECF14F0EFCF15F0000114500E0114278B
:10024000000115500E011523000E16231723DF2A77
:10025000E3D714CE04F015CE05F016CE06F017CE77
:1002600007F04EEC11F005C018F006C019F007C0F9
:100270001AF008C01BF00A6A0B6AC80E0C6E420E18
:100280000D6E18C005F019C006F01AC007F01BC0AB
:1002900008F051EC12F005C014F006C015F007C0CC
:1002A00016F008C017F00A6A0B6A960E0C6E430E21
:1002B0000D6E14C005F015C006F016C007F017C08B
:1002C00008F0FEEC11F0BEEC12F006C00CFE07C008
:1002D0000DFE3C0E0301B25D71E2B251E96EEA6AB5
:1002E000D890E936EA36E30EE926020EEA220CCE71
:1002F000EEFF0DCEEDFF0E01186B196B1A6B1B6B29
:10030000010EDB6A0301B251F36E010EDBCFF4FF85
:10031000F350F45C1CE2010EEA6ADB34FE0BEA36B1
:10032000E96EE30EE926020EEA22EECF14F0EFCFDB
:1003300015F0000114500E011827000115500E0190
:100340001923000E1A231B23010EDB2ADBD718CE3C
:1003500004F019CE05F01ACE06F01BCE07F04EECD5
:1003600011F005C014F006C015F007C016F008C063
:1003700017F0B2C307F026EC11F005C018F006C064
:1003800019F007C01AF008C01BF018C00AF019C015
:100390000BF01AC00CF01BC00DF014C005F015C016
:1003A00006F016C007F017C008F0FEEC11F0BEEC26
:1003B00012F006C0AEF307C0AFF378D03C0EB26FB8
:1003C0000CCE18FE0DCE19FE0E011A6B1B6B010E22
:1003D000DB6A3B0EF36E010EDBCFF4FFF350F45CEF
:1003E00039E2010EEA6ADB34FE0BEA36E96EE30E0F
:1003F000E926020EEA22EECF14F0EFCF15F000014D
:1004000014500E011827000115500E011923000E7B
:100410001A231B23010EDB28E96EEA6AD890E9361D
:10042000EA36E30EE926020EEA22EECF14F0EFCF11
:1004300015F0010EEA6ADB34FE0BEA36E96EE30ED4
:10044000E926020EEA2214C0EEFF15C0EDFF010EF0
:10045000DB2ABFD70CCE59F30DCE5AF318CE04F0D9
:1004600019CE05F01ACE06F01BCE07F04EEC11F0B7
:1004700005C014F006C015F007C016F008C017F04C
:100480000A6A0B6A700E0C6E420E0D6E14C005F0F7
:1004900015C006F016C007F017C008F0FEEC11F00A
:1004A000BEEC12F006C0AEF307C0AFF30301B22BEF
:1004B000AEC30CFEAFC30DFE07CEE2F20E01880EF6
:1004C0000C5D130E0D5904E3880E0C6F130E0D6FA7
:1004D000020EE15C02E2E16AE552E16EE552E7CF2D
:1004E000D9FF1200D9CFE6FFE1CFD9FF040EE126F4
:1004F0000CCE0EFE0DCE0FFE0E01640ED8800E55F2
:10050000000E0F552BE30ECE06F00FCE07F037ECA2
:1005100011F005C014F006C015F007C016F008C0B1
:1005200017F00A6A0B6A200E0C6E420E0D6E14C094
:1005300005F015C006F016C007F017C008F051EC22
:1005400012F0EDEC12F004C0DEFF05C0DEFF06C0C5
:10055000DEFF07C0DDFFDD52DD527DD3820ED88085
:100560000E55000E0F5543E30ECE06F00FCE07F0EA
:1005700037EC11F005C018F006C019F007C01AF0EA
:1005800008C01BF00A6A0B6A040E0C6E420E0D6E58
:1005900018C005F019C006F01AC007F01BC008F01B
:1005A00051EC12F005C014F006C015F007C016F0AB
:1005B00008C017F00A6A0B6A2F0E0C6E440E0D6EFF
:1005C00014C005F015C006F016C007F017C008F0FB
:1005D00068EC11F0EDEC12F004C0DEFF05C0DEFFA8
:1005E00006C0DEFF07C0DDFFDD52DD5234D3E60E6C
:1005F000D8800E55000E0F5544E30ECE06F00FCEF8
:1006000007F037EC11F005C018F006C019F007C06C
:100610001AF008C01BF00A6A0B6A200E0C6E410E1D
:100620000D6E18C005F019C006F01AC007F01BC007
:1006300008F051EC12F005C014F006C015F007C028
:1006400016F008C017F00A6A400E0B6E670E0C6EAB
:10065000450E0D6E14C005F015C006F016C007F06B
:1006600017C008F068EC11F0EDEC12F004C0DEFFEA
:1006700005C0DEFF06C0DEFF07C0DDFFDD52DD5234
:10068000EAD2CC0ED8800E55010E0F5544E30ECEA3
:1006900006F00FCE07F037EC11F005C018F006C0D9
:1006A00019F007C01AF008C01BF00A6A0B6A800E26
:1006B0000C6E400E0D6E18C005F019C006F01AC081
:1006C00007F01BC008F051EC12F005C014F006C092
:1006D00015F007C016F008C017F00A6A400E0B6E3E
:1006E0009C0E0C6E450E0D6E14C005F015C006F084
:1006F00016C007F017C008F068EC11F0EDEC12F02E
:1007000004C0DEFF05C0DEFF06C0DEFF07C0DDFF60
:10071000DD52DD52A0D2440ED8800E55020E0F5588
:1007200043E30ECE06F00FCE07F037EC11F005C014
:1007300018F006C019F007C01AF008C01BF00A6ACA
:100740000B6A880E0C6E410E0D6E18C005F019C0B4
:1007500006F01AC007F01BC008F051EC12F005C0FB
:1007600014F006C015F007C016F008C017F00A6AAA
:100770000B6A2F0E0C6E440E0D6E14C005F015C0E2
:1007800006F016C007F017C008F067EC11F0EDECAA
:1007900012F004C0DEFF05C0DEFF06C0DEFF07C0AA
:1007A000DDFFDD52DD5257D25C0ED8800E55030EB0
:1007B0000F5543E30ECE06F00FCE07F037EC11F0E5
:1007C00005C018F006C019F007C01AF008C01BF0E9
:1007D0000A6A0B6A300E0C6E410E0D6E18C005F0E1
:1007E00019C006F01AC007F01BC008F051EC12F057
:1007F00005C014F006C015F007C016F008C017F0C9
:100800000A6A0B6A2F0E0C6E450E0D6E14C005F0B1
:1008100015C006F016C007F017C008F068EC11F01C
:10082000EDEC12F004C0DEFF05C0DEFF06C0DEFF07
:1008300007C0DDFFDD52DD520ED2B00ED8800E555E
:10084000040E0F5543E30ECE06F00FCE07F037EC43
:1008500011F005C018F006C019F007C01AF008C062
:100860001BF00A6A0B6A900E0C6E410E0D6E18C0DA
:1008700005F019C006F01AC007F01BC008F051ECD3
:1008800012F005C014F006C015F007C016F008C03D
:1008900017F00A6A0B6A480E0C6E450E0D6E14C0F6
:1008A00005F015C006F016C007F017C008F067EC99
:1008B00011F0EDEC12F004C0DEFF05C0DEFF06C053
:1008C000DEFF07C0DDFFDD52DD52C5D16E0ED880E0
:1008D0000E55050E0F5544E30ECE06F00FCE07F071
:1008E00037EC11F005C018F006C019F007C01AF077
:1008F00008C01BF00A6A0B6A7C0E0C6E420E0D6E6D
:1009000018C005F019C006F01AC007F01BC008F0A7
:1009100051EC12F005C014F006C015F007C016F037
:1009200008C017F00A6AC80E0B6E610E0C6E470EF7
:100930000D6E14C005F015C006F016C007F017C004
:1009400008F067EC11F0EDEC12F004C0DEFF05C01A
:10095000DEFF06C0DEFF07C0DDFFDD52DD527BD1CA
:10096000900ED8800E55060E0F5544E30ECE06F0BD
:100970000FCE07F037EC11F005C018F006C019F0E3
:1009800007C01AF008C01BF00A6A0B6A500E0C6E02
:10099000420E0D6E18C005F019C006F01AC007F01F
:1009A0001BC008F051EC12F005C014F006C015F0A1
:1009B00007C016F008C017F00A6AAC0E0B6E230EC3
:1009C0000C6E470E0D6E14C005F015C006F016C073
:1009D00007F017C008F067EC11F0EDEC12F004C05E
:1009E000DEFF05C0DEFF06C0DEFF07C0DDFFDD5213
:1009F000DD5231D19E0ED8800E55070E0F5544E3BF
:100A00000ECE06F00FCE07F037EC11F005C018F04F
:100A100006C019F007C01AF008C01BF00A6A0B6A7A
:100A20008C0E0C6E420E0D6E18C005F019C006F04B
:100A30001AC007F01BC008F051EC12F005C014F00A
:100A400006C015F007C016F008C017F00A6AF80EC5
:100A50000B6E8E0E0C6E470E0D6E14C005F015C099
:100A600006F016C007F017C008F067EC11F0EDECC7
:100A700012F004C0DEFF05C0DEFF06C0DEFF07C0C7
:100A8000DDFFDD52DD52E7D0980ED8800E55080EFE
:100A90000F5544E30ECE06F00FCE07F037EC11F001
:100AA00005C018F006C019F007C01AF008C01BF006
:100AB0000A6A0B6A800E0C6E420E0D6E18C005F0AD
:100AC00019C006F01AC007F01BC008F051EC12F074
:100AD00005C014F006C015F007C016F008C017F0E6
:100AE0000A6A800E0B6E6D0E0C6E470E0D6E14C0F2
:100AF00005F015C006F016C007F017C008F067EC47
:100B000011F0EDEC12F004C0DEFF05C0DEFF06C000
:100B1000DEFF07C0DDFFDD52DD529DD0380ED880EC
:100B20000E55090E0F5544E30ECE06F00FCE07F01A
:100B300037EC11F005C018F006C019F007C01AF024
:100B400008C01BF00A6A0B6AC80E0C6E420E0D6ECE
:100B500018C005F019C006F01AC007F01BC008F055
:100B600051EC12F005C014F006C015F007C016F0E5
:100B700008C017F00A6AB80E0B6E080E0C6E480E0D
:100B80000D6E14C005F015C006F016C007F017C0B2
:100B900008F067EC11F0EDEC12F004C0DEFF05C0C8
:100BA000DEFF06C0DEFF07C0DDFFDD52DD5253D0A1
:100BB000C40ED8800E55090E0F5544E30ECE06F034
:100BC0000FCE07F037EC11F005C018F006C019F091
:100BD00007C01AF008C01BF00A6A0B6A080E0C6EF8
:100BE000430E0D6E18C005F019C006F01AC007F0CC
:100BF0001BC008F051EC12F005C014F006C015F04F
:100C000007C016F008C017F00A6A0B0E0B6E5B0ED9
:100C10000C6E480E0D6E14C005F015C006F016C01F
:100C200007F017C008F067EC11F0EDEC12F004C00B
:100C3000DEFF05C0DEFF06C0DEFF07C0DDFFDD52C0
:100C4000DD5209D0C00EDE6ED40EDE6E010EDE6EF9
:100C5000DD6ADD52DD52D9CFE9FFDACFEAFFD88075
:100C6000C00EEE54D40EEE54010EEE54000EEE54AF
:100C700009E2C00EDE6ED40EDE6E010EDE6EDD6A9F
:100C8000DD52DD52D9CFE9FFDACFEAFFEECF04F033
:100C9000EECF05F0EECF06F0EFCF07F0640E096E51
:100CA0000A6A0B6A0C6AF9EC13F004C008FE05C06E
:100CB00009FE0A0E0B6E0C6A0ECE06F00FCE07F080
:100CC0001DEC14F006C00EFE07C00FFE040EE15C22
:100CD00002E2E16AE552E16EE552E7CFD9FF120088
:100CE0000E012251085D146E09512355156E1450E2
:100CF000151005E122CE0AFE23CE0BFE42D008518C
:100D0000225D095123591FE22251085D1C6F2351B6
:100D100009591D6F0A0E0B6E0C6A1CCE06F01DCE13
:100D200007F01DEC14F006C01CFE07C01DFE010EEE
:100D30000E011C27000E1D2322511C250A6F235172
:100D40001D210B6F1ED00851225D1C6F09512359C4
:100D50001D6F0A0E0B6E0C6A1CCE06F01DCE07F03E
:100D60001DEC14F006C01CFE07C01DFE010E0E0196
:100D70001C27000E1D231C51225D0A6F1D51235993
:100D80000B6FFF0E0A5D030E0B5903E30A69030E96
:100D90000B6F320ED8800A55000E0B5521E313510C
:100DA000010803E3010E126F1AD0020E135D12E167
:100DB0002D0ED8800A55000E0B5503E3010E126F5D
:100DC00008D02D0ED8800A55000E0B5502E2020EF7
:100DD000126F05D01351020802E21305126F59D1A8
:100DE000640ED8800A55000E0B5502E2000E01D0A9
:100DF000010E146E330E0A5D000E0B5902E2000E56
:100E000001D0010E141436E01351010812E3370E1D
:100E1000D8800A55000E0B5503E3010E126F08D05F
:100E2000370ED8800A55000E0B5502E2020E126FE3
:100E300020D0020E135D03E1020E126F1AD0030ED2
:100E4000135D12E15F0ED8800A55000E0B5503E3C7
:100E5000020E126F08D05F0ED8800A55000E0B5597
:100E600002E2030E126F05D01351030802E21305CC
:100E7000126F0FD1960ED8800A55000E0B5502E264
:100E8000000E01D0010E146E650E0A5D000E0B59A6
:100E900002E2000E01D0010E14143CE013510108CF
:100EA00003E31329126F35D0020E135D12E1690EB0
:100EB000D8800A55000E0B5503E3020E126F08D0BE
:100EC000690ED8800A55000E0B5502E2030E126F10
:100ED00020D0030E135D03E1030E126F1AD0040E2F
:100EE000135D12E1910ED8800A55000E0B5503E3F5
:100EF000030E126F08D0910ED8800A55000E0B55C4
:100F000002E2040E126F05D01351040802E2130529
:100F1000126FBFD0C80ED8800A55000E0B5502E2E2
:100F2000000E01D0010E146E970E0A5D000E0B59D3
:100F300002E2000E01D0010E14143CE0135102082D
:100F400003E31329126F35D0030E135D12E19B0EDC
:100F5000D8800A55000E0B5503E3030E126F08D01C
:100F60009B0ED8800A55000E0B5502E2040E126F3C
:100F700020D0040E135D03E1040E126F1AD0050E8B
:100F8000135D12E1C30ED8800A55000E0B5503E322
:100F9000040E126F08D0C30ED8800A55000E0B55F0
:100FA00002E2050E126F05D01351050802E2130587
:100FB000126F6FD02C0ED8800A55010E0B5502E22D
:100FC000000E01D0010E146EC90E0A5D000E0B5901
:100FD00002E2000E01D0010E141436E01351030892
:100FE00003E31329126F2FD0040E135D12E1CD0E0F
:100FF000D8800A55000E0B5503E3040E126F08D07B
:10100000CD0ED8800A55000E0B5502E2050E126F68
:101010001AD0050E135D03E1050E126F14D0060EF3
:10102000135D11E1270ED8800A55010E0B5503E31D
:10103000050E126F08D0270ED8800A55010E0B55E9
:1010400002E2060E126F25D02D0E0A5D010E0B591D
:1010500020E31351040803E31329126F1AD0050E7D
:10106000135D12E1310ED8800A55010E0B5503E3D2
:10107000050E126F08D0310ED8800A55010E0B559F
:1010800002E2060E126F05D0060E135D02E1060E97
:10109000126F060E125D02E3060E126F1200DACF17
:1010A000E4FFE2CFDAFFE9CFE4FFEACFE4FFE65264
:1010B0009EA031D09E90F80ECF6E4C0ECE6E0E01DB
:1010C0000451051104E00407000E055B1ED0F40E68
:1010D000046F010E056F106F072B3C0E075D01E3D7
:1010E000076B0751E96EEA6AD890E936EA366A0E6C
:1010F000E926020EEA2202CEEEFF03CEEDFF026BDE
:10110000036B0301AB2B000EAC230E01060503E1BC
:10111000022B000E0323F2A009D0F29081BA04D072
:101120000E01010E066F02D00E01066B77A005D0EE
:101130000E01010E246F7790609EE552E5CFEAFF25
:10114000E5CFE9FFE5CFDAFF11000E01250501E04B
:10115000A4D008510001605D176E61510E01095560
:10116000186E050ED8801754000E185402E2000EB7
:1011700001D0010E166E08510001605D146E6151C0
:101180000E010955156E000ED8801454000E15542A
:1011900002E3000E01D0010E161412E00001050E4C
:1011A000D8806055000E61550AE260C008FE61C03B
:1011B00009FE0E01050E085F000E095B00D000D08D
:1011C0000E0108510001605D0E01095100016159D5
:1011D00063E260510E01085D146E09510001615512
:1011E000156E030E145C000E15580DE20E01030E71
:1011F000D8800855000E095505E2030E085F000E61
:10120000095B00D048D060510E01085D176E09518E
:1012100000016155186E0F0ED8801754000E185437
:1012200002E2000E01D0010E166E60510E01085D43
:10123000146E095100016155156E030E145C000E09
:10124000155802E2000E01D0010E161411E00E0135
:10125000080ED8800855000E095505E2080E085FF3
:10126000000E095B04D060C008FE61C009FE13D007
:1012700060510E01085D146E095100016155156E33
:101280000F0ED8801454000E155405E20E010F0EF7
:10129000085F000E095B00D000D01200D9CFE6FF36
:1012A000E1CFD9FF040EE1268288010EDB6A020E2F
:1012B000DB6A0E01F40E046F010E056F0C6B0D6BF3
:1012C000086B096B226B236B0A6B0B6B0E6B0F6B3E
:1012D000206B216B066B026B036BABC3B0F3ACC32B
:1012E000B1F3106B126B136B0001606B616B0E013D
:1012F000256B0EEC00F010EC00F020EC00F02FEC71
:1013000000F01BEC00F01AEC0AF0DAEC0AF063ECE7
:101310000CF08DEC10F093EC10F08298010ED16E71
:101320008182B1EC0AF0030E02C5DBFFFAEC00F09B
:1013300072EC02F097EC10F008DFD2DC030E02C56D
:10134000DBFF0501520502E0000E01D0010E146E14
:101350000501020502E0000E01D0010E0E0110157C
:1013600014145AE00301AD2BAD053FE10E01112B22
:1013700011511D0801E2116BD950010FE96EDACF4E
:10138000EAFF020ED880EE54000EED5413E3010E76
:10139000E76EDBCF14F0020EDBCF15F0E75014261A
:1013A000000E1522010E14C0DBFF020E15C0DBFF7C
:1013B0000A6B0B6B12CEE6FF0ACEE6FF0BCEE6FF02
:1013C0000ECEE6FF0FCEE6FF86EC00F0146E050EA3
:1013D000E15E14500ACE22FE0BCE23FE0ECE20FE7E
:1013E0000FCE21FE12CE13FE15D0020EAD5D12E11E
:1013F00013CEE6FF22CEE6FF23CEE6FF20CEE6FFA9
:1014000021CEE6FF86EC00F0146E050EE15E14506E
:101410000301AD6B0E01106B030E02C5DBFF80D71D
:10142000040EE15C02E2E16AE552E16EE552E7CFCB
:04143000D9FF1200CE
:0C1434000F01589BC26A300EC16EA00E62
:10144000C06E9E9C9D9C5D6B5C6B5D695C6B1200CD
:10145000D9CFE6FFE1CFD9FF020EE126FE0EDB5029
:10146000C26EC280DE6ADD6ADECF14F0DDCF15F019
:10147000320E145C000E155806E20000DF2A010E41
:1014800001E3DB2AF1D7C282C2B2FED7C450166E86
:10149000176A16C017F0166AC35000011624146E9E
:1014A000000E1720156E14C0DEFF15C0DDFFC290C0
:1014B000D9CFE9FFDACFEAFF020E0F0B06E0EC52BC
:1014C000D890ED32EF32E806FAE1DECF14F0DDCF4E
:1014D00015F014C0F3FF15C0F4FF00D0020EE15C5C
:1014E00002E2E16AE552E16EE552E7CFD9FF120070
:1014F000D9CFE6FFE1CFD9FFFE0EDB50040806E1AD
:1015000053C5F3FF54C5F4FF0ED00DD0FE0EDB50D3
:10151000030806E103C5F3FF04C5F4FF04D003D0BC
:10152000F36AF46A00D0E552E7CFD9FF1200D9CFB1
:10153000E6FFE1CFD9FFFE0EDB50040804E1050110
:1015400052510BD00AD0FE0EDB50030804E1050116
:10155000025103D002D0000E00D0E552E7CFD9FFF0
:1015600012002FD86AEF0CF0D9CFE6FFE1CFD9FFF8
:10157000FD0EDBCF14F0FE0EDBCF15F014C0F3FF31
:1015800015C0F4FF00D0E552E7CFD9FF1200D9CF44
:10159000E6FFE1CFD9FFFD0EDBCF14F0FE0EDBCF6F
:1015A00015F014C0F3FF15C0F4FF00D0E552E7CFEB
:1015B000D9FF12000501010E016F026F3C0E096F89
:1015C0001200D9CFE6FFE1CFD9FF050EE126E66A8A
:1015D0003FDFE552F3CFDEFFF4CFDDFFDECFE6FFE6
:1015E000DDCFE6FFC1DFE552E552020EF3CFDBFFB0
:1015F000030EF4CFDBFF0501015140E0016B010E4A
:10160000026F3C0E096F900E0A6F010E0B6F900E69
:101610000C6F010E0D6F106B116B126B136B146B53
:10162000040EDB6A1E0EF36E040EDBCFF4FFF350E4
:10163000F45C24E2040EEA6ADB34FE0BEA36E96E5F
:10164000150EE926050EEA22020EDBCFEEFF030E91
:10165000DBCFEDFF020EDBCF14F0030EDBCF15F076
:101660000001145005011027000115500501112338
:10167000000E12231323040EDB2AD4D71451E96E73
:10168000EA6AD890E936EA36150EE926050EEA220E
:10169000EECF14F0EFCF15F0166A176A1450105FF2
:1016A0001550115B1650125B1750135B020EDBCF07
:1016B00014F0030EDBCF15F00001145005011027C4
:1016C0000001155005011123000E1223132314519C
:1016D000E96EEA6AD890E936EA36150EE926050E73
:1016E000EA22020EDBCFEEFF030EDBCFEDFF142963
:1016F000146E1E0E156E15C00CF014C007F051ECE0
:1017000014F003C014F51E0E146E156A10C506F011
:1017100011C507F014C00BF015C00CF01DEC14F04F
:10172000020E06C0DBFF030E07C0DBFF020EDBCF9D
:1017300003F5030EDBCF04F5040EDB6ADB500CE08F
:101740000501010E026F900E0A6F010E0B6F900ED5
:101750000C6F010E0D6FADD005010251030A01E1BE
:101760007DD0010A51E0030A03E0010E026FA1D00F
:10177000140ED8800355030E04551CE20951146E53
:10178000156A0A51145C0B51155808E20951146E80
:10179000156A14500A5F15500B5B02D00A6B0B6B75
:1017A0000A510B1106E1030E026F200E0E6F030E9D
:1017B0000F6F04D0900E0A6F010E0B6FFB0E035DCE
:1017C000000E04591CE20951146E156A0C51145C88
:1017D0000D51155808E20951146E156A14500C5F2A
:1017E00015500D5B02D00C6B0D6B0C510D1106E109
:1017F000020E026F200E0E6F030E0F6F04D0900EBC
:101800000C6F010E0D6F55D0100E035D010E0459C3
:1018100020E30951146E156A0E51145C0F511558CE
:1018200008E20951146E156A14500E5F15500F5BD3
:1018300002D00E6B0F6B0E510F110AE1010E026FF9
:10184000900E0A6F010E0B6F900E0C6F010E0D6F54
:1018500004D0200E0E6F030E0F6F2BD0FE0ED8801B
:101860000355020E045520E30951146E156A0E51FA
:10187000145C0F51155808E20951146E156A145082
:101880000E5F15500F5B02D00E6B0F6B0E510F11D8
:101890000AE1010E026F900E0A6F010E0B6F900E9F
:1018A0000C6F010E0D6F04D0200E0E6F030E0F6F24
:1018B00000D0050EE15C02E2E16AE552E16EE5521C
:1018C000E7CFD9FF12000501010E516F526F3C0E98
:1018D000596F1200D9CFE6FFE1CFD9FF050EE126FF
:1018E000040EE66EB5DDE552F3CFDEFFF4CFDDFF8B
:1018F000DECFE6FFDDCFE6FF4ADEE552E552020E1F
:10190000F3CFDBFF030EF4CFDBFF0501515140E0C5
:10191000516B010E526F3C0E596F900E5A6F010EB3
:101920005B6F900E5C6F010E5D6F606B616B626B45
:10193000636B646B040EDB6A1E0EF36E040EDBCF6A
:10194000F4FFF350F45C24E2040EEA6ADB34FE0B8D
:10195000EA36E96E650EE926050EEA22020EDBCFB5
:10196000EEFF030EDBCFEDFF020EDBCF14F0030E14
:10197000DBCF15F000011450050160270001155060
:1019800005016123000E62236323040EDB2AD4D7F2
:101990006451E96EEA6AD890E936EA36650EE926BE
:1019A000050EEA22EECF14F0EFCF15F0166A176A93
:1019B0001450605F1550615B1650625B1750635B9B
:1019C000020EDBCF14F0030EDBCF15F00001145034
:1019D000050160270001155005016123000E6223F7
:1019E00063236451E96EEA6AD890E936EA36650EF7
:1019F000E926050EEA22020EDBCFEEFF030EDBCF57
:101A0000EDFF6429146E1E0E156E15C00CF014C087
:101A100007F051EC14F003C064F51E0E146E156A45
:101A200060C506F061C507F014C00BF015C00CF0DE
:101A30001DEC14F0020E06C0DBFF030E07C0DBFF37
:101A4000020EDBCF53F5030EDBCF54F5040EDB6A39
:101A5000DB500CE00501010E526F900E5A6F010E23
:101A60005B6F900E5C6F010E5D6FADD00501525142
:101A7000030A01E17DD0010A51E0030A03E0010EEF
:101A8000526FA1D0140ED8805355030E54551CE24A
:101A90005951146E156A5A51145C5B51155808E27D
:101AA0005951146E156A14505A5F15505B5B02D081
:101AB0005A6B5B6B5A515B1106E1030E526F200E9D
:101AC0005E6F030E5F6F04D0900E5A6F010E5B6F56
:101AD000FB0E535D000E54591CE25951146E156AE9
:101AE0005C51145C5D51155808E25951146E156A29
:101AF00014505C5F15505D5B02D05C6B5D6B5C519C
:101B00005D1106E1020E526F200E5E6F030E5F6FD5
:101B100004D0900E5C6F010E5D6F55D0100E535DBA
:101B2000010E545920E35951146E156A5E51145C2C
:101B30005F51155808E25951146E156A14505E5FD2
:101B400015505F5B02D05E6B5F6B5E515F110AE107
:101B5000010E526F900E5A6F010E5B6F900E5C6F0C
:101B6000010E5D6F04D0200E5E6F030E5F6F2BD0F1
:101B7000FE0ED8805355020E545520E35951146E71
:101B8000156A5E51145C5F51155808E25951146E84
:101B9000156A14505E5F15505F5B02D05E6B5F6B21
:101BA0005E515F110AE1010E526F900E5A6F010EE5
:101BB0005B6F900E5C6F010E5D6F04D0200E5E6F48
:101BC000030E5F6F00D0050EE15C02E2E16AE552B0
:0A1BD000E16EE552E7CFD9FF1200E5
:061BDA00D9CFE6FFE1CFC8
:101BE000D9FFFE0EDBCF69F2E552E7CFD9FF120035
:101BF000D9CFE6FFE1CFD9FFE652FE0EDB500E084B
:101C000005E163C0DFFFDF5004D003D0DF6ADF509F
:101C100000D0E552E552E7CFD9FF1200D9CFE6FF59
:101C2000E1CFD9FF020EE1266150DE6EDD6ADECF24
:101C300016F0DDCF17F016C017F0166A62500001DB
:101C40001624146E000E1720156E14C0DEFF15C08A
:101C5000DDFF62B637D0DECF14F0DDCF15F0050E14
:101C6000D89015321432E804FBE1166A176A68C08E
:101C7000E9FF69C0EAFF040ED890E936EA36E806C3
:101C8000FBE1870EE926000EEA2214C0EEFF15C024
:101C9000EEFF16C0EEFF17C0EEFF68C0E9FF69C097
:101CA000EAFF040ED890E936EA36E806FBE1870E33
:101CB000E926000EEA22040EE926000EEA22EE6A68
:101CC000ED6A15D068C0E9FF69C0EAFF040ED8903C
:101CD000E936EA36E806FBE1870EE926000EEA223D
:101CE000040EE926000EEA22010EEE6EED6A0F0EDA
:101CF0006514E66E68C0E9FF69C0EAFF040ED8907B
:101D0000E936EA36E806FBE1870EE926000EEA220C
:101D1000060EE926000EEA22E552E750EE6EED6A65
:101D200068C0E9FF69C0EAFF040ED890E936EA36D8
:101D3000E806FBE1870EE926000EEA22080EE926F6
:101D4000000EEA2266CFEFFF68C0E9FF69C0EAFF34
:101D5000040ED890E936EA36E806FBE1870EE9265C
:101D6000000EEA22080EE926000EEA22010EE926FC
:101D7000000EEA2267CFEFFF68C0E9FF69C0EAFF03
:101D8000040ED890E936EA36E806FBE1870EE9262C
:101D9000000EEA22080EE926000EEA22020EE926CB
:101DA000000EEA2268CFEFFF68C0E9FF69C0EAFFD2
:101DB000040ED890E936EA36E806FBE1870EE926FC
:101DC000000EEA22080EE926000EEA22030EE9269A
:101DD000000EEA2269CFEFFF68C0E9FF69C0EAFFA1
:101DE000040ED890E936EA36E806FBE1870EE926CC
:101DF000000EEA22080EE926000EEA22040EE92669
:101E0000000EEA226ACFEFFF68C0E9FF69C0EAFF6F
:101E1000040ED890E936EA36E806FBE1870EE9269B
:101E2000000EEA22080EE926000EEA22050EE92637
:101E3000000EEA226BCFEFFF68C0E9FF69C0EAFF3E
:101E4000040ED890E936EA36E806FBE1870EE9266B
:101E5000000EEA22080EE926000EEA22060EE92606
:101E6000000EEA226CCFEFFF68C0E9FF69C0EAFF0D
:101E7000040ED890E936EA36E806FBE1870EE9263B
:101E8000000EEA22080EE926000EEA22070EE926D5
:101E9000000EEA226DCFEFFF010E00016825686F8A
:101EA000000E6921696F1E0E0B6E0C6A68C006F089
:101EB00069C007F01DEC14F002C068F003C069F0BF
:101EC000020EE15C02E2E16AE552E16EE552E7CF23
:101ED000D9FF120000016851661902E169516719C2
:101EE00001E117D166C0E9FF67C0EAFF040ED89090
:101EF000E936EA36E806FBE1870EE926000EEA221B
:101F0000EECF77F0EECF78F0EECF79F0EFCF7AF03A
:101F100066C0E9FF67C0EAFF040ED890E936EA36EA
:101F2000E806FBE1870EE926000EEA22040EE92608
:101F3000000EEA22EECF7BF0EDCF7CF066C0E9FF29
:101F400067C0EAFF040ED890E936EA36E806FBE1FE
:101F5000870EE926000EEA22060EE926000EEA2286
:101F6000EECF7DF0EDCF7EF066C0E9FF67C0EAFFFF
:101F7000040ED890E936EA36E806FBE1870EE9263A
:101F8000000EEA22080EE926000EEA22EFCF7FF0CB
:101F900066C0E9FF67C0EAFF040ED890E936EA366A
:101FA000E806FBE1870EE926000EEA22080EE92684
:101FB000000EEA22010EE926000EEA22EFCF80F0A1
:101FC00066C0E9FF67C0EAFF040ED890E936EA363A
:101FD000E806FBE1870EE926000EEA22080EE92654
:101FE000000EEA22020EE926000EEA22EFCF81F06F
:101FF00066C0E9FF67C0EAFF040ED890E936EA360A
:10200000E806FBE1870EE926000EEA22080EE92623
:10201000000EEA22030EE926000EEA22EFCF82F03C
:1020200066C0E9FF67C0EAFF040ED890E936EA36D9
:10203000E806FBE1870EE926000EEA22080EE926F3
:10204000000EEA22040EE926000EEA22EFCF83F00A
:1020500066C0E9FF67C0EAFF040ED890E936EA36A9
:10206000E806FBE1870EE926000EEA22080EE926C3
:10207000000EEA22050EE926000EEA22EFCF84F0D8
:1020800066C0E9FF67C0EAFF040ED890E936EA3679
:10209000E806FBE1870EE926000EEA22080EE92693
:1020A000000EEA22060EE926000EEA22EFCF85F0A6
:1020B00066C0E9FF67C0EAFF040ED890E936EA3649
:1020C000E806FBE1870EE926000EEA22080EE92663
:1020D000000EEA22070EE926000EEA22EFCF86F074
:1020E000010E00016625666F000E6721676F1E0EE8
:1020F0000B6E0C6A66C006F067C007F01DEC14F0AA
:1021000002C066F003C067F0010EF36EF46A04D0FB
:1021100003D0F36AF46A00D012000001666B676BAB
:10212000686B696B12000001010E6A6F1200D9CF53
:10213000E6FFE1CFD9FF020EE1260E01240555E1AD
:102140006DDDDE6ADD6ADECF14F0DDCF15F0140E32
:10215000145C000E155847E2BDDEF3CF14F0F4CF47
:1021600015F0145015103AE000017B517C1135E157
:10217000770EE96E000EEA6EFC0EEE1806E1050E13
:10218000EE1803E1EE5001E1EE5001E025D0580ECB
:10219000716F020E726F010E706F70C025FE3E0EE1
:1021A0008015E8407F0B626F060E156EE00E8015FD
:1021B00015C0E7FFE75204E0E8427F0BE706FCE1C9
:1021C000146E040E00017F03F3501424606F616BE2
:1021D000E66A03DDE55200D000D000D0DF2A010E10
:1021E00001E3DB2AB0D70E01246B0001715172119B
:1021F00004E00A0E715F000E725B715172110DE105
:10220000700506E1020E706F010EE66EE6DCE55227
:102210000001580E716F020E726F05D00001580E4A
:10222000716F020E726F70C063F070510E01255D08
:1022300002E0000E01D0010E020EE15C02E2E16A52
:0C224000E552E16EE552E7CFD9FF120035
:04224C000F9E05D00C
:102250000F9E07AE02D0076C0F8E07C001F0006A18
:10226000136A126A860E026E036A40EF13F00F9E25
:1022700008D00F9E07AE05D0066C071EE86A07223D
:102280000F8E07C001F006C000F0136A126A8E0EAE
:10229000026E036A40EF13F00F9E0CD00F9E07AE44
:1022A00009D0046C051E061E071EE86A05220622D8
:1022B00007220F8E07C001F006C000F005C013F022
:1022C00004C012F09E0E026E036A40EF13F00D7E02
:1022D0000F6A7CEC13F094EC13F00FB624EF13F0BC
:1022E0000FA20AD00FAA03D00FBE24EF13F00FA441
:1022F00030EF13F02DEF13F00FAA05D00FAC30EF35
:1023000013F02DEF13F00FA00AD00FA808D00FBEC6
:1023100004D00FA402D039EF13F03DEF13F0126A8E
:10232000036A0D50085C116E10E305C013F006C07F
:1023300000F007C001F008C010F00AC005F00BC0A3
:1023400006F00CC007F00F3A09D00AC013F00BC01A
:1023500000F00CC001F00DC010F0116C0F9E0FBC0E
:102360000F8E10C002F00FB06CEF13F01A0E116058
:102370006CEF13F0026A086A0FA408D0056C061E01
:10238000071E081EE86A0622072208220FAC08D0A2
:10239000136C001E011E021EE86A002201220222A6
:1023A000046A115207E0083407320632053204325B
:1023B000112EF9D70550132606500022075001228E
:1023C0000850022204C012F00F9E02AE0BD0126C15
:1023D000131E001E011E021EE86A132200220122A3
:1023E00002220F8E02A006D0D880013200321332B2
:1023F0001232102A10C002F040EF13F00F6A7CEC8A
:1024000013F094EC13F00FB624EF13F00FA205D0E5
:102410000FBA24EF13F02BEF13F00FBA37EF13F0CE
:102420000FA005D00FB824EF13F037EF13F00FB85B
:102430002BEF13F0036A7F0E0824026EE86A032272
:102440000D50025EE86A035A1A0E106E086A126A8C
:10245000136A006A016A0A50055E0B50065A0C5056
:10246000075A000E085A09E70A5005260B500622A3
:102470000C500722000E082201D0128AD89005368F
:10248000063607360836D89012361336003601362F
:10249000102EE1D7075006100510D8A4128A40EF7D
:1024A00013F00F6A7CEC13F094EC13F00FB624EFEA
:1024B00013F00FA205D00FB824EF13F02BEF13F099
:1024C0000FAA05D00FB024EF13F02BEF13F00FB0CD
:1024D00002D00FA802D037EF13F0036A0D50082482
:1024E000026EE86A03227E0E025EE86A035A126AEE
:1024F000136A006A016A0C500702F4CF01F0F3CFAF
:1025000000F00B500702F3501326F4500022000E87
:1025100001220C500602F3501326F4500022000E44
:1025200001220A500702F3501226F4501322000E23
:10253000002201220B500602F3501226F4501322FF
:10254000000E002201220C500502F3501226F45016
:102550001322000E002201220A500602F450122615
:10256000000E1322002201220B500502F450122605
:10257000000E13220022012240EF13F00F6A7CECC0
:1025800013F00FB6C8EF12F00FA20ED00FB405D0A3
:102590007F0E076EFF0E066E1FD0800E076E066A56
:1025A0001BD0076A066A18D00FB0FBD78F0E0860E1
:1025B000EDD77E0E0864F5D78E0E085C05E0D89046
:1025C00007320632082AF8D70FA406D0066C071E79
:1025D000E86A072207AEE5D712000F6A7CEC13F019
:1025E0000FB6F7EF12F00FA20FD00FB407D07F0E87
:1025F000076EFF0E066E056E046E25D0800E076E08
:1026000001D0076A000EF6D70FB0FBD7046A9F0E01
:102610000860EBD77E0E0864F4D79E0E085C07E0D6
:10262000D8900732063205320432082AF6D70FA4B2
:102630000AD0046C051E061E071EE86A0522062243
:10264000072207AEDED712007F0E086EFF0E076E60
:10265000066E056E12007F0E0FBEFF0E086E02D0D2
:102660007F0E086E800E076E066A056AF3D70FAEFE
:1026700004D0800E086E076AF7D7086A076AF4D795
:102680000150001013101210F8E003BEF0D701BE85
:102690000CD002500310EBE0D890123613360036FF
:1026A00001360206D8A00306F2D70350D4E102286F
:1026B000D2E012AE11D07F0E121402E113A00CD0A2
:1026C000132AE86A0022012207E3D880013200328F
:1026D0001332022A0228BFE00250C9E013C005F0FD
:1026E00000C006F00134076E0230086E0732089E03
:1026F0000FBE088E2AEF13F00736083602E30F8468
:102700000F7E06E10F80086A076A066A056A1200F2
:10271000082803E0D88007321200D890073202E17F
:102720000F8212000F8612000C360D3602E30F8C5A
:102730000F7E06E10F880D6A0C6A0B6A0A6A1200A6
:102740000D2803E0D8800C321200D8900C32EAE158
:042750000F8A1200DA
:0C2754000E0EF66E000EF76E000EF86E12
:102760000E010900F5502B6F0900F5502C6F03E1A5
:102770002B6701D03DD00900F550266F0900F550B8
:10278000276F0900F550286F09000900F550E96E20
:102790000900F550EA6E090009000900F550296F9B
:1027A0000900F5502A6F09000900F6CF2DFEF7CF7A
:1027B0002EFEF8CF2FFE26CEF6FF27CEF7FF28CE2F
:1027C000F8FF0E01295302E12A5307E00900F550F2
:1027D000EE6E2907F8E22A07F9D72DCEF6FF2ECEA6
:1027E000F7FF2FCEF8FF0E012B07000E2C5BBFD793
:0227F0001200D5
:0E27F200036A026A016A006A200EE76ED89040
:1028000004360536063607360036013602360336FC
:102810000950005C0A5001580B5002580C500358E4
:1028200009E30950005E0A50015A0B50025A0C503D
:0A283000035A042AE72EE4D7120031
:06283A00036A026A100EA1
:10284000E76ED89006360736023603360B50025C28
:102850000C50035805E30B50025E0C50035A062A35
:06286000E72EF0D7120084
:0A286600410EF36E00EE00F00E0EBE
:1028700001D81200EA6002D0EE6AFCD7F350E9609A
:062880001200EE6AFCD715
:0A2886001DEE00F02DEE00F0F86AE0
:102890000F9CAAEC13F003EC00F04EEC09F0FBD710
:0228A000120024
:0E28A200036A080EE76ED890073603360C5016
:0E28B000035C02E3036E072AE72EF7D712003F
:0228BE00000018
:1028C0000000000000000000000000000000000008
:1028D00000000000000000000000000000000000F8
:1028E00000000000000000000000000000000000E8
:1028F00000000000000000000000000000000000D8
:1029000000000000000000000000000000000000C7
:1029100000000000000000000000000000000000B7
:1029200000000000000000000000000000000000A7
:102930000000000000000B0000000000000000008C
:102940000000000000000000000000000000000087
:102950000000000000000000000000000000000077
:102960000000000000000000000000000000000067
:102970000000000000000000000000000000000057
:102980000000000000000000000000000000000047
:102990000000000000000000000000000000000037
:1029A0000000000000000000000000000000000027
:1029B0000000000000000000000000000000000017
:1029C0000000000000000000000000000000000007
:1029D00000000000000000000000000000000000F7
:1029E00000000000000000000000000000000000E7
:1029F00000000000000000000000000000000000D7
:072A000000000000000000CF
:020000040030CA
:0100000011EE
:01000100C33B
:0100020027D6
:010003002CD0
:010005008872
:010006009069
:010008000FE8
:01000900C036
:01000A000FE6
:01000B00E014
:01000C000FE4
:01000D0040B2
:00000001FF
